{
  "contractName": "AccessSecretRegistry",
  "abi": [
    {
      "inputs": [
        {
          "internalType": "address[]",
          "name": "_players",
          "type": "address[]"
        },
        {
          "internalType": "uint256",
          "name": "_nonce",
          "type": "uint256"
        },
        {
          "internalType": "uint256",
          "name": "_timeout",
          "type": "uint256"
        },
        {
          "internalType": "bytes32",
          "name": "_did",
          "type": "bytes32"
        },
        {
          "internalType": "address",
          "name": "_didRegistryAddress",
          "type": "address"
        }
      ],
      "payable": false,
      "stateMutability": "nonpayable",
      "type": "constructor"
    },
    {
      "anonymous": false,
      "inputs": [
        {
          "indexed": false,
          "internalType": "uint256",
          "name": "seq",
          "type": "uint256"
        }
      ],
      "name": "IntendSettle",
      "type": "event"
    },
    {
      "anonymous": false,
      "inputs": [
        {
          "indexed": false,
          "internalType": "bytes32",
          "name": "did",
          "type": "bytes32"
        }
      ],
      "name": "settedDID",
      "type": "event"
    },
    {
      "constant": true,
      "inputs": [],
      "name": "getSeqNum",
      "outputs": [
        {
          "internalType": "uint256",
          "name": "",
          "type": "uint256"
        }
      ],
      "payable": false,
      "stateMutability": "view",
      "type": "function"
    },
    {
      "constant": true,
      "inputs": [],
      "name": "getStatus",
      "outputs": [
        {
          "internalType": "enum ISingleSession.AppStatus",
          "name": "",
          "type": "uint8"
        }
      ],
      "payable": false,
      "stateMutability": "view",
      "type": "function"
    },
    {
      "constant": false,
      "inputs": [
        {
          "internalType": "bytes",
          "name": "_stateProof",
          "type": "bytes"
        }
      ],
      "name": "intendSettle",
      "outputs": [],
      "payable": false,
      "stateMutability": "nonpayable",
      "type": "function"
    },
    {
      "constant": true,
      "inputs": [
        {
          "internalType": "bytes",
          "name": "_query",
          "type": "bytes"
        }
      ],
      "name": "isFinalized",
      "outputs": [
        {
          "internalType": "bool",
          "name": "",
          "type": "bool"
        }
      ],
      "payable": false,
      "stateMutability": "view",
      "type": "function"
    },
    {
      "constant": true,
      "inputs": [
        {
          "internalType": "bytes",
          "name": "_query",
          "type": "bytes"
        }
      ],
      "name": "getOutcome",
      "outputs": [
        {
          "internalType": "bool",
          "name": "",
          "type": "bool"
        }
      ],
      "payable": false,
      "stateMutability": "view",
      "type": "function"
    },
    {
      "constant": false,
      "inputs": [
        {
          "internalType": "bytes32",
          "name": "_did",
          "type": "bytes32"
        },
        {
          "internalType": "address",
          "name": "_didRegistryAddress",
          "type": "address"
        }
      ],
      "name": "setDID",
      "outputs": [],
      "payable": false,
      "stateMutability": "nonpayable",
      "type": "function"
    },
    {
      "constant": true,
      "inputs": [
        {
          "internalType": "int8",
          "name": "_key",
          "type": "int8"
        }
      ],
      "name": "getDID",
      "outputs": [
        {
          "internalType": "bytes32",
          "name": "",
          "type": "bytes32"
        }
      ],
      "payable": false,
      "stateMutability": "view",
      "type": "function"
    },
    {
      "constant": true,
      "inputs": [
        {
          "internalType": "bytes32",
          "name": "_did",
          "type": "bytes32"
        }
      ],
      "name": "getKeyDID",
      "outputs": [
        {
          "internalType": "int8",
          "name": "",
          "type": "int8"
        }
      ],
      "payable": false,
      "stateMutability": "view",
      "type": "function"
    },
    {
      "constant": true,
      "inputs": [
        {
          "internalType": "address",
          "name": "_grantee",
          "type": "address"
        },
        {
          "internalType": "bytes32",
          "name": "_documentId",
          "type": "bytes32"
        }
      ],
      "name": "checkPermissions",
      "outputs": [
        {
          "internalType": "bool",
          "name": "permissionGranted",
          "type": "bool"
        }
      ],
      "payable": false,
      "stateMutability": "view",
      "type": "function"
    },
    {
      "constant": true,
      "inputs": [],
      "name": "getOwner",
      "outputs": [
        {
          "internalType": "address",
          "name": "",
          "type": "address"
        }
      ],
      "payable": false,
      "stateMutability": "view",
      "type": "function"
    },
    {
      "constant": true,
      "inputs": [],
      "name": "getGrantee",
      "outputs": [
        {
          "internalType": "address",
          "name": "",
          "type": "address"
        }
      ],
      "payable": false,
      "stateMutability": "view",
      "type": "function"
    }
  ],
  "bytecode": "0x60806040523480156200001157600080fd5b506040516200194438038062001944833981810160405260a08110156200003757600080fd5b81019080805160405193929190846401000000008211156200005857600080fd5b9083019060208201858111156200006e57600080fd5b82518660208202830111640100000000821117156200008c57600080fd5b82525081516020918201928201910280838360005b83811015620000bb578181015183820152602001620000a1565b50505050919091016040908152602083810151918401516060850151608090950151600084905588519397509095509250869186918691849184918491620001099160019186019062000554565b506003555050600060028190556005805460ff191690556008805460ff60a01b1916905588516001600160a01b038616945063ae28129c93508992506200014c57fe5b6020026020010151846040518363ffffffff1660e01b815260040180836001600160a01b03166001600160a01b031681526020018281526020019250505060206040518083038186803b158015620001a357600080fd5b505afa158015620001b8573d6000803e3d6000fd5b505050506040513d6020811015620001cf57600080fd5b50511515600114156200025a5784600081518110620001ea57fe5b6020026020010151600760006101000a8154816001600160a01b0302191690836001600160a01b03160217905550846001815181106200022657fe5b6020026020010151600860006101000a8154816001600160a01b0302191690836001600160a01b03160217905550620002d3565b846001815181106200026857fe5b6020026020010151600760006101000a8154816001600160a01b0302191690836001600160a01b0316021790555084600081518110620002a457fe5b6020026020010151600860006101000a8154816001600160a01b0302191690836001600160a01b031602179055505b620002e882826001600160e01b03620002f316565b5050505050620005e8565b6007546001600160a01b03163314806200031757506008546001600160a01b031633145b6200038357604080517f08c379a000000000000000000000000000000000000000000000000000000000815260206004820152601e60248201527f6d73672e73656e646572206973206e6f74206368616e6e656c20706565720000604482015290519081900360640190fd5b604080517fae28129c0000000000000000000000000000000000000000000000000000000081523360048201526024810184905290516001600160a01b0383169163ae28129c916044808301926020929190829003018186803b158015620003ea57600080fd5b505afa158015620003ff573d6000803e3d6000fd5b505050506040513d60208110156200041657600080fd5b50516200048457604080517f08c379a000000000000000000000000000000000000000000000000000000000815260206004820152601a60248201527f6d73672e73656e646572206973206e6f74206469644f776e6572000000000000604482015290519081900360640190fd5b600880547401000000000000000000000000000000000000000090819004600090810b810b810b8152600a60209081526040808320879055845487845260098352818420805460ff191660ff92879004860b860b8316179055600b835281842080546001600160a01b0319166001600160a01b038916179055855460ff60a01b19811690869004850b60010190940b1690930291909117909255805184815290517f7d44b25fd6d4132d83a1465807dba2e4d186b2232c437362264911e45117ca81929181900390910190a15050565b828054828255906000526020600020908101928215620005ac579160200282015b82811115620005ac57825182546001600160a01b0319166001600160a01b0390911617825560209092019160019091019062000575565b50620005ba929150620005be565b5090565b620005e591905b80821115620005ba5780546001600160a01b0319168155600101620005c5565b90565b61134c80620005f86000396000f3fe608060405234801561001057600080fd5b50600436106100a95760003560e01c8063a48568a411610071578063a48568a4146101aa578063b36a9a7c146101b2578063b49e2631146101f2578063bcdbda941461021e578063e4ab6d681461028e578063ea4ba8eb146102c4576100a9565b8063130d33fe146100ae5780634e69d560146101205780636d15c4571461014c5780638180743014610166578063893d20e814610186575b600080fd5b61011e600480360360208110156100c457600080fd5b8101906020810181356401000000008111156100df57600080fd5b8201836020820111156100f157600080fd5b8035906020019184600183028401116401000000008311171561011357600080fd5b509092509050610334565b005b61012861053a565b6040518082600281111561013857fe5b60ff16815260200191505060405180910390f35b610154610543565b60408051918252519081900360200190f35b6101546004803603602081101561017c57600080fd5b503560000b610549565b61018e610562565b604080516001600160a01b039092168252519081900360200190f35b61018e610571565b6101de600480360360408110156101c857600080fd5b506001600160a01b038135169060200135610580565b604080519115158252519081900360200190f35b61011e6004803603604081101561020857600080fd5b50803590602001356001600160a01b03166105b2565b6101de6004803603602081101561023457600080fd5b81019060208101813564010000000081111561024f57600080fd5b82018360208201111561026157600080fd5b8035906020019184600183028401116401000000008311171561028357600080fd5b5090925090506107af565b6102ab600480360360208110156102a457600080fd5b50356107d7565b60408051600092830b90920b8252519081900360200190f35b6101de600480360360208110156102da57600080fd5b8101906020810181356401000000008111156102f557600080fd5b82018360208201111561030757600080fd5b8035906020019184600183028401116401000000008311171561032957600080fd5b5090925090506107eb565b61033c6112bb565b61037b83838080601f01602080910402602001604051908101604052809392919081815260200183838082843760009201919091525061089592505050565b905061038f816000015182602001516109ec565b6103d4576040805162461bcd60e51b8152602060048201526011602482015270696e76616c6964207369676e617475726560781b604482015290519081900360640190fd5b6103dc6112d5565b81516103e790610ac8565b600054815191925014610433576040805162461bcd60e51b815260206004820152600f60248201526e0dcdedcc6ca40dcdee840dac2e8c6d608b1b604482015290519081900360640190fd5b60208101516002541061048d576040805162461bcd60e51b815260206004820152601760248201527f696e76616c69642073657175656e6365206e756d626572000000000000000000604482015290519081900360640190fd5b60208101516002556005805460ff19166001179055600354430160045560408101516104b890610b8d565b6104ff576040805162461bcd60e51b81526020600482015260136024820152721cdd185d19481d5c19185d194819985a5b1959606a1b604482015290519081900360640190fd5b60025460408051918252517fce68db27527c6058059e8cbd1c6de0528ef1c417fe1c21c545919c7da3466d2a9181900360200190a150505050565b60055460ff1690565b60025490565b600081810b810b8152600a60205260409020545b919050565b6007546001600160a01b031690565b6008546001600160a01b031690565b60008181526006602090815260408083206001600160a01b038616845290915290205460ff1615156001145b92915050565b6007546001600160a01b03163314806105d557506008546001600160a01b031633145b610626576040805162461bcd60e51b815260206004820152601e60248201527f6d73672e73656e646572206973206e6f74206368616e6e656c20706565720000604482015290519081900360640190fd5b60408051632b8a04a760e21b81523360048201526024810184905290516001600160a01b0383169163ae28129c916044808301926020929190829003018186803b15801561067357600080fd5b505afa158015610687573d6000803e3d6000fd5b505050506040513d602081101561069d57600080fd5b50516106f0576040805162461bcd60e51b815260206004820152601a60248201527f6d73672e73656e646572206973206e6f74206469644f776e6572000000000000604482015290519081900360640190fd5b60088054600160a01b90819004600090810b810b810b8152600a60209081526040808320879055845487845260098352818420805460ff191660ff92879004860b860b8316179055600b835281842080546001600160a01b0319166001600160a01b038916179055855460ff60a01b19811690869004850b60010190940b1690930291909117909255805184815290517f7d44b25fd6d4132d83a1465807dba2e4d186b2232c437362264911e45117ca81929181900390910190a15050565b600081156107bc57600080fd5b600260055460ff1660028111156107cf57fe5b149392505050565b600090815260096020526040812054900b90565b600060018214610839576040805162461bcd60e51b81526020600482015260146024820152730d2dcecc2d8d2c840e2eacae4f240d8cadccee8d60631b604482015290519081900360640190fd5b60008383600081811061084857fe5b919091013560f81c600090810b810b8152600a60209081526040808320548352600682528083206008546001600160a01b0316845290915290205460ff1615156001149250505092915050565b61089d6112bb565b6108a56112fd565b6108ae83610dc2565b905060606108c382600263ffffffff610de716565b9050806002815181106108d257fe5b602002602001015160405190808252806020026020018201604052801561090d57816020015b60608152602001906001900390816108f85790505b50836020018190525060008160028151811061092557fe5b6020026020010181815250506000805b61093e84610e77565b156109e35761094c84610e83565b9092509050816001141561096a5761096384610eb0565b85526109de565b81600214156109ce5761097c84610eb0565b85602001518460028151811061098e57fe5b6020026020010151815181106109a057fe5b6020026020010181905250826002815181106109b857fe5b60209081029190910101805160010190526109de565b6109de848263ffffffff610f3d16565b610935565b50505050919050565b600154815160009114610a46576040805162461bcd60e51b815260206004820152601c60248201527f696e76616c6964206e756d626572206f66207369676e61747572657300000000604482015290519081900360640190fd5b6060610a5484846000610f9e565b905060005b600154811015610abd57818181518110610a6f57fe5b60200260200101516001600160a01b031660006001018281548110610a9057fe5b6000918252602090912001546001600160a01b031614610ab5576000925050506105ac565b600101610a59565b506001949350505050565b610ad06112d5565b610ad86112fd565b610ae183610dc2565b90506000805b610af083610e77565b15610b8557610afe83610e83565b90925090508160011415610b1c57610b1583611149565b8452610b80565b8160021415610b3857610b2e83611149565b6020850152610b80565b8160031415610b5457610b4a83610eb0565b6040850152610b80565b8160041415610b7057610b6683611149565b6060850152610b80565b610b80838263ffffffff610f3d16565b610ae7565b505050919050565b60008151600114610bdc576040805162461bcd60e51b81526020600482015260146024820152730d2dcecc2d8d2c840e6e8c2e8ca40d8cadccee8d60631b604482015290519081900360640190fd5b6007546001600160a01b0316331480610bff57506008546001600160a01b031633145b610c50576040805162461bcd60e51b815260206004820152601e60248201527f6d73672e73656e646572206973206e6f74206368616e6e656c20706565720000604482015290519081900360640190fd5b600082600081518110610c5f57fe5b016020015160085460f89190911c9150600160a01b9004600090810b810b9082900b128015610c92575060008160000b12155b80610ca157508060000b600019145b80610cb057508060000b600119145b610cf1576040805162461bcd60e51b815260206004820152600d60248201526c696e76616c696420737461746560981b604482015290519081900360640190fd5b8060000b6000191415610d4e5760078054600880546001600160a01b03198084166001600160a01b038381169190911790955516929091169182179055600580546000919060ff19166001835b021790555060019250505061055d565b8060000b6001191415610d6e5750506005805460ff19169055600161055d565b600081810b810b8152600a6020908152604080832054808452600683528184206008546001600160a01b031685529092529091208054600160ff199182168117909255600580546002939192169083610d3e565b610dca6112fd565b6001825111610dd857600080fd5b60208101919091526000815290565b815160408051600184018082526020808202830101909252606092918015610e19578160200160208202803883390190505b5091506000805b610e2986610e77565b15610e6e57610e3786610e83565b80925081935050506001848381518110610e4d57fe5b602002602001018181510191508181525050610e698682610f3d565b610e20565b50509092525090565b60208101515190511090565b6000806000610e9184611149565b9050600881049250806007166005811115610ea857fe5b915050915091565b60606000610ebd83611149565b8351602085015151919250820190811115610ed757600080fd5b816040519080825280601f01601f191660200182016040528015610f02576020820181803883390190505b50602080860151865192955091818601919083010160005b85811015610f32578181015183820152602001610f1a565b505050935250919050565b6000816005811115610f4b57fe5b1415610f6057610f5a82611149565b50610f9a565b6002816005811115610f6e57fe5b14156100a9576000610f7f83611149565b835181018085526020850151519192501115610f5a57600080fd5b5050565b6060808351604051908082528060200260200182016040528015610fcc578160200160208202803883390190505b5090506000611047866040516020018082805190602001908083835b602083106110075780518252601f199092019160209182019101610fe8565b6001836020036101000a038019825116818451168082178552505050505050905001915050604051602081830303815290604052805190602001206111a4565b90506000805b865181101561113d576110738388838151811061106657fe5b60200260200101516111f5565b84828151811061107f57fe5b60200260200101906001600160a01b031690816001600160a01b031681525050851561113557816001600160a01b03168482815181106110bb57fe5b60200260200101516001600160a01b03161161111e576040805162461bcd60e51b815260206004820152601e60248201527f7369676e657273206e6f7420696e20617363656e64696e67206f726465720000604482015290519081900360640190fd5b83818151811061112a57fe5b602002602001015191505b60010161104d565b50919695505050505050565b602080820151825181019091015160009182805b600a81101561119e5783811a91508060070282607f16901b8517945081608016600014156111965785510160010185525061055d915050565b60010161115d565b50600080fd5b604080517f19457468657265756d205369676e6564204d6573736167653a0a333200000000602080830191909152603c8083019490945282518083039094018452605c909101909152815191012090565b60008151604114611208575060006105ac565b60208201516040830151606084015160001a601b81101561122757601b015b8060ff16601b1415801561123f57508060ff16601c14155b1561125057600093505050506105ac565b6040805160008152602080820180845289905260ff8416828401526060820186905260808201859052915160019260a0808401939192601f1981019281900390910190855afa1580156112a7573d6000803e3d6000fd5b5050506020604051035193505050506105ac565b604051806040016040528060608152602001606081525090565b6040518060800160405280600081526020016000815260200160608152602001600081525090565b60405180604001604052806000815260200160608152509056fea265627a7a72315820252948992af7e10da597de4367d6a2ae62efc1b662e5ca86ee224366fba962ee64736f6c634300050c0032",
  "source": "pragma solidity >=0.5.0 <0.6.0;\nimport \"../templates/SingleSessionBooleanOutcome.sol\";\nimport {DIDRegistry} from \"./DIDRegistry.sol\";\nimport \"../templates/ISecretStore.sol\";\n\ncontract AccessSecretRegistry is SingleSessionBooleanOutcome, ISecretStore{\n    mapping(bytes32 => mapping(address => bool)) private documentPermissionsState;\n    address private owner;\n    address private grantee;\n    int8 private key;\n    mapping (bytes32 => int8) private keyList;\n    mapping (int8 => bytes32) private didList;\n    mapping (bytes32 => address) private didRegistryAddressList;\n   \n    constructor(\n        address[] memory _players,\n        uint _nonce, \n        uint _timeout,\n        bytes32 _did,\n        address _didRegistryAddress\n    )\n        public\n        SingleSessionBooleanOutcome(_players, _nonce, _timeout)\n    {\n        key = 0;\n        if (DIDRegistry(_didRegistryAddress).isDIDOwnerOrProvider(_players[0], _did) == true) {\n            owner = _players[0];\n            grantee = _players[1];\n        } else {\n            owner = _players[1];\n            grantee = _players[0];\n        }\n        setDID(_did, _didRegistryAddress);\n    }\n\n    event settedDID(\n        bytes32 did\n    );\n\n    /**\n     *  @notice Get the app outcome\n     *  @param _query Query args _query is key of didList\n     *  @return True if query satisfied\n     */\n    function getOutcome(bytes calldata _query) external view returns (bool) {\n        require(_query.length == 1, \"invalid query length\");\n        int8 query = int8(_query[0]);\n        bytes32 did = didList[query];\n        return documentPermissionsState[did][grantee] == true;\n    }\n\n    /**\n     *  @notice Update state according to an off-chain state proof\n     *  @param _state Signed off-chain app _state is key of didList, -1, -2. When _state is -1, appInfo.status -> IDLE and swap owner and grantee. When _state is -2, appInfo.status -> IDLE.\n     *  @return True if update success\n     */\n    function updateByState(bytes memory _state) internal returns (bool) {\n        require(_state.length == 1, \"invalid state length\");\n        require(msg.sender == owner || msg.sender == grantee, \"msg.sender is not channel peer\");\n        int8 state = int8(_state[0]);\n        require((state < key && state >= 0) || (state == -1) || (state == -2), \"invalid state\");\n\n        if (state == -1) {\n            address x = owner;\n            owner = grantee;\n            grantee = x;\n            appInfo.status = AppStatus.IDLE;\n            return true;\n        } else if (state == -2) {\n            appInfo.status = AppStatus.IDLE;\n            return true;\n        } else {\n            bytes32 did = didList[state];\n            documentPermissionsState[did][grantee] = true;\n            appInfo.status = AppStatus.FINALIZED;\n            return true;\n        }\n    }\n\n    /**\n     *  @notice Set did to didList\n     *  @param _did (bytes32)\n     *  @param _didRegistryAddress (address)\n     */\n    function setDID(bytes32 _did, address _didRegistryAddress) public  {\n        require(msg.sender == owner || msg.sender == grantee, \"msg.sender is not channel peer\");\n        require(DIDRegistry(_didRegistryAddress).isDIDOwnerOrProvider(msg.sender, _did), \"msg.sender is not didOwner\");\n        didList[key] = _did;\n        keyList[_did] = key;\n        didRegistryAddressList[_did] = _didRegistryAddress;\n        key += 1;\n        emit settedDID(_did);\n    }\n\n    /**\n     * @notice get did by key\n     * @param _key (int8)\n     * @return did (bytes32)\n     */\n    function getDID(int8 _key) public view returns (bytes32) {\n        return didList[_key];\n    }\n\n    /**\n     * @notice get key of didList\n     * @param _did (bytes32)\n     * @return key (int8)\n     */\n    function getKeyDID(bytes32 _did) public view returns (int8) {\n        return keyList[_did];\n    }\n\n    /**\n     *  @notice checkPermissions is called by Parity secret store\n     *  @param _documentId refers to the DID in which secret store will issue the decryption keys\n     *  @param _grantee is the address of the granted user of the DID provider\n     *  @return true if the access was granted\n     */\n    function checkPermissions(\n        address _grantee,\n        bytes32 _documentId\n    )\n        external view\n        returns (bool permissionGranted)\n    {\n        return documentPermissionsState[_documentId][_grantee] == true;\n    }\n\n    /**\n     *  @notice Check owner to test.\n     */\n    function getOwner() public view returns (address) {\n        return owner;\n    }\n\n    /**\n     *  @notice Check grantee to test.\n     */\n    function getGrantee() public view returns (address) {\n        return grantee;\n    }\n\n}",
  "sourcePath": "/Users/hashimototatsuki/keeper-layer2/contracts/keeper-layer2/registry/AccessSecretRegistry.sol",
  "compiler": {
    "name": "solc",
    "version": "0.5.12+commit.7709ece9.Emscripten.clang"
  },
  "schemaVersion": "3.0.19",
  "updatedAt": "2020-01-17T02:11:33.510Z",
  "devdoc": {
    "methods": {
      "checkPermissions(address,bytes32)": {
        "params": {
          "_documentId": "refers to the DID in which secret store will issue the decryption keys",
          "_grantee": "is the address of the granted user of the DID provider"
        },
        "return": "true if the access was granted"
      },
      "getDID(int8)": {
        "params": {
          "_key": "(int8)"
        },
        "return": "did (bytes32)"
      },
      "getKeyDID(bytes32)": {
        "params": {
          "_did": "(bytes32)"
        },
        "return": "key (int8)"
      },
      "getOutcome(bytes)": {
        "params": {
          "_query": "Query args _query is key of didList"
        },
        "return": "True if query satisfied"
      },
      "intendSettle(bytes)": {
        "params": {
          "_stateProof": "Serialized off-chain state with signatures"
        }
      },
      "isFinalized(bytes)": {
        "return": "True if app is finalized"
      },
      "setDID(bytes32,address)": {
        "params": {
          "_did": "(bytes32)",
          "_didRegistryAddress": "(address)"
        }
      }
    }
  },
  "userdoc": {
    "methods": {
      "checkPermissions(address,bytes32)": {
        "notice": "checkPermissions is called by Parity secret store"
      },
      "getDID(int8)": {
        "notice": "get did by key"
      },
      "getGrantee()": {
        "notice": "Check grantee to test."
      },
      "getKeyDID(bytes32)": {
        "notice": "get key of didList"
      },
      "getOutcome(bytes)": {
        "notice": "Get the app outcome"
      },
      "getOwner()": {
        "notice": "Check owner to test."
      },
      "getSeqNum()": {
        "notice": "get app sequence number"
      },
      "getStatus()": {
        "notice": "get app status"
      },
      "intendSettle(bytes)": {
        "notice": "Submit and settle off-chain state"
      },
      "isFinalized(bytes)": {
        "notice": "Check if the app is finalized"
      },
      "setDID(bytes32,address)": {
        "notice": "Set did to didList"
      }
    }
  }
}