{
  "contractName": "AccessSecretRegistry",
  "abi": [
    {
      "inputs": [
        {
          "internalType": "address[]",
          "name": "_players1",
          "type": "address[]"
        },
        {
          "internalType": "uint256",
          "name": "_nonce",
          "type": "uint256"
        },
        {
          "internalType": "uint256",
          "name": "_timeout",
          "type": "uint256"
        },
        {
          "internalType": "bytes32",
          "name": "_did",
          "type": "bytes32"
        },
        {
          "internalType": "address",
          "name": "_didRegistryAddress",
          "type": "address"
        }
      ],
      "payable": false,
      "stateMutability": "nonpayable",
      "type": "constructor"
    },
    {
      "anonymous": false,
      "inputs": [
        {
          "indexed": false,
          "internalType": "uint256",
          "name": "seq",
          "type": "uint256"
        }
      ],
      "name": "IntendSettle",
      "type": "event"
    },
    {
      "anonymous": false,
      "inputs": [
        {
          "indexed": false,
          "internalType": "bytes32",
          "name": "did",
          "type": "bytes32"
        },
        {
          "indexed": false,
          "internalType": "address",
          "name": "grantee",
          "type": "address"
        }
      ],
      "name": "grantPermissionState",
      "type": "event"
    },
    {
      "constant": true,
      "inputs": [],
      "name": "getSeqNum",
      "outputs": [
        {
          "internalType": "uint256",
          "name": "",
          "type": "uint256"
        }
      ],
      "payable": false,
      "stateMutability": "view",
      "type": "function"
    },
    {
      "constant": true,
      "inputs": [],
      "name": "getSettleFinalizedTime",
      "outputs": [
        {
          "internalType": "uint256",
          "name": "",
          "type": "uint256"
        }
      ],
      "payable": false,
      "stateMutability": "view",
      "type": "function"
    },
    {
      "constant": true,
      "inputs": [],
      "name": "getStatus",
      "outputs": [
        {
          "internalType": "enum ISingleSession.AppStatus",
          "name": "",
          "type": "uint8"
        }
      ],
      "payable": false,
      "stateMutability": "view",
      "type": "function"
    },
    {
      "constant": false,
      "inputs": [
        {
          "internalType": "bytes",
          "name": "_stateProof",
          "type": "bytes"
        }
      ],
      "name": "intendSettle",
      "outputs": [],
      "payable": false,
      "stateMutability": "nonpayable",
      "type": "function"
    },
    {
      "constant": true,
      "inputs": [
        {
          "internalType": "bytes",
          "name": "_query",
          "type": "bytes"
        }
      ],
      "name": "isFinalized",
      "outputs": [
        {
          "internalType": "bool",
          "name": "",
          "type": "bool"
        }
      ],
      "payable": false,
      "stateMutability": "view",
      "type": "function"
    },
    {
      "constant": true,
      "inputs": [
        {
          "internalType": "bytes",
          "name": "_query",
          "type": "bytes"
        }
      ],
      "name": "getOutcome",
      "outputs": [
        {
          "internalType": "bool",
          "name": "",
          "type": "bool"
        }
      ],
      "payable": false,
      "stateMutability": "view",
      "type": "function"
    },
    {
      "constant": true,
      "inputs": [
        {
          "internalType": "address",
          "name": "_grantee",
          "type": "address"
        },
        {
          "internalType": "bytes32",
          "name": "_documentId",
          "type": "bytes32"
        }
      ],
      "name": "checkPermissions",
      "outputs": [
        {
          "internalType": "bool",
          "name": "permissionGranted",
          "type": "bool"
        }
      ],
      "payable": false,
      "stateMutability": "view",
      "type": "function"
    }
  ],
  "bytecode": "0x60806040523480156200001157600080fd5b506040516200135438038062001354833981810160405260a08110156200003757600080fd5b81019080805160405193929190846401000000008211156200005857600080fd5b9083019060208201858111156200006e57600080fd5b82518660208202830111640100000000821117156200008c57600080fd5b82525081516020918201928201910280838360005b83811015620000bb578181015183820152602001620000a1565b505050509190910160409081526020838101519184015160608501516080909501516000849055885193975090955092508691869186918491849184916200010991600191860190620001b5565b506003555050600060028190556005805460ff191690558851899450909250151590506200013357fe5b6020026020010151600760006101000a8154816001600160a01b0302191690836001600160a01b03160217905550846001815181106200016f57fe5b6020908102919091010151600880546001600160a01b03199081166001600160a01b0393841617909155600993909355600a805490931691161790555062000249915050565b8280548282559060005260206000209081019282156200020d579160200282015b828111156200020d57825182546001600160a01b0319166001600160a01b03909116178255602090920191600190910190620001d6565b506200021b9291506200021f565b5090565b6200024691905b808211156200021b5780546001600160a01b031916815560010162000226565b90565b6110fb80620002596000396000f3fe608060405234801561001057600080fd5b506004361061007d5760003560e01c8063b36a9a7c1161005b578063b36a9a7c1461013a578063b71ca01f1461017a578063bcdbda9414610182578063ea4ba8eb146101f25761007d565b8063130d33fe146100825780634e69d560146100f45780636d15c45714610120575b600080fd5b6100f26004803603602081101561009857600080fd5b8101906020810181356401000000008111156100b357600080fd5b8201836020820111156100c557600080fd5b803590602001918460018302840111640100000000831117156100e757600080fd5b509092509050610262565b005b6100fc6104c7565b6040518082600281111561010c57fe5b60ff16815260200191505060405180910390f35b6101286104d1565b60408051918252519081900360200190f35b6101666004803603604081101561015057600080fd5b506001600160a01b0381351690602001356104d7565b604080519115158252519081900360200190f35b610128610509565b6101666004803603602081101561019857600080fd5b8101906020810181356401000000008111156101b357600080fd5b8201836020820111156101c557600080fd5b803590602001918460018302840111640100000000831117156101e757600080fd5b509092509050610533565b6101666004803603602081101561020857600080fd5b81019060208101813564010000000081111561022357600080fd5b82018360208201111561023557600080fd5b8035906020019184600183028401116401000000008311171561025757600080fd5b50909250905061055b565b600260055460ff16600281111561027557fe5b14156102c1576040805162461bcd60e51b8152602060048201526016602482015275185c1c081cdd185d19481a5cc8199a5b985b1a5e995960521b604482015290519081900360640190fd5b6102c961106a565b61030883838080601f01602080910402602001604051908101604052809392919081815260200183838082843760009201919091525061061592505050565b905061031c8160000151826020015161076c565b610361576040805162461bcd60e51b8152602060048201526011602482015270696e76616c6964207369676e617475726560781b604482015290519081900360640190fd5b610369611084565b815161037490610848565b6000548151919250146103c0576040805162461bcd60e51b815260206004820152600f60248201526e0dcdedcc6ca40dcdee840dac2e8c6d608b1b604482015290519081900360640190fd5b60208101516002541061041a576040805162461bcd60e51b815260206004820152601760248201527f696e76616c69642073657175656e6365206e756d626572000000000000000000604482015290519081900360640190fd5b60208101516002556005805460ff19166001179055600354430160045560408101516104459061090d565b61048c576040805162461bcd60e51b81526020600482015260136024820152721cdd185d19481d5c19185d194819985a5b1959606a1b604482015290519081900360640190fd5b60025460408051918252517fce68db27527c6058059e8cbd1c6de0528ef1c417fe1c21c545919c7da3466d2a9181900360200190a150505050565b60055460ff165b90565b60025490565b60008181526006602090815260408083206001600160a01b038616845290915290205460ff1615156001145b92915050565b6000600160055460ff16600281111561051e57fe5b141561052d57506004546104ce565b50600090565b6000811561054057600080fd5b600260055460ff16600281111561055357fe5b149392505050565b600081156105a7576040805162461bcd60e51b81526020600482015260146024820152730d2dcecc2d8d2c840e2eacae4f240d8cadccee8d60631b604482015290519081900360640190fd5b60095460009081526006602090815260408083206007546001600160a01b0316845290915290205460ff1615156001148061060e575060095460009081526006602090815260408083206008546001600160a01b0316845290915290205460ff1615156001145b9392505050565b61061d61106a565b6106256110ac565b61062e83610b71565b9050606061064382600263ffffffff610b9616565b90508060028151811061065257fe5b602002602001015160405190808252806020026020018201604052801561068d57816020015b60608152602001906001900390816106785790505b5083602001819052506000816002815181106106a557fe5b6020026020010181815250506000805b6106be84610c26565b15610763576106cc84610c32565b909250905081600114156106ea576106e384610c5f565b855261075e565b816002141561074e576106fc84610c5f565b85602001518460028151811061070e57fe5b60200260200101518151811061072057fe5b60200260200101819052508260028151811061073857fe5b602090810291909101018051600101905261075e565b61075e848263ffffffff610cec16565b6106b5565b50505050919050565b6001548151600091146107c6576040805162461bcd60e51b815260206004820152601c60248201527f696e76616c6964206e756d626572206f66207369676e61747572657300000000604482015290519081900360640190fd5b60606107d484846000610d4d565b905060005b60015481101561083d578181815181106107ef57fe5b60200260200101516001600160a01b03166000600101828154811061081057fe5b6000918252602090912001546001600160a01b03161461083557600092505050610503565b6001016107d9565b506001949350505050565b610850611084565b6108586110ac565b61086183610b71565b90506000805b61087083610c26565b156109055761087e83610c32565b9092509050816001141561089c5761089583610ef8565b8452610900565b81600214156108b8576108ae83610ef8565b6020850152610900565b81600314156108d4576108ca83610c5f565b6040850152610900565b81600414156108f0576108e683610ef8565b6060850152610900565b610900838263ffffffff610cec16565b610867565b505050919050565b6000815160011461095c576040805162461bcd60e51b81526020600482015260146024820152730d2dcecc2d8d2c840e6e8c2e8ca40d8cadccee8d60631b604482015290519081900360640190fd5b6007546001600160a01b031633148061097f57506008546001600160a01b031633145b6109d0576040805162461bcd60e51b815260206004820152601e60248201527f6d73672e73656e646572206973206e6f74206368616e6e656c20706565720000604482015290519081900360640190fd5b6000826000815181106109df57fe5b016020015160f81c905060018114806109f6575080155b610a3e576040805162461bcd60e51b815260206004820152601460248201527307374617465206d7573742062652031206f7220360641b604482015290519081900360640190fd5b600a5460075460095460408051632b8a04a760e21b81526001600160a01b039384166004820152602481019290925251600093929092169163ae28129c91604480820192602092909190829003018186803b158015610a9c57600080fd5b505afa158015610ab0573d6000803e3d6000fd5b505050506040513d6020811015610ac657600080fd5b505115610adf57506008546001600160a01b0316610aed565b506007546001600160a01b03165b8160011415610b2b5760095460009081526006602090815260408083206001600160a01b03851684529091529020805460ff19166001179055610b59565b60095460009081526006602090815260408083206001600160a01b03851684529091529020805460ff191690555b50506005805460ff191660021790555060015b919050565b610b796110ac565b6001825111610b8757600080fd5b60208101919091526000815290565b815160408051600184018082526020808202830101909252606092918015610bc8578160200160208202803883390190505b5091506000805b610bd886610c26565b15610c1d57610be686610c32565b80925081935050506001848381518110610bfc57fe5b602002602001018181510191508181525050610c188682610cec565b610bcf565b50509092525090565b60208101515190511090565b6000806000610c4084610ef8565b9050600881049250806007166005811115610c5757fe5b915050915091565b60606000610c6c83610ef8565b8351602085015151919250820190811115610c8657600080fd5b816040519080825280601f01601f191660200182016040528015610cb1576020820181803883390190505b50602080860151865192955091818601919083010160005b85811015610ce1578181015183820152602001610cc9565b505050935250919050565b6000816005811115610cfa57fe5b1415610d0f57610d0982610ef8565b50610d49565b6002816005811115610d1d57fe5b141561007d576000610d2e83610ef8565b835181018085526020850151519192501115610d0957600080fd5b5050565b6060808351604051908082528060200260200182016040528015610d7b578160200160208202803883390190505b5090506000610df6866040516020018082805190602001908083835b60208310610db65780518252601f199092019160209182019101610d97565b6001836020036101000a03801982511681845116808217855250505050505090500191505060405160208183030381529060405280519060200120610f53565b90506000805b8651811015610eec57610e2283888381518110610e1557fe5b6020026020010151610fa4565b848281518110610e2e57fe5b60200260200101906001600160a01b031690816001600160a01b0316815250508515610ee457816001600160a01b0316848281518110610e6a57fe5b60200260200101516001600160a01b031611610ecd576040805162461bcd60e51b815260206004820152601e60248201527f7369676e657273206e6f7420696e20617363656e64696e67206f726465720000604482015290519081900360640190fd5b838181518110610ed957fe5b602002602001015191505b600101610dfc565b50919695505050505050565b602080820151825181019091015160009182805b600a811015610f4d5783811a91508060070282607f16901b851794508160801660001415610f4557855101600101855250610b6c915050565b600101610f0c565b50600080fd5b604080517f19457468657265756d205369676e6564204d6573736167653a0a333200000000602080830191909152603c8083019490945282518083039094018452605c909101909152815191012090565b60008151604114610fb757506000610503565b60208201516040830151606084015160001a601b811015610fd657601b015b8060ff16601b14158015610fee57508060ff16601c14155b15610fff5760009350505050610503565b6040805160008152602080820180845289905260ff8416828401526060820186905260808201859052915160019260a0808401939192601f1981019281900390910190855afa158015611056573d6000803e3d6000fd5b505050602060405103519350505050610503565b604051806040016040528060608152602001606081525090565b6040518060800160405280600081526020016000815260200160608152602001600081525090565b60405180604001604052806000815260200160608152509056fea265627a7a723158204d3b9da576031ad5f909b2a1d3e6a5f55d820c65e9996c41621788532759f29f64736f6c634300050c0032",
  "source": "pragma solidity >=0.5.0 <0.6.0;\nimport \"../templates/SingleSessionBooleanOutcome.sol\";\nimport {DIDRegistry} from \"./DIDRegistry.sol\";\nimport \"../templates/ISecretStore.sol\";\n\ncontract AccessSecretRegistry is SingleSessionBooleanOutcome, ISecretStore{\n    mapping(bytes32 => mapping (address => bool)) private documentPermissionsState;\n    address player1;\n    address player2;\n    bytes32 did;\n    address didRegistryAddress;\n\n    constructor(\n        address[] memory _players1,\n        uint _nonce,\n        uint _timeout,\n        bytes32 _did,\n        address _didRegistryAddress\n    )\n        public\n        SingleSessionBooleanOutcome(_players1, _nonce, _timeout)\n    {\n        player1 = _players1[0];\n        player2 = _players1[1]; \n        did = _did;\n        didRegistryAddress = _didRegistryAddress;\n    }\n\n    event grantPermissionState (\n        bytes32 did,\n        address grantee\n    );\n\n    /**\n        @notice convert bytes to bytes32\n     */\n    function bytesToBytes32(bytes memory b) internal pure returns (bytes32 v) {\n        require(b.length == 32);\n        assembly { v := mload(add(b, 32)) }\n    }\n\n    /**\n     *  @notice Get the app outcome\n     *  @param _query Query args _query = did\n     *  @return True if query satisfied\n     */\n    function getOutcome(bytes calldata _query) external view returns (bool) {\n        require(_query.length == 0, \"invalid query length\");\n        return (documentPermissionsState[did][player1] == true || documentPermissionsState[did][player2] == true);\n    }\n\n    /**\n     *  @notice Update state according to an off-chain state proof\n     *  @param _state Signed off-chain app state 1 or 0\n     *  @return True if update success\n     */\n    function updateByState(bytes memory _state) internal returns (bool) {\n        require(_state.length == 1, \"invalid state length\");\n        require(msg.sender == player1 || msg.sender == player2, \"msg.sender is not channel peer\");\n        uint state = uint8(_state[0]);\n        require(state == 1 || state == 0, \"state must be 1 or 0\");\n        address grantee;\n        if (DIDRegistry(didRegistryAddress).isDIDOwnerOrProvider(player1, did)){\n            grantee = player2;\n        } else {\n            grantee = player1;\n        }\n        if (state == 1) {\n            documentPermissionsState[did][grantee] = true;\n        } else {\n            documentPermissionsState[did][grantee] = false;\n        }\n        appInfo.status = AppStatus.FINALIZED;\n        return true;\n    }\n\n    /**\n     *  @notice checkPermissions is called by Parity secret store\n     *  @param _documentId refers to the DID in which secret store will issue the decryption keys\n     *  @param _grantee is the address of the granted user of the DID provider\n     *  @return true if the access was granted\n     */\n    function checkPermissions(\n        address _grantee,\n        bytes32 _documentId\n    )\n        external view\n        returns (bool permissionGranted)\n    {\n        return documentPermissionsState[_documentId][_grantee] == true;\n    }\n\n}",
  "sourcePath": "/Users/hashimototatsuki/keeper-channel/contracts/keeper-layer2/registry/AccessSecretRegistry.sol",
  "compiler": {
    "name": "solc",
    "version": "0.5.12+commit.7709ece9.Emscripten.clang"
  },
  "schemaVersion": "3.0.19",
  "updatedAt": "2019-12-16T08:07:42.391Z",
  "devdoc": {
    "methods": {
      "checkPermissions(address,bytes32)": {
        "params": {
          "_documentId": "refers to the DID in which secret store will issue the decryption keys",
          "_grantee": "is the address of the granted user of the DID provider"
        },
        "return": "true if the access was granted"
      },
      "getOutcome(bytes)": {
        "params": {
          "_query": "Query args _query = did"
        },
        "return": "True if query satisfied"
      },
      "intendSettle(bytes)": {
        "params": {
          "_stateProof": "Serialized off-chain state with signatures"
        }
      },
      "isFinalized(bytes)": {
        "return": "True if app is finalized"
      }
    }
  },
  "userdoc": {
    "methods": {
      "checkPermissions(address,bytes32)": {
        "notice": "checkPermissions is called by Parity secret store"
      },
      "getOutcome(bytes)": {
        "notice": "Get the app outcome"
      },
      "getSeqNum()": {
        "notice": "get app sequence number"
      },
      "getSettleFinalizedTime()": {
        "notice": "get state settle finalized time"
      },
      "getStatus()": {
        "notice": "get app status"
      },
      "intendSettle(bytes)": {
        "notice": "Submit and settle off-chain state"
      },
      "isFinalized(bytes)": {
        "notice": "Check if the app is finalized"
      }
    }
  }
}