{
  "contractName": "AccessSecretRegistry",
  "abi": [
    {
      "inputs": [
        {
          "internalType": "address[]",
          "name": "_players",
          "type": "address[]"
        },
        {
          "internalType": "uint256",
          "name": "_nonce",
          "type": "uint256"
        },
        {
          "internalType": "uint256",
          "name": "_timeout",
          "type": "uint256"
        },
        {
          "internalType": "bytes32",
          "name": "_did",
          "type": "bytes32"
        },
        {
          "internalType": "address",
          "name": "_didRegistryAddress",
          "type": "address"
        }
      ],
      "payable": false,
      "stateMutability": "nonpayable",
      "type": "constructor"
    },
    {
      "anonymous": false,
      "inputs": [
        {
          "indexed": false,
          "internalType": "uint256",
          "name": "seq",
          "type": "uint256"
        }
      ],
      "name": "IntendSettle",
      "type": "event"
    },
    {
      "anonymous": false,
      "inputs": [
        {
          "indexed": false,
          "internalType": "bytes32",
          "name": "did",
          "type": "bytes32"
        }
      ],
      "name": "settedDID",
      "type": "event"
    },
    {
      "constant": true,
      "inputs": [],
      "name": "getSeqNum",
      "outputs": [
        {
          "internalType": "uint256",
          "name": "",
          "type": "uint256"
        }
      ],
      "payable": false,
      "stateMutability": "view",
      "type": "function"
    },
    {
      "constant": true,
      "inputs": [],
      "name": "getStatus",
      "outputs": [
        {
          "internalType": "enum ISingleSession.AppStatus",
          "name": "",
          "type": "uint8"
        }
      ],
      "payable": false,
      "stateMutability": "view",
      "type": "function"
    },
    {
      "constant": false,
      "inputs": [
        {
          "internalType": "bytes",
          "name": "_stateProof",
          "type": "bytes"
        }
      ],
      "name": "intendSettle",
      "outputs": [],
      "payable": false,
      "stateMutability": "nonpayable",
      "type": "function"
    },
    {
      "constant": true,
      "inputs": [
        {
          "internalType": "bytes",
          "name": "_query",
          "type": "bytes"
        }
      ],
      "name": "isFinalized",
      "outputs": [
        {
          "internalType": "bool",
          "name": "",
          "type": "bool"
        }
      ],
      "payable": false,
      "stateMutability": "view",
      "type": "function"
    },
    {
      "constant": true,
      "inputs": [
        {
          "internalType": "bytes",
          "name": "_query",
          "type": "bytes"
        }
      ],
      "name": "getOutcome",
      "outputs": [
        {
          "internalType": "bool",
          "name": "",
          "type": "bool"
        }
      ],
      "payable": false,
      "stateMutability": "view",
      "type": "function"
    },
    {
      "constant": false,
      "inputs": [
        {
          "internalType": "bytes32",
          "name": "_did",
          "type": "bytes32"
        },
        {
          "internalType": "address",
          "name": "_didRegistryAddress",
          "type": "address"
        }
      ],
      "name": "setDID",
      "outputs": [],
      "payable": false,
      "stateMutability": "nonpayable",
      "type": "function"
    },
    {
      "constant": true,
      "inputs": [
        {
          "internalType": "int8",
          "name": "_key",
          "type": "int8"
        }
      ],
      "name": "getDID",
      "outputs": [
        {
          "internalType": "bytes32",
          "name": "",
          "type": "bytes32"
        }
      ],
      "payable": false,
      "stateMutability": "view",
      "type": "function"
    },
    {
      "constant": true,
      "inputs": [
        {
          "internalType": "bytes32",
          "name": "_did",
          "type": "bytes32"
        }
      ],
      "name": "getKeyDID",
      "outputs": [
        {
          "internalType": "int8",
          "name": "",
          "type": "int8"
        }
      ],
      "payable": false,
      "stateMutability": "view",
      "type": "function"
    },
    {
      "constant": true,
      "inputs": [
        {
          "internalType": "address",
          "name": "_grantee",
          "type": "address"
        },
        {
          "internalType": "bytes32",
          "name": "_documentId",
          "type": "bytes32"
        }
      ],
      "name": "checkPermissions",
      "outputs": [
        {
          "internalType": "bool",
          "name": "permissionGranted",
          "type": "bool"
        }
      ],
      "payable": false,
      "stateMutability": "view",
      "type": "function"
    },
    {
      "constant": true,
      "inputs": [],
      "name": "getOwner",
      "outputs": [
        {
          "internalType": "address",
          "name": "",
          "type": "address"
        }
      ],
      "payable": false,
      "stateMutability": "view",
      "type": "function"
    },
    {
      "constant": true,
      "inputs": [],
      "name": "getGrantee",
      "outputs": [
        {
          "internalType": "address",
          "name": "",
          "type": "address"
        }
      ],
      "payable": false,
      "stateMutability": "view",
      "type": "function"
    }
  ],
  "bytecode": "0x60806040523480156200001157600080fd5b5060405162001ae138038062001ae1833981810160405260a08110156200003757600080fd5b81019080805160405193929190846401000000008211156200005857600080fd5b9083019060208201858111156200006e57600080fd5b82518660208202830111640100000000821117156200008c57600080fd5b82525081516020918201928201910280838360005b83811015620000bb578181015183820152602001620000a1565b50505050919091016040908152602083810151918401516060850151608090950151600084905588519397509095509250869186918691849184918491620001099160019186019062000649565b506003555050600060028190556005805460ff191690556008805460ff60a01b1916905588516001600160a01b038616945063ae28129c93508992506200014c57fe5b6020026020010151846040518363ffffffff1660e01b815260040180836001600160a01b03166001600160a01b031681526020018281526020019250505060206040518083038186803b158015620001a357600080fd5b505afa158015620001b8573d6000803e3d6000fd5b505050506040513d6020811015620001cf57600080fd5b50511515600114156200025a5784600081518110620001ea57fe5b6020026020010151600760006101000a8154816001600160a01b0302191690836001600160a01b03160217905550846001815181106200022657fe5b6020026020010151600860006101000a8154816001600160a01b0302191690836001600160a01b03160217905550620002d3565b846001815181106200026857fe5b6020026020010151600760006101000a8154816001600160a01b0302191690836001600160a01b0316021790555084600081518110620002a457fe5b6020026020010151600860006101000a8154816001600160a01b0302191690836001600160a01b031602179055505b620002e882826001600160e01b03620002f316565b5050505050620006dd565b600854740100000000000000000000000000000000000000009004600090810b900b158015620003345750600060055460ff1660028111156200033257fe5b145b806200037c5750600854600074010000000000000000000000000000000000000000909104810b810b1380156200037c5750600260055460ff1660028111156200037a57fe5b145b620003e857604080517f08c379a000000000000000000000000000000000000000000000000000000000815260206004820152601d60248201527f617070496e666f2e737461747573206973206e6f7420636f7272656374000000604482015290519081900360640190fd5b6007546001600160a01b03163314806200040c57506008546001600160a01b031633145b6200047857604080517f08c379a000000000000000000000000000000000000000000000000000000000815260206004820152601e60248201527f6d73672e73656e646572206973206e6f74206368616e6e656c20706565720000604482015290519081900360640190fd5b604080517fae28129c0000000000000000000000000000000000000000000000000000000081523360048201526024810184905290516001600160a01b0383169163ae28129c916044808301926020929190829003018186803b158015620004df57600080fd5b505afa158015620004f4573d6000803e3d6000fd5b505050506040513d60208110156200050b57600080fd5b50516200057957604080517f08c379a000000000000000000000000000000000000000000000000000000000815260206004820152601a60248201527f6d73672e73656e646572206973206e6f74206469644f776e6572000000000000604482015290519081900360640190fd5b600880547401000000000000000000000000000000000000000090819004600090810b810b810b8152600a60209081526040808320879055845487845260098352818420805460ff191660ff92879004860b860b8316179055600b835281842080546001600160a01b0319166001600160a01b038916179055855460ff60a01b19811690869004850b60010190940b1690930291909117909255805184815290517f7d44b25fd6d4132d83a1465807dba2e4d186b2232c437362264911e45117ca81929181900390910190a15050565b828054828255906000526020600020908101928215620006a1579160200282015b82811115620006a157825182546001600160a01b0319166001600160a01b039091161782556020909201916001909101906200066a565b50620006af929150620006b3565b5090565b620006da91905b80821115620006af5780546001600160a01b0319168155600101620006ba565b90565b6113f480620006ed6000396000f3fe608060405234801561001057600080fd5b50600436106100a95760003560e01c8063a48568a411610071578063a48568a4146101aa578063b36a9a7c146101b2578063b49e2631146101f2578063bcdbda941461021e578063e4ab6d681461028e578063ea4ba8eb146102c4576100a9565b8063130d33fe146100ae5780634e69d560146101205780636d15c4571461014c5780638180743014610166578063893d20e814610186575b600080fd5b61011e600480360360208110156100c457600080fd5b8101906020810181356401000000008111156100df57600080fd5b8201836020820111156100f157600080fd5b8035906020019184600183028401116401000000008311171561011357600080fd5b509092509050610334565b005b61012861053a565b6040518082600281111561013857fe5b60ff16815260200191505060405180910390f35b610154610543565b60408051918252519081900360200190f35b6101546004803603602081101561017c57600080fd5b503560000b610549565b61018e610562565b604080516001600160a01b039092168252519081900360200190f35b61018e610571565b6101de600480360360408110156101c857600080fd5b506001600160a01b038135169060200135610580565b604080519115158252519081900360200190f35b61011e6004803603604081101561020857600080fd5b50803590602001356001600160a01b03166105b2565b6101de6004803603602081101561023457600080fd5b81019060208101813564010000000081111561024f57600080fd5b82018360208201111561026157600080fd5b8035906020019184600183028401116401000000008311171561028357600080fd5b509092509050610862565b6102ab600480360360208110156102a457600080fd5b503561088a565b60408051600092830b90920b8252519081900360200190f35b6101de600480360360208110156102da57600080fd5b8101906020810181356401000000008111156102f557600080fd5b82018360208201111561030757600080fd5b8035906020019184600183028401116401000000008311171561032957600080fd5b50909250905061089e565b61033c611363565b61037b83838080601f01602080910402602001604051908101604052809392919081815260200183838082843760009201919091525061094892505050565b905061038f81600001518260200151610a9f565b6103d4576040805162461bcd60e51b8152602060048201526011602482015270696e76616c6964207369676e617475726560781b604482015290519081900360640190fd5b6103dc61137d565b81516103e790610b7b565b600054815191925014610433576040805162461bcd60e51b815260206004820152600f60248201526e0dcdedcc6ca40dcdee840dac2e8c6d608b1b604482015290519081900360640190fd5b60208101516002541061048d576040805162461bcd60e51b815260206004820152601760248201527f696e76616c69642073657175656e6365206e756d626572000000000000000000604482015290519081900360640190fd5b60208101516002556005805460ff19166001179055600354430160045560408101516104b890610c40565b6104ff576040805162461bcd60e51b81526020600482015260136024820152721cdd185d19481d5c19185d194819985a5b1959606a1b604482015290519081900360640190fd5b60025460408051918252517fce68db27527c6058059e8cbd1c6de0528ef1c417fe1c21c545919c7da3466d2a9181900360200190a150505050565b60055460ff1690565b60025490565b600081810b810b8152600a60205260409020545b919050565b6007546001600160a01b031690565b6008546001600160a01b031690565b60008181526006602090815260408083206001600160a01b038616845290915290205460ff1615156001145b92915050565b600854600160a01b9004600090810b900b1580156105e05750600060055460ff1660028111156105de57fe5b145b8061061457506008546000600160a01b909104810b810b1380156106145750600260055460ff16600281111561061257fe5b145b610665576040805162461bcd60e51b815260206004820152601d60248201527f617070496e666f2e737461747573206973206e6f7420636f7272656374000000604482015290519081900360640190fd5b6007546001600160a01b031633148061068857506008546001600160a01b031633145b6106d9576040805162461bcd60e51b815260206004820152601e60248201527f6d73672e73656e646572206973206e6f74206368616e6e656c20706565720000604482015290519081900360640190fd5b60408051632b8a04a760e21b81523360048201526024810184905290516001600160a01b0383169163ae28129c916044808301926020929190829003018186803b15801561072657600080fd5b505afa15801561073a573d6000803e3d6000fd5b505050506040513d602081101561075057600080fd5b50516107a3576040805162461bcd60e51b815260206004820152601a60248201527f6d73672e73656e646572206973206e6f74206469644f776e6572000000000000604482015290519081900360640190fd5b60088054600160a01b90819004600090810b810b810b8152600a60209081526040808320879055845487845260098352818420805460ff191660ff92879004860b860b8316179055600b835281842080546001600160a01b0319166001600160a01b038916179055855460ff60a01b19811690869004850b60010190940b1690930291909117909255805184815290517f7d44b25fd6d4132d83a1465807dba2e4d186b2232c437362264911e45117ca81929181900390910190a15050565b6000811561086f57600080fd5b600260055460ff16600281111561088257fe5b149392505050565b600090815260096020526040812054900b90565b6000600182146108ec576040805162461bcd60e51b81526020600482015260146024820152730d2dcecc2d8d2c840e2eacae4f240d8cadccee8d60631b604482015290519081900360640190fd5b6000838360008181106108fb57fe5b919091013560f81c600090810b810b8152600a60209081526040808320548352600682528083206008546001600160a01b0316845290915290205460ff1615156001149250505092915050565b610950611363565b6109586113a5565b61096183610e6a565b9050606061097682600263ffffffff610e8f16565b90508060028151811061098557fe5b60200260200101516040519080825280602002602001820160405280156109c057816020015b60608152602001906001900390816109ab5790505b5083602001819052506000816002815181106109d857fe5b6020026020010181815250506000805b6109f184610f1f565b15610a96576109ff84610f2b565b90925090508160011415610a1d57610a1684610f58565b8552610a91565b8160021415610a8157610a2f84610f58565b856020015184600281518110610a4157fe5b602002602001015181518110610a5357fe5b602002602001018190525082600281518110610a6b57fe5b6020908102919091010180516001019052610a91565b610a91848263ffffffff610fe516565b6109e8565b50505050919050565b600154815160009114610af9576040805162461bcd60e51b815260206004820152601c60248201527f696e76616c6964206e756d626572206f66207369676e61747572657300000000604482015290519081900360640190fd5b6060610b0784846000611046565b905060005b600154811015610b7057818181518110610b2257fe5b60200260200101516001600160a01b031660006001018281548110610b4357fe5b6000918252602090912001546001600160a01b031614610b68576000925050506105ac565b600101610b0c565b506001949350505050565b610b8361137d565b610b8b6113a5565b610b9483610e6a565b90506000805b610ba383610f1f565b15610c3857610bb183610f2b565b90925090508160011415610bcf57610bc8836111f1565b8452610c33565b8160021415610beb57610be1836111f1565b6020850152610c33565b8160031415610c0757610bfd83610f58565b6040850152610c33565b8160041415610c2357610c19836111f1565b6060850152610c33565b610c33838263ffffffff610fe516565b610b9a565b505050919050565b60008151600114610c8f576040805162461bcd60e51b81526020600482015260146024820152730d2dcecc2d8d2c840e6e8c2e8ca40d8cadccee8d60631b604482015290519081900360640190fd5b6007546001600160a01b0316331480610cb257506008546001600160a01b031633145b610d03576040805162461bcd60e51b815260206004820152601e60248201527f6d73672e73656e646572206973206e6f74206368616e6e656c20706565720000604482015290519081900360640190fd5b600082600081518110610d1257fe5b016020015160085460f89190911c9150600160a01b9004600090810b810b9082900b128015610d45575060008160000b12155b80610d5457508060000b600019145b80610d6357508060000b600119145b610da4576040805162461bcd60e51b815260206004820152600d60248201526c696e76616c696420737461746560981b604482015290519081900360640190fd5b8060000b6000191415610df557505060078054600880546001600160a01b03198084166001600160a01b038084169190911790955516929091169190911790556005805460ff19169055600161055d565b8060000b6001191415610e155750506005805460ff19169055600161055d565b600090810b810b8152600a60209081526040808320548352600682528083206008546001600160a01b031684529091529020805460ff199081166001908117909255600580549091166002179055905061055d565b610e726113a5565b6001825111610e8057600080fd5b60208101919091526000815290565b815160408051600184018082526020808202830101909252606092918015610ec1578160200160208202803883390190505b5091506000805b610ed186610f1f565b15610f1657610edf86610f2b565b80925081935050506001848381518110610ef557fe5b602002602001018181510191508181525050610f118682610fe5565b610ec8565b50509092525090565b60208101515190511090565b6000806000610f39846111f1565b9050600881049250806007166005811115610f5057fe5b915050915091565b60606000610f65836111f1565b8351602085015151919250820190811115610f7f57600080fd5b816040519080825280601f01601f191660200182016040528015610faa576020820181803883390190505b50602080860151865192955091818601919083010160005b85811015610fda578181015183820152602001610fc2565b505050935250919050565b6000816005811115610ff357fe5b141561100857611002826111f1565b50611042565b600281600581111561101657fe5b14156100a9576000611027836111f1565b83518101808552602085015151919250111561100257600080fd5b5050565b6060808351604051908082528060200260200182016040528015611074578160200160208202803883390190505b50905060006110ef866040516020018082805190602001908083835b602083106110af5780518252601f199092019160209182019101611090565b6001836020036101000a0380198251168184511680821785525050505050509050019150506040516020818303038152906040528051906020012061124c565b90506000805b86518110156111e55761111b8388838151811061110e57fe5b602002602001015161129d565b84828151811061112757fe5b60200260200101906001600160a01b031690816001600160a01b03168152505085156111dd57816001600160a01b031684828151811061116357fe5b60200260200101516001600160a01b0316116111c6576040805162461bcd60e51b815260206004820152601e60248201527f7369676e657273206e6f7420696e20617363656e64696e67206f726465720000604482015290519081900360640190fd5b8381815181106111d257fe5b602002602001015191505b6001016110f5565b50919695505050505050565b602080820151825181019091015160009182805b600a8110156112465783811a91508060070282607f16901b85179450816080166000141561123e5785510160010185525061055d915050565b600101611205565b50600080fd5b604080517f19457468657265756d205369676e6564204d6573736167653a0a333200000000602080830191909152603c8083019490945282518083039094018452605c909101909152815191012090565b600081516041146112b0575060006105ac565b60208201516040830151606084015160001a601b8110156112cf57601b015b8060ff16601b141580156112e757508060ff16601c14155b156112f857600093505050506105ac565b6040805160008152602080820180845289905260ff8416828401526060820186905260808201859052915160019260a0808401939192601f1981019281900390910190855afa15801561134f573d6000803e3d6000fd5b5050506020604051035193505050506105ac565b604051806040016040528060608152602001606081525090565b6040518060800160405280600081526020016000815260200160608152602001600081525090565b60405180604001604052806000815260200160608152509056fea265627a7a7231582069458d5040e6176981c4a30b10025052cf090d06e51adc1ed506f7bb8a7818aa64736f6c634300050c0032",
  "source": "pragma solidity >=0.5.0 <0.6.0;\nimport \"../templates/SingleSessionBooleanOutcome.sol\";\nimport {DIDRegistry} from \"./DIDRegistry.sol\";\nimport \"../templates/ISecretStore.sol\";\n\ncontract AccessSecretRegistry is SingleSessionBooleanOutcome, ISecretStore{\n    mapping(bytes32 => mapping(address => bool)) private documentPermissionsState;\n    address owner;\n    address grantee;\n    int8 key;\n    mapping (bytes32 => int8) private keyList;\n    mapping (int8 => bytes32) private didList;\n    mapping (bytes32 => address) private didRegistryAddressList;\n   \n    constructor(\n        address[] memory _players,\n        uint _nonce, \n        uint _timeout,\n        bytes32 _did,\n        address _didRegistryAddress\n    )\n        public\n        SingleSessionBooleanOutcome(_players, _nonce, _timeout)\n    {\n        key = 0;\n        if (DIDRegistry(_didRegistryAddress).isDIDOwnerOrProvider(_players[0], _did) == true) {\n            owner = _players[0];\n            grantee = _players[1];\n        } else {\n            owner = _players[1];\n            grantee = _players[0];\n        }\n        setDID(_did, _didRegistryAddress);\n    }\n\n    event settedDID(\n        bytes32 did\n    );\n\n    /**\n     *  @notice Get the app outcome\n     *  @param _query Query args _query is key of didList\n     *  @return True if query satisfied\n     */\n    function getOutcome(bytes calldata _query) external view returns (bool) {\n        require(_query.length == 1, \"invalid query length\");\n        int8 query = int8(_query[0]);\n        bytes32 did = didList[query];\n        return documentPermissionsState[did][grantee] == true;\n    }\n\n    /**\n     *  @notice Update state according to an off-chain state proof\n     *  @param _state Signed off-chain app _state is key of didList, -1, -2. When _state is -1, swap owner and grantee. When _state is -2, appInfo.status -> IDLE.\n     *  @return True if update success\n     */\n    function updateByState(bytes memory _state) internal returns (bool) {\n        require(_state.length == 1, \"invalid state length\");\n        require(msg.sender == owner || msg.sender == grantee, \"msg.sender is not channel peer\");\n        int8 state = int8(_state[0]);\n        require((state < key && state >= 0) || (state == -1) || (state == -2), \"invalid state\");\n\n        if (state == -1) {\n            address x = owner;\n            owner = grantee;\n            grantee = x;\n            appInfo.status = AppStatus.IDLE;\n            return true;\n        } else if (state == -2) {\n            appInfo.status = AppStatus.IDLE;\n            return true;\n        } else {\n            bytes32 did = didList[state];\n            address didRegistryAddress = didRegistryAddressList[did];\n            documentPermissionsState[did][grantee] = true;\n            appInfo.status = AppStatus.FINALIZED;\n            return true;\n        }\n    }\n\n    /**\n     *  @notice Set did to didList\n     *  @param _did (bytes32)\n     *  @param _didRegistryAddress (address)\n     */\n    function setDID(bytes32 _did, address _didRegistryAddress) public  {\n        require((key == 0 && appInfo.status == AppStatus.IDLE) || ( key > 0 && appInfo.status == AppStatus.FINALIZED), \"appInfo.status is not correct\");\n        require(msg.sender == owner || msg.sender == grantee, \"msg.sender is not channel peer\");\n        require(DIDRegistry(_didRegistryAddress).isDIDOwnerOrProvider(msg.sender, _did), \"msg.sender is not didOwner\");\n        didList[key] = _did;\n        keyList[_did] = key;\n        didRegistryAddressList[_did] = _didRegistryAddress;\n        key += 1;\n        emit settedDID(_did);\n    }\n\n    /**\n     * @notice get did by key\n     * @param _key (int8)\n     * @return did (bytes32)\n     */\n    function getDID(int8 _key) public view returns (bytes32) {\n        return didList[_key];\n    }\n\n    /**\n     * @notice get key of didList\n     * @param _did (bytes32)\n     * @return key (int8)\n     */\n    function getKeyDID(bytes32 _did) public view returns (int8) {\n        return keyList[_did];\n    }\n\n    /**\n     *  @notice checkPermissions is called by Parity secret store\n     *  @param _documentId refers to the DID in which secret store will issue the decryption keys\n     *  @param _grantee is the address of the granted user of the DID provider\n     *  @return true if the access was granted\n     */\n    function checkPermissions(\n        address _grantee,\n        bytes32 _documentId\n    )\n        external view\n        returns (bool permissionGranted)\n    {\n        return documentPermissionsState[_documentId][_grantee] == true;\n    }\n\n    /**\n     *  @notice Check owner to test.\n     */\n    function getOwner() public view returns (address) {\n        return owner;\n    }\n\n    /**\n     *  @notice Check grantee to test.\n     */\n    function getGrantee() public view returns (address) {\n        return grantee;\n    }\n\n}",
  "sourcePath": "/Users/hashimototatsuki/keeper-layer2/contracts/keeper-layer2/registry/AccessSecretRegistry.sol",
  "compiler": {
    "name": "solc",
    "version": "0.5.12+commit.7709ece9.Emscripten.clang"
  },
  "schemaVersion": "3.0.19",
  "updatedAt": "2020-01-16T03:30:12.464Z",
  "devdoc": {
    "methods": {
      "checkPermissions(address,bytes32)": {
        "params": {
          "_documentId": "refers to the DID in which secret store will issue the decryption keys",
          "_grantee": "is the address of the granted user of the DID provider"
        },
        "return": "true if the access was granted"
      },
      "getDID(int8)": {
        "params": {
          "_key": "(int8)"
        },
        "return": "did (bytes32)"
      },
      "getKeyDID(bytes32)": {
        "params": {
          "_did": "(bytes32)"
        },
        "return": "key (int8)"
      },
      "getOutcome(bytes)": {
        "params": {
          "_query": "Query args _query is key of didList"
        },
        "return": "True if query satisfied"
      },
      "intendSettle(bytes)": {
        "params": {
          "_stateProof": "Serialized off-chain state with signatures"
        }
      },
      "isFinalized(bytes)": {
        "return": "True if app is finalized"
      },
      "setDID(bytes32,address)": {
        "params": {
          "_did": "(bytes32)",
          "_didRegistryAddress": "(address)"
        }
      }
    }
  },
  "userdoc": {
    "methods": {
      "checkPermissions(address,bytes32)": {
        "notice": "checkPermissions is called by Parity secret store"
      },
      "getDID(int8)": {
        "notice": "get did by key"
      },
      "getGrantee()": {
        "notice": "Check grantee to test."
      },
      "getKeyDID(bytes32)": {
        "notice": "get key of didList"
      },
      "getOutcome(bytes)": {
        "notice": "Get the app outcome"
      },
      "getOwner()": {
        "notice": "Check owner to test."
      },
      "getSeqNum()": {
        "notice": "get app sequence number"
      },
      "getStatus()": {
        "notice": "get app status"
      },
      "intendSettle(bytes)": {
        "notice": "Submit and settle off-chain state"
      },
      "isFinalized(bytes)": {
        "notice": "Check if the app is finalized"
      },
      "setDID(bytes32,address)": {
        "notice": "Set did to didList"
      }
    }
  }
}