{
  "contractName": "AccessSecretRegistry",
  "abi": [
    {
      "inputs": [
        {
          "internalType": "address[]",
          "name": "_players",
          "type": "address[]"
        },
        {
          "internalType": "uint256",
          "name": "_nonce",
          "type": "uint256"
        },
        {
          "internalType": "uint256",
          "name": "_timeout",
          "type": "uint256"
        },
        {
          "internalType": "bytes32",
          "name": "_did",
          "type": "bytes32"
        },
        {
          "internalType": "address",
          "name": "_didRegistryAddress",
          "type": "address"
        }
      ],
      "payable": false,
      "stateMutability": "nonpayable",
      "type": "constructor"
    },
    {
      "anonymous": false,
      "inputs": [
        {
          "indexed": false,
          "internalType": "uint256",
          "name": "seq",
          "type": "uint256"
        }
      ],
      "name": "IntendSettle",
      "type": "event"
    },
    {
      "anonymous": false,
      "inputs": [
        {
          "indexed": false,
          "internalType": "bytes32",
          "name": "did",
          "type": "bytes32"
        },
        {
          "indexed": false,
          "internalType": "address",
          "name": "grantee",
          "type": "address"
        }
      ],
      "name": "grantPermission",
      "type": "event"
    },
    {
      "anonymous": false,
      "inputs": [
        {
          "indexed": false,
          "internalType": "bytes32",
          "name": "did",
          "type": "bytes32"
        }
      ],
      "name": "settedDID",
      "type": "event"
    },
    {
      "constant": true,
      "inputs": [],
      "name": "getSeqNum",
      "outputs": [
        {
          "internalType": "uint256",
          "name": "",
          "type": "uint256"
        }
      ],
      "payable": false,
      "stateMutability": "view",
      "type": "function"
    },
    {
      "constant": true,
      "inputs": [],
      "name": "getSettleFinalizedTime",
      "outputs": [
        {
          "internalType": "uint256",
          "name": "",
          "type": "uint256"
        }
      ],
      "payable": false,
      "stateMutability": "view",
      "type": "function"
    },
    {
      "constant": true,
      "inputs": [],
      "name": "getStatus",
      "outputs": [
        {
          "internalType": "enum ISingleSession.AppStatus",
          "name": "",
          "type": "uint8"
        }
      ],
      "payable": false,
      "stateMutability": "view",
      "type": "function"
    },
    {
      "constant": false,
      "inputs": [
        {
          "internalType": "bytes",
          "name": "_stateProof",
          "type": "bytes"
        }
      ],
      "name": "intendSettle",
      "outputs": [],
      "payable": false,
      "stateMutability": "nonpayable",
      "type": "function"
    },
    {
      "constant": true,
      "inputs": [
        {
          "internalType": "bytes",
          "name": "_query",
          "type": "bytes"
        }
      ],
      "name": "isFinalized",
      "outputs": [
        {
          "internalType": "bool",
          "name": "",
          "type": "bool"
        }
      ],
      "payable": false,
      "stateMutability": "view",
      "type": "function"
    },
    {
      "constant": true,
      "inputs": [
        {
          "internalType": "bytes",
          "name": "_query",
          "type": "bytes"
        }
      ],
      "name": "getOutcome",
      "outputs": [
        {
          "internalType": "bool",
          "name": "",
          "type": "bool"
        }
      ],
      "payable": false,
      "stateMutability": "view",
      "type": "function"
    },
    {
      "constant": false,
      "inputs": [
        {
          "internalType": "bytes32",
          "name": "_did",
          "type": "bytes32"
        },
        {
          "internalType": "address",
          "name": "_didRegistryAddress",
          "type": "address"
        }
      ],
      "name": "setDID",
      "outputs": [
        {
          "internalType": "bool",
          "name": "",
          "type": "bool"
        }
      ],
      "payable": false,
      "stateMutability": "nonpayable",
      "type": "function"
    },
    {
      "constant": true,
      "inputs": [
        {
          "internalType": "uint8",
          "name": "_key",
          "type": "uint8"
        }
      ],
      "name": "getDID",
      "outputs": [
        {
          "internalType": "bytes32",
          "name": "",
          "type": "bytes32"
        }
      ],
      "payable": false,
      "stateMutability": "view",
      "type": "function"
    },
    {
      "constant": true,
      "inputs": [
        {
          "internalType": "bytes32",
          "name": "_did",
          "type": "bytes32"
        }
      ],
      "name": "getKeyDID",
      "outputs": [
        {
          "internalType": "uint8",
          "name": "",
          "type": "uint8"
        }
      ],
      "payable": false,
      "stateMutability": "view",
      "type": "function"
    },
    {
      "constant": true,
      "inputs": [
        {
          "internalType": "address",
          "name": "_grantee",
          "type": "address"
        },
        {
          "internalType": "bytes32",
          "name": "_documentId",
          "type": "bytes32"
        }
      ],
      "name": "checkPermissions",
      "outputs": [
        {
          "internalType": "bool",
          "name": "permissionGranted",
          "type": "bool"
        }
      ],
      "payable": false,
      "stateMutability": "view",
      "type": "function"
    }
  ],
  "bytecode": "0x60806040523480156200001157600080fd5b506040516200198e3803806200198e833981810160405260a08110156200003757600080fd5b81019080805160405193929190846401000000008211156200005857600080fd5b9083019060208201858111156200006e57600080fd5b82518660208202830111640100000000821117156200008c57600080fd5b82525081516020918201928201910280838360005b83811015620000bb578181015183820152602001620000a1565b50505050919091016040908152602083810151918401516060850151608090950151600084905588519397509095509250869186918691849184918491620001099160019186019062000408565b506003555050600060028190556005805460ff191690558851899450909250151590506200013357fe5b6020026020010151600760006101000a8154816001600160a01b0302191690836001600160a01b03160217905550846001815181106200016f57fe5b6020908102919091010151600880546001600160a01b0319166001600160a01b039092169190911760ff60a01b19169055620001ac8282620001b8565b5050505050506200049c565b6007546000906001600160a01b0316331480620001df57506008546001600160a01b031633145b62000236576040517f08c379a0000000000000000000000000000000000000000000000000000000008152600401808060200182810382526025815260200180620019696025913960400191505060405180910390fd5b604080517fae28129c0000000000000000000000000000000000000000000000000000000081523360048201526024810185905290516001600160a01b0384169163ae28129c916044808301926020929190829003018186803b1580156200029d57600080fd5b505afa158015620002b2573d6000803e3d6000fd5b505050506040513d6020811015620002c957600080fd5b50516200033757604080517f08c379a000000000000000000000000000000000000000000000000000000000815260206004820152601a60248201527f6d73672e73656e646572206973206e6f74206469644f776e6572000000000000604482015290519081900360640190fd5b6008805460ff740100000000000000000000000000000000000000009182900481166000908152600a60209081526040808320899055855489845260098352818420805460ff1916918790048616919091179055600b82529182902080546001600160a01b0389166001600160a01b03199091161790558454848104841660010190931690930260ff60a01b1990921691909117909255815185815291517f7d44b25fd6d4132d83a1465807dba2e4d186b2232c437362264911e45117ca819281900390910190a150600192915050565b82805482825590600052602060002090810192821562000460579160200282015b828111156200046057825182546001600160a01b0319166001600160a01b0390911617825560209092019160019091019062000429565b506200046e92915062000472565b5090565b6200049991905b808211156200046e5780546001600160a01b031916815560010162000479565b90565b6114bd80620004ac6000396000f3fe608060405234801561001057600080fd5b506004361061009e5760003560e01c8063b49e263111610066578063b49e2631146101bb578063b71ca01f146101e7578063bcdbda94146101ef578063e4ab6d681461025f578063ea4ba8eb146102925761009e565b8063130d33fe146100a35780634e69d560146101155780636ba656f8146101415780636d15c45714610173578063b36a9a7c1461017b575b600080fd5b610113600480360360208110156100b957600080fd5b8101906020810181356401000000008111156100d457600080fd5b8201836020820111156100e657600080fd5b8035906020019184600183028401116401000000008311171561010857600080fd5b509092509050610302565b005b61011d610567565b6040518082600281111561012d57fe5b60ff16815260200191505060405180910390f35b6101616004803603602081101561015757600080fd5b503560ff16610571565b60408051918252519081900360200190f35b61016161058a565b6101a76004803603604081101561019157600080fd5b506001600160a01b038135169060200135610590565b604080519115158252519081900360200190f35b6101a7600480360360408110156101d157600080fd5b50803590602001356001600160a01b03166105c2565b6101616107ad565b6101a76004803603602081101561020557600080fd5b81019060208101813564010000000081111561022057600080fd5b82018360208201111561023257600080fd5b8035906020019184600183028401116401000000008311171561025457600080fd5b5090925090506107d7565b61027c6004803603602081101561027557600080fd5b50356107ff565b6040805160ff9092168252519081900360200190f35b6101a7600480360360208110156102a857600080fd5b8101906020810181356401000000008111156102c357600080fd5b8201836020820111156102d557600080fd5b803590602001918460018302840111640100000000831117156102f757600080fd5b509092509050610814565b600260055460ff16600281111561031557fe5b1415610361576040805162461bcd60e51b8152602060048201526016602482015275185c1c081cdd185d19481a5cc8199a5b985b1a5e995960521b604482015290519081900360640190fd5b610369611407565b6103a883838080601f0160208091040260200160405190810160405280939291908181526020018383808284376000920191909152506108f492505050565b90506103bc81600001518260200151610a4b565b610401576040805162461bcd60e51b8152602060048201526011602482015270696e76616c6964207369676e617475726560781b604482015290519081900360640190fd5b610409611421565b815161041490610b27565b600054815191925014610460576040805162461bcd60e51b815260206004820152600f60248201526e0dcdedcc6ca40dcdee840dac2e8c6d608b1b604482015290519081900360640190fd5b6020810151600254106104ba576040805162461bcd60e51b815260206004820152601760248201527f696e76616c69642073657175656e6365206e756d626572000000000000000000604482015290519081900360640190fd5b60208101516002556005805460ff19166001179055600354430160045560408101516104e590610bec565b61052c576040805162461bcd60e51b81526020600482015260136024820152721cdd185d19481d5c19185d194819985a5b1959606a1b604482015290519081900360640190fd5b60025460408051918252517fce68db27527c6058059e8cbd1c6de0528ef1c417fe1c21c545919c7da3466d2a9181900360200190a150505050565b60055460ff165b90565b60ff81166000908152600a60205260409020545b919050565b60025490565b60008181526006602090815260408083206001600160a01b038616845290915290205460ff1615156001145b92915050565b6007546000906001600160a01b03163314806105e857506008546001600160a01b031633145b6106235760405162461bcd60e51b81526004018080602001828103825260258152602001806114646025913960400191505060405180910390fd5b60408051632b8a04a760e21b81523360048201526024810185905290516001600160a01b0384169163ae28129c916044808301926020929190829003018186803b15801561067057600080fd5b505afa158015610684573d6000803e3d6000fd5b505050506040513d602081101561069a57600080fd5b50516106ed576040805162461bcd60e51b815260206004820152601a60248201527f6d73672e73656e646572206973206e6f74206469644f776e6572000000000000604482015290519081900360640190fd5b6008805460ff600160a01b9182900481166000908152600a60209081526040808320899055855489845260098352818420805460ff1916918790048616919091179055600b82529182902080546001600160a01b0389166001600160a01b03199091161790558454848104841660010190931690930260ff60a01b1990921691909117909255815185815291517f7d44b25fd6d4132d83a1465807dba2e4d186b2232c437362264911e45117ca819281900390910190a150600192915050565b6000600160055460ff1660028111156107c257fe5b14156107d1575060045461056e565b50600090565b600081156107e457600080fd5b600260055460ff1660028111156107f757fe5b149392505050565b60009081526009602052604090205460ff1690565b600060018214610862576040805162461bcd60e51b81526020600482015260146024820152730d2dcecc2d8d2c840e2eacae4f240d8cadccee8d60631b604482015290519081900360640190fd5b60008383600081811061087157fe5b919091013560f81c6000818152600a6020908152604080832054808452600683528184206007546001600160a01b0316855290925290912054919350915060ff161515600114806108eb575060008181526006602090815260408083206008546001600160a01b0316845290915290205460ff1615156001145b95945050505050565b6108fc611407565b610904611449565b61090d83610f0e565b9050606061092282600263ffffffff610f3316565b90508060028151811061093157fe5b602002602001015160405190808252806020026020018201604052801561096c57816020015b60608152602001906001900390816109575790505b50836020018190525060008160028151811061098457fe5b6020026020010181815250506000805b61099d84610fc3565b15610a42576109ab84610fcf565b909250905081600114156109c9576109c284610ffc565b8552610a3d565b8160021415610a2d576109db84610ffc565b8560200151846002815181106109ed57fe5b6020026020010151815181106109ff57fe5b602002602001018190525082600281518110610a1757fe5b6020908102919091010180516001019052610a3d565b610a3d848263ffffffff61108916565b610994565b50505050919050565b600154815160009114610aa5576040805162461bcd60e51b815260206004820152601c60248201527f696e76616c6964206e756d626572206f66207369676e61747572657300000000604482015290519081900360640190fd5b6060610ab3848460006110ea565b905060005b600154811015610b1c57818181518110610ace57fe5b60200260200101516001600160a01b031660006001018281548110610aef57fe5b6000918252602090912001546001600160a01b031614610b14576000925050506105bc565b600101610ab8565b506001949350505050565b610b2f611421565b610b37611449565b610b4083610f0e565b90506000805b610b4f83610fc3565b15610be457610b5d83610fcf565b90925090508160011415610b7b57610b7483611295565b8452610bdf565b8160021415610b9757610b8d83611295565b6020850152610bdf565b8160031415610bb357610ba983610ffc565b6040850152610bdf565b8160041415610bcf57610bc583611295565b6060850152610bdf565b610bdf838263ffffffff61108916565b610b46565b505050919050565b60008151600114610c3b576040805162461bcd60e51b81526020600482015260146024820152730d2dcecc2d8d2c840e6e8c2e8ca40d8cadccee8d60631b604482015290519081900360640190fd5b6007546001600160a01b0316331480610c5e57506008546001600160a01b031633145b610caf576040805162461bcd60e51b815260206004820152601e60248201527f6d73672e73656e646572206973206e6f74206368616e6e656c20706565720000604482015290519081900360640190fd5b600082600081518110610cbe57fe5b0160209081015160f81c6000818152600a8352604080822054808352600b855291819020546007548251632b8a04a760e21b81526001600160a01b0391821660048201526024810185905292519496509294921692839263ae28129c9260448082019391829003018186803b158015610d3657600080fd5b505afa158015610d4a573d6000803e3d6000fd5b505050506040513d6020811015610d6057600080fd5b505115610df2576000828152600660209081526040808320600880546001600160a01b03908116865291845293829020805460ff199081166001179091556005805490911660021790559254815186815293169183019190915280517fbc58645602ae92c2047d0fe022c590d93dcb6f0506024a123cdf72797c6ccfaa9281900390910190a160019350505050610585565b60085460408051632b8a04a760e21b81526001600160a01b0392831660048201526024810185905290519183169163ae28129c91604480820192602092909190829003018186803b158015610e4657600080fd5b505afa158015610e5a573d6000803e3d6000fd5b505050506040513d6020811015610e7057600080fd5b505115610f02576000828152600660209081526040808320600780546001600160a01b03908116865291845293829020805460ff199081166001179091556005805490911660021790559254815186815293169183019190915280517fbc58645602ae92c2047d0fe022c590d93dcb6f0506024a123cdf72797c6ccfaa9281900390910190a160019350505050610585565b60009350505050610585565b610f16611449565b6001825111610f2457600080fd5b60208101919091526000815290565b815160408051600184018082526020808202830101909252606092918015610f65578160200160208202803883390190505b5091506000805b610f7586610fc3565b15610fba57610f8386610fcf565b80925081935050506001848381518110610f9957fe5b602002602001018181510191508181525050610fb58682611089565b610f6c565b50509092525090565b60208101515190511090565b6000806000610fdd84611295565b9050600881049250806007166005811115610ff457fe5b915050915091565b6060600061100983611295565b835160208501515191925082019081111561102357600080fd5b816040519080825280601f01601f19166020018201604052801561104e576020820181803883390190505b50602080860151865192955091818601919083010160005b8581101561107e578181015183820152602001611066565b505050935250919050565b600081600581111561109757fe5b14156110ac576110a682611295565b506110e6565b60028160058111156110ba57fe5b141561009e5760006110cb83611295565b8351810180855260208501515191925011156110a657600080fd5b5050565b6060808351604051908082528060200260200182016040528015611118578160200160208202803883390190505b5090506000611193866040516020018082805190602001908083835b602083106111535780518252601f199092019160209182019101611134565b6001836020036101000a038019825116818451168082178552505050505050905001915050604051602081830303815290604052805190602001206112f0565b90506000805b8651811015611289576111bf838883815181106111b257fe5b6020026020010151611341565b8482815181106111cb57fe5b60200260200101906001600160a01b031690816001600160a01b031681525050851561128157816001600160a01b031684828151811061120757fe5b60200260200101516001600160a01b03161161126a576040805162461bcd60e51b815260206004820152601e60248201527f7369676e657273206e6f7420696e20617363656e64696e67206f726465720000604482015290519081900360640190fd5b83818151811061127657fe5b602002602001015191505b600101611199565b50919695505050505050565b602080820151825181019091015160009182805b600a8110156112ea5783811a91508060070282607f16901b8517945081608016600014156112e257855101600101855250610585915050565b6001016112a9565b50600080fd5b604080517f19457468657265756d205369676e6564204d6573736167653a0a333200000000602080830191909152603c8083019490945282518083039094018452605c909101909152815191012090565b60008151604114611354575060006105bc565b60208201516040830151606084015160001a601b81101561137357601b015b8060ff16601b1415801561138b57508060ff16601c14155b1561139c57600093505050506105bc565b6040805160008152602080820180845289905260ff8416828401526060820186905260808201859052915160019260a0808401939192601f1981019281900390910190855afa1580156113f3573d6000803e3d6000fd5b5050506020604051035193505050506105bc565b604051806040016040528060608152602001606081525090565b6040518060800160405280600081526020016000815260200160608152602001600081525090565b60405180604001604052806000815260200160608152509056fe6d73672e73656e646572206973206e6f7420706c617965723120616e6420706c6179657232a265627a7a723158205241cac23ab3f484a2bb3e0a0f1ccd22fe803dc6bdfee89994c7289596251c2164736f6c634300050c00326d73672e73656e646572206973206e6f7420706c617965723120616e6420706c6179657232",
  "source": "pragma solidity >=0.5.0 <0.6.0;\nimport \"../templates/SingleSessionBooleanOutcome.sol\";\nimport {DIDRegistry} from \"./DIDRegistry.sol\";\nimport \"../templates/ISecretStore.sol\";\n\ncontract AccessSecretRegistry is SingleSessionBooleanOutcome, ISecretStore{\n    mapping(bytes32 => mapping (address => bool)) private documentPermissionsState;\n    address player1;\n    address player2;\n    uint8 key;\n    mapping (bytes32 => uint8) private keyList;\n    mapping (uint8 => bytes32) private didList;\n    mapping (bytes32 => address) private didRegistryAddressList;\n   \n\n    constructor(\n        address[] memory _players,\n        uint _nonce, \n        uint _timeout,\n        bytes32 _did,\n        address _didRegistryAddress\n    )\n        public\n        SingleSessionBooleanOutcome(_players, _nonce, _timeout)\n    {\n        player1 = _players[0];\n        player2 = _players[1]; \n        key = 0;\n        setDID(_did, _didRegistryAddress);\n    }\n\n    event grantPermission (\n        bytes32 did,\n        address grantee\n    );\n\n    event settedDID(\n        bytes32 did\n    );\n\n    /**\n     *  @notice Get the app outcome\n     *  @param _query Query args _query is key of didList\n     *  @return True if query satisfied\n     */\n    function getOutcome(bytes calldata _query) external view returns (bool) {\n        require(_query.length == 1, \"invalid query length\");\n        uint8 query = uint8(_query[0]);\n        bytes32 did = didList[query];\n        return (documentPermissionsState[did][player1] == true || documentPermissionsState[did][player2] == true);\n    }\n\n    /**\n     *  @notice Update state according to an off-chain state proof\n     *  @param _state Signed off-chain app state is key of didList \n     *  @return True if update success\n     */\n    function updateByState(bytes memory _state) internal returns (bool) {\n        require(_state.length == 1, \"invalid state length\");\n        require(msg.sender == player1 || msg.sender == player2, \"msg.sender is not channel peer\");\n        uint8 state = uint8(_state[0]);\n        bytes32 did = didList[state];\n        address didRegistryAddress = didRegistryAddressList[did];\n        if(DIDRegistry(didRegistryAddress).isDIDOwnerOrProvider(player1, did)){\n            documentPermissionsState[did][player2] = true;\n            appInfo.status = AppStatus.FINALIZED;\n            emit grantPermission(did, player2);\n            return true;\n        } else if(DIDRegistry(didRegistryAddress).isDIDOwnerOrProvider(player2, did)){\n            documentPermissionsState[did][player1] = true;\n            appInfo.status = AppStatus.FINALIZED;\n            emit grantPermission(did, player1);\n            return true;\n        } else {\n            return false;\n        }\n    }\n\n    /**\n     *  @notice Set did to didList\n     *  @param _did (bytes32)\n     *  @param _didRegistryAddress (address)\n     */\n    function setDID(bytes32 _did, address _didRegistryAddress) public returns (bool) {\n        require(msg.sender == player1 || msg.sender == player2, \"msg.sender is not player1 and player2\");\n        require(DIDRegistry(_didRegistryAddress).isDIDOwnerOrProvider(msg.sender, _did), \"msg.sender is not didOwner\");\n        didList[key] = _did;\n        keyList[_did] = key;\n        didRegistryAddressList[_did] = _didRegistryAddress;\n        key += 1;\n        emit settedDID(_did);\n        return true;\n    }\n\n    /**\n     * @notice get did by key\n     * @param _key (uint8)\n     * @return did (bytes32)\n     */\n    function getDID(uint8 _key) public view returns (bytes32) {\n        return didList[_key];\n    }\n\n    /**\n     * @notice get key of didList\n     * @param _did (bytes32)\n     * @return key (uint8)\n     */\n    function getKeyDID(bytes32 _did) public view returns (uint8) {\n        return keyList[_did];\n    }\n\n    /**\n     *  @notice checkPermissions is called by Parity secret store\n     *  @param _documentId refers to the DID in which secret store will issue the decryption keys\n     *  @param _grantee is the address of the granted user of the DID provider\n     *  @return true if the access was granted\n     */\n    function checkPermissions(\n        address _grantee,\n        bytes32 _documentId\n    )\n        external view\n        returns (bool permissionGranted)\n    {\n        return documentPermissionsState[_documentId][_grantee] == true;\n    }\n\n}",
  "sourcePath": "/Users/hashimototatsuki/keeper-layer2/contracts/keeper-layer2/registry/AccessSecretRegistry.sol",
  "compiler": {
    "name": "solc",
    "version": "0.5.12+commit.7709ece9.Emscripten.clang"
  },
  "schemaVersion": "3.0.19",
  "updatedAt": "2019-12-17T07:55:30.529Z",
  "devdoc": {
    "methods": {
      "checkPermissions(address,bytes32)": {
        "params": {
          "_documentId": "refers to the DID in which secret store will issue the decryption keys",
          "_grantee": "is the address of the granted user of the DID provider"
        },
        "return": "true if the access was granted"
      },
      "getDID(uint8)": {
        "params": {
          "_key": "(uint8)"
        },
        "return": "did (bytes32)"
      },
      "getKeyDID(bytes32)": {
        "params": {
          "_did": "(bytes32)"
        },
        "return": "key (uint8)"
      },
      "getOutcome(bytes)": {
        "params": {
          "_query": "Query args _query is key of didList"
        },
        "return": "True if query satisfied"
      },
      "intendSettle(bytes)": {
        "params": {
          "_stateProof": "Serialized off-chain state with signatures"
        }
      },
      "isFinalized(bytes)": {
        "return": "True if app is finalized"
      },
      "setDID(bytes32,address)": {
        "params": {
          "_did": "(bytes32)",
          "_didRegistryAddress": "(address)"
        }
      }
    }
  },
  "userdoc": {
    "methods": {
      "checkPermissions(address,bytes32)": {
        "notice": "checkPermissions is called by Parity secret store"
      },
      "getDID(uint8)": {
        "notice": "get did by key"
      },
      "getKeyDID(bytes32)": {
        "notice": "get key of didList"
      },
      "getOutcome(bytes)": {
        "notice": "Get the app outcome"
      },
      "getSeqNum()": {
        "notice": "get app sequence number"
      },
      "getSettleFinalizedTime()": {
        "notice": "get state settle finalized time"
      },
      "getStatus()": {
        "notice": "get app status"
      },
      "intendSettle(bytes)": {
        "notice": "Submit and settle off-chain state"
      },
      "isFinalized(bytes)": {
        "notice": "Check if the app is finalized"
      },
      "setDID(bytes32,address)": {
        "notice": "Set did to didList"
      }
    }
  }
}