{
  "contractName": "AccessSecretRegistry",
  "abi": [
    {
      "inputs": [
        {
          "internalType": "address[]",
          "name": "_players",
          "type": "address[]"
        },
        {
          "internalType": "uint256",
          "name": "_nonce",
          "type": "uint256"
        },
        {
          "internalType": "uint256",
          "name": "_timeout",
          "type": "uint256"
        },
        {
          "internalType": "bytes32",
          "name": "_did",
          "type": "bytes32"
        },
        {
          "internalType": "address",
          "name": "_didRegistryAddress",
          "type": "address"
        }
      ],
      "payable": false,
      "stateMutability": "nonpayable",
      "type": "constructor"
    },
    {
      "anonymous": false,
      "inputs": [
        {
          "indexed": false,
          "internalType": "uint256",
          "name": "seq",
          "type": "uint256"
        }
      ],
      "name": "IntendSettle",
      "type": "event"
    },
    {
      "anonymous": false,
      "inputs": [
        {
          "indexed": false,
          "internalType": "bytes32",
          "name": "did",
          "type": "bytes32"
        }
      ],
      "name": "settedDID",
      "type": "event"
    },
    {
      "constant": true,
      "inputs": [],
      "name": "getSeqNum",
      "outputs": [
        {
          "internalType": "uint256",
          "name": "",
          "type": "uint256"
        }
      ],
      "payable": false,
      "stateMutability": "view",
      "type": "function"
    },
    {
      "constant": true,
      "inputs": [],
      "name": "getSettleFinalizedTime",
      "outputs": [
        {
          "internalType": "uint256",
          "name": "",
          "type": "uint256"
        }
      ],
      "payable": false,
      "stateMutability": "view",
      "type": "function"
    },
    {
      "constant": true,
      "inputs": [],
      "name": "getStatus",
      "outputs": [
        {
          "internalType": "enum ISingleSession.AppStatus",
          "name": "",
          "type": "uint8"
        }
      ],
      "payable": false,
      "stateMutability": "view",
      "type": "function"
    },
    {
      "constant": false,
      "inputs": [
        {
          "internalType": "bytes",
          "name": "_stateProof",
          "type": "bytes"
        }
      ],
      "name": "intendSettle",
      "outputs": [],
      "payable": false,
      "stateMutability": "nonpayable",
      "type": "function"
    },
    {
      "constant": true,
      "inputs": [
        {
          "internalType": "bytes",
          "name": "_query",
          "type": "bytes"
        }
      ],
      "name": "isFinalized",
      "outputs": [
        {
          "internalType": "bool",
          "name": "",
          "type": "bool"
        }
      ],
      "payable": false,
      "stateMutability": "view",
      "type": "function"
    },
    {
      "constant": true,
      "inputs": [
        {
          "internalType": "bytes",
          "name": "_query",
          "type": "bytes"
        }
      ],
      "name": "getOutcome",
      "outputs": [
        {
          "internalType": "bool",
          "name": "",
          "type": "bool"
        }
      ],
      "payable": false,
      "stateMutability": "view",
      "type": "function"
    },
    {
      "constant": false,
      "inputs": [
        {
          "internalType": "bytes32",
          "name": "_did",
          "type": "bytes32"
        },
        {
          "internalType": "address",
          "name": "_didRegistryAddress",
          "type": "address"
        }
      ],
      "name": "setDID",
      "outputs": [],
      "payable": false,
      "stateMutability": "nonpayable",
      "type": "function"
    },
    {
      "constant": true,
      "inputs": [
        {
          "internalType": "uint8",
          "name": "_key",
          "type": "uint8"
        }
      ],
      "name": "getDID",
      "outputs": [
        {
          "internalType": "bytes32",
          "name": "",
          "type": "bytes32"
        }
      ],
      "payable": false,
      "stateMutability": "view",
      "type": "function"
    },
    {
      "constant": true,
      "inputs": [
        {
          "internalType": "bytes32",
          "name": "_did",
          "type": "bytes32"
        }
      ],
      "name": "getKeyDID",
      "outputs": [
        {
          "internalType": "uint8",
          "name": "",
          "type": "uint8"
        }
      ],
      "payable": false,
      "stateMutability": "view",
      "type": "function"
    },
    {
      "constant": true,
      "inputs": [
        {
          "internalType": "address",
          "name": "_grantee",
          "type": "address"
        },
        {
          "internalType": "bytes32",
          "name": "_documentId",
          "type": "bytes32"
        }
      ],
      "name": "checkPermissions",
      "outputs": [
        {
          "internalType": "bool",
          "name": "permissionGranted",
          "type": "bool"
        }
      ],
      "payable": false,
      "stateMutability": "view",
      "type": "function"
    }
  ],
  "bytecode": "0x60806040523480156200001157600080fd5b5060405162001b1338038062001b13833981810160405260a08110156200003757600080fd5b81019080805160405193929190846401000000008211156200005857600080fd5b9083019060208201858111156200006e57600080fd5b82518660208202830111640100000000821117156200008c57600080fd5b82525081516020918201928201910280838360005b83811015620000bb578181015183820152602001620000a1565b505050509190910160409081526020838101519184015160608501516080909501516000849055885193975090955092508691869186918491849184916200010991600191860190620004fc565b506003555050600060028190556005805460ff191690558851899450909250151590506200013357fe5b6020026020010151600760006101000a8154816001600160a01b0302191690836001600160a01b03160217905550846001815181106200016f57fe5b6020908102919091010151600880546001600160a01b0319166001600160a01b039092169190911760ff60a01b19169055620001ac8282620001b7565b505050505062000590565b60085474010000000000000000000000000000000000000000900460ff16158015620001f45750600060055460ff166002811115620001f257fe5b145b8062000239575060085474010000000000000000000000000000000000000000900460ff1615801590620002395750600260055460ff1660028111156200023757fe5b145b620002a557604080517f08c379a000000000000000000000000000000000000000000000000000000000815260206004820152601d60248201527f617070496e666f2e737461747573206973206e6f7420636f7272656374000000604482015290519081900360640190fd5b6007546001600160a01b0316331480620002c957506008546001600160a01b031633145b62000320576040517f08c379a000000000000000000000000000000000000000000000000000000000815260040180806020018281038252602581526020018062001aee6025913960400191505060405180910390fd5b604080517fae28129c0000000000000000000000000000000000000000000000000000000081523360048201526024810184905290516001600160a01b0383169163ae28129c916044808301926020929190829003018186803b1580156200038757600080fd5b505afa1580156200039c573d6000803e3d6000fd5b505050506040513d6020811015620003b357600080fd5b50516200042157604080517f08c379a000000000000000000000000000000000000000000000000000000000815260206004820152601a60248201527f6d73672e73656e646572206973206e6f74206469644f776e6572000000000000604482015290519081900360640190fd5b60088054740100000000000000000000000000000000000000009081900460ff9081166000908152600a60209081526040808320889055855488845260098352818420805491879004861660ff19928316179055600b909252822080546001600160a01b0319166001600160a01b038816179055845460ff60a01b19811690859004841660019081019094169094029390931790935560058054909216908302179055506040805183815290517f7d44b25fd6d4132d83a1465807dba2e4d186b2232c437362264911e45117ca819181900360200190a15050565b82805482825590600052602060002090810192821562000554579160200282015b828111156200055457825182546001600160a01b0319166001600160a01b039091161782556020909201916001909101906200051d565b506200056292915062000566565b5090565b6200058d91905b80821115620005625780546001600160a01b03191681556001016200056d565b90565b61154e80620005a06000396000f3fe608060405234801561001057600080fd5b506004361061009e5760003560e01c8063b49e263111610066578063b49e2631146101bb578063b71ca01f146101e7578063bcdbda94146101ef578063e4ab6d681461025f578063ea4ba8eb146102925761009e565b8063130d33fe146100a35780634e69d560146101155780636ba656f8146101415780636d15c45714610173578063b36a9a7c1461017b575b600080fd5b610113600480360360208110156100b957600080fd5b8101906020810181356401000000008111156100d457600080fd5b8201836020820111156100e657600080fd5b8035906020019184600183028401116401000000008311171561010857600080fd5b509092509050610302565b005b61011d610567565b6040518082600281111561012d57fe5b60ff16815260200191505060405180910390f35b6101616004803603602081101561015757600080fd5b503560ff16610571565b60408051918252519081900360200190f35b61016161058a565b6101a76004803603604081101561019157600080fd5b506001600160a01b038135169060200135610590565b604080519115158252519081900360200190f35b610113600480360360408110156101d157600080fd5b50803590602001356001600160a01b03166105c2565b610161610860565b6101a76004803603602081101561020557600080fd5b81019060208101813564010000000081111561022057600080fd5b82018360208201111561023257600080fd5b8035906020019184600183028401116401000000008311171561025457600080fd5b50909250905061088a565b61027c6004803603602081101561027557600080fd5b50356108b2565b6040805160ff9092168252519081900360200190f35b6101a7600480360360208110156102a857600080fd5b8101906020810181356401000000008111156102c357600080fd5b8201836020820111156102d557600080fd5b803590602001918460018302840111640100000000831117156102f757600080fd5b5090925090506108c7565b600260055460ff16600281111561031557fe5b1415610361576040805162461bcd60e51b8152602060048201526016602482015275185c1c081cdd185d19481a5cc8199a5b985b1a5e995960521b604482015290519081900360640190fd5b610369611498565b6103a883838080601f0160208091040260200160405190810160405280939291908181526020018383808284376000920191909152506109a792505050565b90506103bc81600001518260200151610afe565b610401576040805162461bcd60e51b8152602060048201526011602482015270696e76616c6964207369676e617475726560781b604482015290519081900360640190fd5b6104096114b2565b815161041490610bda565b600054815191925014610460576040805162461bcd60e51b815260206004820152600f60248201526e0dcdedcc6ca40dcdee840dac2e8c6d608b1b604482015290519081900360640190fd5b6020810151600254106104ba576040805162461bcd60e51b815260206004820152601760248201527f696e76616c69642073657175656e6365206e756d626572000000000000000000604482015290519081900360640190fd5b60208101516002556005805460ff19166001179055600354430160045560408101516104e590610c9f565b61052c576040805162461bcd60e51b81526020600482015260136024820152721cdd185d19481d5c19185d194819985a5b1959606a1b604482015290519081900360640190fd5b60025460408051918252517fce68db27527c6058059e8cbd1c6de0528ef1c417fe1c21c545919c7da3466d2a9181900360200190a150505050565b60055460ff165b90565b60ff81166000908152600a60205260409020545b919050565b60025490565b60008181526006602090815260408083206001600160a01b038616845290915290205460ff1615156001145b92915050565b600854600160a01b900460ff161580156105ec5750600060055460ff1660028111156105ea57fe5b145b8061061d5750600854600160a01b900460ff161580159061061d5750600260055460ff16600281111561061b57fe5b145b61066e576040805162461bcd60e51b815260206004820152601d60248201527f617070496e666f2e737461747573206973206e6f7420636f7272656374000000604482015290519081900360640190fd5b6007546001600160a01b031633148061069157506008546001600160a01b031633145b6106cc5760405162461bcd60e51b81526004018080602001828103825260258152602001806114f56025913960400191505060405180910390fd5b60408051632b8a04a760e21b81523360048201526024810184905290516001600160a01b0383169163ae28129c916044808301926020929190829003018186803b15801561071957600080fd5b505afa15801561072d573d6000803e3d6000fd5b505050506040513d602081101561074357600080fd5b5051610796576040805162461bcd60e51b815260206004820152601a60248201527f6d73672e73656e646572206973206e6f74206469644f776e6572000000000000604482015290519081900360640190fd5b60088054600160a01b9081900460ff9081166000908152600a60209081526040808320889055855488845260098352818420805491879004861660ff19928316179055600b909252822080546001600160a01b0319166001600160a01b038816179055845460ff60a01b19811690859004841660019081019094169094029390931790935560058054909216908302179055506040805183815290517f7d44b25fd6d4132d83a1465807dba2e4d186b2232c437362264911e45117ca819181900360200190a15050565b6000600160055460ff16600281111561087557fe5b1415610884575060045461056e565b50600090565b6000811561089757600080fd5b600260055460ff1660028111156108aa57fe5b149392505050565b60009081526009602052604090205460ff1690565b600060018214610915576040805162461bcd60e51b81526020600482015260146024820152730d2dcecc2d8d2c840e2eacae4f240d8cadccee8d60631b604482015290519081900360640190fd5b60008383600081811061092457fe5b919091013560f81c6000818152600a6020908152604080832054808452600683528184206007546001600160a01b0316855290925290912054919350915060ff1615156001148061099e575060008181526006602090815260408083206008546001600160a01b0316845290915290205460ff1615156001145b95945050505050565b6109af611498565b6109b76114da565b6109c083610f9f565b905060606109d582600263ffffffff610fc416565b9050806002815181106109e457fe5b6020026020010151604051908082528060200260200182016040528015610a1f57816020015b6060815260200190600190039081610a0a5790505b508360200181905250600081600281518110610a3757fe5b6020026020010181815250506000805b610a5084611054565b15610af557610a5e84611060565b90925090508160011415610a7c57610a758461108d565b8552610af0565b8160021415610ae057610a8e8461108d565b856020015184600281518110610aa057fe5b602002602001015181518110610ab257fe5b602002602001018190525082600281518110610aca57fe5b6020908102919091010180516001019052610af0565b610af0848263ffffffff61111a16565b610a47565b50505050919050565b600154815160009114610b58576040805162461bcd60e51b815260206004820152601c60248201527f696e76616c6964206e756d626572206f66207369676e61747572657300000000604482015290519081900360640190fd5b6060610b668484600061117b565b905060005b600154811015610bcf57818181518110610b8157fe5b60200260200101516001600160a01b031660006001018281548110610ba257fe5b6000918252602090912001546001600160a01b031614610bc7576000925050506105bc565b600101610b6b565b506001949350505050565b610be26114b2565b610bea6114da565b610bf383610f9f565b90506000805b610c0283611054565b15610c9757610c1083611060565b90925090508160011415610c2e57610c2783611326565b8452610c92565b8160021415610c4a57610c4083611326565b6020850152610c92565b8160031415610c6657610c5c8361108d565b6040850152610c92565b8160041415610c8257610c7883611326565b6060850152610c92565b610c92838263ffffffff61111a16565b610bf9565b505050919050565b60008151600114610cee576040805162461bcd60e51b81526020600482015260146024820152730d2dcecc2d8d2c840e6e8c2e8ca40d8cadccee8d60631b604482015290519081900360640190fd5b6007546001600160a01b0316331480610d1157506008546001600160a01b031633145b610d62576040805162461bcd60e51b815260206004820152601e60248201527f6d73672e73656e646572206973206e6f74206368616e6e656c20706565720000604482015290519081900360640190fd5b600082600081518110610d7157fe5b016020015160085460f89190911c9150600160a01b900460ff1681108015610d97575060015b610dd8576040805162461bcd60e51b815260206004820152600d60248201526c696e76616c696420737461746560981b604482015290519081900360640190fd5b60ff81166000908152600a6020908152604080832054808452600b835292819020546007548251632b8a04a760e21b81526001600160a01b039182166004820152602481018690529251911692839263ae28129c9260448083019392829003018186803b158015610e4857600080fd5b505afa158015610e5c573d6000803e3d6000fd5b505050506040513d6020811015610e7257600080fd5b505115610eca5760008281526006602090815260408083206008546001600160a01b0316845290915290208054600160ff1991821681179092556005805460029391921690835b021790555060019350505050610585565b60085460408051632b8a04a760e21b81526001600160a01b0392831660048201526024810185905290519183169163ae28129c91604480820192602092909190829003018186803b158015610f1e57600080fd5b505afa158015610f32573d6000803e3d6000fd5b505050506040513d6020811015610f4857600080fd5b505115610f935760008281526006602090815260408083206007546001600160a01b0316845290915290208054600160ff199182168117909255600580546002939192169083610eb9565b60009350505050610585565b610fa76114da565b6001825111610fb557600080fd5b60208101919091526000815290565b815160408051600184018082526020808202830101909252606092918015610ff6578160200160208202803883390190505b5091506000805b61100686611054565b1561104b5761101486611060565b8092508193505050600184838151811061102a57fe5b602002602001018181510191508181525050611046868261111a565b610ffd565b50509092525090565b60208101515190511090565b600080600061106e84611326565b905060088104925080600716600581111561108557fe5b915050915091565b6060600061109a83611326565b83516020850151519192508201908111156110b457600080fd5b816040519080825280601f01601f1916602001820160405280156110df576020820181803883390190505b50602080860151865192955091818601919083010160005b8581101561110f5781810151838201526020016110f7565b505050935250919050565b600081600581111561112857fe5b141561113d5761113782611326565b50611177565b600281600581111561114b57fe5b141561009e57600061115c83611326565b83518101808552602085015151919250111561113757600080fd5b5050565b60608083516040519080825280602002602001820160405280156111a9578160200160208202803883390190505b5090506000611224866040516020018082805190602001908083835b602083106111e45780518252601f1990920191602091820191016111c5565b6001836020036101000a03801982511681845116808217855250505050505090500191505060405160208183030381529060405280519060200120611381565b90506000805b865181101561131a576112508388838151811061124357fe5b60200260200101516113d2565b84828151811061125c57fe5b60200260200101906001600160a01b031690816001600160a01b031681525050851561131257816001600160a01b031684828151811061129857fe5b60200260200101516001600160a01b0316116112fb576040805162461bcd60e51b815260206004820152601e60248201527f7369676e657273206e6f7420696e20617363656e64696e67206f726465720000604482015290519081900360640190fd5b83818151811061130757fe5b602002602001015191505b60010161122a565b50919695505050505050565b602080820151825181019091015160009182805b600a81101561137b5783811a91508060070282607f16901b85179450816080166000141561137357855101600101855250610585915050565b60010161133a565b50600080fd5b604080517f19457468657265756d205369676e6564204d6573736167653a0a333200000000602080830191909152603c8083019490945282518083039094018452605c909101909152815191012090565b600081516041146113e5575060006105bc565b60208201516040830151606084015160001a601b81101561140457601b015b8060ff16601b1415801561141c57508060ff16601c14155b1561142d57600093505050506105bc565b6040805160008152602080820180845289905260ff8416828401526060820186905260808201859052915160019260a0808401939192601f1981019281900390910190855afa158015611484573d6000803e3d6000fd5b5050506020604051035193505050506105bc565b604051806040016040528060608152602001606081525090565b6040518060800160405280600081526020016000815260200160608152602001600081525090565b60405180604001604052806000815260200160608152509056fe6d73672e73656e646572206973206e6f7420706c617965723120616e6420706c6179657232a265627a7a72315820c62500be850d27da661d54dfcda32c7d396aa60f656e5005123275f884b9ae5264736f6c634300050c00326d73672e73656e646572206973206e6f7420706c617965723120616e6420706c6179657232",
  "source": "pragma solidity >=0.5.0 <0.6.0;\nimport \"../templates/SingleSessionBooleanOutcome.sol\";\nimport {DIDRegistry} from \"./DIDRegistry.sol\";\nimport \"../templates/ISecretStore.sol\";\n\ncontract AccessSecretRegistry is SingleSessionBooleanOutcome, ISecretStore{\n    mapping(bytes32 => mapping (address => bool)) private documentPermissionsState;\n    address player1;\n    address player2;\n    uint8 key;\n    mapping (bytes32 => uint8) private keyList;\n    mapping (uint8 => bytes32) private didList;\n    mapping (bytes32 => address) private didRegistryAddressList;\n   \n    constructor(\n        address[] memory _players,\n        uint _nonce, \n        uint _timeout,\n        bytes32 _did,\n        address _didRegistryAddress\n    )\n        public\n        SingleSessionBooleanOutcome(_players, _nonce, _timeout)\n    {\n        player1 = _players[0];\n        player2 = _players[1]; \n        key = 0;\n        setDID(_did, _didRegistryAddress);\n    }\n\n    event settedDID(\n        bytes32 did\n    );\n\n    /**\n     *  @notice Get the app outcome\n     *  @param _query Query args _query is key of didList\n     *  @return True if query satisfied\n     */\n    function getOutcome(bytes calldata _query) external view returns (bool) {\n        require(_query.length == 1, \"invalid query length\");\n        uint8 query = uint8(_query[0]);\n        bytes32 did = didList[query];\n        return (documentPermissionsState[did][player1] == true || documentPermissionsState[did][player2] == true);\n    }\n\n    /**\n     *  @notice Update state according to an off-chain state proof\n     *  @param _state Signed off-chain app state is key of didList \n     *  @return True if update success\n     */\n    function updateByState(bytes memory _state) internal returns (bool) {\n        require(_state.length == 1, \"invalid state length\");\n        require(msg.sender == player1 || msg.sender == player2, \"msg.sender is not channel peer\");\n        uint8 state = uint8(_state[0]);\n        require(state < key && state >= 0, \"invalid state\");\n        bytes32 did = didList[state];\n        address didRegistryAddress = didRegistryAddressList[did];\n        if(DIDRegistry(didRegistryAddress).isDIDOwnerOrProvider(player1, did)){\n            documentPermissionsState[did][player2] = true;\n            appInfo.status = AppStatus.FINALIZED;\n            return true;\n        } else if(DIDRegistry(didRegistryAddress).isDIDOwnerOrProvider(player2, did)){\n            documentPermissionsState[did][player1] = true;\n            appInfo.status = AppStatus.FINALIZED;\n            return true;\n        } else {\n            return false;\n        }\n    }\n\n    /**\n     *  @notice Set did to didList\n     *  @param _did (bytes32)\n     *  @param _didRegistryAddress (address)\n     */\n    function setDID(bytes32 _did, address _didRegistryAddress) public  {\n        require((key == 0 && appInfo.status == AppStatus.IDLE) || ( key > 0 && appInfo.status == AppStatus.FINALIZED), \"appInfo.status is not correct\");\n        require(msg.sender == player1 || msg.sender == player2, \"msg.sender is not player1 and player2\");\n        require(DIDRegistry(_didRegistryAddress).isDIDOwnerOrProvider(msg.sender, _did), \"msg.sender is not didOwner\");\n        didList[key] = _did;\n        keyList[_did] = key;\n        didRegistryAddressList[_did] = _didRegistryAddress;\n        key += 1;\n        appInfo.status = AppStatus.IDLE;\n        emit settedDID(_did);\n    }\n\n    /**\n     * @notice get did by key\n     * @param _key (uint8)\n     * @return did (bytes32)\n     */\n    function getDID(uint8 _key) public view returns (bytes32) {\n        return didList[_key];\n    }\n\n    /**\n     * @notice get key of didList\n     * @param _did (bytes32)\n     * @return key (uint8)\n     */\n    function getKeyDID(bytes32 _did) public view returns (uint8) {\n        return keyList[_did];\n    }\n\n    /**\n     *  @notice checkPermissions is called by Parity secret store\n     *  @param _documentId refers to the DID in which secret store will issue the decryption keys\n     *  @param _grantee is the address of the granted user of the DID provider\n     *  @return true if the access was granted\n     */\n    function checkPermissions(\n        address _grantee,\n        bytes32 _documentId\n    )\n        external view\n        returns (bool permissionGranted)\n    {\n        return documentPermissionsState[_documentId][_grantee] == true;\n    }\n\n}",
  "sourcePath": "/Users/hashimototatsuki/keeper-layer2/contracts/keeper-layer2/registry/AccessSecretRegistry.sol",
  "compiler": {
    "name": "solc",
    "version": "0.5.12+commit.7709ece9.Emscripten.clang"
  },
  "schemaVersion": "3.0.19",
  "updatedAt": "2019-12-17T15:54:10.314Z",
  "devdoc": {
    "methods": {
      "checkPermissions(address,bytes32)": {
        "params": {
          "_documentId": "refers to the DID in which secret store will issue the decryption keys",
          "_grantee": "is the address of the granted user of the DID provider"
        },
        "return": "true if the access was granted"
      },
      "getDID(uint8)": {
        "params": {
          "_key": "(uint8)"
        },
        "return": "did (bytes32)"
      },
      "getKeyDID(bytes32)": {
        "params": {
          "_did": "(bytes32)"
        },
        "return": "key (uint8)"
      },
      "getOutcome(bytes)": {
        "params": {
          "_query": "Query args _query is key of didList"
        },
        "return": "True if query satisfied"
      },
      "intendSettle(bytes)": {
        "params": {
          "_stateProof": "Serialized off-chain state with signatures"
        }
      },
      "isFinalized(bytes)": {
        "return": "True if app is finalized"
      },
      "setDID(bytes32,address)": {
        "params": {
          "_did": "(bytes32)",
          "_didRegistryAddress": "(address)"
        }
      }
    }
  },
  "userdoc": {
    "methods": {
      "checkPermissions(address,bytes32)": {
        "notice": "checkPermissions is called by Parity secret store"
      },
      "getDID(uint8)": {
        "notice": "get did by key"
      },
      "getKeyDID(bytes32)": {
        "notice": "get key of didList"
      },
      "getOutcome(bytes)": {
        "notice": "Get the app outcome"
      },
      "getSeqNum()": {
        "notice": "get app sequence number"
      },
      "getSettleFinalizedTime()": {
        "notice": "get state settle finalized time"
      },
      "getStatus()": {
        "notice": "get app status"
      },
      "intendSettle(bytes)": {
        "notice": "Submit and settle off-chain state"
      },
      "isFinalized(bytes)": {
        "notice": "Check if the app is finalized"
      },
      "setDID(bytes32,address)": {
        "notice": "Set did to didList"
      }
    }
  }
}