{
  "contractName": "BooleanCondMock",
  "abi": [
    {
      "constant": true,
      "inputs": [
        {
          "internalType": "bytes",
          "name": "_query",
          "type": "bytes"
        }
      ],
      "name": "isFinalized",
      "outputs": [
        {
          "internalType": "bool",
          "name": "",
          "type": "bool"
        }
      ],
      "payable": false,
      "stateMutability": "view",
      "type": "function"
    },
    {
      "constant": true,
      "inputs": [
        {
          "internalType": "bytes",
          "name": "_query",
          "type": "bytes"
        }
      ],
      "name": "getOutcome",
      "outputs": [
        {
          "internalType": "bool",
          "name": "",
          "type": "bool"
        }
      ],
      "payable": false,
      "stateMutability": "view",
      "type": "function"
    }
  ],
  "bytecode": "0x608060405234801561001057600080fd5b506101e0806100206000396000f3fe608060405234801561001057600080fd5b50600436106100365760003560e01c8063bcdbda941461003b578063ea4ba8eb146100bf575b600080fd5b6100ab6004803603602081101561005157600080fd5b81019060208101813564010000000081111561006c57600080fd5b82018360208201111561007e57600080fd5b803590602001918460018302840111640100000000831117156100a057600080fd5b50909250905061012f565b604080519115158252519081900360200190f35b6100ab600480360360208110156100d557600080fd5b8101906020810181356401000000008111156100f057600080fd5b82018360208201111561010257600080fd5b8035906020019184600183028401116401000000008311171561012457600080fd5b509092509050610137565b600192915050565b600061017883838080601f01602080910402602001604051908101604052809392919081815260200183838082843760009201919091525061017f92505050565b9392505050565b6000815160001415610193575060006101a6565b5060208181015182519091036008021c15155b91905056fea265627a7a72315820f049f3340ea4ed8b04faa727b494625b98bb9b9f3995f05a8d5a43993716bbff64736f6c634300050c0032",
  "source": "pragma solidity ^0.5.1;\n\nimport \"../lib/interface/IBooleanCond.sol\";\n\ncontract BooleanCondMock is IBooleanCond {\n    function isFinalized(bytes calldata _query) view external returns (bool) {\n        return true;\n    }\n\n    function getOutcome(bytes calldata _query) view external returns (bool) {\n        return _bytesToBool(_query);\n    }\n\n    function _bytesToBool(bytes memory _b) internal pure returns (bool) {\n        if (_b.length == 0) {\n            return false;\n        }\n\n        uint256 v;\n        assembly { v := mload(add(_b, 32)) }  // load all 32bytes to v\n        v = v >> (8 * (32 - _b.length));  // only first _b.length is valid\n        return v != 0;\n    }\n}",
  "sourcePath": "/Users/hashimototatsuki/keeper-channel/contracts/cChannel-eth/helper/BooleanCondMock.sol",
  "compiler": {
    "name": "solc",
    "version": "0.5.12+commit.7709ece9.Emscripten.clang"
  },
  "schemaVersion": "3.0.19",
  "updatedAt": "2019-12-15T12:23:50.390Z",
  "devdoc": {
    "methods": {}
  },
  "userdoc": {
    "methods": {}
  }
}