{
  "contractName": "CelerLedgerMock",
  "abi": [
    {
      "inputs": [
        {
          "internalType": "address",
          "name": "_ethPool",
          "type": "address"
        },
        {
          "internalType": "address",
          "name": "_payRegistry",
          "type": "address"
        },
        {
          "internalType": "address",
          "name": "_celerWallet",
          "type": "address"
        }
      ],
      "payable": false,
      "stateMutability": "nonpayable",
      "type": "constructor"
    },
    {
      "anonymous": false,
      "inputs": [
        {
          "indexed": true,
          "internalType": "bytes32",
          "name": "channelId",
          "type": "bytes32"
        },
        {
          "indexed": true,
          "internalType": "bytes32",
          "name": "payId",
          "type": "bytes32"
        },
        {
          "indexed": true,
          "internalType": "address",
          "name": "peerFrom",
          "type": "address"
        },
        {
          "indexed": false,
          "internalType": "uint256",
          "name": "amount",
          "type": "uint256"
        }
      ],
      "name": "ClearOnePay",
      "type": "event"
    },
    {
      "anonymous": false,
      "inputs": [
        {
          "indexed": true,
          "internalType": "bytes32",
          "name": "channelId",
          "type": "bytes32"
        },
        {
          "indexed": false,
          "internalType": "uint256[2]",
          "name": "settleBalance",
          "type": "uint256[2]"
        }
      ],
      "name": "ConfirmSettle",
      "type": "event"
    },
    {
      "anonymous": false,
      "inputs": [
        {
          "indexed": true,
          "internalType": "bytes32",
          "name": "channelId",
          "type": "bytes32"
        }
      ],
      "name": "ConfirmSettleFail",
      "type": "event"
    },
    {
      "anonymous": false,
      "inputs": [
        {
          "indexed": true,
          "internalType": "bytes32",
          "name": "channelId",
          "type": "bytes32"
        },
        {
          "indexed": false,
          "internalType": "uint256",
          "name": "withdrawnAmount",
          "type": "uint256"
        },
        {
          "indexed": true,
          "internalType": "address",
          "name": "receiver",
          "type": "address"
        },
        {
          "indexed": true,
          "internalType": "bytes32",
          "name": "recipientChannelId",
          "type": "bytes32"
        },
        {
          "indexed": false,
          "internalType": "uint256[2]",
          "name": "deposits",
          "type": "uint256[2]"
        },
        {
          "indexed": false,
          "internalType": "uint256[2]",
          "name": "withdrawals",
          "type": "uint256[2]"
        }
      ],
      "name": "ConfirmWithdraw",
      "type": "event"
    },
    {
      "anonymous": false,
      "inputs": [
        {
          "indexed": true,
          "internalType": "bytes32",
          "name": "channelId",
          "type": "bytes32"
        },
        {
          "indexed": false,
          "internalType": "uint256[2]",
          "name": "settleBalance",
          "type": "uint256[2]"
        }
      ],
      "name": "CooperativeSettle",
      "type": "event"
    },
    {
      "anonymous": false,
      "inputs": [
        {
          "indexed": true,
          "internalType": "bytes32",
          "name": "channelId",
          "type": "bytes32"
        },
        {
          "indexed": false,
          "internalType": "uint256",
          "name": "withdrawnAmount",
          "type": "uint256"
        },
        {
          "indexed": true,
          "internalType": "address",
          "name": "receiver",
          "type": "address"
        },
        {
          "indexed": true,
          "internalType": "bytes32",
          "name": "recipientChannelId",
          "type": "bytes32"
        },
        {
          "indexed": false,
          "internalType": "uint256[2]",
          "name": "deposits",
          "type": "uint256[2]"
        },
        {
          "indexed": false,
          "internalType": "uint256[2]",
          "name": "withdrawals",
          "type": "uint256[2]"
        },
        {
          "indexed": false,
          "internalType": "uint256",
          "name": "seqNum",
          "type": "uint256"
        }
      ],
      "name": "CooperativeWithdraw",
      "type": "event"
    },
    {
      "anonymous": false,
      "inputs": [
        {
          "indexed": true,
          "internalType": "bytes32",
          "name": "channelId",
          "type": "bytes32"
        },
        {
          "indexed": false,
          "internalType": "address[2]",
          "name": "peerAddrs",
          "type": "address[2]"
        },
        {
          "indexed": false,
          "internalType": "uint256[2]",
          "name": "deposits",
          "type": "uint256[2]"
        },
        {
          "indexed": false,
          "internalType": "uint256[2]",
          "name": "withdrawals",
          "type": "uint256[2]"
        }
      ],
      "name": "Deposit",
      "type": "event"
    },
    {
      "anonymous": false,
      "inputs": [
        {
          "indexed": true,
          "internalType": "bytes32",
          "name": "channelId",
          "type": "bytes32"
        },
        {
          "indexed": false,
          "internalType": "uint256[2]",
          "name": "seqNums",
          "type": "uint256[2]"
        }
      ],
      "name": "IntendSettle",
      "type": "event"
    },
    {
      "anonymous": false,
      "inputs": [
        {
          "indexed": true,
          "internalType": "bytes32",
          "name": "channelId",
          "type": "bytes32"
        },
        {
          "indexed": true,
          "internalType": "address",
          "name": "receiver",
          "type": "address"
        },
        {
          "indexed": false,
          "internalType": "uint256",
          "name": "amount",
          "type": "uint256"
        }
      ],
      "name": "IntendWithdraw",
      "type": "event"
    },
    {
      "anonymous": false,
      "inputs": [
        {
          "indexed": true,
          "internalType": "bytes32",
          "name": "channelId",
          "type": "bytes32"
        },
        {
          "indexed": false,
          "internalType": "uint256",
          "name": "tokenType",
          "type": "uint256"
        },
        {
          "indexed": true,
          "internalType": "address",
          "name": "tokenAddress",
          "type": "address"
        },
        {
          "indexed": false,
          "internalType": "address[2]",
          "name": "peerAddrs",
          "type": "address[2]"
        },
        {
          "indexed": false,
          "internalType": "uint256[2]",
          "name": "initialDeposits",
          "type": "uint256[2]"
        }
      ],
      "name": "OpenChannel",
      "type": "event"
    },
    {
      "anonymous": false,
      "inputs": [
        {
          "indexed": true,
          "internalType": "bytes32",
          "name": "channelId",
          "type": "bytes32"
        },
        {
          "indexed": false,
          "internalType": "uint256[2]",
          "name": "seqNums",
          "type": "uint256[2]"
        }
      ],
      "name": "SnapshotStates",
      "type": "event"
    },
    {
      "anonymous": false,
      "inputs": [
        {
          "indexed": true,
          "internalType": "bytes32",
          "name": "channelId",
          "type": "bytes32"
        }
      ],
      "name": "VetoWithdraw",
      "type": "event"
    },
    {
      "constant": true,
      "inputs": [],
      "name": "tmpChannelId",
      "outputs": [
        {
          "internalType": "bytes32",
          "name": "",
          "type": "bytes32"
        }
      ],
      "payable": false,
      "stateMutability": "view",
      "type": "function"
    },
    {
      "constant": true,
      "inputs": [
        {
          "internalType": "uint256",
          "name": "",
          "type": "uint256"
        }
      ],
      "name": "tmpChannelIds",
      "outputs": [
        {
          "internalType": "bytes32",
          "name": "",
          "type": "bytes32"
        }
      ],
      "payable": false,
      "stateMutability": "view",
      "type": "function"
    },
    {
      "constant": false,
      "inputs": [
        {
          "internalType": "bytes32",
          "name": "_channelId",
          "type": "bytes32"
        },
        {
          "internalType": "uint256",
          "name": "_disputeTimeout",
          "type": "uint256"
        },
        {
          "internalType": "address",
          "name": "_tokenAddress",
          "type": "address"
        },
        {
          "internalType": "uint256",
          "name": "_tokenType",
          "type": "uint256"
        },
        {
          "internalType": "address[2]",
          "name": "_peerAddrs",
          "type": "address[2]"
        },
        {
          "internalType": "uint256[2]",
          "name": "_deposits",
          "type": "uint256[2]"
        }
      ],
      "name": "openChannelMockSet",
      "outputs": [],
      "payable": false,
      "stateMutability": "nonpayable",
      "type": "function"
    },
    {
      "constant": false,
      "inputs": [
        {
          "internalType": "bytes",
          "name": "_openRequest",
          "type": "bytes"
        }
      ],
      "name": "openChannel",
      "outputs": [],
      "payable": true,
      "stateMutability": "payable",
      "type": "function"
    },
    {
      "constant": false,
      "inputs": [
        {
          "internalType": "bytes32",
          "name": "_channelId",
          "type": "bytes32"
        },
        {
          "internalType": "address",
          "name": "_receiver",
          "type": "address"
        },
        {
          "internalType": "uint256",
          "name": "_transferFromAmount",
          "type": "uint256"
        }
      ],
      "name": "deposit",
      "outputs": [],
      "payable": true,
      "stateMutability": "payable",
      "type": "function"
    },
    {
      "constant": false,
      "inputs": [
        {
          "internalType": "bytes32[]",
          "name": "_channelIds",
          "type": "bytes32[]"
        },
        {
          "internalType": "address[]",
          "name": "_peerFroms",
          "type": "address[]"
        },
        {
          "internalType": "uint256[]",
          "name": "_seqNums",
          "type": "uint256[]"
        },
        {
          "internalType": "uint256[]",
          "name": "_transferOuts",
          "type": "uint256[]"
        },
        {
          "internalType": "uint256[]",
          "name": "_pendingPayOuts",
          "type": "uint256[]"
        }
      ],
      "name": "snapshotStatesMockSet",
      "outputs": [],
      "payable": false,
      "stateMutability": "nonpayable",
      "type": "function"
    },
    {
      "constant": false,
      "inputs": [
        {
          "internalType": "bytes",
          "name": "_signedSimplexStateArray",
          "type": "bytes"
        }
      ],
      "name": "snapshotStates",
      "outputs": [],
      "payable": false,
      "stateMutability": "nonpayable",
      "type": "function"
    },
    {
      "constant": false,
      "inputs": [
        {
          "internalType": "bytes32",
          "name": "_channelId",
          "type": "bytes32"
        },
        {
          "internalType": "uint256",
          "name": "_amount",
          "type": "uint256"
        },
        {
          "internalType": "bytes32",
          "name": "_recipientChannelId",
          "type": "bytes32"
        },
        {
          "internalType": "address",
          "name": "_receiver",
          "type": "address"
        }
      ],
      "name": "intendWithdrawMockSet",
      "outputs": [],
      "payable": false,
      "stateMutability": "nonpayable",
      "type": "function"
    },
    {
      "constant": false,
      "inputs": [
        {
          "internalType": "bytes32",
          "name": "_channelId",
          "type": "bytes32"
        },
        {
          "internalType": "uint256",
          "name": "_amount",
          "type": "uint256"
        },
        {
          "internalType": "bytes32",
          "name": "_recipientChannelId",
          "type": "bytes32"
        }
      ],
      "name": "intendWithdraw",
      "outputs": [],
      "payable": false,
      "stateMutability": "nonpayable",
      "type": "function"
    },
    {
      "constant": false,
      "inputs": [
        {
          "internalType": "bytes32",
          "name": "_channelId",
          "type": "bytes32"
        }
      ],
      "name": "confirmWithdraw",
      "outputs": [],
      "payable": false,
      "stateMutability": "nonpayable",
      "type": "function"
    },
    {
      "constant": false,
      "inputs": [
        {
          "internalType": "bytes32",
          "name": "_channelId",
          "type": "bytes32"
        }
      ],
      "name": "vetoWithdraw",
      "outputs": [],
      "payable": false,
      "stateMutability": "nonpayable",
      "type": "function"
    },
    {
      "constant": false,
      "inputs": [
        {
          "internalType": "bytes32",
          "name": "_channelId",
          "type": "bytes32"
        },
        {
          "internalType": "address",
          "name": "_peerFrom",
          "type": "address"
        },
        {
          "internalType": "uint256",
          "name": "_seqNum",
          "type": "uint256"
        },
        {
          "internalType": "uint256",
          "name": "_transferOut",
          "type": "uint256"
        },
        {
          "internalType": "bytes32",
          "name": "_nextPayIdListHash",
          "type": "bytes32"
        },
        {
          "internalType": "uint256",
          "name": "_lastPayResolveDeadline",
          "type": "uint256"
        },
        {
          "internalType": "uint256",
          "name": "_pendingPayOut",
          "type": "uint256"
        }
      ],
      "name": "intendSettleMockSet",
      "outputs": [],
      "payable": false,
      "stateMutability": "nonpayable",
      "type": "function"
    },
    {
      "constant": false,
      "inputs": [
        {
          "internalType": "bytes",
          "name": "_signedSimplexStateArray",
          "type": "bytes"
        }
      ],
      "name": "intendSettle",
      "outputs": [],
      "payable": false,
      "stateMutability": "nonpayable",
      "type": "function"
    },
    {
      "constant": false,
      "inputs": [
        {
          "internalType": "bytes",
          "name": "_signedSimplexStateArray",
          "type": "bytes"
        }
      ],
      "name": "intendSettleRevert",
      "outputs": [],
      "payable": false,
      "stateMutability": "nonpayable",
      "type": "function"
    },
    {
      "constant": false,
      "inputs": [
        {
          "internalType": "bytes32",
          "name": "_channelId",
          "type": "bytes32"
        }
      ],
      "name": "confirmSettle",
      "outputs": [],
      "payable": false,
      "stateMutability": "nonpayable",
      "type": "function"
    },
    {
      "constant": true,
      "inputs": [
        {
          "internalType": "bytes32",
          "name": "_channelId",
          "type": "bytes32"
        }
      ],
      "name": "getSettleFinalizedTime",
      "outputs": [
        {
          "internalType": "uint256",
          "name": "",
          "type": "uint256"
        }
      ],
      "payable": false,
      "stateMutability": "view",
      "type": "function"
    },
    {
      "constant": true,
      "inputs": [
        {
          "internalType": "bytes32",
          "name": "_channelId",
          "type": "bytes32"
        }
      ],
      "name": "getTokenContract",
      "outputs": [
        {
          "internalType": "address",
          "name": "",
          "type": "address"
        }
      ],
      "payable": false,
      "stateMutability": "view",
      "type": "function"
    },
    {
      "constant": true,
      "inputs": [
        {
          "internalType": "bytes32",
          "name": "_channelId",
          "type": "bytes32"
        }
      ],
      "name": "getTokenType",
      "outputs": [
        {
          "internalType": "enum PbEntity.TokenType",
          "name": "",
          "type": "uint8"
        }
      ],
      "payable": false,
      "stateMutability": "view",
      "type": "function"
    },
    {
      "constant": true,
      "inputs": [
        {
          "internalType": "bytes32",
          "name": "_channelId",
          "type": "bytes32"
        }
      ],
      "name": "getChannelStatus",
      "outputs": [
        {
          "internalType": "enum LedgerStruct.ChannelStatus",
          "name": "",
          "type": "uint8"
        }
      ],
      "payable": false,
      "stateMutability": "view",
      "type": "function"
    },
    {
      "constant": true,
      "inputs": [
        {
          "internalType": "bytes32",
          "name": "_channelId",
          "type": "bytes32"
        }
      ],
      "name": "getCooperativeWithdrawSeqNum",
      "outputs": [
        {
          "internalType": "uint256",
          "name": "",
          "type": "uint256"
        }
      ],
      "payable": false,
      "stateMutability": "view",
      "type": "function"
    },
    {
      "constant": true,
      "inputs": [
        {
          "internalType": "bytes32",
          "name": "_channelId",
          "type": "bytes32"
        }
      ],
      "name": "getTotalBalance",
      "outputs": [
        {
          "internalType": "uint256",
          "name": "",
          "type": "uint256"
        }
      ],
      "payable": false,
      "stateMutability": "view",
      "type": "function"
    },
    {
      "constant": true,
      "inputs": [
        {
          "internalType": "bytes32",
          "name": "_channelId",
          "type": "bytes32"
        }
      ],
      "name": "getBalanceMap",
      "outputs": [
        {
          "internalType": "address[2]",
          "name": "",
          "type": "address[2]"
        },
        {
          "internalType": "uint256[2]",
          "name": "",
          "type": "uint256[2]"
        },
        {
          "internalType": "uint256[2]",
          "name": "",
          "type": "uint256[2]"
        }
      ],
      "payable": false,
      "stateMutability": "view",
      "type": "function"
    },
    {
      "constant": true,
      "inputs": [
        {
          "internalType": "bytes32",
          "name": "_channelId",
          "type": "bytes32"
        }
      ],
      "name": "getChannelMigrationArgs",
      "outputs": [
        {
          "internalType": "uint256",
          "name": "",
          "type": "uint256"
        },
        {
          "internalType": "uint256",
          "name": "",
          "type": "uint256"
        },
        {
          "internalType": "address",
          "name": "",
          "type": "address"
        },
        {
          "internalType": "uint256",
          "name": "",
          "type": "uint256"
        }
      ],
      "payable": false,
      "stateMutability": "view",
      "type": "function"
    },
    {
      "constant": true,
      "inputs": [
        {
          "internalType": "bytes32",
          "name": "_channelId",
          "type": "bytes32"
        }
      ],
      "name": "getPeersMigrationInfo",
      "outputs": [
        {
          "internalType": "address[2]",
          "name": "",
          "type": "address[2]"
        },
        {
          "internalType": "uint256[2]",
          "name": "",
          "type": "uint256[2]"
        },
        {
          "internalType": "uint256[2]",
          "name": "",
          "type": "uint256[2]"
        },
        {
          "internalType": "uint256[2]",
          "name": "",
          "type": "uint256[2]"
        },
        {
          "internalType": "uint256[2]",
          "name": "",
          "type": "uint256[2]"
        },
        {
          "internalType": "uint256[2]",
          "name": "",
          "type": "uint256[2]"
        }
      ],
      "payable": false,
      "stateMutability": "view",
      "type": "function"
    },
    {
      "constant": true,
      "inputs": [
        {
          "internalType": "bytes32",
          "name": "_channelId",
          "type": "bytes32"
        }
      ],
      "name": "getDisputeTimeout",
      "outputs": [
        {
          "internalType": "uint256",
          "name": "",
          "type": "uint256"
        }
      ],
      "payable": false,
      "stateMutability": "view",
      "type": "function"
    },
    {
      "constant": true,
      "inputs": [
        {
          "internalType": "bytes32",
          "name": "_channelId",
          "type": "bytes32"
        }
      ],
      "name": "getMigratedTo",
      "outputs": [
        {
          "internalType": "address",
          "name": "",
          "type": "address"
        }
      ],
      "payable": false,
      "stateMutability": "view",
      "type": "function"
    },
    {
      "constant": true,
      "inputs": [
        {
          "internalType": "bytes32",
          "name": "_channelId",
          "type": "bytes32"
        }
      ],
      "name": "getStateSeqNumMap",
      "outputs": [
        {
          "internalType": "address[2]",
          "name": "",
          "type": "address[2]"
        },
        {
          "internalType": "uint256[2]",
          "name": "",
          "type": "uint256[2]"
        }
      ],
      "payable": false,
      "stateMutability": "view",
      "type": "function"
    },
    {
      "constant": true,
      "inputs": [
        {
          "internalType": "bytes32",
          "name": "_channelId",
          "type": "bytes32"
        }
      ],
      "name": "getTransferOutMap",
      "outputs": [
        {
          "internalType": "address[2]",
          "name": "",
          "type": "address[2]"
        },
        {
          "internalType": "uint256[2]",
          "name": "",
          "type": "uint256[2]"
        }
      ],
      "payable": false,
      "stateMutability": "view",
      "type": "function"
    },
    {
      "constant": true,
      "inputs": [
        {
          "internalType": "bytes32",
          "name": "_channelId",
          "type": "bytes32"
        }
      ],
      "name": "getNextPayIdListHashMap",
      "outputs": [
        {
          "internalType": "address[2]",
          "name": "",
          "type": "address[2]"
        },
        {
          "internalType": "bytes32[2]",
          "name": "",
          "type": "bytes32[2]"
        }
      ],
      "payable": false,
      "stateMutability": "view",
      "type": "function"
    },
    {
      "constant": true,
      "inputs": [
        {
          "internalType": "bytes32",
          "name": "_channelId",
          "type": "bytes32"
        }
      ],
      "name": "getLastPayResolveDeadlineMap",
      "outputs": [
        {
          "internalType": "address[2]",
          "name": "",
          "type": "address[2]"
        },
        {
          "internalType": "uint256[2]",
          "name": "",
          "type": "uint256[2]"
        }
      ],
      "payable": false,
      "stateMutability": "view",
      "type": "function"
    },
    {
      "constant": true,
      "inputs": [
        {
          "internalType": "bytes32",
          "name": "_channelId",
          "type": "bytes32"
        }
      ],
      "name": "getPendingPayOutMap",
      "outputs": [
        {
          "internalType": "address[2]",
          "name": "",
          "type": "address[2]"
        },
        {
          "internalType": "uint256[2]",
          "name": "",
          "type": "uint256[2]"
        }
      ],
      "payable": false,
      "stateMutability": "view",
      "type": "function"
    },
    {
      "constant": true,
      "inputs": [
        {
          "internalType": "bytes32",
          "name": "_channelId",
          "type": "bytes32"
        }
      ],
      "name": "getWithdrawIntent",
      "outputs": [
        {
          "internalType": "address",
          "name": "",
          "type": "address"
        },
        {
          "internalType": "uint256",
          "name": "",
          "type": "uint256"
        },
        {
          "internalType": "uint256",
          "name": "",
          "type": "uint256"
        },
        {
          "internalType": "bytes32",
          "name": "",
          "type": "bytes32"
        }
      ],
      "payable": false,
      "stateMutability": "view",
      "type": "function"
    },
    {
      "constant": true,
      "inputs": [
        {
          "internalType": "uint256",
          "name": "_channelStatus",
          "type": "uint256"
        }
      ],
      "name": "getChannelStatusNum",
      "outputs": [
        {
          "internalType": "uint256",
          "name": "",
          "type": "uint256"
        }
      ],
      "payable": false,
      "stateMutability": "view",
      "type": "function"
    },
    {
      "constant": true,
      "inputs": [],
      "name": "getEthPool",
      "outputs": [
        {
          "internalType": "address",
          "name": "",
          "type": "address"
        }
      ],
      "payable": false,
      "stateMutability": "view",
      "type": "function"
    },
    {
      "constant": true,
      "inputs": [],
      "name": "getPayRegistry",
      "outputs": [
        {
          "internalType": "address",
          "name": "",
          "type": "address"
        }
      ],
      "payable": false,
      "stateMutability": "view",
      "type": "function"
    },
    {
      "constant": true,
      "inputs": [],
      "name": "getCelerWallet",
      "outputs": [
        {
          "internalType": "address",
          "name": "",
          "type": "address"
        }
      ],
      "payable": false,
      "stateMutability": "view",
      "type": "function"
    },
    {
      "constant": true,
      "inputs": [
        {
          "internalType": "address",
          "name": "_tokenAddr",
          "type": "address"
        }
      ],
      "name": "getBalanceLimit",
      "outputs": [
        {
          "internalType": "uint256",
          "name": "",
          "type": "uint256"
        }
      ],
      "payable": false,
      "stateMutability": "view",
      "type": "function"
    },
    {
      "constant": true,
      "inputs": [],
      "name": "getBalanceLimitsEnabled",
      "outputs": [
        {
          "internalType": "bool",
          "name": "",
          "type": "bool"
        }
      ],
      "payable": false,
      "stateMutability": "view",
      "type": "function"
    }
  ],
  "bytecode": "0x608060405234801561001057600080fd5b50604051612adb380380612adb8339818101604052606081101561003357600080fd5b5080516020820151604090920151600180546001600160a01b03199081166001600160a01b03948516178255600280548216958516959095179094556003805490941692909116919091179091556005805460ff19169091179055612a3e8061009d6000396000f3fe6080604052600436106102255760003560e01c8063979a9b5e11610123578063cd3a1be6116100ab578063e6322df71161006f578063e6322df714610d09578063e803255714610d33578063ec7c637d14610d83578063eff3417c14610db6578063f0c73d7014610e0d57610225565b8063cd3a1be614610c44578063d4e3680f14610c6e578063d75f960e14610c98578063d927bfc414610cad578063d954863c14610cd757610225565b8063b962a1d8116100f2578063b962a1d814610ae4578063bd480cb714610af9578063c38a325d14610bb6578063c7ff862514610be0578063cc0b94b714610c0a57610225565b8063979a9b5e146109dc5780639f1fad8314610a2a578063a099a39f14610a54578063a979e22914610a6957610225565b8063312ea2c6116101b15780637e9a7a3e116101755780637e9a7a3e1461078857806388f41465146107b25780638942ecb2146108f35780638f16cef41461092957806393b7b3ce1461096e57610225565b8063312ea2c61461064a5780634102b9a81461065f578063666a6d65146106da57806369d5dd671461070457806376bff1171461072e57610225565b8063255aab59116101f8578063255aab591461052f5780632b559ecc146105595780632e2a5a02146105825780632f0ac304146105c8578063307d6f961461062057610225565b80630165cef81461022a57806309b65d86146102bb578063130d33fe146102f757806314ff149114610374575b600080fd5b34801561023657600080fd5b506102546004803603602081101561024d57600080fd5b5035610e37565b6040518083600260200280838360005b8381101561027c578181015183820152602001610264565b5050505090500182600260200280838360005b838110156102a757818101518382015260200161028f565b505050509050019250505060405180910390f35b3480156102c757600080fd5b506102e5600480360360208110156102de57600080fd5b5035610ef3565b60408051918252519081900360200190f35b34801561030357600080fd5b506103726004803603602081101561031a57600080fd5b810190602081018135600160201b81111561033457600080fd5b82018360208201111561034657600080fd5b803590602001918460018302840111600160201b8311171561036757600080fd5b509092509050610f85565b005b34801561038057600080fd5b50610372600480360360a081101561039757600080fd5b810190602081018135600160201b8111156103b157600080fd5b8201836020820111156103c357600080fd5b803590602001918460208302840111600160201b831117156103e457600080fd5b919390929091602081019035600160201b81111561040157600080fd5b82018360208201111561041357600080fd5b803590602001918460208302840111600160201b8311171561043457600080fd5b919390929091602081019035600160201b81111561045157600080fd5b82018360208201111561046357600080fd5b803590602001918460208302840111600160201b8311171561048457600080fd5b919390929091602081019035600160201b8111156104a157600080fd5b8201836020820111156104b357600080fd5b803590602001918460208302840111600160201b831117156104d457600080fd5b919390929091602081019035600160201b8111156104f157600080fd5b82018360208201111561050357600080fd5b803590602001918460208302840111600160201b8311171561052457600080fd5b509092509050611000565b34801561053b57600080fd5b506103726004803603602081101561055257600080fd5b50356110f5565b34801561056557600080fd5b5061056e61126f565b604080519115158252519081900360200190f35b34801561058e57600080fd5b506105ac600480360360208110156105a557600080fd5b5035611279565b604080516001600160a01b039092168252519081900360200190f35b3480156105d457600080fd5b506105f2600480360360208110156105eb57600080fd5b50356112d8565b6040805194855260208501939093526001600160a01b03909116838301526060830152519081900360800190f35b34801561062c57600080fd5b506102e56004803603602081101561064357600080fd5b503561138d565b34801561065657600080fd5b506105ac61139f565b34801561066b57600080fd5b506103726004803603602081101561068257600080fd5b810190602081018135600160201b81111561069c57600080fd5b8201836020820111156106ae57600080fd5b803590602001918460018302840111600160201b831117156106cf57600080fd5b5090925090506113ae565b3480156106e657600080fd5b50610254600480360360208110156106fd57600080fd5b5035611475565b34801561071057600080fd5b506102e56004803603602081101561072757600080fd5b50356114e8565b34801561073a57600080fd5b506107586004803603602081101561075157600080fd5b5035611547565b604080516001600160a01b0390951685526020850193909352838301919091526060830152519081900360800190f35b34801561079457600080fd5b50610372600480360360208110156107ab57600080fd5b50356115af565b3480156107be57600080fd5b506107dc600480360360208110156107d557600080fd5b503561175e565b6040518087600260200280838360005b838110156108045781810151838201526020016107ec565b5050505090500186600260200280838360005b8381101561082f578181015183820152602001610817565b5050505090500185600260200280838360005b8381101561085a578181015183820152602001610842565b5050505090500184600260200280838360005b8381101561088557818101518382015260200161086d565b5050505090500183600260200280838360005b838110156108b0578181015183820152602001610898565b5050505090500182600260200280838360005b838110156108db5781810151838201526020016108c3565b50505050905001965050505050505060405180910390f35b3480156108ff57600080fd5b506103726004803603606081101561091657600080fd5b5080359060208101359060400135611854565b34801561093557600080fd5b506103726004803603608081101561094c57600080fd5b50803590602081013590604081013590606001356001600160a01b03166118b2565b6103726004803603602081101561098457600080fd5b810190602081018135600160201b81111561099e57600080fd5b8201836020820111156109b057600080fd5b803590602001918460018302840111600160201b831117156109d157600080fd5b5090925090506118fc565b3480156109e857600080fd5b50610a06600480360360208110156109ff57600080fd5b5035611a22565b60405180826002811115610a1657fe5b60ff16815260200191505060405180910390f35b348015610a3657600080fd5b5061025460048036036020811015610a4d57600080fd5b5035611a81565b348015610a6057600080fd5b506105ac611af4565b348015610a7557600080fd5b5061037260048036036020811015610a8c57600080fd5b810190602081018135600160201b811115610aa657600080fd5b820183602082011115610ab857600080fd5b803590602001918460018302840111600160201b83111715610ad957600080fd5b509092509050610225565b348015610af057600080fd5b506102e5611b03565b348015610b0557600080fd5b50610b2360048036036020811015610b1c57600080fd5b5035611b09565b6040518084600260200280838360005b83811015610b4b578181015183820152602001610b33565b5050505090500183600260200280838360005b83811015610b76578181015183820152602001610b5e565b5050505090500182600260200280838360005b83811015610ba1578181015183820152602001610b89565b50505050905001935050505060405180910390f35b348015610bc257600080fd5b506105ac60048036036020811015610bd957600080fd5b5035611bd1565b348015610bec57600080fd5b5061037260048036036020811015610c0357600080fd5b5035611c30565b348015610c1657600080fd5b50610c3460048036036020811015610c2d57600080fd5b5035611d04565b60405180826004811115610a1657fe5b348015610c5057600080fd5b5061025460048036036020811015610c6757600080fd5b5035611d63565b348015610c7a57600080fd5b506102e560048036036020811015610c9157600080fd5b5035611dd6565b348015610ca457600080fd5b506105ac611df4565b348015610cb957600080fd5b5061025460048036036020811015610cd057600080fd5b5035611e03565b61037260048036036060811015610ced57600080fd5b508035906001600160a01b036020820135169060400135611e76565b348015610d1557600080fd5b506102e560048036036020811015610d2c57600080fd5b5035612065565b348015610d3f57600080fd5b506103726004803603610100811015610d5757600080fd5b508035906020810135906001600160a01b0360408201351690606081013590608081019060c0016120c4565b348015610d8f57600080fd5b506102e560048036036020811015610da657600080fd5b50356001600160a01b031661218b565b348015610dc257600080fd5b50610372600480360360e0811015610dd957600080fd5b508035906001600160a01b036020820135169060408101359060608101359060808101359060a08101359060c001356121a6565b348015610e1957600080fd5b506102e560048036036020811015610e3057600080fd5b503561221c565b610e3f6128f1565b610e476128f1565b60008381526006602052604090819020815163bcdf4ebb60e01b8152600481018290529151909173__LedgerChannel_________________________9163bcdf4ebb91602480820192608092909190829003018186803b158015610eaa57600080fd5b505af4158015610ebe573d6000803e3d6000fd5b505050506040513d601f19601f820116820180604052506080811015610ee357600080fd5b509250506040820190505b915091565b6000818152600660209081526040808320815163418ec10160e01b8152600481018290529151909273__LedgerChannel_________________________9263418ec1019260248083019392829003018186803b158015610f5257600080fd5b505af4158015610f66573d6000803e3d6000fd5b505050506040513d6020811015610f7c57600080fd5b50519392505050565b6007546000818152600660205260409020907f296143e7e25aa055fbb871702776a67da540876e2be721d5c38ba23c97c90d64610fc18361227b565b6040518082600260200280838360005b83811015610fe9578181015183820152602001610fd1565b5050505090500191505060405180910390a2505050565b60005b898110156110db5760006006818d8d8581811061101c57fe5b905060200201358152602001908152602001600020905060006110638b8b8581811061104457fe5b905060200201356001600160a01b0316836122a390919063ffffffff16565b9050600082600401826002811061107657fe5b60080201600301905089898581811061108b57fe5b60200291909101358255508787858181106110a257fe5b60200291909101356001830155508585858181106110bc57fe5b9050602002013581600401819055505050508080600101915050611003565b506110e860088b8b61290f565b5050505050505050505050565b60008181526006602052604090206001600382015460ff16600481111561111857fe5b14611161576040805162461bcd60e51b815260206004820152601460248201527321b430b73732b61039ba30ba3ab99032b93937b960611b604482015290519081900360640190fd5b60158101546001600160a01b03166111c0576040805162461bcd60e51b815260206004820152601a60248201527f4e6f2070656e64696e6720776974686472617720696e74656e74000000000000604482015290519081900360640190fd5b6111d0813363ffffffff61232916565b61121a576040805162461bcd60e51b815260206004820152601660248201527536b9b39739b2b73232b91034b9903737ba103832b2b960511b604482015290519081900360640190fd5b6015810180546001600160a01b0319169055600060168201819055601782018190556018820181905560405183917f9a8a5493b616f074b3f754b5fd66049c8e7980f01547289e5e31808485c6002c91a25050565b60055460ff165b90565b60008181526006602090815260408083208151630fea54e160e11b8152600481018290529151909273__LedgerChannel_________________________92631fd4a9c29260248083019392829003018186803b158015610f5257600080fd5b600081815260066020526040808220815163c2f8816b60e01b8152600481018290529151839283928392909173__LedgerChannel_________________________9163c2f8816b91602480820192608092909190829003018186803b15801561134057600080fd5b505af4158015611354573d6000803e3d6000fd5b505050506040513d608081101561136a57600080fd5b508051602082015160408301516060909301519199909850919650945092505050565b60009081526020819052604090205490565b6002546001600160a01b031690565b60005b600854811015611470576000806006016000600884815481106113d057fe5b906000526020600020015481526020019081526020016000209050600882815481106113f857fe5b90600052602060002001547fd0793cc4198bf052a6d91a9a1273c4af39f02a91b0e19029477511c278c5b27161142d8361227b565b6040518082600260200280838360005b8381101561145557818101518382015260200161143d565b5050505090500191505060405180910390a2506001016113b1565b505050565b61147d6128f1565b6114856128f1565b60008381526006602052604090819020815163640a694760e11b8152600481018290529151909173__LedgerChannel_________________________9163c814d28e91602480820192608092909190829003018186803b158015610eaa57600080fd5b60008181526006602090815260408083208151636b5c4f1d60e11b8152600481018290529151909273__LedgerChannel_________________________9263d6b89e3a9260248083019392829003018186803b158015610f5257600080fd5b600081815260066020526040808220815163c46dd9dd60e01b8152600481018290529151839283928392909173__LedgerChannel_________________________9163c46dd9dd91602480820192608092909190829003018186803b15801561134057600080fd5b60008181526006602052604081206015810180546016830180546018850180546001600160a01b03198516909555918690556017850186905594905591926001600160a01b03909216919061160b84848463ffffffff61236016565b6116136128f1565b61161b6128f1565b8573__LedgerChannel_________________________63c8ed149e90916040518263ffffffff1660e01b81526004018082815260200191505060c06040518083038186803b15801561166c57600080fd5b505af4158015611680573d6000803e3d6000fd5b505050506040513d601f19601f8201168201806040525060c08110156116a557600080fd5b506040805186815281830194506080909201925084916001600160a01b038816918a917fe8110b4ee08638c48f6a4d5f726927df4e541893efa9d2c2c47a6b889041826e91899188918891906020820190849080838360005b838110156117165781810151838201526020016116fe565b5050505090500182600260200280838360005b83811015611741578181015183820152602001611729565b50505050905001935050505060405180910390a450505050505050565b6117666128f1565b61176e6128f1565b6117766128f1565b61177e6128f1565b6117866128f1565b61178e6128f1565b60008781526006602052604090819020815163b325312760e01b8152600481018290529151909173__LedgerChannel_________________________9163b32531279160248082019261018092909190829003018186803b1580156117f257600080fd5b505af4158015611806573d6000803e3d6000fd5b505050506040513d601f19601f8201168201806040525061018081101561182c57600080fd5b509860408a01985060808a01975060c08a0196506101008a0195506101408a01945092505050565b60008381526006602090815260409182902060158101548351868152935191936001600160a01b039091169287927f97883669625c4ff7f5432b4ca33fe75fb5fee985deb196a967e5758f846170fe9281900390910190a350505050565b60008481526006602052604090206015810180546001600160a01b0319166001600160a01b0393909316929092179091556016810192909255436017830155601890910155600755565b60075460009081526006602052604090206119156128f1565b506040805180820190915260048201546001600160a01b039081168252600c8301541660208201526119456128f1565b506040805180820190915260058301548152600d83015460208201526002808401546007546001600160a01b036101008304169290917f9d9f66221370175606b4085f28a419b201c9b6dafd9e0c4520e5bf69ea3e166d9160ff909116908111156119ac57fe5b85856040518084815260200183600260200280838360005b838110156119dc5781810151838201526020016119c4565b5050505090500182600260200280838360005b83811015611a075781810151838201526020016119ef565b50505050905001935050505060405180910390a35050505050565b600081815260066020908152604080832081516312bb8c8160e01b8152600481018290529151909273__LedgerChannel_________________________926312bb8c819260248083019392829003018186803b158015610f5257600080fd5b611a896128f1565b611a916128f1565b6000838152600660205260409081902081516396a3c57f60e01b8152600481018290529151909173__LedgerChannel_________________________916396a3c57f91602480820192608092909190829003018186803b158015610eaa57600080fd5b6003546001600160a01b031690565b60075481565b611b116128f1565b611b196128f1565b611b216128f1565b6000848152600660205260409081902081516364768a4f60e11b8152600481018290529151909173__LedgerChannel_________________________9163c8ed149e9160248082019260c092909190829003018186803b158015611b8457600080fd5b505af4158015611b98573d6000803e3d6000fd5b505050506040513d601f19601f8201168201806040525060c0811015611bbd57600080fd5b509560408701955060808701945092505050565b60008181526006602090815260408083208151638970f8a560e01b8152600481018290529151909273__LedgerChannel_________________________92638970f8a59260248083019392829003018186803b158015610f5257600080fd5b600081815260066020526040812090611c476128f1565b611c50836123cd565b9150915081611c9557611c62836125be565b60405184907fa6549eb18490d42e7ec93f42115d1ee11b706d04077be9597034dd73ec8bcb3690600090a2505050611d01565b611ca083600361263d565b837f728ddd8c5acda5947c34db8d759c66ae70884f526ff9b93637d351b012ef3206826040518082600260200280838360005b83811015611ceb578181015183820152602001611cd3565b5050505090500191505060405180910390a25050505b50565b6000818152600660209081526040808320815163565aebdb60e01b8152600481018290529151909273__LedgerChannel_________________________9263565aebdb9260248083019392829003018186803b158015610f5257600080fd5b611d6b6128f1565b611d736128f1565b600083815260066020526040908190208151636bedb2e760e11b8152600481018290529151909173__LedgerChannel_________________________9163d7db65ce91602480820192608092909190829003018186803b158015610eaa57600080fd5b60088181548110611de357fe5b600091825260209091200154905081565b6001546001600160a01b031690565b611e0b6128f1565b611e136128f1565b60008381526006602052604090819020815163c2c3f21f60e01b8152600481018290529151909173__LedgerChannel_________________________9163c2c3f21f91602480820192608092909190829003018186803b158015610eaa57600080fd5b600083815260066020526040812090611e95828563ffffffff6122a316565b90506000611ea9843463ffffffff61275d16565b9050611ed481846004018460028110611ebe57fe5b600802016001015461275d90919063ffffffff16565b836004018360028110611ee357fe5b6008020160010181905550611ef66128f1565b611efe6128f1565b611f066128f1565b8573__LedgerChannel_________________________63c8ed149e90916040518263ffffffff1660e01b81526004018082815260200191505060c06040518083038186803b158015611f5757600080fd5b505af4158015611f6b573d6000803e3d6000fd5b505050506040513d601f19601f8201168201806040525060c0811015611f9057600080fd5b506040805191945080850193506080850192508a917fb63f5dc096f516663ffb5ef2b611f0e2acca8617a868c2a3653cba5e3ed0e92c91869186918691908190859080838360005b83811015611ff0578181015183820152602001611fd8565b5050505090500183600260200280838360005b8381101561201b578181015183820152602001612003565b5050505090500182600260200280838360005b8381101561204657818101518382015260200161202e565b50505050905001935050505060405180910390a2505050505050505050565b60008181526006602090815260408083208151635c06efbf60e11b8152600481018290529151909273__LedgerChannel_________________________9263b80ddf7e9260248083019392829003018186803b158015610f5257600080fd5b6007869055600086815260066020526040902060018082018790556120ea90829061263d565b60028181018054610100600160a81b0319166101006001600160a01b03891602179055849081111561211857fe5b60028083018054909160ff1990911690600190849081111561213657fe5b02179055506004810180546001600160a01b03853581166001600160a01b03199283161790925583356005840155600c83018054909116602095860135909216919091179055910135600d9091015550505050565b6001600160a01b031660009081526004602052604090205490565b6000878152600660205260408120906121c5828963ffffffff6122a316565b905060008260040182600281106121d857fe5b60080201600381018981556004820189905560058201889055600682018790556007909101859055905061220b8a6127b7565b505050600796909655505050505050565b600081815260066020908152604080832081516377ffc62360e01b8152600481018290529151909273__LedgerChannel_________________________926377ffc6239260248083019392829003018186803b158015610f5257600080fd5b6122836128f1565b506040805180820190915260078201548152600f90910154602082015290565b60048201546000906001600160a01b03838116911614156122c657506000612323565b600c8301546001600160a01b03838116911614156122e657506001612323565b6040805162461bcd60e51b815260206004820152600d60248201526c2737b732bc34b9ba103832b2b960991b604482015290519081900360640190fd5b92915050565b60048201546000906001600160a01b03838116911614806123595750600c8301546001600160a01b038381169116145b9392505050565b600061236c84846122a3565b90506123978285600401836002811061238157fe5b600802016002015461275d90919063ffffffff16565b8460040182600281106123a657fe5b600802016002018190555060006123bc856127e8565b10156123c757600080fd5b50505050565b60006123d76128f1565b6123df61295a565b604080518082019091526004850160026000835b8282101561248357604080516080808201835260088502870180546001600160a01b03168352600180820154602080860191909152600283015485870152855160a0810187526003840154815260048401548183015260058401549681019690965260068301546060878101919091526007909301549386019390935290830193909352908352920191016123f3565b5050505090506124916128f1565b6040805180820190915260208084015160600151015181906124c8908560005b60200201516020015161275d90919063ffffffff16565b81528351606001516020908101519101906124e5908560016124b1565b9052905060005b60028110156125b157600061253684836002811061250657fe5b60200201516040015185846002811061251b57fe5b6020020151606001516020015161275d90919063ffffffff16565b90508083836002811061254557fe5b6020020151101561257657600060405180604001604052806000815260200160008152509550955050505050610eee565b6125978184846002811061258657fe5b60200201519063ffffffff61281d16565b8383600281106125a357fe5b6020020152506001016124ec565b5060019350915050915091565b600081556125cd81600161263d565b6000600782018190556008820181905560098201819055600a8201819055600b8201819055600f8201819055601082018190556011820181905560128201819055601382018190556015820180546001600160a01b03191690556016820181905560178201819055601890910155565b80600481111561264957fe5b600383015460ff16600481111561265c57fe5b141561266757612759565b6000600383015460ff16600481111561267c57fe5b146126e75760038201546126bd90600190600090819060ff1660048111156126a057fe5b81526020019081526020016000205461281d90919063ffffffff16565b6003830154600090819060ff1660048111156126d557fe5b81526020810191909152604001600020555b61271860016000808460048111156126fb57fe5b81526020019081526020016000205461275d90919063ffffffff16565b60008083600481111561272757fe5b815260208101919091526040016000205560038201805482919060ff1916600183600481111561275357fe5b02179055505b5050565b600082820183811015612359576040805162461bcd60e51b815260206004820152601b60248201527f536166654d6174683a206164646974696f6e206f766572666c6f770000000000604482015290519081900360640190fd5b600081815260066020526040902060018101546127db90439063ffffffff61275d16565b815561275981600261263d565b600e8101546006820154600d830154600092839261235992612811919082906004890187611ebe565b9063ffffffff61281d16565b600061235983836040518060400160405280601e81526020017f536166654d6174683a207375627472616374696f6e206f766572666c6f770000815250600081848411156128e95760405162461bcd60e51b81526004018080602001828103825283818151815260200191508051906020019080838360005b838110156128ae578181015183820152602001612896565b50505050905090810190601f1680156128db5780820380516001836020036101000a031916815260200191505b509250505060405180910390fd5b505050900390565b60405180604001604052806002906020820280388339509192915050565b82805482825590600052602060002090810192821561294a579160200282015b8281111561294a57823582559160200191906001019061292f565b50612956929150612987565b5090565b60405180604001604052806002905b6129716129a1565b8152602001906001900390816129695790505090565b61127691905b80821115612956576000815560010161298d565b604051806080016040528060006001600160a01b0316815260200160008152602001600081526020016129d26129d7565b905290565b6040518060a001604052806000815260200160008152602001600080191681526020016000815260200160008152509056fea265627a7a72315820c56e6c27c7ad89c892319a829ac11ba12320ca1453f7e3ecce46ce6799f66f4c64736f6c634300050c0032",
  "source": "pragma solidity ^0.5.1;\n\nimport \"./lib/ledgerlib/LedgerStruct.sol\";\nimport \"./lib/ledgerlib/LedgerOperation.sol\";\nimport \"./lib/ledgerlib/LedgerBalanceLimit.sol\";\nimport \"./lib/ledgerlib/LedgerMigrate.sol\";\nimport \"./lib/ledgerlib/LedgerChannel.sol\";\nimport \"./lib/interface/ICelerWallet.sol\";\nimport \"./lib/interface/IEthPool.sol\";\nimport \"./lib/interface/IPayRegistry.sol\";\nimport \"openzeppelin-solidity/contracts/ownership/Ownable.sol\";\nimport \"openzeppelin-solidity/contracts/math/SafeMath.sol\";\n\ncontract CelerLedgerMock {\n    using SafeMath for uint;\n    using LedgerChannel for LedgerStruct.Channel;\n\n    LedgerStruct.Ledger private ledger;\n    bytes32 public tmpChannelId;\n    bytes32[] public tmpChannelIds;\n\n    /**\n     * @notice CelerLedger constructor\n     * @param _ethPool address of ETH pool\n     * @param _payRegistry address of PayRegistry\n     */\n    constructor(address _ethPool, address _payRegistry, address _celerWallet) public {\n        ledger.ethPool = IEthPool(_ethPool);\n        ledger.payRegistry = IPayRegistry(_payRegistry);\n        ledger.celerWallet = ICelerWallet(_celerWallet);\n        // enable balance limits in default\n        ledger.balanceLimitsEnabled = true;\n    }\n\n    function openChannelMockSet(\n        bytes32 _channelId,\n        uint _disputeTimeout,\n        address _tokenAddress,\n        uint _tokenType,\n        address[2] calldata _peerAddrs,\n        uint[2] calldata _deposits\n    )\n        external\n    {\n        tmpChannelId = _channelId;\n\n        LedgerStruct.Channel storage c = ledger.channelMap[_channelId];\n        c.disputeTimeout = _disputeTimeout;\n        _updateChannelStatus(c, LedgerStruct.ChannelStatus.Operable);\n        c.token.tokenAddress = _tokenAddress;\n        c.token.tokenType = PbEntity.TokenType(_tokenType);\n        c.peerProfiles[0].peerAddr = _peerAddrs[0];\n        c.peerProfiles[0].deposit = _deposits[0];\n        c.peerProfiles[1].peerAddr = _peerAddrs[1];\n        c.peerProfiles[1].deposit = _deposits[1];\n    }\n\n    /**\n     * @notice Open a state channel through auth withdraw message\n     * @param _openRequest bytes of open channel request message\n     */\n    function openChannel(bytes calldata _openRequest) external payable {\n        LedgerStruct.Channel storage c = ledger.channelMap[tmpChannelId];\n        address[2] memory peerAddrs = [\n            c.peerProfiles[0].peerAddr,\n            c.peerProfiles[1].peerAddr\n        ];\n        uint[2] memory amounts = [\n            c.peerProfiles[0].deposit,\n            c.peerProfiles[1].deposit\n        ];\n\n        emit OpenChannel(\n            tmpChannelId,\n            uint(c.token.tokenType),\n            c.token.tokenAddress,\n            peerAddrs,\n            amounts\n        );\n    }\n\n    /**\n     * @notice Deposit ETH or ERC20 tokens into the channel\n     * @dev total deposit amount = msg.value(must be 0 for ERC20) + _transferFromAmount\n     * @param _channelId ID of the channel\n     * @param _receiver address of the receiver\n     * @param _transferFromAmount amount of funds to be transfered from EthPool for ETH\n     *   or ERC20 contract for ERC20 tokens\n     */\n    function deposit(\n        bytes32 _channelId,\n        address _receiver,\n        uint _transferFromAmount\n    )\n        external payable\n    {\n        LedgerStruct.Channel storage c = ledger.channelMap[_channelId];\n        uint rid = c._getPeerId(_receiver);\n        uint amount = _transferFromAmount.add(msg.value);\n        c.peerProfiles[rid].deposit = c.peerProfiles[rid].deposit.add(amount);\n\n        (\n            address[2] memory peerAddrs,\n            uint[2] memory deposits,\n            uint[2] memory withdrawals\n        ) = c.getBalanceMap();\n        emit Deposit(_channelId, peerAddrs, deposits, withdrawals);\n    }\n\n    function snapshotStatesMockSet(\n        bytes32[] calldata _channelIds,\n        address[] calldata _peerFroms,\n        uint[] calldata _seqNums,\n        uint[] calldata _transferOuts,\n        uint[] calldata _pendingPayOuts\n    )\n        external\n    {\n        for (uint i = 0; i < _channelIds.length; i++) {\n            LedgerStruct.Channel storage c = ledger.channelMap[_channelIds[i]];\n            uint peerFromId = c._getPeerId(_peerFroms[i]);\n            LedgerStruct.PeerState storage state = c.peerProfiles[peerFromId].state;\n            \n            state.seqNum = _seqNums[i];\n            state.transferOut = _transferOuts[i];\n            state.pendingPayOut = _pendingPayOuts[i];\n        }\n\n        tmpChannelIds = _channelIds;\n    }\n\n    /**\n     * @notice Store signed simplex states on-chain as checkpoints\n     * @dev simplex states in this array are not necessarily in the same channel,\n     *   which means snapshotStates natively supports multi-channel batch processing.\n     *   This function only updates seqNum, transferOut, pendingPayOut of each on-chain\n     *   simplex state. It can't ensure that the pending pays will be cleared during\n     *   settling the channel, which requires users call intendSettle with the same state.\n     *   TODO: wait for Solidity's support to replace SignedSimplexStateArray with bytes[].\n     * @param _signedSimplexStateArray bytes of SignedSimplexStateArray message\n     */\n    function snapshotStates(bytes calldata _signedSimplexStateArray) external {\n        for (uint i = 0; i < tmpChannelIds.length; i++) {\n            LedgerStruct.Channel storage c = ledger.channelMap[tmpChannelIds[i]];\n                emit SnapshotStates(tmpChannelIds[i], c._getStateSeqNums());\n        }\n    }\n\n    function intendWithdrawMockSet(\n        bytes32 _channelId,\n        uint _amount,\n        bytes32 _recipientChannelId,\n        address _receiver\n    )\n        external\n    {\n        LedgerStruct.Channel storage c = ledger.channelMap[_channelId];\n        LedgerStruct.WithdrawIntent storage withdrawIntent = c.withdrawIntent;\n\n        withdrawIntent.receiver = _receiver;\n        withdrawIntent.amount = _amount;\n        withdrawIntent.requestTime = block.number;\n        withdrawIntent.recipientChannelId = _recipientChannelId;\n\n        tmpChannelId = _channelId;\n    }\n\n    /**\n     * @notice Intend to withdraw funds from channel\n     * @dev only peers can call intendWithdraw\n     * @param _channelId ID of the channel\n     * @param _amount amount of funds to withdraw\n     * @param _recipientChannelId withdraw to receiver address if 0,\n     *   otherwise deposit to receiver address in the recipient channel\n     */\n    function intendWithdraw(bytes32 _channelId, uint _amount, bytes32 _recipientChannelId) external {\n        LedgerStruct.Channel storage c = ledger.channelMap[_channelId];\n\n        emit IntendWithdraw(_channelId, c.withdrawIntent.receiver, _amount);\n    }\n\n    /**\n     * @notice Confirm channel withdrawal\n     * @dev anyone can confirm a withdrawal intent\n     * @param _channelId ID of the channel\n     */\n    function confirmWithdraw(bytes32 _channelId) external {\n        LedgerStruct.Channel storage c = ledger.channelMap[_channelId];\n\n        address receiver = c.withdrawIntent.receiver;\n        uint amount = c.withdrawIntent.amount;\n        bytes32 recipientChannelId = c.withdrawIntent.recipientChannelId;\n        delete c.withdrawIntent;\n\n        c._addWithdrawal(receiver, amount);\n        \n        (, uint[2] memory deposits, uint[2] memory withdrawals) = c.getBalanceMap();\n        emit ConfirmWithdraw(_channelId, amount, receiver, recipientChannelId, deposits, withdrawals);\n    }\n\n    /**\n     * @notice Veto current withdrawal intent\n     * @dev only peers can veto a withdrawal intent;\n     *   peers can veto a withdrawal intent even after (requestTime + disputeTimeout)\n     * @param _channelId ID of the channel\n     */\n    function vetoWithdraw(bytes32 _channelId) external {\n        LedgerStruct.Channel storage c = ledger.channelMap[_channelId];\n        require(c.status == LedgerStruct.ChannelStatus.Operable, \"Channel status error\");\n        require(c.withdrawIntent.receiver != address(0), \"No pending withdraw intent\");\n        require(c._isPeer(msg.sender), \"msg.sender is not peer\");\n\n        delete c.withdrawIntent;\n\n        emit VetoWithdraw(_channelId);\n    }\n\n    // only support intendSettle with one state for mock tests\n    function intendSettleMockSet(\n        bytes32 _channelId,\n        address _peerFrom,\n        uint _seqNum,\n        uint _transferOut,\n        bytes32 _nextPayIdListHash,\n        uint _lastPayResolveDeadline,\n        uint _pendingPayOut\n    )\n        external\n    {\n        LedgerStruct.Channel storage c = ledger.channelMap[_channelId];\n        uint peerFromId = c._getPeerId(_peerFrom);\n        LedgerStruct.PeerState storage state = c.peerProfiles[peerFromId].state;\n\n        state.seqNum = _seqNum;\n        state.transferOut = _transferOut;\n        state.nextPayIdListHash = _nextPayIdListHash;\n        state.lastPayResolveDeadline = _lastPayResolveDeadline;\n        state.pendingPayOut = _pendingPayOut;\n\n        _updateOverallStatesByIntendState(_channelId);\n\n        tmpChannelId = _channelId;\n    }\n\n    /**\n     * @notice Intend to settle channel(s) with an array of signed simplex states\n     * @dev simplex states in this array are not necessarily in the same channel,\n     *   which means intendSettle natively supports multi-channel batch processing.\n     *   A simplex state with non-zero seqNum (non-null state) must be co-signed by both peers,\n     *   while a simplex state with seqNum=0 (null state) only needs to be signed by one peer.\n     *   TODO: wait for Solidity's support to replace SignedSimplexStateArray with bytes[].\n     * @param _signedSimplexStateArray bytes of SignedSimplexStateArray message\n     */\n    function intendSettle(bytes calldata _signedSimplexStateArray) external {\n        LedgerStruct.Channel storage c = ledger.channelMap[tmpChannelId];\n\n        emit IntendSettle(tmpChannelId, c._getStateSeqNums());\n    }\n\n    function intendSettleRevert(bytes calldata _signedSimplexStateArray) external {\n        revert();\n    }\n\n    /**\n     * @notice Confirm channel settlement\n     * @dev This must be called after settleFinalizedTime\n     * @param _channelId ID of the channel\n     */\n    function confirmSettle(bytes32 _channelId) external {\n        LedgerStruct.Channel storage c = ledger.channelMap[_channelId];\n        (bool validBalance, uint[2] memory settleBalance) = c._validateSettleBalance();\n        if (!validBalance) {\n            _resetDuplexState(c);\n            emit ConfirmSettleFail(_channelId);\n            return;\n        }\n\n        _updateChannelStatus(c, LedgerStruct.ChannelStatus.Closed);\n\n        emit ConfirmSettle(_channelId, settleBalance);\n    }\n\n    /**\n     * @notice Get channel confirm settle open time\n     * @param _channelId ID of the channel to be viewed\n     * @return channel confirm settle open time\n     */\n    function getSettleFinalizedTime(bytes32 _channelId) public view returns(uint) {\n        LedgerStruct.Channel storage c = ledger.channelMap[_channelId];\n        return c.getSettleFinalizedTime();\n    }\n\n    /**\n     * @notice Get channel token contract address\n     * @param _channelId ID of the channel to be viewed\n     * @return channel token contract address\n     */\n    function getTokenContract(bytes32 _channelId) public view returns(address) {\n        LedgerStruct.Channel storage c = ledger.channelMap[_channelId];\n        return c.getTokenContract();\n\n    }\n\n    /**\n     * @notice Get channel token type\n     * @param _channelId ID of the channel to be viewed\n     * @return channel token type\n     */\n    function getTokenType(bytes32 _channelId) public view returns(PbEntity.TokenType) {\n        LedgerStruct.Channel storage c = ledger.channelMap[_channelId];\n        return c.getTokenType();\n    }\n\n    /**\n     * @notice Get channel status\n     * @param _channelId ID of the channel to be viewed\n     * @return channel status\n     */\n    function getChannelStatus(bytes32 _channelId) public view returns(LedgerStruct.ChannelStatus) {\n        LedgerStruct.Channel storage c = ledger.channelMap[_channelId];\n        return c.getChannelStatus();\n    }\n\n    /**\n     * @notice Get cooperative withdraw seqNum\n     * @param _channelId ID of the channel to be viewed\n     * @return cooperative withdraw seqNum\n     */\n    function getCooperativeWithdrawSeqNum(bytes32 _channelId) public view returns(uint) {\n        LedgerStruct.Channel storage c = ledger.channelMap[_channelId];\n        return c.getCooperativeWithdrawSeqNum();\n    }\n\n    /**\n     * @notice Return one channel's total balance amount\n     * @param _channelId ID of the channel to be viewed\n     * @return channel's balance amount\n     */\n    function getTotalBalance(bytes32 _channelId) public view returns(uint) {\n        LedgerStruct.Channel storage c = ledger.channelMap[_channelId];\n        return c.getTotalBalance();\n    }\n\n    /**\n     * @notice Return one channel's balance info (depositMap and withdrawalMap)\n     * @dev Solidity can't directly return an array of struct for now\n     * @param _channelId ID of the channel to be viewed\n     * @return addresses of peers in the channel\n     * @return corresponding deposits of the peers (with matched index)\n     * @return corresponding withdrawals of the peers (with matched index)\n     */\n    function getBalanceMap(bytes32 _channelId) public view\n        returns(address[2] memory, uint[2] memory, uint[2] memory)\n    {\n        LedgerStruct.Channel storage c = ledger.channelMap[_channelId];\n        return c.getBalanceMap();\n    }\n\n    /**\n     * @notice Return channel-level migration arguments\n     * @param _channelId ID of the channel to be viewed\n     * @return channel dispute timeout\n     * @return channel tokey type converted to uint\n     * @return channel token address\n     * @return sequence number of cooperative withdraw\n     */\n    function getChannelMigrationArgs(bytes32 _channelId) external view returns(uint, uint, address, uint) {\n        LedgerStruct.Channel storage c = ledger.channelMap[_channelId];\n        return c.getChannelMigrationArgs();\n    }\n\n    /**\n     * @notice Return migration info of the peers in the channel\n     * @param _channelId ID of the channel to be viewed\n     * @return peers' addresses\n     * @return peers' deposits\n     * @return peers' withdrawals\n     * @return peers' state sequence numbers\n     * @return peers' transferOut map\n     * @return peers' pendingPayOut map\n     */\n    function getPeersMigrationInfo(bytes32 _channelId) external view returns(\n        address[2] memory,\n        uint[2] memory,\n        uint[2] memory,\n        uint[2] memory,\n        uint[2] memory,\n        uint[2] memory\n    ) {\n        LedgerStruct.Channel storage c = ledger.channelMap[_channelId];\n        return c.getPeersMigrationInfo();\n    }\n\n    /**\n     * @notice Return channel's dispute timeout\n     * @param _channelId ID of the channel to be viewed\n     * @return channel's dispute timeout\n     */\n    function getDisputeTimeout(bytes32 _channelId) external view returns(uint) {\n        LedgerStruct.Channel storage c = ledger.channelMap[_channelId];\n        return c.getDisputeTimeout();\n    }\n\n    /**\n     * @notice Return channel's migratedTo address\n     * @param _channelId ID of the channel to be viewed\n     * @return channel's migratedTo address\n     */\n    function getMigratedTo(bytes32 _channelId) external view returns(address) {\n        LedgerStruct.Channel storage c = ledger.channelMap[_channelId];\n        return c.getMigratedTo();\n    }\n\n    /**\n     * @notice Return state seqNum map of a duplex channel\n     * @param _channelId ID of the channel to be viewed\n     * @return peers' addresses\n     * @return two simplex state sequence numbers\n     */\n    function getStateSeqNumMap(bytes32 _channelId) external view returns(\n        address[2] memory,\n        uint[2] memory\n    ) {\n        LedgerStruct.Channel storage c = ledger.channelMap[_channelId];\n        return c.getStateSeqNumMap();\n    }\n\n    /**\n     * @notice Return transferOut map of a duplex channel\n     * @param _channelId ID of the channel to be viewed\n     * @return peers' addresses\n     * @return transferOuts of two simplex channels\n     */\n    function getTransferOutMap(bytes32 _channelId) external view returns(\n        address[2] memory,\n        uint[2] memory\n    ) {\n        LedgerStruct.Channel storage c = ledger.channelMap[_channelId];\n        return c.getTransferOutMap();\n    }\n\n    /**\n     * @notice Return nextPayIdListHash map of a duplex channel\n     * @param _channelId ID of the channel to be viewed\n     * @return peers' addresses\n     * @return nextPayIdListHashes of two simplex channels\n     */\n    function getNextPayIdListHashMap(bytes32 _channelId) external view returns(\n        address[2] memory,\n        bytes32[2] memory\n    ) {\n        LedgerStruct.Channel storage c = ledger.channelMap[_channelId];\n        return c.getNextPayIdListHashMap();\n    }\n\n    /**\n     * @notice Return lastPayResolveDeadline map of a duplex channel\n     * @param _channelId ID of the channel to be viewed\n     * @return peers' addresses\n     * @return lastPayResolveDeadlines of two simplex channels\n     */\n    function getLastPayResolveDeadlineMap(bytes32 _channelId) external view returns(\n        address[2] memory,\n        uint[2] memory\n    ) {\n        LedgerStruct.Channel storage c = ledger.channelMap[_channelId];\n        return c.getLastPayResolveDeadlineMap();\n    }\n\n    /**\n     * @notice Return pendingPayOut map of a duplex channel\n     * @param _channelId ID of the channel to be viewed\n     * @return peers' addresses\n     * @return pendingPayOuts of two simplex channels\n     */\n    function getPendingPayOutMap(bytes32 _channelId) external view returns(\n        address[2] memory,\n        uint[2] memory\n    ) {\n        LedgerStruct.Channel storage c = ledger.channelMap[_channelId];\n        return c.getPendingPayOutMap();\n    }\n\n    /**\n     * @notice Return the withdraw intent info of the channel\n     * @param _channelId ID of the channel to be viewed\n     * @return receiver of the withdraw intent\n     * @return amount of the withdraw intent\n     * @return requestTime of the withdraw intent\n     * @return recipientChannelId of the withdraw intent\n     */\n    function getWithdrawIntent(bytes32 _channelId) external view returns(address, uint, uint, bytes32) {\n        LedgerStruct.Channel storage c = ledger.channelMap[_channelId];\n        return c.getWithdrawIntent();\n    }\n\n    /**\n     * @notice Return channel number of given status in this contract\n     * @param _channelStatus query channel status converted to uint\n     * @return channel number of the status\n     */\n    function getChannelStatusNum(uint _channelStatus) external view returns(uint) {\n        return ledger.channelStatusNums[_channelStatus];\n    }\n\n    /**\n     * @notice Return EthPool used by this CelerLedger contract\n     * @return EthPool address\n     */\n    function getEthPool() external view returns(address) {\n        return address(ledger.ethPool);\n    }\n\n    /**\n     * @notice Return PayRegistry used by this CelerLedger contract\n     * @return PayRegistry address\n     */\n    function getPayRegistry() external view returns(address) {\n        return address(ledger.payRegistry);\n    }\n\n    /**\n     * @notice Return CelerWallet used by this CelerLedger contract\n     * @return CelerWallet address\n     */\n    function getCelerWallet() external view returns(address) {\n        return address(ledger.celerWallet);\n    }\n\n    /**\n     * @notice Return balance limit of given token\n     * @param _tokenAddr query token address\n     * @return token balance limit\n     */\n    function getBalanceLimit(address _tokenAddr) external view returns(uint) {\n        return ledger.balanceLimits[_tokenAddr];\n    }\n\n    /**\n     * @notice Return balanceLimitsEnabled\n     * @return balanceLimitsEnabled\n     */\n    function getBalanceLimitsEnabled() external view returns(bool) {\n        return ledger.balanceLimitsEnabled;\n    }\n\n    /**\n     * @notice Update status of a channel\n     * @param _c the channel\n     * @param _newStatus new channel status\n     */\n    function _updateChannelStatus(\n        LedgerStruct.Channel storage _c,\n        LedgerStruct.ChannelStatus _newStatus\n    )\n        internal\n    {\n        if (_c.status == _newStatus) {\n            return;\n        }\n\n        // update counter of old status\n        if (_c.status != LedgerStruct.ChannelStatus.Uninitialized) {\n            ledger.channelStatusNums[uint(_c.status)] = ledger.channelStatusNums[uint(_c.status)].sub(1);\n        }\n\n        // update counter of new status\n        ledger.channelStatusNums[uint(_newStatus)] = ledger.channelStatusNums[uint(_newStatus)].add(1);\n\n        _c.status = _newStatus;\n    }\n\n    function _updateOverallStatesByIntendState(\n        bytes32 _channelId\n    )\n        internal\n    {\n        LedgerStruct.Channel storage c = ledger.channelMap[_channelId];\n        c.settleFinalizedTime = block.number.add(c.disputeTimeout);\n        _updateChannelStatus(c, LedgerStruct.ChannelStatus.Settling);\n    }\n\n    /**\n     * @notice Reset the state of the channel\n     * @param _c the channel\n     */\n    function _resetDuplexState(\n        LedgerStruct.Channel storage _c\n    )\n        internal\n    {\n        delete _c.settleFinalizedTime;\n        _updateChannelStatus(_c, LedgerStruct.ChannelStatus.Operable);\n        delete _c.peerProfiles[0].state;\n        delete _c.peerProfiles[1].state;\n        // reset possibly remaining WithdrawIntent freezed by previous intendSettle()\n        delete _c.withdrawIntent;\n    }\n\n    /***** events *****/\n    event OpenChannel(\n        bytes32 indexed channelId,\n        uint tokenType,\n        address indexed tokenAddress,\n        // TODO: there is an issue of setting address[2] as indexed. Need to fix and make this indexed\n        address[2] peerAddrs,\n        uint[2] initialDeposits\n    );\n\n    // TODO: there is an issue of setting address[2] as indexed. Need to fix and make this indexed\n    event Deposit(bytes32 indexed channelId, address[2] peerAddrs, uint[2] deposits, uint[2] withdrawals);\n\n    event SnapshotStates(bytes32 indexed channelId, uint[2] seqNums);\n\n    event IntendSettle(bytes32 indexed channelId, uint[2] seqNums);\n\n    event ClearOnePay(bytes32 indexed channelId, bytes32 indexed payId, address indexed peerFrom, uint amount);\n\n    event ConfirmSettle(bytes32 indexed channelId, uint[2] settleBalance);\n\n    event ConfirmSettleFail(bytes32 indexed channelId);\n\n    event IntendWithdraw(bytes32 indexed channelId, address indexed receiver, uint amount);\n\n    event ConfirmWithdraw(\n        bytes32 indexed channelId,\n        uint withdrawnAmount,\n        address indexed receiver,\n        bytes32 indexed recipientChannelId,\n        uint[2] deposits,\n        uint[2] withdrawals\n    );\n\n    event VetoWithdraw(bytes32 indexed channelId);\n\n    event CooperativeWithdraw(\n        bytes32 indexed channelId,\n        uint withdrawnAmount,\n        address indexed receiver,\n        bytes32 indexed recipientChannelId,\n        uint[2] deposits,\n        uint[2] withdrawals,\n        uint seqNum\n    );\n\n    event CooperativeSettle(bytes32 indexed channelId, uint[2] settleBalance);\n}\n",
  "sourcePath": "/Users/hashimototatsuki/keeper-layer2/contracts/cChannel-eth/CelerLedgerMock.sol",
  "compiler": {
    "name": "solc",
    "version": "0.5.12+commit.7709ece9.Emscripten.clang"
  },
  "schemaVersion": "3.0.19",
  "updatedAt": "2020-01-16T03:30:12.203Z",
  "devdoc": {
    "methods": {
      "confirmSettle(bytes32)": {
        "details": "This must be called after settleFinalizedTime",
        "params": {
          "_channelId": "ID of the channel"
        }
      },
      "confirmWithdraw(bytes32)": {
        "details": "anyone can confirm a withdrawal intent",
        "params": {
          "_channelId": "ID of the channel"
        }
      },
      "constructor": {
        "params": {
          "_ethPool": "address of ETH pool",
          "_payRegistry": "address of PayRegistry"
        }
      },
      "deposit(bytes32,address,uint256)": {
        "details": "total deposit amount = msg.value(must be 0 for ERC20) + _transferFromAmount",
        "params": {
          "_channelId": "ID of the channel",
          "_receiver": "address of the receiver",
          "_transferFromAmount": "amount of funds to be transfered from EthPool for ETH  or ERC20 contract for ERC20 tokens"
        }
      },
      "getBalanceLimit(address)": {
        "params": {
          "_tokenAddr": "query token address"
        },
        "return": "token balance limit"
      },
      "getBalanceLimitsEnabled()": {
        "return": "balanceLimitsEnabled"
      },
      "getBalanceMap(bytes32)": {
        "details": "Solidity can't directly return an array of struct for now",
        "params": {
          "_channelId": "ID of the channel to be viewed"
        },
        "return": "addresses of peers in the channelcorresponding deposits of the peers (with matched index)corresponding withdrawals of the peers (with matched index)"
      },
      "getCelerWallet()": {
        "return": "CelerWallet address"
      },
      "getChannelMigrationArgs(bytes32)": {
        "params": {
          "_channelId": "ID of the channel to be viewed"
        },
        "return": "channel dispute timeoutchannel tokey type converted to uintchannel token addresssequence number of cooperative withdraw"
      },
      "getChannelStatus(bytes32)": {
        "params": {
          "_channelId": "ID of the channel to be viewed"
        },
        "return": "channel status"
      },
      "getChannelStatusNum(uint256)": {
        "params": {
          "_channelStatus": "query channel status converted to uint"
        },
        "return": "channel number of the status"
      },
      "getCooperativeWithdrawSeqNum(bytes32)": {
        "params": {
          "_channelId": "ID of the channel to be viewed"
        },
        "return": "cooperative withdraw seqNum"
      },
      "getDisputeTimeout(bytes32)": {
        "params": {
          "_channelId": "ID of the channel to be viewed"
        },
        "return": "channel's dispute timeout"
      },
      "getEthPool()": {
        "return": "EthPool address"
      },
      "getLastPayResolveDeadlineMap(bytes32)": {
        "params": {
          "_channelId": "ID of the channel to be viewed"
        },
        "return": "peers' addresseslastPayResolveDeadlines of two simplex channels"
      },
      "getMigratedTo(bytes32)": {
        "params": {
          "_channelId": "ID of the channel to be viewed"
        },
        "return": "channel's migratedTo address"
      },
      "getNextPayIdListHashMap(bytes32)": {
        "params": {
          "_channelId": "ID of the channel to be viewed"
        },
        "return": "peers' addressesnextPayIdListHashes of two simplex channels"
      },
      "getPayRegistry()": {
        "return": "PayRegistry address"
      },
      "getPeersMigrationInfo(bytes32)": {
        "params": {
          "_channelId": "ID of the channel to be viewed"
        },
        "return": "peers' addressespeers' depositspeers' withdrawalspeers' state sequence numberspeers' transferOut mappeers' pendingPayOut map"
      },
      "getPendingPayOutMap(bytes32)": {
        "params": {
          "_channelId": "ID of the channel to be viewed"
        },
        "return": "peers' addressespendingPayOuts of two simplex channels"
      },
      "getSettleFinalizedTime(bytes32)": {
        "params": {
          "_channelId": "ID of the channel to be viewed"
        },
        "return": "channel confirm settle open time"
      },
      "getStateSeqNumMap(bytes32)": {
        "params": {
          "_channelId": "ID of the channel to be viewed"
        },
        "return": "peers' addressestwo simplex state sequence numbers"
      },
      "getTokenContract(bytes32)": {
        "params": {
          "_channelId": "ID of the channel to be viewed"
        },
        "return": "channel token contract address"
      },
      "getTokenType(bytes32)": {
        "params": {
          "_channelId": "ID of the channel to be viewed"
        },
        "return": "channel token type"
      },
      "getTotalBalance(bytes32)": {
        "params": {
          "_channelId": "ID of the channel to be viewed"
        },
        "return": "channel's balance amount"
      },
      "getTransferOutMap(bytes32)": {
        "params": {
          "_channelId": "ID of the channel to be viewed"
        },
        "return": "peers' addressestransferOuts of two simplex channels"
      },
      "getWithdrawIntent(bytes32)": {
        "params": {
          "_channelId": "ID of the channel to be viewed"
        },
        "return": "receiver of the withdraw intentamount of the withdraw intentrequestTime of the withdraw intentrecipientChannelId of the withdraw intent"
      },
      "intendSettle(bytes)": {
        "details": "simplex states in this array are not necessarily in the same channel,  which means intendSettle natively supports multi-channel batch processing.  A simplex state with non-zero seqNum (non-null state) must be co-signed by both peers,  while a simplex state with seqNum=0 (null state) only needs to be signed by one peer.  TODO: wait for Solidity's support to replace SignedSimplexStateArray with bytes[].",
        "params": {
          "_signedSimplexStateArray": "bytes of SignedSimplexStateArray message"
        }
      },
      "intendWithdraw(bytes32,uint256,bytes32)": {
        "details": "only peers can call intendWithdraw",
        "params": {
          "_amount": "amount of funds to withdraw",
          "_channelId": "ID of the channel",
          "_recipientChannelId": "withdraw to receiver address if 0,  otherwise deposit to receiver address in the recipient channel"
        }
      },
      "openChannel(bytes)": {
        "params": {
          "_openRequest": "bytes of open channel request message"
        }
      },
      "snapshotStates(bytes)": {
        "details": "simplex states in this array are not necessarily in the same channel,  which means snapshotStates natively supports multi-channel batch processing.  This function only updates seqNum, transferOut, pendingPayOut of each on-chain  simplex state. It can't ensure that the pending pays will be cleared during  settling the channel, which requires users call intendSettle with the same state.  TODO: wait for Solidity's support to replace SignedSimplexStateArray with bytes[].",
        "params": {
          "_signedSimplexStateArray": "bytes of SignedSimplexStateArray message"
        }
      },
      "vetoWithdraw(bytes32)": {
        "details": "only peers can veto a withdrawal intent;  peers can veto a withdrawal intent even after (requestTime + disputeTimeout)",
        "params": {
          "_channelId": "ID of the channel"
        }
      }
    }
  },
  "userdoc": {
    "methods": {
      "confirmSettle(bytes32)": {
        "notice": "Confirm channel settlement"
      },
      "confirmWithdraw(bytes32)": {
        "notice": "Confirm channel withdrawal"
      },
      "constructor": "CelerLedger constructor",
      "deposit(bytes32,address,uint256)": {
        "notice": "Deposit ETH or ERC20 tokens into the channel"
      },
      "getBalanceLimit(address)": {
        "notice": "Return balance limit of given token"
      },
      "getBalanceLimitsEnabled()": {
        "notice": "Return balanceLimitsEnabled"
      },
      "getBalanceMap(bytes32)": {
        "notice": "Return one channel's balance info (depositMap and withdrawalMap)"
      },
      "getCelerWallet()": {
        "notice": "Return CelerWallet used by this CelerLedger contract"
      },
      "getChannelMigrationArgs(bytes32)": {
        "notice": "Return channel-level migration arguments"
      },
      "getChannelStatus(bytes32)": {
        "notice": "Get channel status"
      },
      "getChannelStatusNum(uint256)": {
        "notice": "Return channel number of given status in this contract"
      },
      "getCooperativeWithdrawSeqNum(bytes32)": {
        "notice": "Get cooperative withdraw seqNum"
      },
      "getDisputeTimeout(bytes32)": {
        "notice": "Return channel's dispute timeout"
      },
      "getEthPool()": {
        "notice": "Return EthPool used by this CelerLedger contract"
      },
      "getLastPayResolveDeadlineMap(bytes32)": {
        "notice": "Return lastPayResolveDeadline map of a duplex channel"
      },
      "getMigratedTo(bytes32)": {
        "notice": "Return channel's migratedTo address"
      },
      "getNextPayIdListHashMap(bytes32)": {
        "notice": "Return nextPayIdListHash map of a duplex channel"
      },
      "getPayRegistry()": {
        "notice": "Return PayRegistry used by this CelerLedger contract"
      },
      "getPeersMigrationInfo(bytes32)": {
        "notice": "Return migration info of the peers in the channel"
      },
      "getPendingPayOutMap(bytes32)": {
        "notice": "Return pendingPayOut map of a duplex channel"
      },
      "getSettleFinalizedTime(bytes32)": {
        "notice": "Get channel confirm settle open time"
      },
      "getStateSeqNumMap(bytes32)": {
        "notice": "Return state seqNum map of a duplex channel"
      },
      "getTokenContract(bytes32)": {
        "notice": "Get channel token contract address"
      },
      "getTokenType(bytes32)": {
        "notice": "Get channel token type"
      },
      "getTotalBalance(bytes32)": {
        "notice": "Return one channel's total balance amount"
      },
      "getTransferOutMap(bytes32)": {
        "notice": "Return transferOut map of a duplex channel"
      },
      "getWithdrawIntent(bytes32)": {
        "notice": "Return the withdraw intent info of the channel"
      },
      "intendSettle(bytes)": {
        "notice": "Intend to settle channel(s) with an array of signed simplex states"
      },
      "intendWithdraw(bytes32,uint256,bytes32)": {
        "notice": "Intend to withdraw funds from channel"
      },
      "openChannel(bytes)": {
        "notice": "Open a state channel through auth withdraw message"
      },
      "snapshotStates(bytes)": {
        "notice": "Store signed simplex states on-chain as checkpoints"
      },
      "vetoWithdraw(bytes32)": {
        "notice": "Veto current withdrawal intent"
      }
    }
  }
}