{
  "contractName": "CelerLedger",
  "abi": [
    {
      "inputs": [
        {
          "internalType": "address",
          "name": "_ethPool",
          "type": "address"
        },
        {
          "internalType": "address",
          "name": "_payRegistry",
          "type": "address"
        },
        {
          "internalType": "address",
          "name": "_celerWallet",
          "type": "address"
        }
      ],
      "payable": false,
      "stateMutability": "nonpayable",
      "type": "constructor"
    },
    {
      "anonymous": false,
      "inputs": [
        {
          "indexed": true,
          "internalType": "bytes32",
          "name": "channelId",
          "type": "bytes32"
        },
        {
          "indexed": true,
          "internalType": "bytes32",
          "name": "payId",
          "type": "bytes32"
        },
        {
          "indexed": true,
          "internalType": "address",
          "name": "peerFrom",
          "type": "address"
        },
        {
          "indexed": false,
          "internalType": "uint256",
          "name": "amount",
          "type": "uint256"
        }
      ],
      "name": "ClearOnePay",
      "type": "event"
    },
    {
      "anonymous": false,
      "inputs": [
        {
          "indexed": true,
          "internalType": "bytes32",
          "name": "channelId",
          "type": "bytes32"
        },
        {
          "indexed": false,
          "internalType": "uint256[2]",
          "name": "settleBalance",
          "type": "uint256[2]"
        }
      ],
      "name": "ConfirmSettle",
      "type": "event"
    },
    {
      "anonymous": false,
      "inputs": [
        {
          "indexed": true,
          "internalType": "bytes32",
          "name": "channelId",
          "type": "bytes32"
        }
      ],
      "name": "ConfirmSettleFail",
      "type": "event"
    },
    {
      "anonymous": false,
      "inputs": [
        {
          "indexed": true,
          "internalType": "bytes32",
          "name": "channelId",
          "type": "bytes32"
        },
        {
          "indexed": false,
          "internalType": "uint256",
          "name": "withdrawnAmount",
          "type": "uint256"
        },
        {
          "indexed": true,
          "internalType": "address",
          "name": "receiver",
          "type": "address"
        },
        {
          "indexed": true,
          "internalType": "bytes32",
          "name": "recipientChannelId",
          "type": "bytes32"
        },
        {
          "indexed": false,
          "internalType": "uint256[2]",
          "name": "deposits",
          "type": "uint256[2]"
        },
        {
          "indexed": false,
          "internalType": "uint256[2]",
          "name": "withdrawals",
          "type": "uint256[2]"
        }
      ],
      "name": "ConfirmWithdraw",
      "type": "event"
    },
    {
      "anonymous": false,
      "inputs": [
        {
          "indexed": true,
          "internalType": "bytes32",
          "name": "channelId",
          "type": "bytes32"
        },
        {
          "indexed": false,
          "internalType": "uint256[2]",
          "name": "settleBalance",
          "type": "uint256[2]"
        }
      ],
      "name": "CooperativeSettle",
      "type": "event"
    },
    {
      "anonymous": false,
      "inputs": [
        {
          "indexed": true,
          "internalType": "bytes32",
          "name": "channelId",
          "type": "bytes32"
        },
        {
          "indexed": false,
          "internalType": "uint256",
          "name": "withdrawnAmount",
          "type": "uint256"
        },
        {
          "indexed": true,
          "internalType": "address",
          "name": "receiver",
          "type": "address"
        },
        {
          "indexed": true,
          "internalType": "bytes32",
          "name": "recipientChannelId",
          "type": "bytes32"
        },
        {
          "indexed": false,
          "internalType": "uint256[2]",
          "name": "deposits",
          "type": "uint256[2]"
        },
        {
          "indexed": false,
          "internalType": "uint256[2]",
          "name": "withdrawals",
          "type": "uint256[2]"
        },
        {
          "indexed": false,
          "internalType": "uint256",
          "name": "seqNum",
          "type": "uint256"
        }
      ],
      "name": "CooperativeWithdraw",
      "type": "event"
    },
    {
      "anonymous": false,
      "inputs": [
        {
          "indexed": true,
          "internalType": "bytes32",
          "name": "channelId",
          "type": "bytes32"
        },
        {
          "indexed": false,
          "internalType": "address[2]",
          "name": "peerAddrs",
          "type": "address[2]"
        },
        {
          "indexed": false,
          "internalType": "uint256[2]",
          "name": "deposits",
          "type": "uint256[2]"
        },
        {
          "indexed": false,
          "internalType": "uint256[2]",
          "name": "withdrawals",
          "type": "uint256[2]"
        }
      ],
      "name": "Deposit",
      "type": "event"
    },
    {
      "anonymous": false,
      "inputs": [
        {
          "indexed": true,
          "internalType": "bytes32",
          "name": "channelId",
          "type": "bytes32"
        },
        {
          "indexed": false,
          "internalType": "uint256[2]",
          "name": "seqNums",
          "type": "uint256[2]"
        }
      ],
      "name": "IntendSettle",
      "type": "event"
    },
    {
      "anonymous": false,
      "inputs": [
        {
          "indexed": true,
          "internalType": "bytes32",
          "name": "channelId",
          "type": "bytes32"
        },
        {
          "indexed": true,
          "internalType": "address",
          "name": "receiver",
          "type": "address"
        },
        {
          "indexed": false,
          "internalType": "uint256",
          "name": "amount",
          "type": "uint256"
        }
      ],
      "name": "IntendWithdraw",
      "type": "event"
    },
    {
      "anonymous": false,
      "inputs": [
        {
          "indexed": true,
          "internalType": "bytes32",
          "name": "channelId",
          "type": "bytes32"
        },
        {
          "indexed": true,
          "internalType": "address",
          "name": "oldLedgerAddr",
          "type": "address"
        }
      ],
      "name": "MigrateChannelFrom",
      "type": "event"
    },
    {
      "anonymous": false,
      "inputs": [
        {
          "indexed": true,
          "internalType": "bytes32",
          "name": "channelId",
          "type": "bytes32"
        },
        {
          "indexed": true,
          "internalType": "address",
          "name": "newLedgerAddr",
          "type": "address"
        }
      ],
      "name": "MigrateChannelTo",
      "type": "event"
    },
    {
      "anonymous": false,
      "inputs": [
        {
          "indexed": true,
          "internalType": "bytes32",
          "name": "channelId",
          "type": "bytes32"
        },
        {
          "indexed": false,
          "internalType": "uint256",
          "name": "tokenType",
          "type": "uint256"
        },
        {
          "indexed": true,
          "internalType": "address",
          "name": "tokenAddress",
          "type": "address"
        },
        {
          "indexed": false,
          "internalType": "address[2]",
          "name": "peerAddrs",
          "type": "address[2]"
        },
        {
          "indexed": false,
          "internalType": "uint256[2]",
          "name": "initialDeposits",
          "type": "uint256[2]"
        }
      ],
      "name": "OpenChannel",
      "type": "event"
    },
    {
      "anonymous": false,
      "inputs": [
        {
          "indexed": true,
          "internalType": "address",
          "name": "previousOwner",
          "type": "address"
        },
        {
          "indexed": true,
          "internalType": "address",
          "name": "newOwner",
          "type": "address"
        }
      ],
      "name": "OwnershipTransferred",
      "type": "event"
    },
    {
      "anonymous": false,
      "inputs": [
        {
          "indexed": true,
          "internalType": "bytes32",
          "name": "channelId",
          "type": "bytes32"
        },
        {
          "indexed": false,
          "internalType": "uint256[2]",
          "name": "seqNums",
          "type": "uint256[2]"
        }
      ],
      "name": "SnapshotStates",
      "type": "event"
    },
    {
      "anonymous": false,
      "inputs": [
        {
          "indexed": true,
          "internalType": "bytes32",
          "name": "channelId",
          "type": "bytes32"
        }
      ],
      "name": "VetoWithdraw",
      "type": "event"
    },
    {
      "constant": true,
      "inputs": [],
      "name": "isOwner",
      "outputs": [
        {
          "internalType": "bool",
          "name": "",
          "type": "bool"
        }
      ],
      "payable": false,
      "stateMutability": "view",
      "type": "function"
    },
    {
      "constant": true,
      "inputs": [],
      "name": "owner",
      "outputs": [
        {
          "internalType": "address",
          "name": "",
          "type": "address"
        }
      ],
      "payable": false,
      "stateMutability": "view",
      "type": "function"
    },
    {
      "constant": false,
      "inputs": [],
      "name": "renounceOwnership",
      "outputs": [],
      "payable": false,
      "stateMutability": "nonpayable",
      "type": "function"
    },
    {
      "constant": false,
      "inputs": [
        {
          "internalType": "address",
          "name": "newOwner",
          "type": "address"
        }
      ],
      "name": "transferOwnership",
      "outputs": [],
      "payable": false,
      "stateMutability": "nonpayable",
      "type": "function"
    },
    {
      "constant": false,
      "inputs": [
        {
          "internalType": "address[]",
          "name": "_tokenAddrs",
          "type": "address[]"
        },
        {
          "internalType": "uint256[]",
          "name": "_limits",
          "type": "uint256[]"
        }
      ],
      "name": "setBalanceLimits",
      "outputs": [],
      "payable": false,
      "stateMutability": "nonpayable",
      "type": "function"
    },
    {
      "constant": false,
      "inputs": [],
      "name": "disableBalanceLimits",
      "outputs": [],
      "payable": false,
      "stateMutability": "nonpayable",
      "type": "function"
    },
    {
      "constant": false,
      "inputs": [],
      "name": "enableBalanceLimits",
      "outputs": [],
      "payable": false,
      "stateMutability": "nonpayable",
      "type": "function"
    },
    {
      "constant": false,
      "inputs": [
        {
          "internalType": "bytes",
          "name": "_openRequest",
          "type": "bytes"
        }
      ],
      "name": "openChannel",
      "outputs": [],
      "payable": true,
      "stateMutability": "payable",
      "type": "function"
    },
    {
      "constant": false,
      "inputs": [
        {
          "internalType": "bytes32",
          "name": "_channelId",
          "type": "bytes32"
        },
        {
          "internalType": "address",
          "name": "_receiver",
          "type": "address"
        },
        {
          "internalType": "uint256",
          "name": "_transferFromAmount",
          "type": "uint256"
        }
      ],
      "name": "deposit",
      "outputs": [],
      "payable": true,
      "stateMutability": "payable",
      "type": "function"
    },
    {
      "constant": false,
      "inputs": [
        {
          "internalType": "bytes32[]",
          "name": "_channelIds",
          "type": "bytes32[]"
        },
        {
          "internalType": "address[]",
          "name": "_receivers",
          "type": "address[]"
        },
        {
          "internalType": "uint256[]",
          "name": "_transferFromAmounts",
          "type": "uint256[]"
        }
      ],
      "name": "depositInBatch",
      "outputs": [],
      "payable": false,
      "stateMutability": "nonpayable",
      "type": "function"
    },
    {
      "constant": false,
      "inputs": [
        {
          "internalType": "bytes",
          "name": "_signedSimplexStateArray",
          "type": "bytes"
        }
      ],
      "name": "snapshotStates",
      "outputs": [],
      "payable": false,
      "stateMutability": "nonpayable",
      "type": "function"
    },
    {
      "constant": false,
      "inputs": [
        {
          "internalType": "bytes32",
          "name": "_channelId",
          "type": "bytes32"
        },
        {
          "internalType": "uint256",
          "name": "_amount",
          "type": "uint256"
        },
        {
          "internalType": "bytes32",
          "name": "_recipientChannelId",
          "type": "bytes32"
        }
      ],
      "name": "intendWithdraw",
      "outputs": [],
      "payable": false,
      "stateMutability": "nonpayable",
      "type": "function"
    },
    {
      "constant": false,
      "inputs": [
        {
          "internalType": "bytes32",
          "name": "_channelId",
          "type": "bytes32"
        }
      ],
      "name": "confirmWithdraw",
      "outputs": [],
      "payable": false,
      "stateMutability": "nonpayable",
      "type": "function"
    },
    {
      "constant": false,
      "inputs": [
        {
          "internalType": "bytes32",
          "name": "_channelId",
          "type": "bytes32"
        }
      ],
      "name": "vetoWithdraw",
      "outputs": [],
      "payable": false,
      "stateMutability": "nonpayable",
      "type": "function"
    },
    {
      "constant": false,
      "inputs": [
        {
          "internalType": "bytes",
          "name": "_cooperativeWithdrawRequest",
          "type": "bytes"
        }
      ],
      "name": "cooperativeWithdraw",
      "outputs": [],
      "payable": false,
      "stateMutability": "nonpayable",
      "type": "function"
    },
    {
      "constant": false,
      "inputs": [
        {
          "internalType": "bytes",
          "name": "_signedSimplexStateArray",
          "type": "bytes"
        }
      ],
      "name": "intendSettle",
      "outputs": [],
      "payable": false,
      "stateMutability": "nonpayable",
      "type": "function"
    },
    {
      "constant": false,
      "inputs": [
        {
          "internalType": "bytes32",
          "name": "_channelId",
          "type": "bytes32"
        },
        {
          "internalType": "address",
          "name": "_peerFrom",
          "type": "address"
        },
        {
          "internalType": "bytes",
          "name": "_payIdList",
          "type": "bytes"
        }
      ],
      "name": "clearPays",
      "outputs": [],
      "payable": false,
      "stateMutability": "nonpayable",
      "type": "function"
    },
    {
      "constant": false,
      "inputs": [
        {
          "internalType": "bytes32",
          "name": "_channelId",
          "type": "bytes32"
        }
      ],
      "name": "confirmSettle",
      "outputs": [],
      "payable": false,
      "stateMutability": "nonpayable",
      "type": "function"
    },
    {
      "constant": false,
      "inputs": [
        {
          "internalType": "bytes",
          "name": "_settleRequest",
          "type": "bytes"
        }
      ],
      "name": "cooperativeSettle",
      "outputs": [],
      "payable": false,
      "stateMutability": "nonpayable",
      "type": "function"
    },
    {
      "constant": false,
      "inputs": [
        {
          "internalType": "bytes",
          "name": "_migrationRequest",
          "type": "bytes"
        }
      ],
      "name": "migrateChannelTo",
      "outputs": [
        {
          "internalType": "bytes32",
          "name": "",
          "type": "bytes32"
        }
      ],
      "payable": false,
      "stateMutability": "nonpayable",
      "type": "function"
    },
    {
      "constant": false,
      "inputs": [
        {
          "internalType": "address",
          "name": "_fromLedgerAddr",
          "type": "address"
        },
        {
          "internalType": "bytes",
          "name": "_migrationRequest",
          "type": "bytes"
        }
      ],
      "name": "migrateChannelFrom",
      "outputs": [],
      "payable": false,
      "stateMutability": "nonpayable",
      "type": "function"
    },
    {
      "constant": true,
      "inputs": [
        {
          "internalType": "bytes32",
          "name": "_channelId",
          "type": "bytes32"
        }
      ],
      "name": "getSettleFinalizedTime",
      "outputs": [
        {
          "internalType": "uint256",
          "name": "",
          "type": "uint256"
        }
      ],
      "payable": false,
      "stateMutability": "view",
      "type": "function"
    },
    {
      "constant": true,
      "inputs": [
        {
          "internalType": "bytes32",
          "name": "_channelId",
          "type": "bytes32"
        }
      ],
      "name": "getTokenContract",
      "outputs": [
        {
          "internalType": "address",
          "name": "",
          "type": "address"
        }
      ],
      "payable": false,
      "stateMutability": "view",
      "type": "function"
    },
    {
      "constant": true,
      "inputs": [
        {
          "internalType": "bytes32",
          "name": "_channelId",
          "type": "bytes32"
        }
      ],
      "name": "getTokenType",
      "outputs": [
        {
          "internalType": "enum PbEntity.TokenType",
          "name": "",
          "type": "uint8"
        }
      ],
      "payable": false,
      "stateMutability": "view",
      "type": "function"
    },
    {
      "constant": true,
      "inputs": [
        {
          "internalType": "bytes32",
          "name": "_channelId",
          "type": "bytes32"
        }
      ],
      "name": "getChannelStatus",
      "outputs": [
        {
          "internalType": "enum LedgerStruct.ChannelStatus",
          "name": "",
          "type": "uint8"
        }
      ],
      "payable": false,
      "stateMutability": "view",
      "type": "function"
    },
    {
      "constant": true,
      "inputs": [
        {
          "internalType": "bytes32",
          "name": "_channelId",
          "type": "bytes32"
        }
      ],
      "name": "getCooperativeWithdrawSeqNum",
      "outputs": [
        {
          "internalType": "uint256",
          "name": "",
          "type": "uint256"
        }
      ],
      "payable": false,
      "stateMutability": "view",
      "type": "function"
    },
    {
      "constant": true,
      "inputs": [
        {
          "internalType": "bytes32",
          "name": "_channelId",
          "type": "bytes32"
        }
      ],
      "name": "getTotalBalance",
      "outputs": [
        {
          "internalType": "uint256",
          "name": "",
          "type": "uint256"
        }
      ],
      "payable": false,
      "stateMutability": "view",
      "type": "function"
    },
    {
      "constant": true,
      "inputs": [
        {
          "internalType": "bytes32",
          "name": "_channelId",
          "type": "bytes32"
        }
      ],
      "name": "getBalanceMap",
      "outputs": [
        {
          "internalType": "address[2]",
          "name": "",
          "type": "address[2]"
        },
        {
          "internalType": "uint256[2]",
          "name": "",
          "type": "uint256[2]"
        },
        {
          "internalType": "uint256[2]",
          "name": "",
          "type": "uint256[2]"
        }
      ],
      "payable": false,
      "stateMutability": "view",
      "type": "function"
    },
    {
      "constant": true,
      "inputs": [
        {
          "internalType": "bytes32",
          "name": "_channelId",
          "type": "bytes32"
        }
      ],
      "name": "getChannelMigrationArgs",
      "outputs": [
        {
          "internalType": "uint256",
          "name": "",
          "type": "uint256"
        },
        {
          "internalType": "uint256",
          "name": "",
          "type": "uint256"
        },
        {
          "internalType": "address",
          "name": "",
          "type": "address"
        },
        {
          "internalType": "uint256",
          "name": "",
          "type": "uint256"
        }
      ],
      "payable": false,
      "stateMutability": "view",
      "type": "function"
    },
    {
      "constant": true,
      "inputs": [
        {
          "internalType": "bytes32",
          "name": "_channelId",
          "type": "bytes32"
        }
      ],
      "name": "getPeersMigrationInfo",
      "outputs": [
        {
          "internalType": "address[2]",
          "name": "",
          "type": "address[2]"
        },
        {
          "internalType": "uint256[2]",
          "name": "",
          "type": "uint256[2]"
        },
        {
          "internalType": "uint256[2]",
          "name": "",
          "type": "uint256[2]"
        },
        {
          "internalType": "uint256[2]",
          "name": "",
          "type": "uint256[2]"
        },
        {
          "internalType": "uint256[2]",
          "name": "",
          "type": "uint256[2]"
        },
        {
          "internalType": "uint256[2]",
          "name": "",
          "type": "uint256[2]"
        }
      ],
      "payable": false,
      "stateMutability": "view",
      "type": "function"
    },
    {
      "constant": true,
      "inputs": [
        {
          "internalType": "bytes32",
          "name": "_channelId",
          "type": "bytes32"
        }
      ],
      "name": "getDisputeTimeout",
      "outputs": [
        {
          "internalType": "uint256",
          "name": "",
          "type": "uint256"
        }
      ],
      "payable": false,
      "stateMutability": "view",
      "type": "function"
    },
    {
      "constant": true,
      "inputs": [
        {
          "internalType": "bytes32",
          "name": "_channelId",
          "type": "bytes32"
        }
      ],
      "name": "getMigratedTo",
      "outputs": [
        {
          "internalType": "address",
          "name": "",
          "type": "address"
        }
      ],
      "payable": false,
      "stateMutability": "view",
      "type": "function"
    },
    {
      "constant": true,
      "inputs": [
        {
          "internalType": "bytes32",
          "name": "_channelId",
          "type": "bytes32"
        }
      ],
      "name": "getStateSeqNumMap",
      "outputs": [
        {
          "internalType": "address[2]",
          "name": "",
          "type": "address[2]"
        },
        {
          "internalType": "uint256[2]",
          "name": "",
          "type": "uint256[2]"
        }
      ],
      "payable": false,
      "stateMutability": "view",
      "type": "function"
    },
    {
      "constant": true,
      "inputs": [
        {
          "internalType": "bytes32",
          "name": "_channelId",
          "type": "bytes32"
        }
      ],
      "name": "getTransferOutMap",
      "outputs": [
        {
          "internalType": "address[2]",
          "name": "",
          "type": "address[2]"
        },
        {
          "internalType": "uint256[2]",
          "name": "",
          "type": "uint256[2]"
        }
      ],
      "payable": false,
      "stateMutability": "view",
      "type": "function"
    },
    {
      "constant": true,
      "inputs": [
        {
          "internalType": "bytes32",
          "name": "_channelId",
          "type": "bytes32"
        }
      ],
      "name": "getNextPayIdListHashMap",
      "outputs": [
        {
          "internalType": "address[2]",
          "name": "",
          "type": "address[2]"
        },
        {
          "internalType": "bytes32[2]",
          "name": "",
          "type": "bytes32[2]"
        }
      ],
      "payable": false,
      "stateMutability": "view",
      "type": "function"
    },
    {
      "constant": true,
      "inputs": [
        {
          "internalType": "bytes32",
          "name": "_channelId",
          "type": "bytes32"
        }
      ],
      "name": "getLastPayResolveDeadlineMap",
      "outputs": [
        {
          "internalType": "address[2]",
          "name": "",
          "type": "address[2]"
        },
        {
          "internalType": "uint256[2]",
          "name": "",
          "type": "uint256[2]"
        }
      ],
      "payable": false,
      "stateMutability": "view",
      "type": "function"
    },
    {
      "constant": true,
      "inputs": [
        {
          "internalType": "bytes32",
          "name": "_channelId",
          "type": "bytes32"
        }
      ],
      "name": "getPendingPayOutMap",
      "outputs": [
        {
          "internalType": "address[2]",
          "name": "",
          "type": "address[2]"
        },
        {
          "internalType": "uint256[2]",
          "name": "",
          "type": "uint256[2]"
        }
      ],
      "payable": false,
      "stateMutability": "view",
      "type": "function"
    },
    {
      "constant": true,
      "inputs": [
        {
          "internalType": "bytes32",
          "name": "_channelId",
          "type": "bytes32"
        }
      ],
      "name": "getWithdrawIntent",
      "outputs": [
        {
          "internalType": "address",
          "name": "",
          "type": "address"
        },
        {
          "internalType": "uint256",
          "name": "",
          "type": "uint256"
        },
        {
          "internalType": "uint256",
          "name": "",
          "type": "uint256"
        },
        {
          "internalType": "bytes32",
          "name": "",
          "type": "bytes32"
        }
      ],
      "payable": false,
      "stateMutability": "view",
      "type": "function"
    },
    {
      "constant": true,
      "inputs": [
        {
          "internalType": "uint256",
          "name": "_channelStatus",
          "type": "uint256"
        }
      ],
      "name": "getChannelStatusNum",
      "outputs": [
        {
          "internalType": "uint256",
          "name": "",
          "type": "uint256"
        }
      ],
      "payable": false,
      "stateMutability": "view",
      "type": "function"
    },
    {
      "constant": true,
      "inputs": [],
      "name": "getEthPool",
      "outputs": [
        {
          "internalType": "address",
          "name": "",
          "type": "address"
        }
      ],
      "payable": false,
      "stateMutability": "view",
      "type": "function"
    },
    {
      "constant": true,
      "inputs": [],
      "name": "getPayRegistry",
      "outputs": [
        {
          "internalType": "address",
          "name": "",
          "type": "address"
        }
      ],
      "payable": false,
      "stateMutability": "view",
      "type": "function"
    },
    {
      "constant": true,
      "inputs": [],
      "name": "getCelerWallet",
      "outputs": [
        {
          "internalType": "address",
          "name": "",
          "type": "address"
        }
      ],
      "payable": false,
      "stateMutability": "view",
      "type": "function"
    },
    {
      "constant": true,
      "inputs": [
        {
          "internalType": "address",
          "name": "_tokenAddr",
          "type": "address"
        }
      ],
      "name": "getBalanceLimit",
      "outputs": [
        {
          "internalType": "uint256",
          "name": "",
          "type": "uint256"
        }
      ],
      "payable": false,
      "stateMutability": "view",
      "type": "function"
    },
    {
      "constant": true,
      "inputs": [],
      "name": "getBalanceLimitsEnabled",
      "outputs": [
        {
          "internalType": "bool",
          "name": "",
          "type": "bool"
        }
      ],
      "payable": false,
      "stateMutability": "view",
      "type": "function"
    }
  ],
  "bytecode": "0x608060405234801561001057600080fd5b50604051620028b8380380620028b88339818101604052606081101561003557600080fd5b50805160208201516040909201519091906100576001600160e01b036100ee16565b600080546001600160a01b0319166001600160a01b03928316178082556040519216917f8be0079c531659141344cd1fd0a4f28419497f9722a3daafe3b4186f6b6457e0908290a3600280546001600160a01b039485166001600160a01b0319918216179091556003805493851693821693909317909255600480549190931691161790556006805460ff191660011790556100f2565b3390565b6127b680620001026000396000f3fe6080604052600436106102675760003560e01c806393b7b3ce11610144578063d75f960e116100b6578063e5780db21161007a578063e5780db214610dc1578063e6322df714610edc578063ec7c637d14610f06578063f0c73d7014610f39578063f2fde38b14610f63578063fd0a1a6114610f9657610267565b8063d75f960e14610cc0578063d927bfc414610cd5578063d954863c14610cff578063e063913c14610d31578063e0a515b714610d4657610267565b8063bd480cb711610108578063bd480cb714610ad0578063c38a325d14610b8d578063c7ff862514610bb7578063cc0b94b714610be1578063cd3a1be614610c1b578063d757abd214610c4557610267565b806393b7b3ce1461090a578063979a9b5e146109785780639f1fad83146109c6578063a099a39f146109f0578063a8580cab14610a0557610267565b80634102b9a8116101dd5780637e9a7a3e116101a15780637e9a7a3e1461072a57806383c8f8b81461075457806388f41465146107695780638942ecb2146108aa5780638da5cb5b146108e05780638f32d59b146108f557610267565b80634102b9a8146105ec578063666a6d651461066757806369d5dd6714610691578063715018a6146106bb57806376bff117146106d057610267565b80632b559ecc1161022f5780632b559ecc1461045b5780632e2a5a02146104845780632e3c517a146104ca5780632f0ac30414610555578063307d6f96146105ad578063312ea2c6146105d757610267565b80630165cef81461026c57806309683c03146102fd57806309b65d861461037a578063130d33fe146103b6578063255aab5914610431575b600080fd5b34801561027857600080fd5b506102966004803603602081101561028f57600080fd5b5035611026565b6040518083600260200280838360005b838110156102be5781810151838201526020016102a6565b5050505090500182600260200280838360005b838110156102e95781810151838201526020016102d1565b505050509050019250505060405180910390f35b34801561030957600080fd5b506103786004803603602081101561032057600080fd5b810190602081018135600160201b81111561033a57600080fd5b82018360208201111561034c57600080fd5b803590602001918460018302840111600160201b8311171561036d57600080fd5b5090925090506110e0565b005b34801561038657600080fd5b506103a46004803603602081101561039d57600080fd5b5035611181565b60408051918252519081900360200190f35b3480156103c257600080fd5b50610378600480360360208110156103d957600080fd5b810190602081018135600160201b8111156103f357600080fd5b82018360208201111561040557600080fd5b803590602001918460018302840111600160201b8311171561042657600080fd5b509092509050611213565b34801561043d57600080fd5b506103786004803603602081101561045457600080fd5b5035611298565b34801561046757600080fd5b5061047061130c565b604080519115158252519081900360200190f35b34801561049057600080fd5b506104ae600480360360208110156104a757600080fd5b5035611391565b604080516001600160a01b039092168252519081900360200190f35b3480156104d657600080fd5b50610378600480360360408110156104ed57600080fd5b6001600160a01b038235169190810190604081016020820135600160201b81111561051757600080fd5b82018360208201111561052957600080fd5b803590602001918460018302840111600160201b8311171561054a57600080fd5b5090925090506113f0565b34801561056157600080fd5b5061057f6004803603602081101561057857600080fd5b50356114a6565b6040805194855260208501939093526001600160a01b03909116838301526060830152519081900360800190f35b3480156105b957600080fd5b506103a4600480360360208110156105d057600080fd5b503561155b565b3480156105e357600080fd5b506104ae6115e9565b3480156105f857600080fd5b506103786004803603602081101561060f57600080fd5b810190602081018135600160201b81111561062957600080fd5b82018360208201111561063b57600080fd5b803590602001918460018302840111600160201b8311171561065c57600080fd5b50909250905061163d565b34801561067357600080fd5b506102966004803603602081101561068a57600080fd5b50356116c2565b34801561069d57600080fd5b506103a4600480360360208110156106b457600080fd5b5035611735565b3480156106c757600080fd5b50610378611794565b3480156106dc57600080fd5b506106fa600480360360208110156106f357600080fd5b5035611825565b604080516001600160a01b0390951685526020850193909352838301919091526060830152519081900360800190f35b34801561073657600080fd5b506103786004803603602081101561074d57600080fd5b503561188d565b34801561076057600080fd5b506103786118e6565b34801561077557600080fd5b506107936004803603602081101561078c57600080fd5b5035611999565b6040518087600260200280838360005b838110156107bb5781810151838201526020016107a3565b5050505090500186600260200280838360005b838110156107e65781810151838201526020016107ce565b5050505090500185600260200280838360005b838110156108115781810151838201526020016107f9565b5050505090500184600260200280838360005b8381101561083c578181015183820152602001610824565b5050505090500183600260200280838360005b8381101561086757818101518382015260200161084f565b5050505090500182600260200280838360005b8381101561089257818101518382015260200161087a565b50505050905001965050505050505060405180910390f35b3480156108b657600080fd5b50610378600480360360608110156108cd57600080fd5b5080359060208101359060400135611a8f565b3480156108ec57600080fd5b506104ae611af6565b34801561090157600080fd5b50610470611b05565b6103786004803603602081101561092057600080fd5b810190602081018135600160201b81111561093a57600080fd5b82018360208201111561094c57600080fd5b803590602001918460018302840111600160201b8311171561096d57600080fd5b509092509050611b29565b34801561098457600080fd5b506109a26004803603602081101561099b57600080fd5b5035611bae565b604051808260028111156109b257fe5b60ff16815260200191505060405180910390f35b3480156109d257600080fd5b50610296600480360360208110156109e957600080fd5b5035611c0d565b3480156109fc57600080fd5b506104ae611c80565b348015610a1157600080fd5b5061037860048036036040811015610a2857600080fd5b810190602081018135600160201b811115610a4257600080fd5b820183602082011115610a5457600080fd5b803590602001918460208302840111600160201b83111715610a7557600080fd5b919390929091602081019035600160201b811115610a9257600080fd5b820183602082011115610aa457600080fd5b803590602001918460208302840111600160201b83111715610ac557600080fd5b509092509050611cd4565b348015610adc57600080fd5b50610afa60048036036020811015610af357600080fd5b5035611df2565b6040518084600260200280838360005b83811015610b22578181015183820152602001610b0a565b5050505090500183600260200280838360005b83811015610b4d578181015183820152602001610b35565b5050505090500182600260200280838360005b83811015610b78578181015183820152602001610b60565b50505050905001935050505060405180910390f35b348015610b9957600080fd5b506104ae60048036036020811015610bb057600080fd5b5035611eba565b348015610bc357600080fd5b5061037860048036036020811015610bda57600080fd5b5035611f19565b348015610bed57600080fd5b50610c0b60048036036020811015610c0457600080fd5b5035611f72565b604051808260048111156109b257fe5b348015610c2757600080fd5b5061029660048036036020811015610c3e57600080fd5b5035611fd1565b348015610c5157600080fd5b5061037860048036036020811015610c6857600080fd5b810190602081018135600160201b811115610c8257600080fd5b820183602082011115610c9457600080fd5b803590602001918460018302840111600160201b83111715610cb557600080fd5b509092509050612044565b348015610ccc57600080fd5b506104ae6120c9565b348015610ce157600080fd5b5061029660048036036020811015610cf857600080fd5b503561211d565b61037860048036036060811015610d1557600080fd5b508035906001600160a01b036020820135169060400135612190565b348015610d3d57600080fd5b506103786121ff565b348015610d5257600080fd5b506103a460048036036020811015610d6957600080fd5b810190602081018135600160201b811115610d8357600080fd5b820183602082011115610d9557600080fd5b803590602001918460018302840111600160201b83111715610db657600080fd5b509092509050612298565b348015610dcd57600080fd5b5061037860048036036060811015610de457600080fd5b810190602081018135600160201b811115610dfe57600080fd5b820183602082011115610e1057600080fd5b803590602001918460208302840111600160201b83111715610e3157600080fd5b919390929091602081019035600160201b811115610e4e57600080fd5b820183602082011115610e6057600080fd5b803590602001918460208302840111600160201b83111715610e8157600080fd5b919390929091602081019035600160201b811115610e9e57600080fd5b820183602082011115610eb057600080fd5b803590602001918460208302840111600160201b83111715610ed157600080fd5b50909250905061231f565b348015610ee857600080fd5b506103a460048036036020811015610eff57600080fd5b503561245d565b348015610f1257600080fd5b506103a460048036036020811015610f2957600080fd5b50356001600160a01b03166124bc565b348015610f4557600080fd5b506103a460048036036020811015610f5c57600080fd5b5035612521565b348015610f6f57600080fd5b5061037860048036036020811015610f8657600080fd5b50356001600160a01b0316612580565b348015610fa257600080fd5b5061037860048036036060811015610fb957600080fd5b8135916001600160a01b0360208201351691810190606081016040820135600160201b811115610fe857600080fd5b820183602082011115610ffa57600080fd5b803590602001918460018302840111600160201b8311171561101b57600080fd5b5090925090506125d3565b61102e61271d565b61103661271d565b60008381526007602052604090819020815163bcdf4ebb60e01b8152600481018290529151909173__LedgerChannel_________________________9163bcdf4ebb91602480820192608092909190829003018186803b15801561109957600080fd5b505af41580156110ad573d6000803e3d6000fd5b505050506040513d601f19601f8201168201806040525060808110156110d257600080fd5b509460408601945092505050565b604080516379e9008760e01b8152600160048201818152602483019384526044830185905273__LedgerOperation_______________________936379e9008793879287929091606401848480828437600081840152601f19601f82011690508083019250505094505050505060006040518083038186803b15801561116557600080fd5b505af4158015611179573d6000803e3d6000fd5b505050505050565b6000818152600760209081526040808320815163418ec10160e01b8152600481018290529151909273__LedgerChannel_________________________9263418ec1019260248083019392829003018186803b1580156111e057600080fd5b505af41580156111f4573d6000803e3d6000fd5b505050506040513d602081101561120a57600080fd5b50519392505050565b60408051630bdc541160e01b8152600160048201818152602483019384526044830185905273__LedgerOperation_______________________93630bdc541193879287929091606401848480828437600081840152601f19601f82011690508083019250505094505050505060006040518083038186803b15801561116557600080fd5b6040805163eb4de33760e01b81526001600482015260248101839052905173__LedgerOperation_______________________9163eb4de337916044808301926000929190829003018186803b1580156112f157600080fd5b505af4158015611305573d6000803e3d6000fd5b5050505050565b6000600173__LedgerBalanceLimit____________________636ae9747290916040518263ffffffff1660e01b81526004018082815260200191505060206040518083038186803b15801561136057600080fd5b505af4158015611374573d6000803e3d6000fd5b505050506040513d602081101561138a57600080fd5b5051905090565b60008181526007602090815260408083208151630fea54e160e11b8152600481018290529151909273__LedgerChannel_________________________92631fd4a9c29260248083019392829003018186803b1580156111e057600080fd5b60405163415a19c560e11b81526001600482018181526001600160a01b03861660248401526060604484019081526064840185905273__LedgerMigrate_________________________936382b4338a93928892889288929190608401848480828437600081840152601f19601f8201169050808301925050509550505050505060006040518083038186803b15801561148957600080fd5b505af415801561149d573d6000803e3d6000fd5b50505050505050565b600081815260076020526040808220815163c2f8816b60e01b8152600481018290529151839283928392909173__LedgerChannel_________________________9163c2f8816b91602480820192608092909190829003018186803b15801561150e57600080fd5b505af4158015611522573d6000803e3d6000fd5b505050506040513d608081101561153857600080fd5b508051602082015160408301516060909301519199909850919650945092505050565b6000600173__LedgerOperation_______________________6360297df39091846040518363ffffffff1660e01b8152600401808381526020018281526020019250505060206040518083038186803b1580156115b757600080fd5b505af41580156115cb573d6000803e3d6000fd5b505050506040513d60208110156115e157600080fd5b505192915050565b6000600173__LedgerOperation_______________________6344e58d5190916040518263ffffffff1660e01b81526004018082815260200191505060206040518083038186803b15801561136057600080fd5b604080516372cf9b4360e11b8152600160048201818152602483019384526044830185905273__LedgerOperation_______________________9363e59f368693879287929091606401848480828437600081840152601f19601f82011690508083019250505094505050505060006040518083038186803b15801561116557600080fd5b6116ca61271d565b6116d261271d565b60008381526007602052604090819020815163640a694760e11b8152600481018290529151909173__LedgerChannel_________________________9163c814d28e91602480820192608092909190829003018186803b15801561109957600080fd5b60008181526007602090815260408083208151636b5c4f1d60e11b8152600481018290529151909273__LedgerChannel_________________________9263d6b89e3a9260248083019392829003018186803b1580156111e057600080fd5b61179c611b05565b6117db576040805162461bcd60e51b81526020600482018190526024820152600080516020612762833981519152604482015290519081900360640190fd5b600080546040516001600160a01b03909116907f8be0079c531659141344cd1fd0a4f28419497f9722a3daafe3b4186f6b6457e0908390a3600080546001600160a01b0319169055565b600081815260076020526040808220815163c46dd9dd60e01b8152600481018290529151839283928392909173__LedgerChannel_________________________9163c46dd9dd91602480820192608092909190829003018186803b15801561150e57600080fd5b604080516383e0fef560e01b81526001600482015260248101839052905173__LedgerOperation_______________________916383e0fef5916044808301926000929190829003018186803b1580156112f157600080fd5b6118ee611b05565b61192d576040805162461bcd60e51b81526020600482018190526024820152600080516020612762833981519152604482015290519081900360640190fd5b60408051636ad1dc2d60e01b815260016004820152905173__LedgerBalanceLimit____________________91636ad1dc2d916024808301926000929190829003018186803b15801561197f57600080fd5b505af4158015611993573d6000803e3d6000fd5b50505050565b6119a161271d565b6119a961271d565b6119b161271d565b6119b961271d565b6119c161271d565b6119c961271d565b60008781526007602052604090819020815163b325312760e01b8152600481018290529151909173__LedgerChannel_________________________9163b32531279160248082019261018092909190829003018186803b158015611a2d57600080fd5b505af4158015611a41573d6000803e3d6000fd5b505050506040513d601f19601f82011682018060405250610180811015611a6757600080fd5b509860408a01985060808a01975060c08a0196506101008a0195506101408a01945092505050565b60408051637a2654ed60e01b815260016004820152602481018590526044810184905260648101839052905173__LedgerOperation_______________________91637a2654ed916084808301926000929190829003018186803b15801561148957600080fd5b6000546001600160a01b031690565b600080546001600160a01b0316611b1a612679565b6001600160a01b031614905090565b6040805163594db6e360e01b8152600160048201818152602483019384526044830185905273__LedgerOperation_______________________9363594db6e393879287929091606401848480828437600081840152601f19601f82011690508083019250505094505050505060006040518083038186803b15801561116557600080fd5b600081815260076020908152604080832081516312bb8c8160e01b8152600481018290529151909273__LedgerChannel_________________________926312bb8c819260248083019392829003018186803b1580156111e057600080fd5b611c1561271d565b611c1d61271d565b6000838152600760205260409081902081516396a3c57f60e01b8152600481018290529151909173__LedgerChannel_________________________916396a3c57f91602480820192608092909190829003018186803b15801561109957600080fd5b6000600173__LedgerOperation_______________________63bd199ca590916040518263ffffffff1660e01b81526004018082815260200191505060206040518083038186803b15801561136057600080fd5b611cdc611b05565b611d1b576040805162461bcd60e51b81526020600482018190526024820152600080516020612762833981519152604482015290519081900360640190fd5b600173__LedgerBalanceLimit____________________63c88c62659091868686866040518663ffffffff1660e01b81526004018086815260200180602001806020018381038352878782818152602001925060200280828437600083820152601f01601f19169091018481038352858152602090810191508690860280828437600081840152601f19601f82011690508083019250505097505050505050505060006040518083038186803b158015611dd457600080fd5b505af4158015611de8573d6000803e3d6000fd5b5050505050505050565b611dfa61271d565b611e0261271d565b611e0a61271d565b6000848152600760205260409081902081516364768a4f60e11b8152600481018290529151909173__LedgerChannel_________________________9163c8ed149e9160248082019260c092909190829003018186803b158015611e6d57600080fd5b505af4158015611e81573d6000803e3d6000fd5b505050506040513d601f19601f8201168201806040525060c0811015611ea657600080fd5b509560408701955060808701945092505050565b60008181526007602090815260408083208151638970f8a560e01b8152600481018290529151909273__LedgerChannel_________________________92638970f8a59260248083019392829003018186803b1580156111e057600080fd5b6040805163bb3d0f2b60e01b81526001600482015260248101839052905173__LedgerOperation_______________________9163bb3d0f2b916044808301926000929190829003018186803b1580156112f157600080fd5b6000818152600760209081526040808320815163565aebdb60e01b8152600481018290529151909273__LedgerChannel_________________________9263565aebdb9260248083019392829003018186803b1580156111e057600080fd5b611fd961271d565b611fe161271d565b600083815260076020526040908190208151636bedb2e760e11b8152600481018290529151909173__LedgerChannel_________________________9163d7db65ce91602480820192608092909190829003018186803b15801561109957600080fd5b6040805163742fb50760e01b8152600160048201818152602483019384526044830185905273__LedgerOperation_______________________9363742fb50793879287929091606401848480828437600081840152601f19601f82011690508083019250505094505050505060006040518083038186803b15801561116557600080fd5b6000600173__LedgerOperation_______________________63c98c925190916040518263ffffffff1660e01b81526004018082815260200191505060206040518083038186803b15801561136057600080fd5b61212561271d565b61212d61271d565b60008381526007602052604090819020815163c2c3f21f60e01b8152600481018290529151909173__LedgerChannel_________________________9163c2c3f21f91602480820192608092909190829003018186803b15801561109957600080fd5b6040805163bd9d315760e01b815260016004820152602481018590526001600160a01b038416604482015260648101839052905173__LedgerOperation_______________________9163bd9d3157916084808301926000929190829003018186803b15801561148957600080fd5b612207611b05565b612246576040805162461bcd60e51b81526020600482018190526024820152600080516020612762833981519152604482015290519081900360640190fd5b60408051635930e0e160e01b815260016004820152905173__LedgerBalanceLimit____________________91635930e0e1916024808301926000929190829003018186803b15801561197f57600080fd5b60408051631e28763960e11b8152600160048201818152602483019384526044830185905260009373__LedgerMigrate_________________________93633c50ec72939288928892606401848480828437600083820152604051601f909101601f1916909201965060209550909350505081840390508186803b1580156111e057600080fd5b848314801561232d57508281145b612375576040805162461bcd60e51b8152602060048201526014602482015273098cadccee8d0e640c8de40dcdee840dac2e8c6d60631b604482015290519081900360640190fd5b60005b8581101561149d5773__LedgerOperation_______________________63bd9d315760018989858181106123a857fe5b905060200201358888868181106123bb57fe5b905060200201356001600160a01b03168787878181106123d757fe5b905060200201356040518563ffffffff1660e01b815260040180858152602001848152602001836001600160a01b03166001600160a01b0316815260200182815260200194505050505060006040518083038186803b15801561243957600080fd5b505af415801561244d573d6000803e3d6000fd5b5050600190920191506123789050565b60008181526007602090815260408083208151635c06efbf60e11b8152600481018290529151909273__LedgerChannel_________________________9263b80ddf7e9260248083019392829003018186803b1580156111e057600080fd5b6040805163bdca79a760e01b8152600160048201526001600160a01b0383166024820152905160009173__LedgerBalanceLimit____________________9163bdca79a791604480820192602092909190829003018186803b1580156115b757600080fd5b600081815260076020908152604080832081516377ffc62360e01b8152600481018290529151909273__LedgerChannel_________________________926377ffc6239260248083019392829003018186803b1580156111e057600080fd5b612588611b05565b6125c7576040805162461bcd60e51b81526020600482018190526024820152600080516020612762833981519152604482015290519081900360640190fd5b6125d08161267d565b50565b604051600162804bef60e01b03198152600160048201818152602483018790526001600160a01b03861660448401526080606484019081526084840185905273__LedgerOperation_______________________9363ff7fb41193928992899289928992909160a401848480828437600081840152601f19601f820116905080830192505050965050505050505060006040518083038186803b158015611dd457600080fd5b3390565b6001600160a01b0381166126c25760405162461bcd60e51b815260040180806020018281038252602681526020018061273c6026913960400191505060405180910390fd5b600080546040516001600160a01b03808516939216917f8be0079c531659141344cd1fd0a4f28419497f9722a3daafe3b4186f6b6457e091a3600080546001600160a01b0319166001600160a01b0392909216919091179055565b6040518060400160405280600290602082028038833950919291505056fe4f776e61626c653a206e6577206f776e657220697320746865207a65726f20616464726573734f776e61626c653a2063616c6c6572206973206e6f7420746865206f776e6572a265627a7a72315820693c0fbae71ad4eb3c685f4c149d29f0caf567bd29b385c3465f35d2a7eb5b1464736f6c634300050c0032",
  "source": "pragma solidity ^0.5.1;\n\nimport \"./lib/ledgerlib/LedgerStruct.sol\";\nimport \"./lib/ledgerlib/LedgerOperation.sol\";\nimport \"./lib/ledgerlib/LedgerBalanceLimit.sol\";\nimport \"./lib/ledgerlib/LedgerMigrate.sol\";\nimport \"./lib/ledgerlib/LedgerChannel.sol\";\nimport \"./lib/interface/ICelerWallet.sol\";\nimport \"./lib/interface/IEthPool.sol\";\nimport \"./lib/interface/IPayRegistry.sol\";\nimport \"openzeppelin-solidity/contracts/ownership/Ownable.sol\";\n\n/**\n * @title CelerLedger wrapper contract\n * @notice A wrapper contract using libraries to provide CelerLedger's APIs.\n * @notice Ownable contract and LedgerBalanceLimit library should only be used\n *   in the initial stage of the mainnet operation for a very short period of\n *   time to limit the balance amount that can be deposit into each channel,\n *   so that any losses due to unknown bugs (if any) will be limited. The balance\n *   limits should be disabled and the owner account of CelerLedger should renounce\n *   its ownership after the system is stable and comprehensively audited.\n */\ncontract CelerLedger is ICelerLedger, Ownable {\n    using LedgerOperation for LedgerStruct.Ledger;\n    using LedgerBalanceLimit for LedgerStruct.Ledger;\n    using LedgerMigrate for LedgerStruct.Ledger;\n    using LedgerChannel for LedgerStruct.Channel;\n\n    LedgerStruct.Ledger private ledger;\n\n    /**\n     * @notice CelerLedger constructor\n     * @param _ethPool address of ETH pool\n     * @param _payRegistry address of PayRegistry\n     */\n    constructor(address _ethPool, address _payRegistry, address _celerWallet) public {\n        ledger.ethPool = IEthPool(_ethPool);\n        ledger.payRegistry = IPayRegistry(_payRegistry);\n        ledger.celerWallet = ICelerWallet(_celerWallet);\n        // enable balance limits in default\n        ledger.balanceLimitsEnabled = true;\n    }\n\n    /**\n     * @notice Set the per-channel balance limits of given tokens\n     * @param _tokenAddrs addresses of the tokens (address(0) is for ETH)\n     * @param _limits balance limits of the tokens\n     */\n    function setBalanceLimits(\n        address[] calldata _tokenAddrs,\n        uint[] calldata _limits\n    )\n        external\n        onlyOwner\n    {\n        ledger.setBalanceLimits(_tokenAddrs, _limits);\n    }\n\n    /**\n     * @notice Disable balance limits of all tokens\n     */\n    function disableBalanceLimits() external onlyOwner {\n        ledger.disableBalanceLimits();\n    }\n\n    /**\n     * @notice Enable balance limits of all tokens\n     */\n    function enableBalanceLimits() external onlyOwner {\n        ledger.enableBalanceLimits();\n    }\n\n    /**\n     * @notice Open a state channel through auth withdraw message\n     * @param _openRequest bytes of open channel request message\n     */\n    function openChannel(bytes calldata _openRequest) external payable {\n        ledger.openChannel(_openRequest);\n    }\n\n    /**\n     * @notice Deposit ETH or ERC20 tokens into the channel\n     * @dev total deposit amount = msg.value(must be 0 for ERC20) + _transferFromAmount\n     * @param _channelId ID of the channel\n     * @param _receiver address of the receiver\n     * @param _transferFromAmount amount of funds to be transfered from EthPool for ETH\n     *   or ERC20 contract for ERC20 tokens\n     */\n    function deposit(\n        bytes32 _channelId,\n        address _receiver,\n        uint _transferFromAmount\n    )\n        external payable\n    {\n        ledger.deposit(_channelId, _receiver, _transferFromAmount);\n    }\n\n    /**\n     * @notice Deposit ETH via EthPool or ERC20 tokens into the channel\n     * @dev do not support sending ETH in msg.value for function simplicity.\n     *   Index in three arrays should match.\n     * @param _channelIds IDs of the channels\n     * @param _receivers addresses of the receivers\n     * @param _transferFromAmounts amounts of funds to be transfered from EthPool for ETH\n     *   or ERC20 contract for ERC20 tokens\n     */\n    function depositInBatch(\n        bytes32[] calldata _channelIds,\n        address[] calldata _receivers,\n        uint[] calldata _transferFromAmounts\n    )\n        external\n    {\n        require(\n            _channelIds.length == _receivers.length && _receivers.length == _transferFromAmounts.length,\n            \"Lengths do not match\"\n        );\n        for (uint i = 0; i < _channelIds.length; i++) {\n            ledger.deposit(_channelIds[i], _receivers[i], _transferFromAmounts[i]);\n        }\n    }\n\n    /**\n     * @notice Store signed simplex states on-chain as checkpoints\n     * @dev simplex states in this array are not necessarily in the same channel,\n     *   which means snapshotStates natively supports multi-channel batch processing.\n     *   This function only updates seqNum, transferOut, pendingPayOut of each on-chain\n     *   simplex state. It can't ensure that the pending pays will be cleared during\n     *   settling the channel, which requires users call intendSettle with the same state.\n     *   TODO: wait for Solidity's support to replace SignedSimplexStateArray with bytes[].\n     * @param _signedSimplexStateArray bytes of SignedSimplexStateArray message\n     */\n    function snapshotStates(bytes calldata _signedSimplexStateArray) external {\n        ledger.snapshotStates(_signedSimplexStateArray);\n    }\n\n    /**\n     * @notice Intend to withdraw funds from channel\n     * @dev only peers can call intendWithdraw\n     * @param _channelId ID of the channel\n     * @param _amount amount of funds to withdraw\n     * @param _recipientChannelId withdraw to receiver address if 0,\n     *   otherwise deposit to receiver address in the recipient channel\n     */\n    function intendWithdraw(bytes32 _channelId, uint _amount, bytes32 _recipientChannelId) external {\n        ledger.intendWithdraw(_channelId, _amount, _recipientChannelId);\n    }\n\n    /**\n     * @notice Confirm channel withdrawal\n     * @dev anyone can confirm a withdrawal intent\n     * @param _channelId ID of the channel\n     */\n    function confirmWithdraw(bytes32 _channelId) external {\n        ledger.confirmWithdraw(_channelId);\n    }\n\n    /**\n     * @notice Veto current withdrawal intent\n     * @dev only peers can veto a withdrawal intent;\n     *   peers can veto a withdrawal intent even after (requestTime + disputeTimeout)\n     * @param _channelId ID of the channel\n     */\n    function vetoWithdraw(bytes32 _channelId) external {\n        ledger.vetoWithdraw(_channelId);\n    }\n\n    /**\n     * @notice Cooperatively withdraw specific amount of balance\n     * @param _cooperativeWithdrawRequest bytes of cooperative withdraw request message\n     */\n    function cooperativeWithdraw(bytes calldata _cooperativeWithdrawRequest) external {\n        ledger.cooperativeWithdraw(_cooperativeWithdrawRequest);\n    }\n\n    /**\n     * @notice Intend to settle channel(s) with an array of signed simplex states\n     * @dev simplex states in this array are not necessarily in the same channel,\n     *   which means intendSettle natively supports multi-channel batch processing.\n     *   A simplex state with non-zero seqNum (non-null state) must be co-signed by both peers,\n     *   while a simplex state with seqNum=0 (null state) only needs to be signed by one peer.\n     *   TODO: wait for Solidity's support to replace SignedSimplexStateArray with bytes[].\n     * @param _signedSimplexStateArray bytes of SignedSimplexStateArray message\n     */\n    function intendSettle(bytes calldata _signedSimplexStateArray) external {\n        ledger.intendSettle(_signedSimplexStateArray);\n    }\n\n    /**\n     * @notice Read payment results and add results to corresponding simplex payment channel\n     * @param _channelId ID of the channel\n     * @param _peerFrom address of the peer who send out funds\n     * @param _payIdList bytes of a pay hash list\n     */\n    function clearPays(\n        bytes32 _channelId,\n        address _peerFrom,\n        bytes calldata _payIdList\n    )\n        external\n    {\n        ledger.clearPays(_channelId, _peerFrom, _payIdList);\n    }\n\n    /**\n     * @notice Confirm channel settlement\n     * @dev This must be called after settleFinalizedTime\n     * @param _channelId ID of the channel\n     */\n    function confirmSettle(bytes32 _channelId) external {\n        ledger.confirmSettle(_channelId);\n    }\n\n    /**\n     * @notice Cooperatively settle the channel\n     * @param _settleRequest bytes of cooperative settle request message\n     */\n    function cooperativeSettle(bytes calldata _settleRequest) external {\n        ledger.cooperativeSettle(_settleRequest);\n    }\n\n    /**\n     * @notice Migrate a channel from this CelerLedger to a new CelerLedger\n     * @param _migrationRequest bytes of migration request message\n     * @return migrated channel id\n     */\n    function migrateChannelTo(bytes calldata _migrationRequest) external returns(bytes32) {\n        return ledger.migrateChannelTo(_migrationRequest);\n    }\n\n    /**\n     * @notice Migrate a channel from an old CelerLedger to this CelerLedger\n     * @param _fromLedgerAddr the old ledger address to migrate from\n     * @param _migrationRequest bytes of migration request message\n     */\n    function migrateChannelFrom(address _fromLedgerAddr, bytes calldata _migrationRequest) external {\n        ledger.migrateChannelFrom(_fromLedgerAddr, _migrationRequest);\n    }\n\n    /**\n     * @notice Get channel confirm settle open time\n     * @param _channelId ID of the channel to be viewed\n     * @return channel confirm settle open time\n     */\n    function getSettleFinalizedTime(bytes32 _channelId) public view returns(uint) {\n        LedgerStruct.Channel storage c = ledger.channelMap[_channelId];\n        return c.getSettleFinalizedTime();\n    }\n\n    /**\n     * @notice Get channel token contract address\n     * @param _channelId ID of the channel to be viewed\n     * @return channel token contract address\n     */\n    function getTokenContract(bytes32 _channelId) public view returns(address) {\n        LedgerStruct.Channel storage c = ledger.channelMap[_channelId];\n        return c.getTokenContract();\n\n    }\n\n    /**\n     * @notice Get channel token type\n     * @param _channelId ID of the channel to be viewed\n     * @return channel token type\n     */\n    function getTokenType(bytes32 _channelId) public view returns(PbEntity.TokenType) {\n        LedgerStruct.Channel storage c = ledger.channelMap[_channelId];\n        return c.getTokenType();\n    }\n\n    /**\n     * @notice Get channel status\n     * @param _channelId ID of the channel to be viewed\n     * @return channel status\n     */\n    function getChannelStatus(bytes32 _channelId) public view returns(LedgerStruct.ChannelStatus) {\n        LedgerStruct.Channel storage c = ledger.channelMap[_channelId];\n        return c.getChannelStatus();\n    }\n\n    /**\n     * @notice Get cooperative withdraw seqNum\n     * @param _channelId ID of the channel to be viewed\n     * @return cooperative withdraw seqNum\n     */\n    function getCooperativeWithdrawSeqNum(bytes32 _channelId) public view returns(uint) {\n        LedgerStruct.Channel storage c = ledger.channelMap[_channelId];\n        return c.getCooperativeWithdrawSeqNum();\n    }\n\n    /**\n     * @notice Return one channel's total balance amount\n     * @param _channelId ID of the channel to be viewed\n     * @return channel's balance amount\n     */\n    function getTotalBalance(bytes32 _channelId) public view returns(uint) {\n        LedgerStruct.Channel storage c = ledger.channelMap[_channelId];\n        return c.getTotalBalance();\n    }\n\n    /**\n     * @notice Return one channel's balance info (depositMap and withdrawalMap)\n     * @dev Solidity can't directly return an array of struct for now\n     * @param _channelId ID of the channel to be viewed\n     * @return addresses of peers in the channel\n     * @return corresponding deposits of the peers (with matched index)\n     * @return corresponding withdrawals of the peers (with matched index)\n     */\n    function getBalanceMap(bytes32 _channelId) public view\n        returns(address[2] memory, uint[2] memory, uint[2] memory)\n    {\n        LedgerStruct.Channel storage c = ledger.channelMap[_channelId];\n        return c.getBalanceMap();\n    }\n\n    /**\n     * @notice Return channel-level migration arguments\n     * @param _channelId ID of the channel to be viewed\n     * @return channel dispute timeout\n     * @return channel tokey type converted to uint\n     * @return channel token address\n     * @return sequence number of cooperative withdraw\n     */\n    function getChannelMigrationArgs(bytes32 _channelId) external view returns(uint, uint, address, uint) {\n        LedgerStruct.Channel storage c = ledger.channelMap[_channelId];\n        return c.getChannelMigrationArgs();\n    }\n\n    /**\n     * @notice Return migration info of the peers in the channel\n     * @param _channelId ID of the channel to be viewed\n     * @return peers' addresses\n     * @return peers' deposits\n     * @return peers' withdrawals\n     * @return peers' state sequence numbers\n     * @return peers' transferOut map\n     * @return peers' pendingPayOut map\n     */\n    function getPeersMigrationInfo(bytes32 _channelId) external view returns(\n        address[2] memory,\n        uint[2] memory,\n        uint[2] memory,\n        uint[2] memory,\n        uint[2] memory,\n        uint[2] memory\n    ) {\n        LedgerStruct.Channel storage c = ledger.channelMap[_channelId];\n        return c.getPeersMigrationInfo();\n    }\n\n    /**\n     * @notice Return channel's dispute timeout\n     * @param _channelId ID of the channel to be viewed\n     * @return channel's dispute timeout\n     */\n    function getDisputeTimeout(bytes32 _channelId) external view returns(uint) {\n        LedgerStruct.Channel storage c = ledger.channelMap[_channelId];\n        return c.getDisputeTimeout();\n    }\n\n    /**\n     * @notice Return channel's migratedTo address\n     * @param _channelId ID of the channel to be viewed\n     * @return channel's migratedTo address\n     */\n    function getMigratedTo(bytes32 _channelId) external view returns(address) {\n        LedgerStruct.Channel storage c = ledger.channelMap[_channelId];\n        return c.getMigratedTo();\n    }\n\n    /**\n     * @notice Return state seqNum map of a duplex channel\n     * @param _channelId ID of the channel to be viewed\n     * @return peers' addresses\n     * @return two simplex state sequence numbers\n     */\n    function getStateSeqNumMap(bytes32 _channelId) external view returns(\n        address[2] memory,\n        uint[2] memory\n    ) {\n        LedgerStruct.Channel storage c = ledger.channelMap[_channelId];\n        return c.getStateSeqNumMap();\n    }\n\n    /**\n     * @notice Return transferOut map of a duplex channel\n     * @param _channelId ID of the channel to be viewed\n     * @return peers' addresses\n     * @return transferOuts of two simplex channels\n     */\n    function getTransferOutMap(bytes32 _channelId) external view returns(\n        address[2] memory,\n        uint[2] memory\n    ) {\n        LedgerStruct.Channel storage c = ledger.channelMap[_channelId];\n        return c.getTransferOutMap();\n    }\n\n    /**\n     * @notice Return nextPayIdListHash map of a duplex channel\n     * @param _channelId ID of the channel to be viewed\n     * @return peers' addresses\n     * @return nextPayIdListHashes of two simplex channels\n     */\n    function getNextPayIdListHashMap(bytes32 _channelId) external view returns(\n        address[2] memory,\n        bytes32[2] memory\n    ) {\n        LedgerStruct.Channel storage c = ledger.channelMap[_channelId];\n        return c.getNextPayIdListHashMap();\n    }\n\n    /**\n     * @notice Return lastPayResolveDeadline map of a duplex channel\n     * @param _channelId ID of the channel to be viewed\n     * @return peers' addresses\n     * @return lastPayResolveDeadlines of two simplex channels\n     */\n    function getLastPayResolveDeadlineMap(bytes32 _channelId) external view returns(\n        address[2] memory,\n        uint[2] memory\n    ) {\n        LedgerStruct.Channel storage c = ledger.channelMap[_channelId];\n        return c.getLastPayResolveDeadlineMap();\n    }\n\n    /**\n     * @notice Return pendingPayOut map of a duplex channel\n     * @param _channelId ID of the channel to be viewed\n     * @return peers' addresses\n     * @return pendingPayOuts of two simplex channels\n     */\n    function getPendingPayOutMap(bytes32 _channelId) external view returns(\n        address[2] memory,\n        uint[2] memory\n    ) {\n        LedgerStruct.Channel storage c = ledger.channelMap[_channelId];\n        return c.getPendingPayOutMap();\n    }\n\n    /**\n     * @notice Return the withdraw intent info of the channel\n     * @param _channelId ID of the channel to be viewed\n     * @return receiver of the withdraw intent\n     * @return amount of the withdraw intent\n     * @return requestTime of the withdraw intent\n     * @return recipientChannelId of the withdraw intent\n     */\n    function getWithdrawIntent(bytes32 _channelId) external view returns(address, uint, uint, bytes32) {\n        LedgerStruct.Channel storage c = ledger.channelMap[_channelId];\n        return c.getWithdrawIntent();\n    }\n\n    /**\n     * @notice Return channel number of given status in this contract\n     * @param _channelStatus query channel status converted to uint\n     * @return channel number of the status\n     */\n    function getChannelStatusNum(uint _channelStatus) external view returns(uint) {\n        return ledger.getChannelStatusNum(_channelStatus);\n    }\n\n    /**\n     * @notice Return EthPool used by this CelerLedger contract\n     * @return EthPool address\n     */\n    function getEthPool() external view returns(address) {\n        return ledger.getEthPool();\n    }\n\n    /**\n     * @notice Return PayRegistry used by this CelerLedger contract\n     * @return PayRegistry address\n     */\n    function getPayRegistry() external view returns(address) {\n        return ledger.getPayRegistry();\n    }\n\n    /**\n     * @notice Return CelerWallet used by this CelerLedger contract\n     * @return CelerWallet address\n     */\n    function getCelerWallet() external view returns(address) {\n        return ledger.getCelerWallet();\n    }\n\n    /**\n     * @notice Return balance limit of given token\n     * @param _tokenAddr query token address\n     * @return token balance limit\n     */\n    function getBalanceLimit(address _tokenAddr) external view returns(uint) {\n        return ledger.getBalanceLimit(_tokenAddr);\n    }\n\n    /**\n     * @notice Return balanceLimitsEnabled\n     * @return balanceLimitsEnabled\n     */\n    function getBalanceLimitsEnabled() external view returns(bool) {\n        return ledger.getBalanceLimitsEnabled();\n    }\n}\n",
  "sourcePath": "/Users/hashimototatsuki/keeper-channel/contracts/cChannel-eth/CelerLedger.sol",
  "compiler": {
    "name": "solc",
    "version": "0.5.12+commit.7709ece9.Emscripten.clang"
  },
  "schemaVersion": "3.0.19",
  "updatedAt": "2019-12-16T08:07:42.138Z",
  "devdoc": {
    "methods": {
      "clearPays(bytes32,address,bytes)": {
        "params": {
          "_channelId": "ID of the channel",
          "_payIdList": "bytes of a pay hash list",
          "_peerFrom": "address of the peer who send out funds"
        }
      },
      "confirmSettle(bytes32)": {
        "details": "This must be called after settleFinalizedTime",
        "params": {
          "_channelId": "ID of the channel"
        }
      },
      "confirmWithdraw(bytes32)": {
        "details": "anyone can confirm a withdrawal intent",
        "params": {
          "_channelId": "ID of the channel"
        }
      },
      "constructor": {
        "params": {
          "_ethPool": "address of ETH pool",
          "_payRegistry": "address of PayRegistry"
        }
      },
      "cooperativeSettle(bytes)": {
        "params": {
          "_settleRequest": "bytes of cooperative settle request message"
        }
      },
      "cooperativeWithdraw(bytes)": {
        "params": {
          "_cooperativeWithdrawRequest": "bytes of cooperative withdraw request message"
        }
      },
      "deposit(bytes32,address,uint256)": {
        "details": "total deposit amount = msg.value(must be 0 for ERC20) + _transferFromAmount",
        "params": {
          "_channelId": "ID of the channel",
          "_receiver": "address of the receiver",
          "_transferFromAmount": "amount of funds to be transfered from EthPool for ETH  or ERC20 contract for ERC20 tokens"
        }
      },
      "depositInBatch(bytes32[],address[],uint256[])": {
        "details": "do not support sending ETH in msg.value for function simplicity.  Index in three arrays should match.",
        "params": {
          "_channelIds": "IDs of the channels",
          "_receivers": "addresses of the receivers",
          "_transferFromAmounts": "amounts of funds to be transfered from EthPool for ETH  or ERC20 contract for ERC20 tokens"
        }
      },
      "getBalanceLimit(address)": {
        "params": {
          "_tokenAddr": "query token address"
        },
        "return": "token balance limit"
      },
      "getBalanceLimitsEnabled()": {
        "return": "balanceLimitsEnabled"
      },
      "getBalanceMap(bytes32)": {
        "details": "Solidity can't directly return an array of struct for now",
        "params": {
          "_channelId": "ID of the channel to be viewed"
        },
        "return": "addresses of peers in the channelcorresponding deposits of the peers (with matched index)corresponding withdrawals of the peers (with matched index)"
      },
      "getCelerWallet()": {
        "return": "CelerWallet address"
      },
      "getChannelMigrationArgs(bytes32)": {
        "params": {
          "_channelId": "ID of the channel to be viewed"
        },
        "return": "channel dispute timeoutchannel tokey type converted to uintchannel token addresssequence number of cooperative withdraw"
      },
      "getChannelStatus(bytes32)": {
        "params": {
          "_channelId": "ID of the channel to be viewed"
        },
        "return": "channel status"
      },
      "getChannelStatusNum(uint256)": {
        "params": {
          "_channelStatus": "query channel status converted to uint"
        },
        "return": "channel number of the status"
      },
      "getCooperativeWithdrawSeqNum(bytes32)": {
        "params": {
          "_channelId": "ID of the channel to be viewed"
        },
        "return": "cooperative withdraw seqNum"
      },
      "getDisputeTimeout(bytes32)": {
        "params": {
          "_channelId": "ID of the channel to be viewed"
        },
        "return": "channel's dispute timeout"
      },
      "getEthPool()": {
        "return": "EthPool address"
      },
      "getLastPayResolveDeadlineMap(bytes32)": {
        "params": {
          "_channelId": "ID of the channel to be viewed"
        },
        "return": "peers' addresseslastPayResolveDeadlines of two simplex channels"
      },
      "getMigratedTo(bytes32)": {
        "params": {
          "_channelId": "ID of the channel to be viewed"
        },
        "return": "channel's migratedTo address"
      },
      "getNextPayIdListHashMap(bytes32)": {
        "params": {
          "_channelId": "ID of the channel to be viewed"
        },
        "return": "peers' addressesnextPayIdListHashes of two simplex channels"
      },
      "getPayRegistry()": {
        "return": "PayRegistry address"
      },
      "getPeersMigrationInfo(bytes32)": {
        "params": {
          "_channelId": "ID of the channel to be viewed"
        },
        "return": "peers' addressespeers' depositspeers' withdrawalspeers' state sequence numberspeers' transferOut mappeers' pendingPayOut map"
      },
      "getPendingPayOutMap(bytes32)": {
        "params": {
          "_channelId": "ID of the channel to be viewed"
        },
        "return": "peers' addressespendingPayOuts of two simplex channels"
      },
      "getSettleFinalizedTime(bytes32)": {
        "params": {
          "_channelId": "ID of the channel to be viewed"
        },
        "return": "channel confirm settle open time"
      },
      "getStateSeqNumMap(bytes32)": {
        "params": {
          "_channelId": "ID of the channel to be viewed"
        },
        "return": "peers' addressestwo simplex state sequence numbers"
      },
      "getTokenContract(bytes32)": {
        "params": {
          "_channelId": "ID of the channel to be viewed"
        },
        "return": "channel token contract address"
      },
      "getTokenType(bytes32)": {
        "params": {
          "_channelId": "ID of the channel to be viewed"
        },
        "return": "channel token type"
      },
      "getTotalBalance(bytes32)": {
        "params": {
          "_channelId": "ID of the channel to be viewed"
        },
        "return": "channel's balance amount"
      },
      "getTransferOutMap(bytes32)": {
        "params": {
          "_channelId": "ID of the channel to be viewed"
        },
        "return": "peers' addressestransferOuts of two simplex channels"
      },
      "getWithdrawIntent(bytes32)": {
        "params": {
          "_channelId": "ID of the channel to be viewed"
        },
        "return": "receiver of the withdraw intentamount of the withdraw intentrequestTime of the withdraw intentrecipientChannelId of the withdraw intent"
      },
      "intendSettle(bytes)": {
        "details": "simplex states in this array are not necessarily in the same channel,  which means intendSettle natively supports multi-channel batch processing.  A simplex state with non-zero seqNum (non-null state) must be co-signed by both peers,  while a simplex state with seqNum=0 (null state) only needs to be signed by one peer.  TODO: wait for Solidity's support to replace SignedSimplexStateArray with bytes[].",
        "params": {
          "_signedSimplexStateArray": "bytes of SignedSimplexStateArray message"
        }
      },
      "intendWithdraw(bytes32,uint256,bytes32)": {
        "details": "only peers can call intendWithdraw",
        "params": {
          "_amount": "amount of funds to withdraw",
          "_channelId": "ID of the channel",
          "_recipientChannelId": "withdraw to receiver address if 0,  otherwise deposit to receiver address in the recipient channel"
        }
      },
      "isOwner()": {
        "details": "Returns true if the caller is the current owner."
      },
      "migrateChannelFrom(address,bytes)": {
        "params": {
          "_fromLedgerAddr": "the old ledger address to migrate from",
          "_migrationRequest": "bytes of migration request message"
        }
      },
      "migrateChannelTo(bytes)": {
        "params": {
          "_migrationRequest": "bytes of migration request message"
        },
        "return": "migrated channel id"
      },
      "openChannel(bytes)": {
        "params": {
          "_openRequest": "bytes of open channel request message"
        }
      },
      "owner()": {
        "details": "Returns the address of the current owner."
      },
      "renounceOwnership()": {
        "details": "Leaves the contract without owner. It will not be possible to call `onlyOwner` functions anymore. Can only be called by the current owner.     * NOTE: Renouncing ownership will leave the contract without an owner, thereby removing any functionality that is only available to the owner."
      },
      "setBalanceLimits(address[],uint256[])": {
        "params": {
          "_limits": "balance limits of the tokens",
          "_tokenAddrs": "addresses of the tokens (address(0) is for ETH)"
        }
      },
      "snapshotStates(bytes)": {
        "details": "simplex states in this array are not necessarily in the same channel,  which means snapshotStates natively supports multi-channel batch processing.  This function only updates seqNum, transferOut, pendingPayOut of each on-chain  simplex state. It can't ensure that the pending pays will be cleared during  settling the channel, which requires users call intendSettle with the same state.  TODO: wait for Solidity's support to replace SignedSimplexStateArray with bytes[].",
        "params": {
          "_signedSimplexStateArray": "bytes of SignedSimplexStateArray message"
        }
      },
      "transferOwnership(address)": {
        "details": "Transfers ownership of the contract to a new account (`newOwner`). Can only be called by the current owner."
      },
      "vetoWithdraw(bytes32)": {
        "details": "only peers can veto a withdrawal intent;  peers can veto a withdrawal intent even after (requestTime + disputeTimeout)",
        "params": {
          "_channelId": "ID of the channel"
        }
      }
    },
    "title": "CelerLedger wrapper contract"
  },
  "userdoc": {
    "methods": {
      "clearPays(bytes32,address,bytes)": {
        "notice": "Read payment results and add results to corresponding simplex payment channel"
      },
      "confirmSettle(bytes32)": {
        "notice": "Confirm channel settlement"
      },
      "confirmWithdraw(bytes32)": {
        "notice": "Confirm channel withdrawal"
      },
      "constructor": "CelerLedger constructor",
      "cooperativeSettle(bytes)": {
        "notice": "Cooperatively settle the channel"
      },
      "cooperativeWithdraw(bytes)": {
        "notice": "Cooperatively withdraw specific amount of balance"
      },
      "deposit(bytes32,address,uint256)": {
        "notice": "Deposit ETH or ERC20 tokens into the channel"
      },
      "depositInBatch(bytes32[],address[],uint256[])": {
        "notice": "Deposit ETH via EthPool or ERC20 tokens into the channel"
      },
      "disableBalanceLimits()": {
        "notice": "Disable balance limits of all tokens"
      },
      "enableBalanceLimits()": {
        "notice": "Enable balance limits of all tokens"
      },
      "getBalanceLimit(address)": {
        "notice": "Return balance limit of given token"
      },
      "getBalanceLimitsEnabled()": {
        "notice": "Return balanceLimitsEnabled"
      },
      "getBalanceMap(bytes32)": {
        "notice": "Return one channel's balance info (depositMap and withdrawalMap)"
      },
      "getCelerWallet()": {
        "notice": "Return CelerWallet used by this CelerLedger contract"
      },
      "getChannelMigrationArgs(bytes32)": {
        "notice": "Return channel-level migration arguments"
      },
      "getChannelStatus(bytes32)": {
        "notice": "Get channel status"
      },
      "getChannelStatusNum(uint256)": {
        "notice": "Return channel number of given status in this contract"
      },
      "getCooperativeWithdrawSeqNum(bytes32)": {
        "notice": "Get cooperative withdraw seqNum"
      },
      "getDisputeTimeout(bytes32)": {
        "notice": "Return channel's dispute timeout"
      },
      "getEthPool()": {
        "notice": "Return EthPool used by this CelerLedger contract"
      },
      "getLastPayResolveDeadlineMap(bytes32)": {
        "notice": "Return lastPayResolveDeadline map of a duplex channel"
      },
      "getMigratedTo(bytes32)": {
        "notice": "Return channel's migratedTo address"
      },
      "getNextPayIdListHashMap(bytes32)": {
        "notice": "Return nextPayIdListHash map of a duplex channel"
      },
      "getPayRegistry()": {
        "notice": "Return PayRegistry used by this CelerLedger contract"
      },
      "getPeersMigrationInfo(bytes32)": {
        "notice": "Return migration info of the peers in the channel"
      },
      "getPendingPayOutMap(bytes32)": {
        "notice": "Return pendingPayOut map of a duplex channel"
      },
      "getSettleFinalizedTime(bytes32)": {
        "notice": "Get channel confirm settle open time"
      },
      "getStateSeqNumMap(bytes32)": {
        "notice": "Return state seqNum map of a duplex channel"
      },
      "getTokenContract(bytes32)": {
        "notice": "Get channel token contract address"
      },
      "getTokenType(bytes32)": {
        "notice": "Get channel token type"
      },
      "getTotalBalance(bytes32)": {
        "notice": "Return one channel's total balance amount"
      },
      "getTransferOutMap(bytes32)": {
        "notice": "Return transferOut map of a duplex channel"
      },
      "getWithdrawIntent(bytes32)": {
        "notice": "Return the withdraw intent info of the channel"
      },
      "intendSettle(bytes)": {
        "notice": "Intend to settle channel(s) with an array of signed simplex states"
      },
      "intendWithdraw(bytes32,uint256,bytes32)": {
        "notice": "Intend to withdraw funds from channel"
      },
      "migrateChannelFrom(address,bytes)": {
        "notice": "Migrate a channel from an old CelerLedger to this CelerLedger"
      },
      "migrateChannelTo(bytes)": {
        "notice": "Migrate a channel from this CelerLedger to a new CelerLedger"
      },
      "openChannel(bytes)": {
        "notice": "Open a state channel through auth withdraw message"
      },
      "setBalanceLimits(address[],uint256[])": {
        "notice": "Set the per-channel balance limits of given tokens"
      },
      "snapshotStates(bytes)": {
        "notice": "Store signed simplex states on-chain as checkpoints"
      },
      "vetoWithdraw(bytes32)": {
        "notice": "Veto current withdrawal intent"
      }
    },
    "notice": "A wrapper contract using libraries to provide CelerLedger's APIs.Ownable contract and LedgerBalanceLimit library should only be used  in the initial stage of the mainnet operation for a very short period of  time to limit the balance amount that can be deposit into each channel,  so that any losses due to unknown bugs (if any) will be limited. The balance  limits should be disabled and the owner account of CelerLedger should renounce  its ownership after the system is stable and comprehensively audited."
  }
}