{
  "contractName": "CelerWallet",
  "abi": [
    {
      "anonymous": false,
      "inputs": [
        {
          "indexed": true,
          "internalType": "bytes32",
          "name": "walletId",
          "type": "bytes32"
        },
        {
          "indexed": true,
          "internalType": "address",
          "name": "oldOperator",
          "type": "address"
        },
        {
          "indexed": true,
          "internalType": "address",
          "name": "newOperator",
          "type": "address"
        }
      ],
      "name": "ChangeOperator",
      "type": "event"
    },
    {
      "anonymous": false,
      "inputs": [
        {
          "indexed": true,
          "internalType": "bytes32",
          "name": "walletId",
          "type": "bytes32"
        },
        {
          "indexed": true,
          "internalType": "address[]",
          "name": "owners",
          "type": "address[]"
        },
        {
          "indexed": true,
          "internalType": "address",
          "name": "operator",
          "type": "address"
        }
      ],
      "name": "CreateWallet",
      "type": "event"
    },
    {
      "anonymous": false,
      "inputs": [
        {
          "indexed": true,
          "internalType": "bytes32",
          "name": "walletId",
          "type": "bytes32"
        },
        {
          "indexed": true,
          "internalType": "address",
          "name": "tokenAddress",
          "type": "address"
        },
        {
          "indexed": false,
          "internalType": "uint256",
          "name": "amount",
          "type": "uint256"
        }
      ],
      "name": "DepositToWallet",
      "type": "event"
    },
    {
      "anonymous": false,
      "inputs": [
        {
          "indexed": true,
          "internalType": "address",
          "name": "tokenAddress",
          "type": "address"
        },
        {
          "indexed": true,
          "internalType": "address",
          "name": "receiver",
          "type": "address"
        },
        {
          "indexed": false,
          "internalType": "uint256",
          "name": "amount",
          "type": "uint256"
        }
      ],
      "name": "DrainToken",
      "type": "event"
    },
    {
      "anonymous": false,
      "inputs": [
        {
          "indexed": false,
          "internalType": "address",
          "name": "account",
          "type": "address"
        }
      ],
      "name": "Paused",
      "type": "event"
    },
    {
      "anonymous": false,
      "inputs": [
        {
          "indexed": true,
          "internalType": "address",
          "name": "account",
          "type": "address"
        }
      ],
      "name": "PauserAdded",
      "type": "event"
    },
    {
      "anonymous": false,
      "inputs": [
        {
          "indexed": true,
          "internalType": "address",
          "name": "account",
          "type": "address"
        }
      ],
      "name": "PauserRemoved",
      "type": "event"
    },
    {
      "anonymous": false,
      "inputs": [
        {
          "indexed": true,
          "internalType": "bytes32",
          "name": "walletId",
          "type": "bytes32"
        },
        {
          "indexed": true,
          "internalType": "address",
          "name": "newOperator",
          "type": "address"
        },
        {
          "indexed": true,
          "internalType": "address",
          "name": "proposer",
          "type": "address"
        }
      ],
      "name": "ProposeNewOperator",
      "type": "event"
    },
    {
      "anonymous": false,
      "inputs": [
        {
          "indexed": true,
          "internalType": "bytes32",
          "name": "fromWalletId",
          "type": "bytes32"
        },
        {
          "indexed": true,
          "internalType": "bytes32",
          "name": "toWalletId",
          "type": "bytes32"
        },
        {
          "indexed": true,
          "internalType": "address",
          "name": "tokenAddress",
          "type": "address"
        },
        {
          "indexed": false,
          "internalType": "address",
          "name": "receiver",
          "type": "address"
        },
        {
          "indexed": false,
          "internalType": "uint256",
          "name": "amount",
          "type": "uint256"
        }
      ],
      "name": "TransferToWallet",
      "type": "event"
    },
    {
      "anonymous": false,
      "inputs": [
        {
          "indexed": false,
          "internalType": "address",
          "name": "account",
          "type": "address"
        }
      ],
      "name": "Unpaused",
      "type": "event"
    },
    {
      "anonymous": false,
      "inputs": [
        {
          "indexed": true,
          "internalType": "bytes32",
          "name": "walletId",
          "type": "bytes32"
        },
        {
          "indexed": true,
          "internalType": "address",
          "name": "tokenAddress",
          "type": "address"
        },
        {
          "indexed": true,
          "internalType": "address",
          "name": "receiver",
          "type": "address"
        },
        {
          "indexed": false,
          "internalType": "uint256",
          "name": "amount",
          "type": "uint256"
        }
      ],
      "name": "WithdrawFromWallet",
      "type": "event"
    },
    {
      "constant": false,
      "inputs": [
        {
          "internalType": "address",
          "name": "account",
          "type": "address"
        }
      ],
      "name": "addPauser",
      "outputs": [],
      "payable": false,
      "stateMutability": "nonpayable",
      "type": "function"
    },
    {
      "constant": true,
      "inputs": [
        {
          "internalType": "address",
          "name": "account",
          "type": "address"
        }
      ],
      "name": "isPauser",
      "outputs": [
        {
          "internalType": "bool",
          "name": "",
          "type": "bool"
        }
      ],
      "payable": false,
      "stateMutability": "view",
      "type": "function"
    },
    {
      "constant": false,
      "inputs": [],
      "name": "pause",
      "outputs": [],
      "payable": false,
      "stateMutability": "nonpayable",
      "type": "function"
    },
    {
      "constant": true,
      "inputs": [],
      "name": "paused",
      "outputs": [
        {
          "internalType": "bool",
          "name": "",
          "type": "bool"
        }
      ],
      "payable": false,
      "stateMutability": "view",
      "type": "function"
    },
    {
      "constant": false,
      "inputs": [],
      "name": "renouncePauser",
      "outputs": [],
      "payable": false,
      "stateMutability": "nonpayable",
      "type": "function"
    },
    {
      "constant": false,
      "inputs": [],
      "name": "unpause",
      "outputs": [],
      "payable": false,
      "stateMutability": "nonpayable",
      "type": "function"
    },
    {
      "constant": true,
      "inputs": [],
      "name": "walletNum",
      "outputs": [
        {
          "internalType": "uint256",
          "name": "",
          "type": "uint256"
        }
      ],
      "payable": false,
      "stateMutability": "view",
      "type": "function"
    },
    {
      "constant": false,
      "inputs": [
        {
          "internalType": "address[]",
          "name": "_owners",
          "type": "address[]"
        },
        {
          "internalType": "address",
          "name": "_operator",
          "type": "address"
        },
        {
          "internalType": "bytes32",
          "name": "_nonce",
          "type": "bytes32"
        }
      ],
      "name": "create",
      "outputs": [
        {
          "internalType": "bytes32",
          "name": "",
          "type": "bytes32"
        }
      ],
      "payable": false,
      "stateMutability": "nonpayable",
      "type": "function"
    },
    {
      "constant": false,
      "inputs": [
        {
          "internalType": "bytes32",
          "name": "_walletId",
          "type": "bytes32"
        }
      ],
      "name": "depositETH",
      "outputs": [],
      "payable": true,
      "stateMutability": "payable",
      "type": "function"
    },
    {
      "constant": false,
      "inputs": [
        {
          "internalType": "bytes32",
          "name": "_walletId",
          "type": "bytes32"
        },
        {
          "internalType": "address",
          "name": "_tokenAddress",
          "type": "address"
        },
        {
          "internalType": "uint256",
          "name": "_amount",
          "type": "uint256"
        }
      ],
      "name": "depositERC20",
      "outputs": [],
      "payable": false,
      "stateMutability": "nonpayable",
      "type": "function"
    },
    {
      "constant": false,
      "inputs": [
        {
          "internalType": "bytes32",
          "name": "_walletId",
          "type": "bytes32"
        },
        {
          "internalType": "address",
          "name": "_tokenAddress",
          "type": "address"
        },
        {
          "internalType": "address",
          "name": "_receiver",
          "type": "address"
        },
        {
          "internalType": "uint256",
          "name": "_amount",
          "type": "uint256"
        }
      ],
      "name": "withdraw",
      "outputs": [],
      "payable": false,
      "stateMutability": "nonpayable",
      "type": "function"
    },
    {
      "constant": false,
      "inputs": [
        {
          "internalType": "bytes32",
          "name": "_fromWalletId",
          "type": "bytes32"
        },
        {
          "internalType": "bytes32",
          "name": "_toWalletId",
          "type": "bytes32"
        },
        {
          "internalType": "address",
          "name": "_tokenAddress",
          "type": "address"
        },
        {
          "internalType": "address",
          "name": "_receiver",
          "type": "address"
        },
        {
          "internalType": "uint256",
          "name": "_amount",
          "type": "uint256"
        }
      ],
      "name": "transferToWallet",
      "outputs": [],
      "payable": false,
      "stateMutability": "nonpayable",
      "type": "function"
    },
    {
      "constant": false,
      "inputs": [
        {
          "internalType": "bytes32",
          "name": "_walletId",
          "type": "bytes32"
        },
        {
          "internalType": "address",
          "name": "_newOperator",
          "type": "address"
        }
      ],
      "name": "transferOperatorship",
      "outputs": [],
      "payable": false,
      "stateMutability": "nonpayable",
      "type": "function"
    },
    {
      "constant": false,
      "inputs": [
        {
          "internalType": "bytes32",
          "name": "_walletId",
          "type": "bytes32"
        },
        {
          "internalType": "address",
          "name": "_newOperator",
          "type": "address"
        }
      ],
      "name": "proposeNewOperator",
      "outputs": [],
      "payable": false,
      "stateMutability": "nonpayable",
      "type": "function"
    },
    {
      "constant": false,
      "inputs": [
        {
          "internalType": "address",
          "name": "_tokenAddress",
          "type": "address"
        },
        {
          "internalType": "address",
          "name": "_receiver",
          "type": "address"
        },
        {
          "internalType": "uint256",
          "name": "_amount",
          "type": "uint256"
        }
      ],
      "name": "drainToken",
      "outputs": [],
      "payable": false,
      "stateMutability": "nonpayable",
      "type": "function"
    },
    {
      "constant": true,
      "inputs": [
        {
          "internalType": "bytes32",
          "name": "_walletId",
          "type": "bytes32"
        }
      ],
      "name": "getWalletOwners",
      "outputs": [
        {
          "internalType": "address[]",
          "name": "",
          "type": "address[]"
        }
      ],
      "payable": false,
      "stateMutability": "view",
      "type": "function"
    },
    {
      "constant": true,
      "inputs": [
        {
          "internalType": "bytes32",
          "name": "_walletId",
          "type": "bytes32"
        }
      ],
      "name": "getOperator",
      "outputs": [
        {
          "internalType": "address",
          "name": "",
          "type": "address"
        }
      ],
      "payable": false,
      "stateMutability": "view",
      "type": "function"
    },
    {
      "constant": true,
      "inputs": [
        {
          "internalType": "bytes32",
          "name": "_walletId",
          "type": "bytes32"
        },
        {
          "internalType": "address",
          "name": "_tokenAddress",
          "type": "address"
        }
      ],
      "name": "getBalance",
      "outputs": [
        {
          "internalType": "uint256",
          "name": "",
          "type": "uint256"
        }
      ],
      "payable": false,
      "stateMutability": "view",
      "type": "function"
    },
    {
      "constant": true,
      "inputs": [
        {
          "internalType": "bytes32",
          "name": "_walletId",
          "type": "bytes32"
        }
      ],
      "name": "getProposedNewOperator",
      "outputs": [
        {
          "internalType": "address",
          "name": "",
          "type": "address"
        }
      ],
      "payable": false,
      "stateMutability": "view",
      "type": "function"
    },
    {
      "constant": true,
      "inputs": [
        {
          "internalType": "bytes32",
          "name": "_walletId",
          "type": "bytes32"
        },
        {
          "internalType": "address",
          "name": "_owner",
          "type": "address"
        }
      ],
      "name": "getProposalVote",
      "outputs": [
        {
          "internalType": "bool",
          "name": "",
          "type": "bool"
        }
      ],
      "payable": false,
      "stateMutability": "view",
      "type": "function"
    }
  ],
  "bytecode": "0x60806040526200002a6200001b6001600160e01b036200003a16565b6001600160e01b036200003e16565b6001805460ff19169055620001ba565b3390565b620000598160006200009060201b6200185f1790919060201c565b6040516001600160a01b038216907f6719d08c1888103bea251a4ed56406bd0c3e69723c8a1686e017e7bbe159b6f890600090a250565b620000a582826001600160e01b036200013716565b156200011257604080517f08c379a000000000000000000000000000000000000000000000000000000000815260206004820152601f60248201527f526f6c65733a206163636f756e7420616c72656164792068617320726f6c6500604482015290519081900360640190fd5b6001600160a01b0316600090815260209190915260409020805460ff19166001179055565b60006001600160a01b0382166200019a576040517f08c379a000000000000000000000000000000000000000000000000000000000815260040180806020018281038252602281526020018062001eff6022913960400191505060405180910390fd5b506001600160a01b03166000908152602091909152604090205460ff1690565b611d3580620001ca6000396000f3fe60806040526004361061011f5760003560e01c806380ba952e116100a0578063a96a5f9411610064578063a96a5f94146104dc578063bfa2c1d214610506578063c108bb4014610549578063cafd460014610588578063d68d9d4e146105c15761011f565b806380ba952e146103c357806382dc1ec4146104125780638456cb59146104455780638e0cc1761461045a578063a0c89a8c146104a35761011f565b80633f4ba83a116100e75780633f4ba83a1461030457806346fbf68e14610319578063530e931c146103605780635c975abb146103995780636ef8d66d146103ae5761011f565b80630d63a1fd1461012457806314da2906146101f45780631687cc601461023a578063323c4480146102b457806336cc9e8d146102ef575b600080fd5b34801561013057600080fd5b506101e26004803603606081101561014757600080fd5b81019060208101813564010000000081111561016257600080fd5b82018360208201111561017457600080fd5b8035906020019184602083028401116401000000008311171561019657600080fd5b919080806020026020016040519081016040528093929190818152602001838360200280828437600092019190915250929550506001600160a01b0383351693505050602001356105de565b60408051918252519081900360200190f35b34801561020057600080fd5b5061021e6004803603602081101561021757600080fd5b50356107d6565b604080516001600160a01b039092168252519081900360200190f35b34801561024657600080fd5b506102646004803603602081101561025d57600080fd5b50356107f8565b60408051602080825283518183015283519192839290830191858101910280838360005b838110156102a0578181015183820152602001610288565b505050509050019250505060405180910390f35b3480156102c057600080fd5b506102ed600480360360408110156102d757600080fd5b50803590602001356001600160a01b0316610864565b005b3480156102fb57600080fd5b506101e26109c8565b34801561031057600080fd5b506102ed6109ce565b34801561032557600080fd5b5061034c6004803603602081101561033c57600080fd5b50356001600160a01b0316610ab7565b604080519115158252519081900360200190f35b34801561036c57600080fd5b506101e26004803603604081101561038357600080fd5b50803590602001356001600160a01b0316610acf565b3480156103a557600080fd5b5061034c610afb565b3480156103ba57600080fd5b506102ed610b05565b3480156103cf57600080fd5b506102ed600480360360a08110156103e657600080fd5b508035906020810135906001600160a01b03604082013581169160608101359091169060800135610b17565b34801561041e57600080fd5b506102ed6004803603602081101561043557600080fd5b50356001600160a01b0316610ce0565b34801561045157600080fd5b506102ed610d32565b34801561046657600080fd5b506102ed6004803603608081101561047d57600080fd5b508035906001600160a01b03602082013581169160408101359091169060600135610df8565b3480156104af57600080fd5b506102ed600480360360408110156104c657600080fd5b50803590602001356001600160a01b0316610f64565b3480156104e857600080fd5b5061021e600480360360208110156104ff57600080fd5b503561102b565b34801561051257600080fd5b506102ed6004803603606081101561052957600080fd5b506001600160a01b03813581169160208101359091169060400135611049565b34801561055557600080fd5b506102ed6004803603606081101561056c57600080fd5b508035906001600160a01b036020820135169060400135611133565b34801561059457600080fd5b5061034c600480360360408110156105ab57600080fd5b50803590602001356001600160a01b03166111e6565b6102ed600480360360208110156105d757600080fd5b5035611261565b60015460009060ff161561062c576040805162461bcd60e51b815260206004820152601060248201526f14185d5cd8589b194e881c185d5cd95960821b604482015290519081900360640190fd5b6001600160a01b038316610684576040805162461bcd60e51b815260206004820152601a6024820152794e6577206f70657261746f72206973206164647265737328302960301b604482015290519081900360640190fd5b6040805130606090811b6020808401919091523390911b6034830152604880830186905283518084039091018152606890920183528151918101919091206000818152600390925291902060018101546001600160a01b031615610724576040805162461bcd60e51b815260206004820152601260248201527113d8d8dd5c1a5959081dd85b1b195d081a5960721b604482015290519081900360640190fd5b85516107369082906020890190611bb9565b50600181810180546001600160a01b0319166001600160a01b03881690811790915560028054909201909155604051875188919081906020808501910280838360005b83811015610791578181015183820152602001610779565b505060405192909401829003822095508894507fe778e91533ef049a5fc99752bc4efb2b50ca4c967dfc0d4bb4782fb128070c3493506000925050a450949350505050565b600081815260036020819052604090912001546001600160a01b03165b919050565b60008181526003602090815260409182902080548351818402810184019094528084526060939283018282801561085857602002820191906000526020600020905b81546001600160a01b0316815260019091019060200180831161083a575b50505050509050919050565b813361087082826112f6565b6108ab5760405162461bcd60e51b8152600401808060200182810382526021815260200180611c436021913960400191505060405180910390fd5b6001600160a01b038316610903576040805162461bcd60e51b815260206004820152601a6024820152794e6577206f70657261746f72206973206164647265737328302960301b604482015290519081900360640190fd5b6000848152600360208190526040909120908101546001600160a01b03858116911614610951576109338161135b565b6003810180546001600160a01b0319166001600160a01b0386161790555b336000818152600483016020526040808220805460ff19166001179055516001600160a01b0387169188917f71f9e7796b33cb192d1670169ee7f4af7c5364f8f01bab4b95466787593745c39190a46109a9816113be565b156109c1576109b88585611427565b6109c18161135b565b5050505050565b60025481565b6109de6109d96114e6565b610ab7565b610a195760405162461bcd60e51b8152600401808060200182810382526030815260200180611c646030913960400191505060405180910390fd5b60015460ff16610a67576040805162461bcd60e51b815260206004820152601460248201527314185d5cd8589b194e881b9bdd081c185d5cd95960621b604482015290519081900360640190fd5b6001805460ff191690557f5db9ee0a495bf2e6ff9c91a7834c1ba4fdd244a5e8aa4e537bd38aeae4b073aa610a9a6114e6565b604080516001600160a01b039092168252519081900360200190a1565b6000610ac9818363ffffffff6114ea16565b92915050565b60008281526003602090815260408083206001600160a01b038516845260020190915290205492915050565b60015460ff165b90565b610b15610b106114e6565b611551565b565b60015460ff1615610b62576040805162461bcd60e51b815260206004820152601060248201526f14185d5cd8589b194e881c185d5cd95960821b604482015290519081900360640190fd5b60008581526003602052604090206001015485906001600160a01b03163314610bcf576040805162461bcd60e51b815260206004820152601a60248201527936b9b39739b2b73232b91034b9903737ba1037b832b930ba37b960311b604482015290519081900360640190fd5b8583610bdb82826112f6565b610c165760405162461bcd60e51b8152600401808060200182810382526021815260200180611c436021913960400191505060405180910390fd5b8685610c2282826112f6565b610c5d5760405162461bcd60e51b8152600401808060200182810382526021815260200180611c436021913960400191505060405180910390fd5b610c6a8a89886001611599565b610c778989886000611599565b876001600160a01b0316898b7f1b56f805e5edb1e61b0d3f46feffdcbab5e591aa0e70e978ada9fc22093601c88a8a60405180836001600160a01b03166001600160a01b031681526020018281526020019250505060405180910390a450505050505050505050565b610ceb6109d96114e6565b610d265760405162461bcd60e51b8152600401808060200182810382526030815260200180611c646030913960400191505060405180910390fd5b610d2f81611646565b50565b610d3d6109d96114e6565b610d785760405162461bcd60e51b8152600401808060200182810382526030815260200180611c646030913960400191505060405180910390fd5b60015460ff1615610dc3576040805162461bcd60e51b815260206004820152601060248201526f14185d5cd8589b194e881c185d5cd95960821b604482015290519081900360640190fd5b6001805460ff1916811790557f62e78cea01bee320cd4e420270b5ea74000d11b0c9f74754ebdbfc544b05a258610a9a6114e6565b60015460ff1615610e43576040805162461bcd60e51b815260206004820152601060248201526f14185d5cd8589b194e881c185d5cd95960821b604482015290519081900360640190fd5b60008481526003602052604090206001015484906001600160a01b03163314610eb0576040805162461bcd60e51b815260206004820152601a60248201527936b9b39739b2b73232b91034b9903737ba1037b832b930ba37b960311b604482015290519081900360640190fd5b8483610ebc82826112f6565b610ef75760405162461bcd60e51b8152600401808060200182810382526021815260200180611c436021913960400191505060405180910390fd5b610f048787866001611599565b846001600160a01b0316866001600160a01b0316887fd897e862036b62a0f770979fbd2227f3210565bba2eb4d9acd1dc8ccc00c928b876040518082815260200191505060405180910390a4610f5b86868661168e565b50505050505050565b60015460ff1615610faf576040805162461bcd60e51b815260206004820152601060248201526f14185d5cd8589b194e881c185d5cd95960821b604482015290519081900360640190fd5b60008281526003602052604090206001015482906001600160a01b0316331461101c576040805162461bcd60e51b815260206004820152601a60248201527936b9b39739b2b73232b91034b9903737ba1037b832b930ba37b960311b604482015290519081900360640190fd5b6110268383611427565b505050565b6000908152600360205260409020600101546001600160a01b031690565b60015460ff16611097576040805162461bcd60e51b815260206004820152601460248201527314185d5cd8589b194e881b9bdd081c185d5cd95960621b604482015290519081900360640190fd5b6110a26109d96114e6565b6110dd5760405162461bcd60e51b8152600401808060200182810382526030815260200180611c646030913960400191505060405180910390fd5b816001600160a01b0316836001600160a01b03167f896ecb17b26927fb33933fc5f413873193bced3c59fe736c42968a9778bf6b58836040518082815260200191505060405180910390a361102683838361168e565b60015460ff161561117e576040805162461bcd60e51b815260206004820152601060248201526f14185d5cd8589b194e881c185d5cd95960821b604482015290519081900360640190fd5b61118b8383836000611599565b6040805182815290516001600160a01b0384169185917fbc8e388b96ba8b9f627cb6d72d3513182f763c33c6107ecd31191de1f71abc1a9181900360200190a36110266001600160a01b03831633308463ffffffff6116f516565b600082826111f482826112f6565b61122f5760405162461bcd60e51b8152600401808060200182810382526021815260200180611c436021913960400191505060405180910390fd5b50505060009182526003602090815260408084206001600160a01b039390931684526004909201905290205460ff1690565b60015460ff16156112ac576040805162461bcd60e51b815260206004820152601060248201526f14185d5cd8589b194e881c185d5cd95960821b604482015290519081900360640190fd5b346112ba8260008381611599565b60408051828152905160009184917fbc8e388b96ba8b9f627cb6d72d3513182f763c33c6107ecd31191de1f71abc1a9181900360200190a35050565b6000828152600360205260408120815b81548110156113505781600001818154811061131e57fe5b6000918252602090912001546001600160a01b038581169116141561134857600192505050610ac9565b600101611306565b506000949350505050565b60005b81548110156113ba57600082600401600084600001848154811061137e57fe5b6000918252602080832091909101546001600160a01b031683528201929092526040019020805460ff191691151591909117905560010161135e565b5050565b6000805b825481101561141e578260040160008460000183815481106113e057fe5b60009182526020808320909101546001600160a01b0316835282019290925260400190205460ff166114165760009150506107f3565b6001016113c2565b50600192915050565b6001600160a01b03811661147f576040805162461bcd60e51b815260206004820152601a6024820152794e6577206f70657261746f72206973206164647265737328302960301b604482015290519081900360640190fd5b6000828152600360205260408082206001810180546001600160a01b038681166001600160a01b031983168117909355935192949316929091839187917f118c3f8030bc3c8254e737a0bd0584403c33646afbcbee8321c3bd5b26543cda9190a450505050565b3390565b60006001600160a01b0382166115315760405162461bcd60e51b8152600401808060200182810382526022815260200180611cb56022913960400191505060405180910390fd5b506001600160a01b03166000908152602091909152604090205460ff1690565b61156260008263ffffffff61175516565b6040516001600160a01b038216907fcd265ebaf09df2871cc7bd4133404a235ba12eff2041bb89d9c714a2621c7c7e90600090a250565b6000848152600360205260408120908260018111156115b457fe5b1415611605576001600160a01b03841660009081526002820160205260409020546115e5908463ffffffff6117bc16565b6001600160a01b03851660009081526002830160205260409020556109c1565b600182600181111561161357fe5b1415611644576001600160a01b03841660009081526002820160205260409020546115e5908463ffffffff61181d16565bfe5b61165760008263ffffffff61185f16565b6040516001600160a01b038216907f6719d08c1888103bea251a4ed56406bd0c3e69723c8a1686e017e7bbe159b6f890600090a250565b6001600160a01b0383166116db5760405182906001600160a01b0382169083156108fc029084906000818181858888f193505050501580156116d4573d6000803e3d6000fd5b5050611026565b6110266001600160a01b038416838363ffffffff6118e016565b604080516001600160a01b0385811660248301528416604482015260648082018490528251808303909101815260849091019091526020810180516001600160e01b03166323b872dd60e01b17905261174f90859061192e565b50505050565b61175f82826114ea565b61179a5760405162461bcd60e51b8152600401808060200182810382526021815260200180611c946021913960400191505060405180910390fd5b6001600160a01b0316600090815260209190915260409020805460ff19169055565b600082820183811015611816576040805162461bcd60e51b815260206004820152601b60248201527f536166654d6174683a206164646974696f6e206f766572666c6f770000000000604482015290519081900360640190fd5b9392505050565b600061181683836040518060400160405280601e81526020017f536166654d6174683a207375627472616374696f6e206f766572666c6f770000815250611ae6565b61186982826114ea565b156118bb576040805162461bcd60e51b815260206004820152601f60248201527f526f6c65733a206163636f756e7420616c72656164792068617320726f6c6500604482015290519081900360640190fd5b6001600160a01b0316600090815260209190915260409020805460ff19166001179055565b604080516001600160a01b038416602482015260448082018490528251808303909101815260649091019091526020810180516001600160e01b031663a9059cbb60e01b1790526110269084905b611940826001600160a01b0316611b7d565b611991576040805162461bcd60e51b815260206004820152601f60248201527f5361666545524332303a2063616c6c20746f206e6f6e2d636f6e747261637400604482015290519081900360640190fd5b60006060836001600160a01b0316836040518082805190602001908083835b602083106119cf5780518252601f1990920191602091820191016119b0565b6001836020036101000a0380198251168184511680821785525050505050509050019150506000604051808303816000865af19150503d8060008114611a31576040519150601f19603f3d011682016040523d82523d6000602084013e611a36565b606091505b509150915081611a8d576040805162461bcd60e51b815260206004820181905260248201527f5361666545524332303a206c6f772d6c6576656c2063616c6c206661696c6564604482015290519081900360640190fd5b80511561174f57808060200190516020811015611aa957600080fd5b505161174f5760405162461bcd60e51b815260040180806020018281038252602a815260200180611cd7602a913960400191505060405180910390fd5b60008184841115611b755760405162461bcd60e51b81526004018080602001828103825283818151815260200191508051906020019080838360005b83811015611b3a578181015183820152602001611b22565b50505050905090810190601f168015611b675780820380516001836020036101000a031916815260200191505b509250505060405180910390fd5b505050900390565b6000813f7fc5d2460186f7233c927e7db2dcc703c0e500b653ca82273b7bfad8045d85a4708115801590611bb15750808214155b949350505050565b828054828255906000526020600020908101928215611c0e579160200282015b82811115611c0e57825182546001600160a01b0319166001600160a01b03909116178255602090920191600190910190611bd9565b50611c1a929150611c1e565b5090565b610b0291905b80821115611c1a5780546001600160a01b0319168155600101611c2456fe476976656e2061646472657373206973206e6f742077616c6c6574206f776e6572506175736572526f6c653a2063616c6c657220646f6573206e6f742068617665207468652050617573657220726f6c65526f6c65733a206163636f756e7420646f6573206e6f74206861766520726f6c65526f6c65733a206163636f756e7420697320746865207a65726f20616464726573735361666545524332303a204552433230206f7065726174696f6e20646964206e6f742073756363656564a265627a7a723158200216578bd912731d37da6a2569733432cfbd4189fcd28ba39e0977b3aae062b764736f6c634300050c0032526f6c65733a206163636f756e7420697320746865207a65726f2061646472657373",
  "source": "pragma solidity ^0.5.1;\n\nimport \"./lib/interface/ICelerWallet.sol\";\nimport \"openzeppelin-solidity/contracts/math/SafeMath.sol\";\nimport \"openzeppelin-solidity/contracts/token/ERC20/IERC20.sol\";\nimport \"openzeppelin-solidity/contracts/token/ERC20/SafeERC20.sol\";\nimport \"openzeppelin-solidity/contracts/lifecycle/Pausable.sol\";\n\n/**\n * @title CelerWallet contract\n * @notice A multi-owner, multi-token, operator-centric wallet designed for CelerLedger.\n *   This wallet can run independetly and doesn't rely on trust of any external contracts\n *   even CelerLedger to maximize its security.\n * @notice Pausable contract and drainToken() function should only be used for handling\n *   unexpected emergencies in the initial stage of the mainnet operation for a very short\n *   period of time. The pauser accounts should only call pause() and drainToken() functions\n *   when some fatal bugs or crucial errors happen in order to ensure the safety of the\n *   funds stored in CelerWallet. After the system is stable and comprehensively audited,\n *   all pauser accounts should renounce their pauser roles so that no one will ever be able\n *   to pause() or drainToken() anymore.\n */\ncontract CelerWallet is ICelerWallet, Pausable {\n    using SafeMath for uint;\n    using SafeERC20 for IERC20;\n\n    enum MathOperation { Add, Sub }\n\n    struct Wallet {\n        // corresponding to peers in CelerLedger\n        address[] owners;\n        // corresponding to CelerLedger\n        address operator;\n        // adderss(0) for ETH\n        mapping(address => uint) balances;\n        address proposedNewOperator;\n        mapping(address => bool) proposalVotes;\n    }\n\n    uint public walletNum;\n    mapping(bytes32 => Wallet) private wallets;\n\n    /**\n     * @dev Throws if called by any account other than the wallet's operator\n     * @param _walletId id of the wallet to be operated\n     */\n    modifier onlyOperator(bytes32 _walletId) {\n        require(msg.sender == wallets[_walletId].operator, \"msg.sender is not operator\");\n        _;\n    }\n\n    /**\n     * @dev Throws if given address is not an owner of the wallet\n     * @param _walletId id of the wallet to be operated\n     * @param _addr address to be checked\n     */\n    modifier onlyWalletOwner(bytes32 _walletId, address _addr) {\n        require(_isWalletOwner(_walletId, _addr), \"Given address is not wallet owner\");\n        _;\n    }\n\n    /**\n     * @notice Create a new wallet\n     * @param _owners owners of the wallet\n     * @param _operator initial operator of the wallet\n     * @param _nonce nonce given by caller to generate the wallet id\n     * @return id of created wallet\n     */\n    function create(\n        address[] memory _owners,\n        address _operator,\n        bytes32 _nonce\n    )\n        public\n        whenNotPaused\n        returns(bytes32)\n    {\n        require(_operator != address(0), \"New operator is address(0)\");\n\n        bytes32 walletId = keccak256(abi.encodePacked(address(this), msg.sender, _nonce));\n        Wallet storage w = wallets[walletId];\n        // wallet must be uninitialized\n        require(w.operator == address(0), \"Occupied wallet id\");\n        w.owners = _owners;\n        w.operator = _operator;\n        walletNum++;\n\n        emit CreateWallet(walletId, _owners, _operator);\n        return walletId;\n    }\n\n    /**\n     * @notice Deposit ETH to a wallet\n     * @param _walletId id of the wallet to deposit into\n     */\n    function depositETH(bytes32 _walletId) public payable whenNotPaused {\n        uint amount = msg.value;\n        _updateBalance(_walletId, address(0), amount, MathOperation.Add);\n        emit DepositToWallet(_walletId, address(0), amount);\n    }\n\n    /**\n     * @notice Deposit ERC20 tokens to a wallet\n     * @param _walletId id of the wallet to deposit into\n     * @param _tokenAddress address of token to deposit\n     * @param _amount deposit token amount\n     */\n    function depositERC20(\n        bytes32 _walletId,\n        address _tokenAddress,\n        uint _amount\n    )\n        public\n        whenNotPaused\n    {\n        _updateBalance(_walletId, _tokenAddress, _amount, MathOperation.Add);\n        emit DepositToWallet(_walletId, _tokenAddress, _amount);\n\n        IERC20(_tokenAddress).safeTransferFrom(msg.sender, address(this), _amount);\n    }\n\n    /**\n     * @notice Withdraw funds to an address\n     * @dev Since this withdraw() function uses direct transfer to send ETH, if CelerLedger\n     *   allows non externally-owned account (EOA) to be a peer of the channel namely an owner\n     *   of the wallet, CelerLedger should implement a withdraw pattern for ETH to avoid\n     *   maliciously fund locking. Withdraw pattern reference:\n     *   https://solidity.readthedocs.io/en/v0.5.9/common-patterns.html#withdrawal-from-contracts\n     * @param _walletId id of the wallet to withdraw from\n     * @param _tokenAddress address of token to withdraw\n     * @param _receiver token receiver\n     * @param _amount withdrawal token amount\n     */\n    function withdraw(\n        bytes32 _walletId,\n        address _tokenAddress,\n        address _receiver,\n        uint _amount\n    )\n        public\n        whenNotPaused\n        onlyOperator(_walletId)\n        onlyWalletOwner(_walletId, _receiver)\n    {\n        _updateBalance(_walletId, _tokenAddress, _amount, MathOperation.Sub);\n        emit WithdrawFromWallet(_walletId, _tokenAddress, _receiver, _amount);\n\n        _withdrawToken(_tokenAddress, _receiver, _amount);\n    }\n\n    /**\n     * @notice Transfer funds from one wallet to another wallet with a same owner (as the receiver)\n     * @dev from wallet and to wallet must have one common owner as the receiver or beneficiary\n     *   of this transfer\n     * @param _fromWalletId id of wallet to transfer funds from\n     * @param _toWalletId id of wallet to transfer funds to\n     * @param _tokenAddress address of token to transfer\n     * @param _receiver beneficiary who transfers her funds from one wallet to another wallet\n     * @param _amount transferred token amount\n     */\n    function transferToWallet(\n        bytes32 _fromWalletId,\n        bytes32 _toWalletId,\n        address _tokenAddress,\n        address _receiver,\n        uint _amount\n    )\n        public\n        whenNotPaused\n        onlyOperator(_fromWalletId)\n        onlyWalletOwner(_fromWalletId, _receiver)\n        onlyWalletOwner(_toWalletId, _receiver)\n    {\n        _updateBalance(_fromWalletId, _tokenAddress, _amount, MathOperation.Sub);\n        _updateBalance(_toWalletId, _tokenAddress, _amount, MathOperation.Add);\n        emit TransferToWallet(_fromWalletId, _toWalletId, _tokenAddress, _receiver, _amount);\n    }\n\n    /**\n     * @notice Current operator transfers the operatorship of a wallet to the new operator\n     * @param _walletId id of wallet to transfer the operatorship\n     * @param _newOperator the new operator\n     */\n    function transferOperatorship(\n        bytes32 _walletId,\n        address _newOperator\n    )\n        public\n        whenNotPaused\n        onlyOperator(_walletId)\n    {\n        _changeOperator(_walletId, _newOperator);\n    }\n\n    /**\n     * @notice Wallet owners propose and assign a new operator of their wallet\n     * @dev it will assign a new operator if all owners propose the same new operator.\n     *   This does not require unpaused.\n     * @param _walletId id of wallet which owners propose new operator of\n     * @param _newOperator the new operator proposal\n     */\n    function proposeNewOperator(\n        bytes32 _walletId,\n        address _newOperator\n    )\n        public\n        onlyWalletOwner(_walletId, msg.sender)\n    {\n        require(_newOperator != address(0), \"New operator is address(0)\");\n\n        Wallet storage w = wallets[_walletId];\n        if (_newOperator != w.proposedNewOperator) {\n            _clearVotes(w);\n            w.proposedNewOperator = _newOperator;\n        }\n\n        w.proposalVotes[msg.sender] = true;\n        emit ProposeNewOperator(_walletId, _newOperator, msg.sender);\n\n        if (_checkAllVotes(w)) {\n            _changeOperator(_walletId, _newOperator);\n            _clearVotes(w);\n        }\n    }\n\n    /**\n     * @notice Pauser drains one type of tokens when paused\n     * @notice This is only for emergent situations.\n     * @param _tokenAddress address of token to drain\n     * @param _receiver token receiver\n     * @param _amount drained token amount\n     */\n    function drainToken(\n        address _tokenAddress,\n        address _receiver,\n        uint _amount\n    )\n        public\n        whenPaused\n        onlyPauser\n    {\n        emit DrainToken(_tokenAddress, _receiver, _amount);\n\n        _withdrawToken(_tokenAddress, _receiver, _amount);\n    }\n\n    /**\n     * @notice Get owners of a given wallet\n     * @param _walletId id of the queried wallet\n     * @return wallet's owners\n     */\n    function getWalletOwners(bytes32 _walletId) external view returns(address[] memory) {\n        return wallets[_walletId].owners;\n    }\n\n    /**\n     * @notice Get operator of a given wallet\n     * @param _walletId id of the queried wallet\n     * @return wallet's operator\n     */\n    function getOperator(bytes32 _walletId) public view returns(address) {\n        return wallets[_walletId].operator;\n    }\n\n    /**\n     * @notice Get balance of a given token in a given wallet\n     * @param _walletId id of the queried wallet\n     * @param _tokenAddress address of the queried token\n     * @return amount of the given token in the wallet\n     */\n    function getBalance(bytes32 _walletId, address _tokenAddress) public view returns(uint) {\n        return wallets[_walletId].balances[_tokenAddress];\n    }\n\n    /**\n     * @notice Get proposedNewOperator of a given wallet\n     * @param _walletId id of the queried wallet\n     * @return wallet's proposedNewOperator\n     */\n    function getProposedNewOperator(bytes32 _walletId) external view returns(address) {\n        return wallets[_walletId].proposedNewOperator;\n\n    }\n\n    /**\n     * @notice Get the vote of an owner for the proposedNewOperator of a wallet\n     * @param _walletId id of the queried wallet\n     * @param _owner owner to be checked\n     * @return the owner's vote for the proposedNewOperator\n     */\n    function getProposalVote(\n        bytes32 _walletId,\n        address _owner\n    )\n        external\n        view\n        onlyWalletOwner(_walletId, _owner)\n        returns(bool)\n    {\n        return wallets[_walletId].proposalVotes[_owner];\n    }\n\n    /**\n     * @notice Internal function to withdraw out one type of token\n     * @param _tokenAddress address of token to withdraw\n     * @param _receiver token receiver\n     * @param _amount withdrawal token amount\n     */\n    function _withdrawToken(address _tokenAddress, address _receiver, uint _amount) internal {\n        if (_tokenAddress == address(0)) {\n            // convert from address to address payable\n            // TODO: latest version of openzeppelin Address.sol provide this api toPayable()\n            address payable receiver  = address(uint160(_receiver));\n            receiver.transfer(_amount);\n        } else {\n            IERC20(_tokenAddress).safeTransfer(_receiver, _amount);\n        }\n    }\n\n    /**\n     * @notice Update balance record\n     * @param _walletId id of wallet to update\n     * @param _tokenAddress address of token to update\n     * @param _amount update amount\n     * @param _op update operation\n     */\n    function _updateBalance(\n        bytes32 _walletId,\n        address _tokenAddress,\n        uint _amount,\n        MathOperation _op\n    )\n        internal\n    {\n        Wallet storage w = wallets[_walletId];\n        if (_op == MathOperation.Add) {\n            w.balances[_tokenAddress] = w.balances[_tokenAddress].add(_amount);\n        } else if (_op == MathOperation.Sub) {\n            w.balances[_tokenAddress] = w.balances[_tokenAddress].sub(_amount);\n        } else {\n            assert(false);\n        }\n    }\n\n    /**\n     * @notice Clear all votes of new operator proposals of the wallet\n     * @param _w the wallet\n     */\n    function _clearVotes(Wallet storage _w) internal {\n        for (uint i = 0; i < _w.owners.length; i++) {\n            _w.proposalVotes[_w.owners[i]] = false;\n        }\n    }\n\n    /**\n     * @notice Internal function of changing the operator of a wallet\n     * @param _walletId id of wallet to change its operator\n     * @param _newOperator the new operator\n     */\n    function _changeOperator(bytes32 _walletId, address _newOperator) internal {\n        require(_newOperator != address(0), \"New operator is address(0)\");\n\n        Wallet storage w = wallets[_walletId];\n        address oldOperator = w.operator;\n        w.operator = _newOperator;\n        emit ChangeOperator(_walletId, oldOperator, _newOperator);\n    }\n\n    /**\n     * @notice Check if all owners have voted for the same new operator\n     * @param _w the wallet\n     * @return true if all owners have voted for a same operator; otherwise false\n     */\n    function _checkAllVotes(Wallet storage _w) internal view returns(bool) {\n        for (uint i = 0; i < _w.owners.length; i++) {\n            if (_w.proposalVotes[_w.owners[i]] == false) {\n                return false;\n            }\n        }\n        return true;\n    }\n\n    /**\n     * @notice Check if an address is an owner of a wallet\n     * @param _walletId id of wallet to check\n     * @param _addr address to check\n     * @return true if this address is an owner of the wallet; otherwise false\n     */\n    function _isWalletOwner(bytes32 _walletId, address _addr) internal view returns(bool) {\n        Wallet storage w = wallets[_walletId];\n        for (uint i = 0; i < w.owners.length; i++) {\n            if (_addr == w.owners[i]) {\n                return true;\n            }\n        }\n        return false;\n    }\n}\n",
  "sourcePath": "/Users/hashimototatsuki/keeper-layer2/contracts/cChannel-eth/CelerWallet.sol",
  "compiler": {
    "name": "solc",
    "version": "0.5.12+commit.7709ece9.Emscripten.clang"
  },
  "schemaVersion": "3.0.19",
  "updatedAt": "2019-12-17T07:54:09.450Z",
  "devdoc": {
    "methods": {
      "create(address[],address,bytes32)": {
        "params": {
          "_nonce": "nonce given by caller to generate the wallet id",
          "_operator": "initial operator of the wallet",
          "_owners": "owners of the wallet"
        },
        "return": "id of created wallet"
      },
      "depositERC20(bytes32,address,uint256)": {
        "params": {
          "_amount": "deposit token amount",
          "_tokenAddress": "address of token to deposit",
          "_walletId": "id of the wallet to deposit into"
        }
      },
      "depositETH(bytes32)": {
        "params": {
          "_walletId": "id of the wallet to deposit into"
        }
      },
      "drainToken(address,address,uint256)": {
        "params": {
          "_amount": "drained token amount",
          "_receiver": "token receiver",
          "_tokenAddress": "address of token to drain"
        }
      },
      "getBalance(bytes32,address)": {
        "params": {
          "_tokenAddress": "address of the queried token",
          "_walletId": "id of the queried wallet"
        },
        "return": "amount of the given token in the wallet"
      },
      "getOperator(bytes32)": {
        "params": {
          "_walletId": "id of the queried wallet"
        },
        "return": "wallet's operator"
      },
      "getProposalVote(bytes32,address)": {
        "params": {
          "_owner": "owner to be checked",
          "_walletId": "id of the queried wallet"
        },
        "return": "the owner's vote for the proposedNewOperator"
      },
      "getProposedNewOperator(bytes32)": {
        "params": {
          "_walletId": "id of the queried wallet"
        },
        "return": "wallet's proposedNewOperator"
      },
      "getWalletOwners(bytes32)": {
        "params": {
          "_walletId": "id of the queried wallet"
        },
        "return": "wallet's owners"
      },
      "pause()": {
        "details": "Called by a pauser to pause, triggers stopped state."
      },
      "paused()": {
        "details": "Returns true if the contract is paused, and false otherwise."
      },
      "proposeNewOperator(bytes32,address)": {
        "details": "it will assign a new operator if all owners propose the same new operator.  This does not require unpaused.",
        "params": {
          "_newOperator": "the new operator proposal",
          "_walletId": "id of wallet which owners propose new operator of"
        }
      },
      "transferOperatorship(bytes32,address)": {
        "params": {
          "_newOperator": "the new operator",
          "_walletId": "id of wallet to transfer the operatorship"
        }
      },
      "transferToWallet(bytes32,bytes32,address,address,uint256)": {
        "details": "from wallet and to wallet must have one common owner as the receiver or beneficiary  of this transfer",
        "params": {
          "_amount": "transferred token amount",
          "_fromWalletId": "id of wallet to transfer funds from",
          "_receiver": "beneficiary who transfers her funds from one wallet to another wallet",
          "_toWalletId": "id of wallet to transfer funds to",
          "_tokenAddress": "address of token to transfer"
        }
      },
      "unpause()": {
        "details": "Called by a pauser to unpause, returns to normal state."
      },
      "withdraw(bytes32,address,address,uint256)": {
        "details": "Since this withdraw() function uses direct transfer to send ETH, if CelerLedger  allows non externally-owned account (EOA) to be a peer of the channel namely an owner  of the wallet, CelerLedger should implement a withdraw pattern for ETH to avoid  maliciously fund locking. Withdraw pattern reference:  https://solidity.readthedocs.io/en/v0.5.9/common-patterns.html#withdrawal-from-contracts",
        "params": {
          "_amount": "withdrawal token amount",
          "_receiver": "token receiver",
          "_tokenAddress": "address of token to withdraw",
          "_walletId": "id of the wallet to withdraw from"
        }
      }
    },
    "title": "CelerWallet contract"
  },
  "userdoc": {
    "methods": {
      "create(address[],address,bytes32)": {
        "notice": "Create a new wallet"
      },
      "depositERC20(bytes32,address,uint256)": {
        "notice": "Deposit ERC20 tokens to a wallet"
      },
      "depositETH(bytes32)": {
        "notice": "Deposit ETH to a wallet"
      },
      "drainToken(address,address,uint256)": {
        "notice": "Pauser drains one type of tokens when pausedThis is only for emergent situations."
      },
      "getBalance(bytes32,address)": {
        "notice": "Get balance of a given token in a given wallet"
      },
      "getOperator(bytes32)": {
        "notice": "Get operator of a given wallet"
      },
      "getProposalVote(bytes32,address)": {
        "notice": "Get the vote of an owner for the proposedNewOperator of a wallet"
      },
      "getProposedNewOperator(bytes32)": {
        "notice": "Get proposedNewOperator of a given wallet"
      },
      "getWalletOwners(bytes32)": {
        "notice": "Get owners of a given wallet"
      },
      "proposeNewOperator(bytes32,address)": {
        "notice": "Wallet owners propose and assign a new operator of their wallet"
      },
      "transferOperatorship(bytes32,address)": {
        "notice": "Current operator transfers the operatorship of a wallet to the new operator"
      },
      "transferToWallet(bytes32,bytes32,address,address,uint256)": {
        "notice": "Transfer funds from one wallet to another wallet with a same owner (as the receiver)"
      },
      "withdraw(bytes32,address,address,uint256)": {
        "notice": "Withdraw funds to an address"
      }
    },
    "notice": "A multi-owner, multi-token, operator-centric wallet designed for CelerLedger.  This wallet can run independetly and doesn't rely on trust of any external contracts  even CelerLedger to maximize its security.Pausable contract and drainToken() function should only be used for handling  unexpected emergencies in the initial stage of the mainnet operation for a very short  period of time. The pauser accounts should only call pause() and drainToken() functions  when some fatal bugs or crucial errors happen in order to ensure the safety of the  funds stored in CelerWallet. After the system is stable and comprehensively audited,  all pauser accounts should renounce their pauser roles so that no one will ever be able  to pause() or drainToken() anymore."
  }
}