{
  "contractName": "Common",
  "abi": [
    {
      "constant": true,
      "inputs": [],
      "name": "getCurrentBlockNumber",
      "outputs": [
        {
          "internalType": "uint256",
          "name": "",
          "type": "uint256"
        }
      ],
      "payable": false,
      "stateMutability": "view",
      "type": "function"
    },
    {
      "constant": true,
      "inputs": [
        {
          "internalType": "address",
          "name": "addr",
          "type": "address"
        }
      ],
      "name": "isContract",
      "outputs": [
        {
          "internalType": "bool",
          "name": "",
          "type": "bool"
        }
      ],
      "payable": false,
      "stateMutability": "view",
      "type": "function"
    }
  ],
  "bytecode": "0x608060405234801561001057600080fd5b5060c58061001f6000396000f3fe6080604052348015600f57600080fd5b506004361060325760003560e01c8063162790551460375780636fd902e114606e575b600080fd5b605a60048036036020811015604b57600080fd5b50356001600160a01b03166086565b604080519115158252519081900360200190f35b6074608c565b60408051918252519081900360200190f35b3b151590565b439056fea265627a7a72315820c8192130a997317252fd6faf66f3aa8f6b8c57c43bca315e2fb6e3fb748ec0e564736f6c634300050c0032",
  "source": "pragma solidity >=0.5.0 <0.6.0;\n// Copyright BigchainDB GmbH and Ocean Protocol contributors\n// SPDX-License-Identifier: (Apache-2.0 AND CC-BY-4.0)\n// Code is Apache-2.0 and docs are CC-BY-4.0\n\nimport 'zos-lib/contracts/Initializable.sol';\n\n/**\n * @title Common functions\n * @author Ocean Protocol Team\n */\ncontract Common {\n   /**\n    * @notice getCurrentBlockNumber get block number\n    * @return the current block number\n    */\n    function getCurrentBlockNumber()\n        external\n        view\n        returns (uint)\n    {\n        return block.number;\n    }\n\n    /**\n     * @dev isContract detect whether the address is \n     *          is a contract address or externally owned account\n     * @return true if it is a contract address\n     */\n    function isContract(address addr)\n        public\n        view\n        returns (bool)\n    {\n        uint size;\n        /* solium-disable-next-line security/no-inline-assembly */\n        assembly { size := extcodesize(addr) }\n        return size > 0;\n    }\n}",
  "sourcePath": "/Users/hashimototatsuki/keeper-layer2/contracts/keeper-layer2/Common.sol",
  "compiler": {
    "name": "solc",
    "version": "0.5.12+commit.7709ece9.Emscripten.clang"
  },
  "schemaVersion": "3.0.19",
  "updatedAt": "2019-12-17T07:54:09.758Z",
  "devdoc": {
    "author": "Ocean Protocol Team",
    "methods": {
      "getCurrentBlockNumber()": {
        "return": "the current block number"
      },
      "isContract(address)": {
        "details": "isContract detect whether the address is          is a contract address or externally owned account",
        "return": "true if it is a contract address"
      }
    },
    "title": "Common functions"
  },
  "userdoc": {
    "methods": {
      "getCurrentBlockNumber()": {
        "notice": "getCurrentBlockNumber get block number"
      }
    }
  }
}