{
  "contractName": "DIDRegistry",
  "abi": [
    {
      "anonymous": false,
      "inputs": [
        {
          "indexed": true,
          "internalType": "bytes32",
          "name": "_did",
          "type": "bytes32"
        },
        {
          "indexed": true,
          "internalType": "address",
          "name": "_owner",
          "type": "address"
        },
        {
          "indexed": true,
          "internalType": "bytes32",
          "name": "_checksum",
          "type": "bytes32"
        },
        {
          "indexed": false,
          "internalType": "string",
          "name": "_value",
          "type": "string"
        },
        {
          "indexed": false,
          "internalType": "address",
          "name": "_lastUpdatedBy",
          "type": "address"
        },
        {
          "indexed": false,
          "internalType": "uint256",
          "name": "_blockNumberUpdated",
          "type": "uint256"
        }
      ],
      "name": "DIDAttributeRegistered",
      "type": "event"
    },
    {
      "anonymous": false,
      "inputs": [
        {
          "indexed": false,
          "internalType": "bytes32",
          "name": "_did",
          "type": "bytes32"
        },
        {
          "indexed": false,
          "internalType": "address",
          "name": "_previousOwner",
          "type": "address"
        },
        {
          "indexed": false,
          "internalType": "address",
          "name": "_newOwner",
          "type": "address"
        }
      ],
      "name": "DIDOwnershipTransferred",
      "type": "event"
    },
    {
      "anonymous": false,
      "inputs": [
        {
          "indexed": false,
          "internalType": "bytes32",
          "name": "_did",
          "type": "bytes32"
        },
        {
          "indexed": false,
          "internalType": "address",
          "name": "_provider",
          "type": "address"
        }
      ],
      "name": "DIDProviderAdded",
      "type": "event"
    },
    {
      "anonymous": false,
      "inputs": [
        {
          "indexed": false,
          "internalType": "bytes32",
          "name": "_did",
          "type": "bytes32"
        },
        {
          "indexed": false,
          "internalType": "address",
          "name": "_provider",
          "type": "address"
        },
        {
          "indexed": false,
          "internalType": "bool",
          "name": "state",
          "type": "bool"
        }
      ],
      "name": "DIDProviderRemoved",
      "type": "event"
    },
    {
      "anonymous": false,
      "inputs": [
        {
          "indexed": true,
          "internalType": "address",
          "name": "previousOwner",
          "type": "address"
        },
        {
          "indexed": true,
          "internalType": "address",
          "name": "newOwner",
          "type": "address"
        }
      ],
      "name": "OwnershipTransferred",
      "type": "event"
    },
    {
      "constant": true,
      "inputs": [],
      "name": "isOwner",
      "outputs": [
        {
          "internalType": "bool",
          "name": "",
          "type": "bool"
        }
      ],
      "payable": false,
      "stateMutability": "view",
      "type": "function"
    },
    {
      "constant": true,
      "inputs": [],
      "name": "owner",
      "outputs": [
        {
          "internalType": "address",
          "name": "",
          "type": "address"
        }
      ],
      "payable": false,
      "stateMutability": "view",
      "type": "function"
    },
    {
      "constant": false,
      "inputs": [],
      "name": "renounceOwnership",
      "outputs": [],
      "payable": false,
      "stateMutability": "nonpayable",
      "type": "function"
    },
    {
      "constant": false,
      "inputs": [
        {
          "internalType": "address",
          "name": "newOwner",
          "type": "address"
        }
      ],
      "name": "transferOwnership",
      "outputs": [],
      "payable": false,
      "stateMutability": "nonpayable",
      "type": "function"
    },
    {
      "constant": false,
      "inputs": [
        {
          "internalType": "address",
          "name": "_owner",
          "type": "address"
        }
      ],
      "name": "initialize",
      "outputs": [],
      "payable": false,
      "stateMutability": "nonpayable",
      "type": "function"
    },
    {
      "constant": true,
      "inputs": [
        {
          "internalType": "address",
          "name": "_caller",
          "type": "address"
        },
        {
          "internalType": "bytes32",
          "name": "_did",
          "type": "bytes32"
        }
      ],
      "name": "isDIDOwnerOrProvider",
      "outputs": [
        {
          "internalType": "bool",
          "name": "",
          "type": "bool"
        }
      ],
      "payable": false,
      "stateMutability": "view",
      "type": "function"
    },
    {
      "constant": false,
      "inputs": [
        {
          "internalType": "bytes32",
          "name": "_did",
          "type": "bytes32"
        },
        {
          "internalType": "bytes32",
          "name": "_checksum",
          "type": "bytes32"
        },
        {
          "internalType": "address[]",
          "name": "_providers",
          "type": "address[]"
        },
        {
          "internalType": "string",
          "name": "_value",
          "type": "string"
        }
      ],
      "name": "registerAttribute",
      "outputs": [
        {
          "internalType": "uint256",
          "name": "size",
          "type": "uint256"
        }
      ],
      "payable": false,
      "stateMutability": "nonpayable",
      "type": "function"
    },
    {
      "constant": false,
      "inputs": [
        {
          "internalType": "bytes32",
          "name": "_did",
          "type": "bytes32"
        },
        {
          "internalType": "address",
          "name": "_provider",
          "type": "address"
        }
      ],
      "name": "addDIDProvider",
      "outputs": [],
      "payable": false,
      "stateMutability": "nonpayable",
      "type": "function"
    },
    {
      "constant": false,
      "inputs": [
        {
          "internalType": "bytes32",
          "name": "_did",
          "type": "bytes32"
        },
        {
          "internalType": "address",
          "name": "_provider",
          "type": "address"
        }
      ],
      "name": "removeDIDProvider",
      "outputs": [],
      "payable": false,
      "stateMutability": "nonpayable",
      "type": "function"
    },
    {
      "constant": true,
      "inputs": [
        {
          "internalType": "bytes32",
          "name": "_did",
          "type": "bytes32"
        },
        {
          "internalType": "address",
          "name": "_provider",
          "type": "address"
        }
      ],
      "name": "isDIDProvider",
      "outputs": [
        {
          "internalType": "bool",
          "name": "",
          "type": "bool"
        }
      ],
      "payable": false,
      "stateMutability": "view",
      "type": "function"
    },
    {
      "constant": true,
      "inputs": [
        {
          "internalType": "bytes32",
          "name": "_did",
          "type": "bytes32"
        }
      ],
      "name": "getDIDRegister",
      "outputs": [
        {
          "internalType": "address",
          "name": "owner",
          "type": "address"
        },
        {
          "internalType": "bytes32",
          "name": "lastChecksum",
          "type": "bytes32"
        },
        {
          "internalType": "address",
          "name": "lastUpdatedBy",
          "type": "address"
        },
        {
          "internalType": "uint256",
          "name": "blockNumberUpdated",
          "type": "uint256"
        },
        {
          "internalType": "address[]",
          "name": "providers",
          "type": "address[]"
        }
      ],
      "payable": false,
      "stateMutability": "view",
      "type": "function"
    },
    {
      "constant": true,
      "inputs": [
        {
          "internalType": "bytes32",
          "name": "_did",
          "type": "bytes32"
        }
      ],
      "name": "getBlockNumberUpdated",
      "outputs": [
        {
          "internalType": "uint256",
          "name": "blockNumberUpdated",
          "type": "uint256"
        }
      ],
      "payable": false,
      "stateMutability": "view",
      "type": "function"
    },
    {
      "constant": true,
      "inputs": [
        {
          "internalType": "bytes32",
          "name": "_did",
          "type": "bytes32"
        }
      ],
      "name": "getDIDOwner",
      "outputs": [
        {
          "internalType": "address",
          "name": "didOwner",
          "type": "address"
        }
      ],
      "payable": false,
      "stateMutability": "view",
      "type": "function"
    },
    {
      "constant": true,
      "inputs": [],
      "name": "getDIDRegistrySize",
      "outputs": [
        {
          "internalType": "uint256",
          "name": "size",
          "type": "uint256"
        }
      ],
      "payable": false,
      "stateMutability": "view",
      "type": "function"
    },
    {
      "constant": true,
      "inputs": [],
      "name": "getDIDRegisterIds",
      "outputs": [
        {
          "internalType": "bytes32[]",
          "name": "",
          "type": "bytes32[]"
        }
      ],
      "payable": false,
      "stateMutability": "view",
      "type": "function"
    },
    {
      "constant": false,
      "inputs": [
        {
          "internalType": "bytes32",
          "name": "_did",
          "type": "bytes32"
        },
        {
          "internalType": "address",
          "name": "_newOwner",
          "type": "address"
        }
      ],
      "name": "transferDIDOwnership",
      "outputs": [],
      "payable": false,
      "stateMutability": "nonpayable",
      "type": "function"
    }
  ],
  "bytecode": "0x608060405234801561001057600080fd5b50611278806100206000396000f3fe608060405234801561001057600080fd5b50600436106101005760003560e01c80638da5cb5b11610097578063bbc1dede11610066578063bbc1dede14610475578063c4d66de814610492578063d6f9d5eb146104b8578063f2fde38b146104e457610100565b80638da5cb5b1461040d5780638f32d59b14610415578063a2d28d461461041d578063ae28129c1461044957610100565b80636c2ef524116100d35780636c2ef5241461034657806370c6817a1461037f578063715018a6146103d75780637ac5f7c8146103e157610100565b806322c6b5191461010557806339c035f0146101b65780633c6aa7b7146101d0578063534eb70614610210575b600080fd5b6101226004803603602081101561011b57600080fd5b503561050a565b60405180866001600160a01b03166001600160a01b03168152602001858152602001846001600160a01b03166001600160a01b0316815260200183815260200180602001828103825283818151815260200191508051906020019060200280838360005b8381101561019e578181015183820152602001610186565b50505050905001965050505050505060405180910390f35b6101be6105a4565b60408051918252519081900360200190f35b6101fc600480360360408110156101e657600080fd5b50803590602001356001600160a01b03166105aa565b604080519115158252519081900360200190f35b6101be6004803603608081101561022657600080fd5b81359160208101359181019060608101604082013564010000000081111561024d57600080fd5b82018360208201111561025f57600080fd5b8035906020019184602083028401116401000000008311171561028157600080fd5b91908080602002602001604051908101604052809392919081815260200183836020028082843760009201919091525092959493602081019350359150506401000000008111156102d157600080fd5b8201836020820111156102e357600080fd5b8035906020019184600183028401116401000000008311171561030557600080fd5b91908080601f016020809104026020016040519081016040528093929190818152602001838380828437600092019190915250929550610649945050505050565b6103636004803603602081101561035c57600080fd5b50356108b1565b604080516001600160a01b039092168252519081900360200190f35b6103876108cc565b60408051602080825283518183015283519192839290830191858101910280838360005b838110156103c35781810151838201526020016103ab565b505050509050019250505060405180910390f35b6103df610927565b005b6103df600480360360408110156103f757600080fd5b50803590602001356001600160a01b0316610982565b610363610a4a565b6101fc610a59565b6103df6004803603604081101561043357600080fd5b50803590602001356001600160a01b0316610a6a565b6101fc6004803603604081101561045f57600080fd5b506001600160a01b038135169060200135610b25565b6101be6004803603602081101561048b57600080fd5b5035610bb7565b6103df600480360360208110156104a857600080fd5b50356001600160a01b0316610bcc565b6103df600480360360408110156104ce57600080fd5b50803590602001356001600160a01b0316610c78565b6103df600480360360208110156104fa57600080fd5b50356001600160a01b0316610d55565b6000818152606660209081526040918290208054600182015460028301546003840154600490940180548751818802810188019098528088526001600160a01b039485169793969290941694936060939283018282801561059457602002820191906000526020600020905b81546001600160a01b03168152600190910190602001808311610576575b5050505050905091939590929450565b60675490565b6040805163fc977f2f60e01b815260666004820152602481018490526001600160a01b0383166044820152905160009173__DIDRegistryLibrary____________________9163fc977f2f91606480820192602092909190829003018186803b15801561061657600080fd5b505af415801561062a573d6000803e3d6000fd5b505050506040513d602081101561064057600080fd5b50519392505050565b6000848152606660205260408120546001600160a01b0316158061068357506000858152606660205260409020546001600160a01b031633145b6106be5760405162461bcd60e51b81526004018080602001828103825260308152602001806111e66030913960400191505060405180910390fd5b6108008251111561070b576040805162461bcd60e51b8152602060048201526012602482015271496e76616c69642076616c75652073697a6560701b604482015290519081900360640190fd5b604080516336e2d0c960e01b8152606660048201526024810187905260448101869052905160009173__DIDRegistryLibrary____________________916336e2d0c991606480820192602092909190829003018186803b15801561076f57600080fd5b505af4158015610783573d6000803e3d6000fd5b505050506040513d602081101561079957600080fd5b5051905060005b84518110156107da576107d2878683815181106107b957fe5b60200260200101516066610d729092919063ffffffff16565b6001016107a0565b5060008681526066602090815260408083205481513381850181905243938201849052606080835289519083015288518b966001600160a01b03909416958d957f8f8b755e50eb4efaa1a82e62cbfe4c58d83374b2f20db5960764ba69e062ae43958c959193919283926080840192918801918190849084905b8381101561086c578181015183820152602001610854565b50505050905090810190601f1680156108995780820380516001836020036101000a031916815260200191505b5094505050505060405180910390a495945050505050565b6000908152606660205260409020546001600160a01b031690565b6060606660010180548060200260200160405190810160405280929190818152602001828054801561091d57602002820191906000526020600020905b815481526020019060010190808311610909575b5050505050905090565b61092f610a59565b61093857600080fd5b6033546040516000916001600160a01b0316907f8be0079c531659141344cd1fd0a4f28419497f9722a3daafe3b4186f6b6457e0908390a3603380546001600160a01b0319169055565b60008281526066602052604090205482906001600160a01b031633146109e3576040805162461bcd60e51b815260206004820152601160248201527024b73b30b634b2102224a21037bbb732b960791b604482015290519081900360640190fd5b60006109f76066858563ffffffff610e6216565b604080518681526001600160a01b03861660208201528215158183015290519192507fa34c94e3893406b9fa302e5fbe4335b0cc46ca311d7ea24545426ec223a94f41919081900360600190a150505050565b6033546001600160a01b031690565b6033546001600160a01b0316331490565b60008281526066602052604090205482906001600160a01b03163314610acb576040805162461bcd60e51b815260206004820152601160248201527024b73b30b634b2102224a21037bbb732b960791b604482015290519081900360640190fd5b610add6066848463ffffffff610d7216565b604080518481526001600160a01b038416602082015281517f0c22bba9f36f0f2a7884650bedf42ce7b026851b573c93e4d8cd51f73eceda0f929181900390910190a1505050565b6000818152606660205260408120546001600160a01b0384811691161480610bb057506040805163fc977f2f60e01b815260666004820152602481018490526001600160a01b0385166044820152905173__DIDRegistryLibrary____________________9163fc977f2f916064808301926020929190829003018186803b15801561061657600080fd5b9392505050565b60009081526066602052604090206003015490565b600054610100900460ff1680610be55750610be5610f23565b80610bf3575060005460ff16155b610c2e5760405162461bcd60e51b815260040180806020018281038252602e815260200180611216602e913960400191505060405180910390fd5b600054610100900460ff16158015610c59576000805460ff1961ff0019909116610100171660011790555b610c6282610f29565b8015610c74576000805461ff00191690555b5050565b60008281526066602052604090205482906001600160a01b03163314610cd9576040805162461bcd60e51b815260206004820152601160248201527024b73b30b634b2102224a21037bbb732b960791b604482015290519081900360640190fd5b6000838152606660208190526040909120546001600160a01b031690610d0690858563ffffffff61101a16565b604080518581526001600160a01b03808416602083015285168183015290517fe36e06a31618f1e5c2057e2d659c72bb4d1e19526236dc13052a483978b55ea29181900360600190a150505050565b610d5d610a59565b610d6657600080fd5b610d6f816110a3565b50565b6001600160a01b038116610dcd576040805162461bcd60e51b815260206004820152601e60248201527f496e76616c69642061737365742070726f766964657220616464726573730000604482015290519081900360640190fd5b6001600160a01b038116301415610e155760405162461bcd60e51b81526004018080602001828103825260308152602001806111b66030913960400191505060405180910390fd5b610e20838383611112565b610e5d576000828152602084815260408220600401805460018101825590835291200180546001600160a01b0319166001600160a01b0383161790555b505050565b60006001600160a01b038216610ebf576040805162461bcd60e51b815260206004820152601e60248201527f496e76616c69642061737365742070726f766964657220616464726573730000604482015290519081900360640190fd5b6000610ecc858585611141565b9050806000191415610ee2576000915050610bb0565b6000848152602086905260409020600401805482908110610eff57fe5b600091825260209091200180546001600160a01b0319169055506001949350505050565b303b1590565b600054610100900460ff1680610f425750610f42610f23565b80610f50575060005460ff16155b610f8b5760405162461bcd60e51b815260040180806020018281038252602e815260200180611216602e913960400191505060405180910390fd5b600054610100900460ff16158015610fb6576000805460ff1961ff0019909116610100171660011790555b603380546001600160a01b0319166001600160a01b0384811691909117918290556040519116906000907f8be0079c531659141344cd1fd0a4f28419497f9722a3daafe3b4186f6b6457e0908290a38015610c74576000805461ff00191690555050565b6001600160a01b038116611075576040805162461bcd60e51b815260206004820152601d60248201527f496e76616c6964206e657720444944206f776e65722061646472657373000000604482015290519081900360640190fd5b60009182526020929092526040902080546001600160a01b0319166001600160a01b03909216919091179055565b6001600160a01b0381166110b657600080fd5b6033546040516001600160a01b038084169216907f8be0079c531659141344cd1fd0a4f28419497f9722a3daafe3b4186f6b6457e090600090a3603380546001600160a01b0319166001600160a01b0392909216919091179055565b600080611120858585611141565b9050806000191415611136576000915050610bb0565b506001949350505050565b6000805b6000848152602086905260409020600401548110156111a957600084815260208690526040902060040180548290811061117b57fe5b6000918252602090912001546001600160a01b03848116911614156111a1579050610bb0565b600101611145565b5060001994935050505056fe4449442070726f76696465722073686f756c64206e6f74206265207468697320636f6e7472616374206164647265737341747472696275746573206d75737420626520726567697374657265642062792074686520444944206f776e6572732e436f6e747261637420696e7374616e63652068617320616c7265616479206265656e20696e697469616c697a6564a265627a7a72315820c8ea5e6dc987ba7ae32c9d2960cfe6ffbf70c782a5e52eefbd8e61b83e049a4564736f6c634300050c0032",
  "source": "pragma solidity >=0.5.0 <0.6.0;\n// Copyright BigchainDB GmbH and Ocean Protocol contributors\n// SPDX-License-Identifier: (Apache-2.0 AND CC-BY-4.0)\n// Code is Apache-2.0 and docs are CC-BY-4.0\n\nimport './DIDRegistryLibrary.sol';\n//import \"@openzeppelin/contracts/ownership/Ownable.sol\";\nimport 'openzeppelin-eth/contracts/ownership/Ownable.sol';\n//import \"@openzeppelin/upgrades/contracts/Initializable.sol\";\n\n/**\n * @title DID Registry\n * @author Ocean Protocol Team\n *\n * @dev Implementation of the DID Registry.\n *      https://github.com/oceanprotocol/OEPs/tree/master/7#registry\n */\ncontract DIDRegistry is Ownable {\n\n    /**\n     * @dev The DIDRegistry Library takes care of the basic storage functions.\n     */\n    using DIDRegistryLibrary for DIDRegistryLibrary.DIDRegisterList;\n\n    /**\n     * @dev state storage for the DID registry\n     */\n    DIDRegistryLibrary.DIDRegisterList internal didRegisterList;\n\n    modifier onlyDIDOwner(bytes32 _did)\n    {\n        require(\n            msg.sender == didRegisterList.didRegisters[_did].owner,\n            'Invalid DID owner'\n        );\n        _;\n    }\n\n    /**\n     * @dev This implementation does not store _value on-chain,\n     *      but emits DIDAttributeRegistered events to store it in the event log.\n     */\n    event DIDAttributeRegistered(\n        bytes32 indexed _did,\n        address indexed _owner,\n        bytes32 indexed _checksum,\n        string _value,\n        address _lastUpdatedBy,\n        uint256 _blockNumberUpdated\n    );\n\n    event DIDProviderRemoved(\n        bytes32 _did,\n        address _provider,\n        bool state\n    );\n\n    event DIDProviderAdded(\n        bytes32 _did,\n        address _provider\n    );\n\n    event DIDOwnershipTransferred(\n        bytes32 _did,\n        address _previousOwner,\n        address _newOwner\n    );\n    \n   /**\n     * @dev DIDRegistry Initializer\n     *      Initialize Ownable. Only on contract creation.\n     * @param _owner refers to the owner of the contract.\n    */ \n    function initialize(\n        address _owner\n    )\n        public\n        initializer\n    {\n        Ownable.initialize(_owner);\n    }\n    \n\n    /**\n     *  @notice check whether caller is DID owner or provider\n     *  @dev This function is delgated call from AccessSecretRegistry.sol\n     *  @param _caller address \n     *  @param _did refers to decentralized identifier (a bytes32 length ID)\n     *  @return whether caller is DID owner or provider\n     */\n    function isDIDOwnerOrProvider(\n        address _caller,\n        bytes32 _did\n    )\n        public view\n        returns (bool)\n    {\n        return (\n            didRegisterList.didRegisters[_did].owner == _caller ||\n            didRegisterList.isProvider(_did, _caller)\n        );\n    }\n\n    /**\n     * @notice Register DID attributes.\n     *\n     * @dev The first attribute of a DID registered sets the DID owner.\n     *      Subsequent updates record _checksum and update info.\n     *\n     * @param _did refers to decentralized identifier (a bytes32 length ID).\n     * @param _checksum includes a one-way HASH calculated using the DDO content.\n     * @param _value refers to the attribute value, limited to 2048 bytes.\n     * @return the size of the registry after the register action.\n     */\n    function registerAttribute(\n        bytes32 _did,\n        bytes32 _checksum,\n        address[] memory _providers,\n        string memory _value\n    )\n        public\n        returns (uint size)\n    {\n        require(\n            didRegisterList.didRegisters[_did].owner == address(0x0) ||\n            didRegisterList.didRegisters[_did].owner == msg.sender,\n            'Attributes must be registered by the DID owners.'\n        );\n\n        require(\n            //TODO: 2048 should be changed in the future\n            bytes(_value).length <= 2048,\n            'Invalid value size'\n        );\n\n        uint updatedSize = didRegisterList.update(_did, _checksum);\n\n        // push providers to storage\n        for (uint256 i = 0; i < _providers.length; i++) {\n            didRegisterList.addProvider(\n                _did,\n                _providers[i]\n            );\n\n        }\n\n        /* emitting _value here to avoid expensive storage */\n        emit DIDAttributeRegistered(\n            _did,\n            didRegisterList.didRegisters[_did].owner,\n            _checksum,\n            _value,\n            msg.sender,\n            block.number\n        );\n\n        return updatedSize;\n    }\n\n    /**\n     * @notice addDIDProvider add new DID provider.\n     *\n     * @dev it adds new DID provider to the providers list. A provider\n     *      is any entity that can serve the registered asset\n     * @param _did refers to decentralized identifier (a bytes32 length ID).\n     * @param _provider provider's address.\n     */\n    function addDIDProvider(\n        bytes32 _did,\n        address _provider\n    )\n        external\n        onlyDIDOwner(_did)\n    {\n        didRegisterList.addProvider(_did, _provider);\n\n        emit DIDProviderAdded(\n            _did,\n            _provider\n        );\n    }\n\n    /**\n     * @notice removeDIDProvider delete an existing DID provider.\n     * @param _did refers to decentralized identifier (a bytes32 length ID).\n     * @param _provider provider's address.\n     */\n    function removeDIDProvider(\n        bytes32 _did,\n        address _provider\n    )\n        external\n        onlyDIDOwner(_did)\n    {\n        bool state = didRegisterList.removeProvider(_did, _provider);\n\n        emit DIDProviderRemoved(\n            _did,\n            _provider,\n            state\n        );\n    }\n        \n    /**\n     * @notice isDIDProvider check whether a given DID provider exists\n     * @param _did refers to decentralized identifier (a bytes32 length ID).\n     * @param _provider provider's address.\n     */\n    function isDIDProvider(\n        bytes32 _did,\n        address _provider\n    )\n        public\n        view\n        returns (bool)\n    {\n        return didRegisterList.isProvider(_did, _provider);\n    }\n\n    /**\n     * @param _did refers to decentralized identifier (a bytes32 length ID).\n     * @return the address of the DID owner.\n     */\n    function getDIDRegister(\n        bytes32 _did\n    )\n        public\n        view\n        returns (\n            address owner,\n            bytes32 lastChecksum,\n            address lastUpdatedBy,\n            uint256 blockNumberUpdated,\n            address[] memory providers\n        )\n    {\n        owner = didRegisterList.didRegisters[_did].owner;\n        lastChecksum = didRegisterList.didRegisters[_did].lastChecksum;\n        lastUpdatedBy = didRegisterList.didRegisters[_did].lastUpdatedBy;\n        blockNumberUpdated = didRegisterList.didRegisters[_did]\n            .blockNumberUpdated;\n        providers = didRegisterList.didRegisters[_did].providers;\n    }\n\n    /**\n     * @param _did refers to decentralized identifier (a bytes32 length ID).\n     * @return last modified (update) block number of a DID.\n     */\n    function getBlockNumberUpdated(bytes32 _did)\n        public\n        view\n        returns (uint256 blockNumberUpdated)\n    {\n        return didRegisterList.didRegisters[_did].blockNumberUpdated;\n    }\n\n    /**\n     * @param _did refers to decentralized identifier (a bytes32 length ID).\n     * @return the address of the DID owner.\n     */\n    function getDIDOwner(bytes32 _did)\n        public\n        view\n        returns (address didOwner)\n    {\n        return didRegisterList.didRegisters[_did].owner;\n    }\n\n    /**\n     * @return the length of the DID registry.\n     */\n    function getDIDRegistrySize()\n        public\n        view\n        returns (uint size)\n    {\n        return didRegisterList.didRegisterIds.length;\n    }\n\n    /**\n     * @return the length of the DID registry.\n     */\n    function getDIDRegisterIds()\n        public\n        view\n        returns (bytes32[] memory)\n    {\n        return didRegisterList.didRegisterIds;\n    }\n\n    /**\n     * @notice transferDIDOwnership transfer DID ownership\n     * @param _did refers to decentralized identifier (a bytes32 length ID)\n     * @param _newOwner new owner address\n     */\n    function transferDIDOwnership(bytes32 _did, address _newOwner)\n        external\n        onlyDIDOwner(_did)\n    {\n        address _previousOwner = didRegisterList.didRegisters[_did].owner;\n        didRegisterList.updateDIDOwner(_did, _newOwner);\n        \n        emit DIDOwnershipTransferred(\n            _did,\n            _previousOwner,\n            _newOwner\n        );\n    }\n\n}",
  "sourcePath": "/Users/hashimototatsuki/keeper-layer2/contracts/keeper-layer2/registry/DIDRegistry.sol",
  "compiler": {
    "name": "solc",
    "version": "0.5.12+commit.7709ece9.Emscripten.clang"
  },
  "schemaVersion": "3.0.19",
  "updatedAt": "2019-12-17T07:54:09.777Z",
  "devdoc": {
    "author": "Ocean Protocol Team",
    "details": "Implementation of the DID Registry.     https://github.com/oceanprotocol/OEPs/tree/master/7#registry",
    "methods": {
      "addDIDProvider(bytes32,address)": {
        "details": "it adds new DID provider to the providers list. A provider     is any entity that can serve the registered asset",
        "params": {
          "_did": "refers to decentralized identifier (a bytes32 length ID).",
          "_provider": "provider's address."
        }
      },
      "getBlockNumberUpdated(bytes32)": {
        "params": {
          "_did": "refers to decentralized identifier (a bytes32 length ID)."
        },
        "return": "last modified (update) block number of a DID."
      },
      "getDIDOwner(bytes32)": {
        "params": {
          "_did": "refers to decentralized identifier (a bytes32 length ID)."
        },
        "return": "the address of the DID owner."
      },
      "getDIDRegister(bytes32)": {
        "params": {
          "_did": "refers to decentralized identifier (a bytes32 length ID)."
        },
        "return": "the address of the DID owner."
      },
      "getDIDRegisterIds()": {
        "return": "the length of the DID registry."
      },
      "getDIDRegistrySize()": {
        "return": "the length of the DID registry."
      },
      "initialize(address)": {
        "details": "DIDRegistry Initializer     Initialize Ownable. Only on contract creation.",
        "params": {
          "_owner": "refers to the owner of the contract."
        }
      },
      "isDIDOwnerOrProvider(address,bytes32)": {
        "details": "This function is delgated call from AccessSecretRegistry.sol",
        "params": {
          "_caller": "address ",
          "_did": "refers to decentralized identifier (a bytes32 length ID)"
        },
        "return": "whether caller is DID owner or provider"
      },
      "isDIDProvider(bytes32,address)": {
        "params": {
          "_did": "refers to decentralized identifier (a bytes32 length ID).",
          "_provider": "provider's address."
        }
      },
      "isOwner()": {
        "return": "true if `msg.sender` is the owner of the contract."
      },
      "owner()": {
        "return": "the address of the owner."
      },
      "registerAttribute(bytes32,bytes32,address[],string)": {
        "details": "The first attribute of a DID registered sets the DID owner.     Subsequent updates record _checksum and update info.",
        "params": {
          "_checksum": "includes a one-way HASH calculated using the DDO content.",
          "_did": "refers to decentralized identifier (a bytes32 length ID).",
          "_value": "refers to the attribute value, limited to 2048 bytes."
        },
        "return": "the size of the registry after the register action."
      },
      "removeDIDProvider(bytes32,address)": {
        "params": {
          "_did": "refers to decentralized identifier (a bytes32 length ID).",
          "_provider": "provider's address."
        }
      },
      "renounceOwnership()": {
        "details": "Allows the current owner to relinquish control of the contract. It will not be possible to call the functions with the `onlyOwner` modifier anymore."
      },
      "transferDIDOwnership(bytes32,address)": {
        "params": {
          "_did": "refers to decentralized identifier (a bytes32 length ID)",
          "_newOwner": "new owner address"
        }
      },
      "transferOwnership(address)": {
        "details": "Allows the current owner to transfer control of the contract to a newOwner.",
        "params": {
          "newOwner": "The address to transfer ownership to."
        }
      }
    },
    "title": "DID Registry"
  },
  "userdoc": {
    "methods": {
      "addDIDProvider(bytes32,address)": {
        "notice": "addDIDProvider add new DID provider."
      },
      "isDIDOwnerOrProvider(address,bytes32)": {
        "notice": "check whether caller is DID owner or provider"
      },
      "isDIDProvider(bytes32,address)": {
        "notice": "isDIDProvider check whether a given DID provider exists"
      },
      "registerAttribute(bytes32,bytes32,address[],string)": {
        "notice": "Register DID attributes."
      },
      "removeDIDProvider(bytes32,address)": {
        "notice": "removeDIDProvider delete an existing DID provider."
      },
      "renounceOwnership()": {
        "notice": "Renouncing ownership will leave the contract without an owner, thereby removing any functionality that is only available to the owner."
      },
      "transferDIDOwnership(bytes32,address)": {
        "notice": "transferDIDOwnership transfer DID ownership"
      }
    }
  }
}