{
  "contractName": "EthPool",
  "abi": [
    {
      "anonymous": false,
      "inputs": [
        {
          "indexed": true,
          "internalType": "address",
          "name": "owner",
          "type": "address"
        },
        {
          "indexed": true,
          "internalType": "address",
          "name": "spender",
          "type": "address"
        },
        {
          "indexed": false,
          "internalType": "uint256",
          "name": "value",
          "type": "uint256"
        }
      ],
      "name": "Approval",
      "type": "event"
    },
    {
      "anonymous": false,
      "inputs": [
        {
          "indexed": true,
          "internalType": "address",
          "name": "receiver",
          "type": "address"
        },
        {
          "indexed": false,
          "internalType": "uint256",
          "name": "value",
          "type": "uint256"
        }
      ],
      "name": "Deposit",
      "type": "event"
    },
    {
      "anonymous": false,
      "inputs": [
        {
          "indexed": true,
          "internalType": "address",
          "name": "from",
          "type": "address"
        },
        {
          "indexed": true,
          "internalType": "address",
          "name": "to",
          "type": "address"
        },
        {
          "indexed": false,
          "internalType": "uint256",
          "name": "value",
          "type": "uint256"
        }
      ],
      "name": "Transfer",
      "type": "event"
    },
    {
      "constant": true,
      "inputs": [],
      "name": "decimals",
      "outputs": [
        {
          "internalType": "uint8",
          "name": "",
          "type": "uint8"
        }
      ],
      "payable": false,
      "stateMutability": "view",
      "type": "function"
    },
    {
      "constant": true,
      "inputs": [],
      "name": "name",
      "outputs": [
        {
          "internalType": "string",
          "name": "",
          "type": "string"
        }
      ],
      "payable": false,
      "stateMutability": "view",
      "type": "function"
    },
    {
      "constant": true,
      "inputs": [],
      "name": "symbol",
      "outputs": [
        {
          "internalType": "string",
          "name": "",
          "type": "string"
        }
      ],
      "payable": false,
      "stateMutability": "view",
      "type": "function"
    },
    {
      "constant": false,
      "inputs": [
        {
          "internalType": "address",
          "name": "_receiver",
          "type": "address"
        }
      ],
      "name": "deposit",
      "outputs": [],
      "payable": true,
      "stateMutability": "payable",
      "type": "function"
    },
    {
      "constant": false,
      "inputs": [
        {
          "internalType": "uint256",
          "name": "_value",
          "type": "uint256"
        }
      ],
      "name": "withdraw",
      "outputs": [],
      "payable": false,
      "stateMutability": "nonpayable",
      "type": "function"
    },
    {
      "constant": false,
      "inputs": [
        {
          "internalType": "address",
          "name": "_spender",
          "type": "address"
        },
        {
          "internalType": "uint256",
          "name": "_value",
          "type": "uint256"
        }
      ],
      "name": "approve",
      "outputs": [
        {
          "internalType": "bool",
          "name": "",
          "type": "bool"
        }
      ],
      "payable": false,
      "stateMutability": "nonpayable",
      "type": "function"
    },
    {
      "constant": false,
      "inputs": [
        {
          "internalType": "address",
          "name": "_from",
          "type": "address"
        },
        {
          "internalType": "address payable",
          "name": "_to",
          "type": "address"
        },
        {
          "internalType": "uint256",
          "name": "_value",
          "type": "uint256"
        }
      ],
      "name": "transferFrom",
      "outputs": [
        {
          "internalType": "bool",
          "name": "",
          "type": "bool"
        }
      ],
      "payable": false,
      "stateMutability": "nonpayable",
      "type": "function"
    },
    {
      "constant": false,
      "inputs": [
        {
          "internalType": "address",
          "name": "_from",
          "type": "address"
        },
        {
          "internalType": "address",
          "name": "_walletAddr",
          "type": "address"
        },
        {
          "internalType": "bytes32",
          "name": "_walletId",
          "type": "bytes32"
        },
        {
          "internalType": "uint256",
          "name": "_value",
          "type": "uint256"
        }
      ],
      "name": "transferToCelerWallet",
      "outputs": [
        {
          "internalType": "bool",
          "name": "",
          "type": "bool"
        }
      ],
      "payable": false,
      "stateMutability": "nonpayable",
      "type": "function"
    },
    {
      "constant": false,
      "inputs": [
        {
          "internalType": "address",
          "name": "_spender",
          "type": "address"
        },
        {
          "internalType": "uint256",
          "name": "_addedValue",
          "type": "uint256"
        }
      ],
      "name": "increaseAllowance",
      "outputs": [
        {
          "internalType": "bool",
          "name": "",
          "type": "bool"
        }
      ],
      "payable": false,
      "stateMutability": "nonpayable",
      "type": "function"
    },
    {
      "constant": false,
      "inputs": [
        {
          "internalType": "address",
          "name": "_spender",
          "type": "address"
        },
        {
          "internalType": "uint256",
          "name": "_subtractedValue",
          "type": "uint256"
        }
      ],
      "name": "decreaseAllowance",
      "outputs": [
        {
          "internalType": "bool",
          "name": "",
          "type": "bool"
        }
      ],
      "payable": false,
      "stateMutability": "nonpayable",
      "type": "function"
    },
    {
      "constant": true,
      "inputs": [
        {
          "internalType": "address",
          "name": "_owner",
          "type": "address"
        }
      ],
      "name": "balanceOf",
      "outputs": [
        {
          "internalType": "uint256",
          "name": "",
          "type": "uint256"
        }
      ],
      "payable": false,
      "stateMutability": "view",
      "type": "function"
    },
    {
      "constant": true,
      "inputs": [
        {
          "internalType": "address",
          "name": "_owner",
          "type": "address"
        },
        {
          "internalType": "address",
          "name": "_spender",
          "type": "address"
        }
      ],
      "name": "allowance",
      "outputs": [
        {
          "internalType": "uint256",
          "name": "",
          "type": "uint256"
        }
      ],
      "payable": false,
      "stateMutability": "view",
      "type": "function"
    }
  ],
  "bytecode": "0x608060405234801561001057600080fd5b50610ba6806100206000396000f3fe6080604052600436106100a75760003560e01c806370a082311161006457806370a08231146102565780637e1cd4311461029b57806395d89b41146102e4578063a457c2d7146102f9578063dd62ed3e14610332578063f340fa011461036d576100a7565b806306fdde03146100ac578063095ea7b31461013657806323b872dd146101835780632e1a7d4d146101c6578063313ce567146101f2578063395093511461021d575b600080fd5b3480156100b857600080fd5b506100c1610393565b6040805160208082528351818301528351919283929083019185019080838360005b838110156100fb5781810151838201526020016100e3565b50505050905090810190601f1680156101285780820380516001836020036101000a031916815260200191505b509250505060405180910390f35b34801561014257600080fd5b5061016f6004803603604081101561015957600080fd5b506001600160a01b0381351690602001356103b8565b604080519115158252519081900360200190f35b34801561018f57600080fd5b5061016f600480360360608110156101a657600080fd5b506001600160a01b03813581169160208101359091169060400135610461565b3480156101d257600080fd5b506101f0600480360360208110156101e957600080fd5b50356104f4565b005b3480156101fe57600080fd5b50610207610502565b6040805160ff9092168252519081900360200190f35b34801561022957600080fd5b5061016f6004803603604081101561024057600080fd5b506001600160a01b038135169060200135610507565b34801561026257600080fd5b506102896004803603602081101561027957600080fd5b50356001600160a01b03166105e2565b60408051918252519081900360200190f35b3480156102a757600080fd5b5061016f600480360360808110156102be57600080fd5b506001600160a01b038135811691602081013590911690604081013590606001356105fd565b3480156102f057600080fd5b506100c161076b565b34801561030557600080fd5b5061016f6004803603604081101561031c57600080fd5b506001600160a01b03813516906020013561078c565b34801561033e57600080fd5b506102896004803603604081101561035557600080fd5b506001600160a01b0381358116916020013516610814565b6101f06004803603602081101561038357600080fd5b50356001600160a01b031661083f565b60405180604001604052806009815260200168115d1a125b941bdbdb60ba1b81525081565b60006001600160a01b03831661040c576040805162461bcd60e51b815260206004820152601460248201527305370656e646572206164647265737320697320360641b604482015290519081900360640190fd5b3360008181526001602090815260408083206001600160a01b0388168085529083529281902086905580518681529051929392600080516020610b52833981519152929181900390910190a350600192915050565b6001600160a01b0383166000908152600160209081526040808320338452909152812054610495908363ffffffff61090e16565b6001600160a01b038516600081815260016020908152604080832033808552908352928190208590558051948552519193600080516020610b52833981519152929081900390910190a36104ea848484610957565b5060019392505050565b6104ff333383610957565b50565b601281565b60006001600160a01b03831661055b576040805162461bcd60e51b815260206004820152601460248201527305370656e646572206164647265737320697320360641b604482015290519081900360640190fd5b3360009081526001602090815260408083206001600160a01b038716845290915290205461058f908363ffffffff610a6016565b3360008181526001602090815260408083206001600160a01b038916808552908352928190208590558051948552519193600080516020610b52833981519152929081900390910190a350600192915050565b6001600160a01b031660009081526020819052604090205490565b6001600160a01b0384166000908152600160209081526040808320338452909152812054610631908363ffffffff61090e16565b6001600160a01b038616600081815260016020908152604080832033808552908352928190208590558051948552519193600080516020610b52833981519152929081900390910190a36001600160a01b0385166000908152602081905260409020546106a4908363ffffffff61090e16565b6001600160a01b038087166000818152602081815260409182902094909455805186815290519288169391927fddf252ad1be2c89b69c2b068fc378daa952ba7f163c4a11628f55a4df523b3ef929181900390910190a36000849050806001600160a01b031663d68d9d4e84866040518363ffffffff1660e01b8152600401808281526020019150506000604051808303818588803b15801561074657600080fd5b505af115801561075a573d6000803e3d6000fd5b5060019a9950505050505050505050565b60405180604001604052806005815260200164045746849560dc1b81525081565b60006001600160a01b0383166107e0576040805162461bcd60e51b815260206004820152601460248201527305370656e646572206164647265737320697320360641b604482015290519081900360640190fd5b3360009081526001602090815260408083206001600160a01b038716845290915290205461058f908363ffffffff61090e16565b6001600160a01b03918216600090815260016020908152604080832093909416825291909152205490565b6001600160a01b038116610892576040805162461bcd60e51b8152602060048201526015602482015274052656365697665722061646472657373206973203605c1b604482015290519081900360640190fd5b6001600160a01b0381166000908152602081905260409020546108bb903463ffffffff610a6016565b6001600160a01b03821660008181526020818152604091829020939093558051348152905191927fe1fffcc4923d04b559f4d29a8bfc6cda04eb5b0d3c460751c2402c5c5cc9109c92918290030190a250565b600061095083836040518060400160405280601e81526020017f536166654d6174683a207375627472616374696f6e206f766572666c6f770000815250610aba565b9392505050565b6001600160a01b0382166109a4576040805162461bcd60e51b815260206004820152600f60248201526e0546f2061646472657373206973203608c1b604482015290519081900360640190fd5b6001600160a01b0383166000908152602081905260409020546109cd908263ffffffff61090e16565b6001600160a01b038085166000818152602081815260409182902094909455805185815290519286169391927fddf252ad1be2c89b69c2b068fc378daa952ba7f163c4a11628f55a4df523b3ef929181900390910190a36040516001600160a01b0383169082156108fc029083906000818181858888f19350505050158015610a5a573d6000803e3d6000fd5b50505050565b600082820183811015610950576040805162461bcd60e51b815260206004820152601b60248201527f536166654d6174683a206164646974696f6e206f766572666c6f770000000000604482015290519081900360640190fd5b60008184841115610b495760405162461bcd60e51b81526004018080602001828103825283818151815260200191508051906020019080838360005b83811015610b0e578181015183820152602001610af6565b50505050905090810190601f168015610b3b5780820380516001836020036101000a031916815260200191505b509250505060405180910390fd5b50505090039056fe8c5be1e5ebec7d5bd14f71427d1e84f3dd0314c0f7b2291e5b200ac8c7c3b925a265627a7a7231582029df830b46a4f1b1d5f425151ab3fb2574542f2fc522ae30e0b32a5be88628b764736f6c634300050c0032",
  "source": "pragma solidity ^0.5.1;\n\nimport \"./lib/interface/IEthPool.sol\";\nimport \"./lib/interface/ICelerWallet.sol\";\nimport \"openzeppelin-solidity/contracts/math/SafeMath.sol\";\n\n/**\n * @title ETH Pool providing an ERC20 like interface\n * @notice Implementation of an ERC20 like pool for native ETH.\n * @dev Originally based on code of ERC20 by openzeppelin-solidity v2.1.2\n *   https://github.com/OpenZeppelin/openzeppelin-solidity/blob/v2.1.2/contracts/token/ERC20/ERC20.sol\n */ \ncontract EthPool is IEthPool {\n    using SafeMath for uint;\n\n    mapping (address => uint) private balances;\n    mapping (address => mapping (address => uint)) private allowed;\n    \n    // mock ERC20 details to enable etherscan-like tools to monitor EthPool correctly\n    string public constant name = \"EthInPool\";\n    string public constant symbol = \"EthIP\";\n    uint8 public constant decimals = 18;\n\n    /**\n     * @notice Deposit ETH to ETH Pool\n     * @param _receiver the address ETH is deposited to \n     */\n    function deposit(address _receiver) public payable {\n        require(_receiver != address(0), \"Receiver address is 0\");\n\n        balances[_receiver] = balances[_receiver].add(msg.value);\n        emit Deposit(_receiver, msg.value);\n    }\n\n    /**\n     * @notice Withdraw ETH from ETH Pool\n     * @param _value the amount of ETH to withdraw\n     */\n    function withdraw(uint _value) public {\n        _transfer(msg.sender, msg.sender, _value);\n    }\n\n    /**\n     * @notice Approve the passed address to spend the specified amount of ETH on behalf of msg.sender.\n     * @dev Beware that changing an allowance with this method brings the risk that someone may use both the old\n     *   and the new allowance by unfortunate transaction ordering. One possible solution to mitigate this\n     *   race condition is to first reduce the spender's allowance to 0 and set the desired value afterwards:\n     *   https://github.com/ethereum/EIPs/issues/20#issuecomment-263524729\n     * @param _spender The address which will spend the funds.\n     * @param _value The amount of ETH to be spent.\n     */\n    function approve(address _spender, uint _value) public returns (bool) {\n        require(_spender != address(0), \"Spender address is 0\");\n\n        allowed[msg.sender][_spender] = _value;\n        emit Approval(msg.sender, _spender, _value);\n        return true;\n    }\n\n    /**\n     * @notice Transfer ETH from one address to another.\n     * @dev Note that while this function emits an Approval event, this is not required as per the specification.\n     * @param _from The address which you want to transfer ETH from\n     * @param _to The address which you want to transfer to\n     * @param _value the amount of ETH to be transferred\n     */\n    function transferFrom(address _from, address payable _to, uint _value) public returns (bool) {\n        allowed[_from][msg.sender] = allowed[_from][msg.sender].sub(_value);\n        emit Approval(_from, msg.sender, allowed[_from][msg.sender]);\n        _transfer(_from, _to, _value);\n        return true;\n    }\n\n    /**\n     * @notice Transfer ETH from one address to a wallet in CelerWallet contract.\n     * @param _from The address which you want to transfer ETH from\n     * @param _walletAddr CelerWallet address which should have a depositETH(bytes32) payable API\n     * @param _walletId id of the wallet you want to deposit ETH into\n     * @param _value the amount of ETH to be transferred\n     */\n    function transferToCelerWallet(\n        address _from,\n        address _walletAddr,\n        bytes32 _walletId,\n        uint _value\n    )\n        external\n        returns (bool)\n    {\n        allowed[_from][msg.sender] = allowed[_from][msg.sender].sub(_value);\n        emit Approval(_from, msg.sender, allowed[_from][msg.sender]);\n        balances[_from] = balances[_from].sub(_value);\n        emit Transfer(_from, _walletAddr, _value);\n\n        ICelerWallet wallet = ICelerWallet(_walletAddr);\n        wallet.depositETH.value(_value)(_walletId);\n        \n        return true;\n    }\n\n    /**\n     * @notice Increase the amount of ETH that an owner allowed to a spender.\n     * @dev approve should be called when allowed[msg.sender][spender] == 0. To increment\n     *   allowed value is better to use this function to avoid 2 calls (and wait until\n     *   the first transaction is mined)\n     *   From MonolithDAO Token.sol\n     *   Emits an Approval event.\n     * @param _spender The address which will spend the funds.\n     * @param _addedValue The amount of ETH to increase the allowance by.\n     */\n    function increaseAllowance(address _spender, uint _addedValue) public returns (bool) {\n        require(_spender != address(0), \"Spender address is 0\");\n\n        allowed[msg.sender][_spender] = allowed[msg.sender][_spender].add(_addedValue);\n        emit Approval(msg.sender, _spender, allowed[msg.sender][_spender]);\n        return true;\n    }\n\n    /**\n     * @notice Decrease the amount of ETH that an owner allowed to a spender.\n     * @dev approve should be called when allowed[msg.sender][spender] == 0. To decrement\n     *   allowed value is better to use this function to avoid 2 calls (and wait until\n     *   the first transaction is mined)\n     *   From MonolithDAO Token.sol\n     *   Emits an Approval event.\n     * @param _spender The address which will spend the funds.\n     * @param _subtractedValue The amount of ETH to decrease the allowance by.\n     */\n    function decreaseAllowance(address _spender, uint _subtractedValue) public returns (bool) {\n        require(_spender != address(0), \"Spender address is 0\");\n\n        allowed[msg.sender][_spender] = allowed[msg.sender][_spender].sub(_subtractedValue);\n        emit Approval(msg.sender, _spender, allowed[msg.sender][_spender]);\n        return true;\n    }\n\n    /**\n     * @notice Gets the balance of the specified address.\n     * @param _owner The address to query the balance of.\n     * @return An uint representing the amount owned by the passed address.\n     */\n    function balanceOf(address _owner) public view returns (uint) {\n        return balances[_owner];\n    }\n\n    /**\n     * @notice Function to check the amount of ETH that an owner allowed to a spender.\n     * @param _owner address The address which owns the funds.\n     * @param _spender address The address which will spend the funds.\n     * @return A uint specifying the amount of ETH still available for the spender.\n     */\n    function allowance(address _owner, address _spender) public view returns (uint) {\n        return allowed[_owner][_spender];\n    }\n\n    /**\n     * @notice Transfer ETH for a specified addresses\n     * @param _from The address to transfer from.\n     * @param _to The address to transfer to.\n     * @param _value The amount to be transferred.\n     */\n    function _transfer(address _from, address payable _to, uint _value) internal {\n        require(_to != address(0), \"To address is 0\");\n\n        balances[_from] = balances[_from].sub(_value);\n        emit Transfer(_from, _to, _value);\n        _to.transfer(_value);\n    }\n}\n",
  "sourcePath": "/Users/hashimototatsuki/keeper-layer2/contracts/cChannel-eth/EthPool.sol",
  "compiler": {
    "name": "solc",
    "version": "0.5.12+commit.7709ece9.Emscripten.clang"
  },
  "schemaVersion": "3.0.19",
  "updatedAt": "2019-12-17T07:54:09.463Z",
  "devdoc": {
    "details": "Originally based on code of ERC20 by openzeppelin-solidity v2.1.2  https://github.com/OpenZeppelin/openzeppelin-solidity/blob/v2.1.2/contracts/token/ERC20/ERC20.sol",
    "methods": {
      "allowance(address,address)": {
        "params": {
          "_owner": "address The address which owns the funds.",
          "_spender": "address The address which will spend the funds."
        },
        "return": "A uint specifying the amount of ETH still available for the spender."
      },
      "approve(address,uint256)": {
        "details": "Beware that changing an allowance with this method brings the risk that someone may use both the old  and the new allowance by unfortunate transaction ordering. One possible solution to mitigate this  race condition is to first reduce the spender's allowance to 0 and set the desired value afterwards:  https://github.com/ethereum/EIPs/issues/20#issuecomment-263524729",
        "params": {
          "_spender": "The address which will spend the funds.",
          "_value": "The amount of ETH to be spent."
        }
      },
      "balanceOf(address)": {
        "params": {
          "_owner": "The address to query the balance of."
        },
        "return": "An uint representing the amount owned by the passed address."
      },
      "decreaseAllowance(address,uint256)": {
        "details": "approve should be called when allowed[msg.sender][spender] == 0. To decrement  allowed value is better to use this function to avoid 2 calls (and wait until  the first transaction is mined)  From MonolithDAO Token.sol  Emits an Approval event.",
        "params": {
          "_spender": "The address which will spend the funds.",
          "_subtractedValue": "The amount of ETH to decrease the allowance by."
        }
      },
      "deposit(address)": {
        "params": {
          "_receiver": "the address ETH is deposited to "
        }
      },
      "increaseAllowance(address,uint256)": {
        "details": "approve should be called when allowed[msg.sender][spender] == 0. To increment  allowed value is better to use this function to avoid 2 calls (and wait until  the first transaction is mined)  From MonolithDAO Token.sol  Emits an Approval event.",
        "params": {
          "_addedValue": "The amount of ETH to increase the allowance by.",
          "_spender": "The address which will spend the funds."
        }
      },
      "transferFrom(address,address,uint256)": {
        "details": "Note that while this function emits an Approval event, this is not required as per the specification.",
        "params": {
          "_from": "The address which you want to transfer ETH from",
          "_to": "The address which you want to transfer to",
          "_value": "the amount of ETH to be transferred"
        }
      },
      "transferToCelerWallet(address,address,bytes32,uint256)": {
        "params": {
          "_from": "The address which you want to transfer ETH from",
          "_value": "the amount of ETH to be transferred",
          "_walletAddr": "CelerWallet address which should have a depositETH(bytes32) payable API",
          "_walletId": "id of the wallet you want to deposit ETH into"
        }
      },
      "withdraw(uint256)": {
        "params": {
          "_value": "the amount of ETH to withdraw"
        }
      }
    },
    "title": "ETH Pool providing an ERC20 like interface"
  },
  "userdoc": {
    "methods": {
      "allowance(address,address)": {
        "notice": "Function to check the amount of ETH that an owner allowed to a spender."
      },
      "approve(address,uint256)": {
        "notice": "Approve the passed address to spend the specified amount of ETH on behalf of msg.sender."
      },
      "balanceOf(address)": {
        "notice": "Gets the balance of the specified address."
      },
      "decreaseAllowance(address,uint256)": {
        "notice": "Decrease the amount of ETH that an owner allowed to a spender."
      },
      "deposit(address)": {
        "notice": "Deposit ETH to ETH Pool"
      },
      "increaseAllowance(address,uint256)": {
        "notice": "Increase the amount of ETH that an owner allowed to a spender."
      },
      "transferFrom(address,address,uint256)": {
        "notice": "Transfer ETH from one address to another."
      },
      "transferToCelerWallet(address,address,bytes32,uint256)": {
        "notice": "Transfer ETH from one address to a wallet in CelerWallet contract."
      },
      "withdraw(uint256)": {
        "notice": "Withdraw ETH from ETH Pool"
      }
    },
    "notice": "Implementation of an ERC20 like pool for native ETH."
  }
}