{
  "contractName": "PayRegistry",
  "abi": [
    {
      "anonymous": false,
      "inputs": [
        {
          "indexed": true,
          "internalType": "bytes32",
          "name": "payId",
          "type": "bytes32"
        },
        {
          "indexed": false,
          "internalType": "uint256",
          "name": "amount",
          "type": "uint256"
        },
        {
          "indexed": false,
          "internalType": "uint256",
          "name": "resolveDeadline",
          "type": "uint256"
        }
      ],
      "name": "PayInfoUpdate",
      "type": "event"
    },
    {
      "constant": true,
      "inputs": [
        {
          "internalType": "bytes32",
          "name": "",
          "type": "bytes32"
        }
      ],
      "name": "payInfoMap",
      "outputs": [
        {
          "internalType": "uint256",
          "name": "amount",
          "type": "uint256"
        },
        {
          "internalType": "uint256",
          "name": "resolveDeadline",
          "type": "uint256"
        }
      ],
      "payable": false,
      "stateMutability": "view",
      "type": "function"
    },
    {
      "constant": true,
      "inputs": [
        {
          "internalType": "bytes32",
          "name": "_payHash",
          "type": "bytes32"
        },
        {
          "internalType": "address",
          "name": "_setter",
          "type": "address"
        }
      ],
      "name": "calculatePayId",
      "outputs": [
        {
          "internalType": "bytes32",
          "name": "",
          "type": "bytes32"
        }
      ],
      "payable": false,
      "stateMutability": "pure",
      "type": "function"
    },
    {
      "constant": false,
      "inputs": [
        {
          "internalType": "bytes32",
          "name": "_payHash",
          "type": "bytes32"
        },
        {
          "internalType": "uint256",
          "name": "_amt",
          "type": "uint256"
        }
      ],
      "name": "setPayAmount",
      "outputs": [],
      "payable": false,
      "stateMutability": "nonpayable",
      "type": "function"
    },
    {
      "constant": false,
      "inputs": [
        {
          "internalType": "bytes32",
          "name": "_payHash",
          "type": "bytes32"
        },
        {
          "internalType": "uint256",
          "name": "_deadline",
          "type": "uint256"
        }
      ],
      "name": "setPayDeadline",
      "outputs": [],
      "payable": false,
      "stateMutability": "nonpayable",
      "type": "function"
    },
    {
      "constant": false,
      "inputs": [
        {
          "internalType": "bytes32",
          "name": "_payHash",
          "type": "bytes32"
        },
        {
          "internalType": "uint256",
          "name": "_amt",
          "type": "uint256"
        },
        {
          "internalType": "uint256",
          "name": "_deadline",
          "type": "uint256"
        }
      ],
      "name": "setPayInfo",
      "outputs": [],
      "payable": false,
      "stateMutability": "nonpayable",
      "type": "function"
    },
    {
      "constant": false,
      "inputs": [
        {
          "internalType": "bytes32[]",
          "name": "_payHashes",
          "type": "bytes32[]"
        },
        {
          "internalType": "uint256[]",
          "name": "_amts",
          "type": "uint256[]"
        }
      ],
      "name": "setPayAmounts",
      "outputs": [],
      "payable": false,
      "stateMutability": "nonpayable",
      "type": "function"
    },
    {
      "constant": false,
      "inputs": [
        {
          "internalType": "bytes32[]",
          "name": "_payHashes",
          "type": "bytes32[]"
        },
        {
          "internalType": "uint256[]",
          "name": "_deadlines",
          "type": "uint256[]"
        }
      ],
      "name": "setPayDeadlines",
      "outputs": [],
      "payable": false,
      "stateMutability": "nonpayable",
      "type": "function"
    },
    {
      "constant": false,
      "inputs": [
        {
          "internalType": "bytes32[]",
          "name": "_payHashes",
          "type": "bytes32[]"
        },
        {
          "internalType": "uint256[]",
          "name": "_amts",
          "type": "uint256[]"
        },
        {
          "internalType": "uint256[]",
          "name": "_deadlines",
          "type": "uint256[]"
        }
      ],
      "name": "setPayInfos",
      "outputs": [],
      "payable": false,
      "stateMutability": "nonpayable",
      "type": "function"
    },
    {
      "constant": true,
      "inputs": [
        {
          "internalType": "bytes32[]",
          "name": "_payIds",
          "type": "bytes32[]"
        },
        {
          "internalType": "uint256",
          "name": "_lastPayResolveDeadline",
          "type": "uint256"
        }
      ],
      "name": "getPayAmounts",
      "outputs": [
        {
          "internalType": "uint256[]",
          "name": "",
          "type": "uint256[]"
        }
      ],
      "payable": false,
      "stateMutability": "view",
      "type": "function"
    },
    {
      "constant": true,
      "inputs": [
        {
          "internalType": "bytes32",
          "name": "_payId",
          "type": "bytes32"
        }
      ],
      "name": "getPayInfo",
      "outputs": [
        {
          "internalType": "uint256",
          "name": "",
          "type": "uint256"
        },
        {
          "internalType": "uint256",
          "name": "",
          "type": "uint256"
        }
      ],
      "payable": false,
      "stateMutability": "view",
      "type": "function"
    }
  ],
  "bytecode": "0x608060405234801561001057600080fd5b50610b15806100206000396000f3fe608060405234801561001057600080fd5b506004361061009e5760003560e01c80638f13b2f5116100665780638f13b2f51461042357806396efe57314610440578063cdfa146b1461047e578063e1e35490146104a1578063f8fb012f146104ca5761009e565b80630daddd34146100a3578063204a95ee1461016357806327b0e05814610221578063414f7e0e146102575780637cac39cf14610365575b600080fd5b610161600480360360408110156100b957600080fd5b810190602081018135600160201b8111156100d357600080fd5b8201836020820111156100e557600080fd5b803590602001918460208302840111600160201b8311171561010657600080fd5b919390929091602081019035600160201b81111561012357600080fd5b82018360208201111561013557600080fd5b803590602001918460208302840111600160201b8311171561015657600080fd5b5090925090506104ed565b005b6101616004803603604081101561017957600080fd5b810190602081018135600160201b81111561019357600080fd5b8201836020820111156101a557600080fd5b803590602001918460208302840111600160201b831117156101c657600080fd5b919390929091602081019035600160201b8111156101e357600080fd5b8201836020820111156101f557600080fd5b803590602001918460208302840111600160201b8311171561021657600080fd5b5090925090506105dd565b61023e6004803603602081101561023757600080fd5b50356106b5565b6040805192835260208301919091528051918290030190f35b6101616004803603606081101561026d57600080fd5b810190602081018135600160201b81111561028757600080fd5b82018360208201111561029957600080fd5b803590602001918460208302840111600160201b831117156102ba57600080fd5b919390929091602081019035600160201b8111156102d757600080fd5b8201836020820111156102e957600080fd5b803590602001918460208302840111600160201b8311171561030a57600080fd5b919390929091602081019035600160201b81111561032757600080fd5b82018360208201111561033957600080fd5b803590602001918460208302840111600160201b8311171561035a57600080fd5b5090925090506106cf565b6103d36004803603604081101561037b57600080fd5b810190602081018135600160201b81111561039557600080fd5b8201836020820111156103a757600080fd5b803590602001918460208302840111600160201b831117156103c857600080fd5b9193509150356107e5565b60408051602080825283518183015283519192839290830191858101910280838360005b8381101561040f5781810151838201526020016103f7565b505050509050019250505060405180910390f35b61023e6004803603602081101561043957600080fd5b503561096d565b61046c6004803603604081101561045657600080fd5b50803590602001356001600160a01b0316610986565b60408051918252519081900360200190f35b6101616004803603604081101561049457600080fd5b50803590602001356109c5565b610161600480360360608110156104b757600080fd5b5080359060208101359060400135610a19565b610161600480360360408110156104e057600080fd5b5080359060200135610a6f565b828114610538576040805162461bcd60e51b8152602060048201526014602482015273098cadccee8d0e640c8de40dcdee840dac2e8c6d60631b604482015290519081900360640190fd5b600033815b858110156105d45761056187878381811061055457fe5b9050602002013583610986565b600081815260208190526040902090935085858381811061057e57fe5b602002919091013560018301555080548490600080516020610ac1833981519152908888868181106105ac57fe5b604080519485526020918202939093013590840152508051918290030190a25060010161053d565b50505050505050565b828114610628576040805162461bcd60e51b8152602060048201526014602482015273098cadccee8d0e640c8de40dcdee840dac2e8c6d60631b604482015290519081900360640190fd5b600033815b858110156105d45761064487878381811061055457fe5b600081815260208190526040902090935085858381811061066157fe5b602002919091013582555083600080516020610ac183398151915287878581811061068857fe5b6001860154604080516020938402959095013585529184015280519283900301919050a25060010161062d565b600090815260208190526040902080546001909101549091565b84831480156106dd57508481145b610725576040805162461bcd60e51b8152602060048201526014602482015273098cadccee8d0e640c8de40dcdee840dac2e8c6d60631b604482015290519081900360640190fd5b600033815b878110156107da5761074189898381811061055457fe5b600081815260208190526040902090935087878381811061075e57fe5b602002919091013582555085858381811061077557fe5b602002919091013560018301555083600080516020610ac183398151915289898581811061079f57fe5b905060200201358888868181106107b257fe5b604080519485526020918202939093013590840152508051918290030190a25060010161072a565b505050505050505050565b60608084849050604051908082528060200260200182016040528015610815578160200160208202803883390190505b50905060005b848110156109645760008087878481811061083257fe5b90506020020135815260200190815260200160002060010154600014156108a7578343116108a2576040805162461bcd60e51b815260206004820152601860248201527714185e5b595b9d081a5cc81b9bdd08199a5b985b1a5e995960421b604482015290519081900360640190fd5b61091d565b6000808787848181106108b657fe5b90506020020135815260200190815260200160002060010154431161091d576040805162461bcd60e51b815260206004820152601860248201527714185e5b595b9d081a5cc81b9bdd08199a5b985b1a5e995960421b604482015290519081900360640190fd5b60008087878481811061092c57fe5b9050602002013581526020019081526020016000206000015482828151811061095157fe5b602090810291909101015260010161081b565b50949350505050565b6000602081905290815260409020805460019091015482565b6040805160208082019490945260609290921b6bffffffffffffffffffffffff1916828201528051808303603401815260549092019052805191012090565b60006109d18333610986565b6000818152602081815260409182902060018101869055805483519081529182018690528251939450928492600080516020610ac1833981519152928290030190a250505050565b6000610a258433610986565b600081815260208181526040918290208681556001810186905582518781529182018690528251939450928492600080516020610ac1833981519152928290030190a25050505050565b6000610a7b8333610986565b6000818152602081815260409182902085815560018101548351878152928301528251939450928492600080516020610ac1833981519152928290030190a25050505056fe9e9acc6d43d5d7bd6fa143ef0ee1d224cfe2bb010b7e3acf44878d6314ebc607a265627a7a723158202a5a503966401da2d72adf8754c48d619412151234e7df88bf7c8ba4344fc01164736f6c634300050c0032",
  "source": "pragma solidity ^0.5.1;\n\nimport \"./lib/interface/IPayRegistry.sol\";\n\n/**\n * @title Pay Registry contract\n * @notice Implementation of a global registry to record payment results\n *   reported by different PayResolvers.\n */\ncontract PayRegistry is IPayRegistry {\n    struct PayInfo {\n        uint amount;\n        uint resolveDeadline;\n    }\n\n    // bytes32 payId => PayInfo payInfo\n    mapping(bytes32 => PayInfo) public payInfoMap;\n\n    /**\n     * @notice Calculate pay id\n     * @param _payHash hash of serialized condPay\n     * @param _setter payment info setter, i.e. pay resolver\n     * @return calculated pay id\n     */\n    function calculatePayId(bytes32 _payHash, address _setter) public pure returns(bytes32) {\n        return keccak256(abi.encodePacked(_payHash, _setter));\n    }\n\n    function setPayAmount(bytes32 _payHash, uint _amt) external {\n        bytes32 payId = calculatePayId(_payHash, msg.sender);\n        PayInfo storage payInfo = payInfoMap[payId];\n        payInfo.amount = _amt;\n\n        emit PayInfoUpdate(payId, _amt, payInfo.resolveDeadline);\n    }\n\n    function setPayDeadline(bytes32 _payHash, uint _deadline) external {\n        bytes32 payId = calculatePayId(_payHash, msg.sender);\n        PayInfo storage payInfo = payInfoMap[payId];\n        payInfo.resolveDeadline = _deadline;\n\n        emit PayInfoUpdate(payId, payInfo.amount, _deadline);\n    }\n\n    function setPayInfo(bytes32 _payHash, uint _amt, uint _deadline) external {\n        bytes32 payId = calculatePayId(_payHash, msg.sender);\n        PayInfo storage payInfo = payInfoMap[payId];\n        payInfo.amount = _amt;\n        payInfo.resolveDeadline = _deadline;\n\n        emit PayInfoUpdate(payId, _amt, _deadline);\n    }\n\n    function setPayAmounts(bytes32[] calldata _payHashes, uint[] calldata _amts) external {\n        require(_payHashes.length == _amts.length, \"Lengths do not match\");\n\n        bytes32 payId;\n        address msgSender = msg.sender;\n        for (uint i = 0; i < _payHashes.length; i++) {\n            payId = calculatePayId(_payHashes[i], msgSender);\n            PayInfo storage payInfo = payInfoMap[payId];\n            payInfo.amount = _amts[i];\n\n            emit PayInfoUpdate(payId, _amts[i], payInfo.resolveDeadline);\n        }\n    }\n\n    function setPayDeadlines(bytes32[] calldata _payHashes, uint[] calldata _deadlines) external {\n        require(_payHashes.length == _deadlines.length, \"Lengths do not match\");\n\n        bytes32 payId;\n        address msgSender = msg.sender;\n        for (uint i = 0; i < _payHashes.length; i++) {\n            payId = calculatePayId(_payHashes[i], msgSender);\n            PayInfo storage payInfo = payInfoMap[payId];\n            payInfo.resolveDeadline = _deadlines[i];\n\n            emit PayInfoUpdate(payId, payInfo.amount, _deadlines[i]);\n        }\n    }\n\n    function setPayInfos(bytes32[] calldata _payHashes, uint[] calldata _amts, uint[] calldata _deadlines) external {\n        require(\n            _payHashes.length == _amts.length && _payHashes.length == _deadlines.length,\n            \"Lengths do not match\"\n        );\n\n        bytes32 payId;\n        address msgSender = msg.sender;\n        for (uint i = 0; i < _payHashes.length; i++) {\n            payId = calculatePayId(_payHashes[i], msgSender);\n            PayInfo storage payInfo = payInfoMap[payId];\n            payInfo.amount = _amts[i];\n            payInfo.resolveDeadline = _deadlines[i];\n\n            emit PayInfoUpdate(payId, _amts[i], _deadlines[i]);\n        }\n    }\n\n    /**\n     * @notice Get the amounts of a list of queried pays\n     * @dev pay results must have been unchangable before calling this function.\n     *   This API is for CelerLedger\n     * @param _payIds ids of queried pays\n     * @param _lastPayResolveDeadline the last pay resolve deadline of all queried pays\n     * @return queried pay amounts\n     */\n    function getPayAmounts(\n        bytes32[] calldata _payIds,\n        uint _lastPayResolveDeadline\n    )\n        external view returns(uint[] memory)\n    {\n        uint[] memory amounts = new uint[](_payIds.length);\n        for (uint i = 0; i < _payIds.length; i++) {\n            if (payInfoMap[_payIds[i]].resolveDeadline == 0) {\n                // should pass last pay resolve deadline if never resolved\n                require(block.number > _lastPayResolveDeadline, \"Payment is not finalized\");\n            } else {\n                // should pass resolve deadline if resolved\n                require(\n                    block.number > payInfoMap[_payIds[i]].resolveDeadline,\n                    \"Payment is not finalized\"\n                );\n            }\n            amounts[i] = payInfoMap[_payIds[i]].amount;\n        }\n        return amounts;\n    }\n\n    function getPayInfo(bytes32 _payId) external view returns(uint, uint) {\n        PayInfo storage payInfo = payInfoMap[_payId];\n        return (payInfo.amount, payInfo.resolveDeadline);\n    }\n}\n",
  "sourcePath": "/Users/hashimototatsuki/keeper-layer2/contracts/cChannel-eth/PayRegistry.sol",
  "compiler": {
    "name": "solc",
    "version": "0.5.12+commit.7709ece9.Emscripten.clang"
  },
  "schemaVersion": "3.0.19",
  "updatedAt": "2019-12-17T07:54:09.473Z",
  "devdoc": {
    "methods": {
      "calculatePayId(bytes32,address)": {
        "params": {
          "_payHash": "hash of serialized condPay",
          "_setter": "payment info setter, i.e. pay resolver"
        },
        "return": "calculated pay id"
      },
      "getPayAmounts(bytes32[],uint256)": {
        "details": "pay results must have been unchangable before calling this function.  This API is for CelerLedger",
        "params": {
          "_lastPayResolveDeadline": "the last pay resolve deadline of all queried pays",
          "_payIds": "ids of queried pays"
        },
        "return": "queried pay amounts"
      }
    },
    "title": "Pay Registry contract"
  },
  "userdoc": {
    "methods": {
      "calculatePayId(bytes32,address)": {
        "notice": "Calculate pay id"
      },
      "getPayAmounts(bytes32[],uint256)": {
        "notice": "Get the amounts of a list of queried pays"
      }
    },
    "notice": "Implementation of a global registry to record payment results  reported by different PayResolvers."
  }
}