{
  "contractName": "RouterRegistry",
  "abi": [
    {
      "anonymous": false,
      "inputs": [
        {
          "indexed": true,
          "internalType": "enum IRouterRegistry.RouterOperation",
          "name": "op",
          "type": "uint8"
        },
        {
          "indexed": true,
          "internalType": "address",
          "name": "routerAddress",
          "type": "address"
        }
      ],
      "name": "RouterUpdated",
      "type": "event"
    },
    {
      "constant": true,
      "inputs": [
        {
          "internalType": "address",
          "name": "",
          "type": "address"
        }
      ],
      "name": "routerInfo",
      "outputs": [
        {
          "internalType": "uint256",
          "name": "",
          "type": "uint256"
        }
      ],
      "payable": false,
      "stateMutability": "view",
      "type": "function"
    },
    {
      "constant": false,
      "inputs": [],
      "name": "registerRouter",
      "outputs": [],
      "payable": false,
      "stateMutability": "nonpayable",
      "type": "function"
    },
    {
      "constant": false,
      "inputs": [],
      "name": "deregisterRouter",
      "outputs": [],
      "payable": false,
      "stateMutability": "nonpayable",
      "type": "function"
    },
    {
      "constant": false,
      "inputs": [],
      "name": "refreshRouter",
      "outputs": [],
      "payable": false,
      "stateMutability": "nonpayable",
      "type": "function"
    }
  ],
  "bytecode": "0x608060405234801561001057600080fd5b5061027c806100206000396000f3fe608060405234801561001057600080fd5b506004361061004c5760003560e01c806324f277d2146100515780632ff0282b1461005b5780637880945614610063578063d1cf70d11461009b575b600080fd5b6100596100a3565b005b610059610143565b6100896004803603602081101561007957600080fd5b50356001600160a01b03166101bd565b60408051918252519081900360200190f35b6100596101cf565b3360009081526020819052604090205415610105576040805162461bcd60e51b815260206004820152601d60248201527f526f75746572206164647265737320616c726561647920657869737473000000604482015290519081900360640190fd5b3360008181526020819052604081204390555b6040517fed739f5df64012854c2039ba144af8e3af26211fc7f10a959c6a592ae58c449190600090a3565b336000908152602081905260409020546101a4576040805162461bcd60e51b815260206004820152601d60248201527f526f75746572206164647265737320646f6573206e6f74206578697374000000604482015290519081900360640190fd5b3360008181526020819052604090204390556002610118565b60006020819052908152604090205481565b33600090815260208190526040902054610230576040805162461bcd60e51b815260206004820152601d60248201527f526f75746572206164647265737320646f6573206e6f74206578697374000000604482015290519081900360640190fd5b33600081815260208190526040812055600161011856fea265627a7a723158204df16617b71477cdeac4bc5b4dfcbbded5ac23ddacea83393b284eea8ae3dfc664736f6c634300050c0032",
  "source": "pragma solidity ^0.5.5;\n\nimport \"./lib/interface/IRouterRegistry.sol\";\n\n/**\n * @title Router Registry contract for external routers to join the Celer Network\n * @notice Implementation of a global registry to enable external routers to join\n */\ncontract RouterRegistry is IRouterRegistry {\n    // mapping to store the registered routers address as key \n    // and the lastest registered/refreshed block number as value\n    mapping(address => uint) public routerInfo;\n\n    /**\n     * @notice An external router could register to join the Celer Network\n     */\n    function registerRouter() external {\n        require(routerInfo[msg.sender] == 0, \"Router address already exists\");\n\n        routerInfo[msg.sender] = block.number;\n\n        emit RouterUpdated(RouterOperation.Add, msg.sender);\n    }\n\n    /**\n     * @notice An in-network router could deregister to leave the network\n     */\n    function deregisterRouter() external {\n        require(routerInfo[msg.sender] != 0, \"Router address does not exist\");\n\n        delete routerInfo[msg.sender];\n\n        emit RouterUpdated(RouterOperation.Remove, msg.sender);\n    }\n\n    /**\n     * @notice Refresh the existed router's block number\n     */\n    function refreshRouter() external {\n        require(routerInfo[msg.sender] != 0, \"Router address does not exist\");\n\n        routerInfo[msg.sender] = block.number;\n\n        emit RouterUpdated(RouterOperation.Refresh, msg.sender);\n    }\n}",
  "sourcePath": "/Users/hashimototatsuki/keeper-channel/contracts/cChannel-eth/RouterRegistry.sol",
  "compiler": {
    "name": "solc",
    "version": "0.5.12+commit.7709ece9.Emscripten.clang"
  },
  "schemaVersion": "3.0.19",
  "updatedAt": "2019-12-15T12:23:50.377Z",
  "devdoc": {
    "methods": {},
    "title": "Router Registry contract for external routers to join the Celer Network"
  },
  "userdoc": {
    "methods": {
      "deregisterRouter()": {
        "notice": "An in-network router could deregister to leave the network"
      },
      "refreshRouter()": {
        "notice": "Refresh the existed router's block number"
      },
      "registerRouter()": {
        "notice": "An external router could register to join the Celer Network"
      }
    },
    "notice": "Implementation of a global registry to enable external routers to join"
  }
}